{
  "contractName": "AffiliateSubcontract",
  "abi": [
    {
      "inputs": [
        {
          "internalType": "address payable",
          "name": "_affiliate",
          "type": "address"
        },
        {
          "internalType": "uint256",
          "name": "subcontractDuration",
          "type": "uint256"
        },
        {
          "internalType": "uint256",
          "name": "sellerGracePeriodDuration",
          "type": "uint256"
        },
        {
          "internalType": "uint256",
          "name": "_startTime",
          "type": "uint256"
        },
        {
          "internalType": "uint256",
          "name": "_indexNumber",
          "type": "uint256"
        }
      ],
      "stateMutability": "payable",
      "type": "constructor"
    },
    {
      "anonymous": false,
      "inputs": [
        {
          "indexed": false,
          "internalType": "uint256",
          "name": "currentTotal",
          "type": "uint256"
        },
        {
          "indexed": false,
          "internalType": "uint256",
          "name": "id",
          "type": "uint256"
        }
      ],
      "name": "CurrentTotalUpdatedEvent",
      "type": "event"
    },
    {
      "stateMutability": "payable",
      "type": "fallback"
    },
    {
      "inputs": [],
      "name": "affiliate",
      "outputs": [
        {
          "internalType": "address payable",
          "name": "",
          "type": "address"
        }
      ],
      "stateMutability": "view",
      "type": "function"
    },
    {
      "inputs": [],
      "name": "affiliateResolved",
      "outputs": [
        {
          "internalType": "bool",
          "name": "",
          "type": "bool"
        }
      ],
      "stateMutability": "view",
      "type": "function"
    },
    {
      "inputs": [],
      "name": "currentTotal",
      "outputs": [
        {
          "internalType": "uint256",
          "name": "",
          "type": "uint256"
        }
      ],
      "stateMutability": "view",
      "type": "function"
    },
    {
      "inputs": [],
      "name": "expiration",
      "outputs": [
        {
          "internalType": "uint256",
          "name": "",
          "type": "uint256"
        }
      ],
      "stateMutability": "view",
      "type": "function"
    },
    {
      "inputs": [],
      "name": "gracePeriodExpired",
      "outputs": [
        {
          "internalType": "bool",
          "name": "",
          "type": "bool"
        }
      ],
      "stateMutability": "view",
      "type": "function"
    },
    {
      "inputs": [],
      "name": "indexNumber",
      "outputs": [
        {
          "internalType": "uint256",
          "name": "",
          "type": "uint256"
        }
      ],
      "stateMutability": "view",
      "type": "function"
    },
    {
      "inputs": [],
      "name": "nextSubcontract",
      "outputs": [
        {
          "internalType": "address",
          "name": "",
          "type": "address"
        }
      ],
      "stateMutability": "view",
      "type": "function"
    },
    {
      "inputs": [],
      "name": "owner",
      "outputs": [
        {
          "internalType": "address payable",
          "name": "",
          "type": "address"
        }
      ],
      "stateMutability": "view",
      "type": "function"
    },
    {
      "inputs": [],
      "name": "sellerGracePeriodEnd",
      "outputs": [
        {
          "internalType": "uint256",
          "name": "",
          "type": "uint256"
        }
      ],
      "stateMutability": "view",
      "type": "function"
    },
    {
      "inputs": [],
      "name": "startTime",
      "outputs": [
        {
          "internalType": "uint256",
          "name": "",
          "type": "uint256"
        }
      ],
      "stateMutability": "view",
      "type": "function"
    },
    {
      "inputs": [],
      "name": "totalLastUpdated",
      "outputs": [
        {
          "internalType": "uint256",
          "name": "",
          "type": "uint256"
        }
      ],
      "stateMutability": "view",
      "type": "function"
    },
    {
      "stateMutability": "payable",
      "type": "receive"
    },
    {
      "inputs": [
        {
          "internalType": "address",
          "name": "next",
          "type": "address"
        }
      ],
      "name": "setNextSubcontract",
      "outputs": [],
      "stateMutability": "nonpayable",
      "type": "function"
    },
    {
      "inputs": [],
      "name": "updateCurrentTotal",
      "outputs": [],
      "stateMutability": "nonpayable",
      "type": "function"
    },
    {
      "inputs": [
        {
          "internalType": "uint256",
          "name": "_currentTotal",
          "type": "uint256"
        },
        {
          "internalType": "uint256",
          "name": "_id",
          "type": "uint256"
        }
      ],
      "name": "callback",
      "outputs": [],
      "stateMutability": "nonpayable",
      "type": "function"
    },
    {
      "inputs": [],
      "name": "affiliateResolve",
      "outputs": [],
      "stateMutability": "nonpayable",
      "type": "function"
    },
    {
      "inputs": [
        {
          "internalType": "address payable",
          "name": "seller",
          "type": "address"
        }
      ],
      "name": "sellerResolve",
      "outputs": [],
      "stateMutability": "nonpayable",
      "type": "function"
    },
    {
      "inputs": [
        {
          "internalType": "address payable",
          "name": "bs",
          "type": "address"
        }
      ],
      "name": "affiliateCleanup",
      "outputs": [],
      "stateMutability": "nonpayable",
      "type": "function"
    }
  ],
  "bytecode": "0x61014060405260008060006101000a81548173ffffffffffffffffffffffffffffffffffffffff021916908373ffffffffffffffffffffffffffffffffffffffff16021790555060008060146101000a81548160ff02191690831515021790555060008060156101000a81548160ff021916908315150217905550604051611b93380380611b93833981810160405260a081101561009c57600080fd5b8101908080519060200190929190805190602001909291908051906020019092919080519060200190929190805190602001909291905050503373ffffffffffffffffffffffffffffffffffffffff1660808173ffffffffffffffffffffffffffffffffffffffff1660601b815250508473ffffffffffffffffffffffffffffffffffffffff1660a08173ffffffffffffffffffffffffffffffffffffffff1660601b8152505083820160c08181525050828483010160e08181525050816101208181525050806101008181525050505050505060805160601c60a05160601c60c05160e051610100516101205161196b6102286000398061080952806116b25250806107e55280610fb1525080610864528061113752806112d45250806104d55280610d0e5280611031528061157f52806115af5250806104b152806107885280610c6952806110ae528061146d52806116915250806104f9528061059e52806108405280610888528061092d5280610a5b5280610e11528061122f52806115d5525061196b6000f3fe6080604052600436106101025760003560e01c806378e9792511610095578063ac44482911610064578063ac4448291461037b578063b5d73ba4146103cc578063c610384314610411578063d9d4503814610428578063ef8e26a31461047957610109565b806378e97925146102b757806388fd65cc146102e25780638da5cb5b1461030f578063a1b938541461035057610109565b80634665096d116100d15780634665096d146101cf57806356f225e8146101fa578063584215b51461024b578063672bf6051461028c57610109565b80630bc1abe11461010b5780633741f9f6146101385780633da8bfc91461016357806345e05f431461018e57610109565b3661010957005b005b34801561011757600080fd5b50610120610490565b60405180821515815260200191505060405180910390f35b34801561014457600080fd5b5061014d6104a3565b6040518082815260200191505060405180910390f35b34801561016f57600080fd5b506101786104a9565b6040518082815260200191505060405180910390f35b34801561019a57600080fd5b506101a36104af565b604051808273ffffffffffffffffffffffffffffffffffffffff16815260200191505060405180910390f35b3480156101db57600080fd5b506101e46104d3565b6040518082815260200191505060405180910390f35b34801561020657600080fd5b506102496004803603602081101561021d57600080fd5b81019080803573ffffffffffffffffffffffffffffffffffffffff1690602001909291905050506104f7565b005b34801561025757600080fd5b506102606107bf565b604051808273ffffffffffffffffffffffffffffffffffffffff16815260200191505060405180910390f35b34801561029857600080fd5b506102a16107e3565b6040518082815260200191505060405180910390f35b3480156102c357600080fd5b506102cc610807565b6040518082815260200191505060405180910390f35b3480156102ee57600080fd5b506102f761082b565b60405180821515815260200191505060405180910390f35b34801561031b57600080fd5b5061032461083e565b604051808273ffffffffffffffffffffffffffffffffffffffff16815260200191505060405180910390f35b34801561035c57600080fd5b50610365610862565b6040518082815260200191505060405180910390f35b34801561038757600080fd5b506103ca6004803603602081101561039e57600080fd5b81019080803573ffffffffffffffffffffffffffffffffffffffff169060200190929190505050610886565b005b3480156103d857600080fd5b5061040f600480360360408110156103ef57600080fd5b810190808035906020019092919080359060200190929190505050610a59565b005b34801561041d57600080fd5b50610426610c67565b005b34801561043457600080fd5b506104776004803603602081101561044b57600080fd5b81019080803573ffffffffffffffffffffffffffffffffffffffff16906020019092919050505061122d565b005b34801561048557600080fd5b5061048e61146b565b005b600060149054906101000a900460ff1681565b60025481565b60015481565b7f000000000000000000000000000000000000000000000000000000000000000081565b7f000000000000000000000000000000000000000000000000000000000000000081565b7f000000000000000000000000000000000000000000000000000000000000000073ffffffffffffffffffffffffffffffffffffffff163373ffffffffffffffffffffffffffffffffffffffff161461059b576040517f08c379a000000000000000000000000000000000000000000000000000000000815260040180806020018281038252602c81526020018061179a602c913960400191505060405180910390fd5b427f000000000000000000000000000000000000000000000000000000000000000073ffffffffffffffffffffffffffffffffffffffff1663a814001f6040518163ffffffff1660e01b815260040160206040518083038186803b15801561060257600080fd5b505afa158015610616573d6000803e3d6000fd5b505050506040513d602081101561062c57600080fd5b8101908080519060200190929190505050116106b0576040517f08c379a00000000000000000000000000000000000000000000000000000000081526004018080602001828103825260168152602001807f4d61696e20636f6e747261637420657870697265642e0000000000000000000081525060200191505060405180910390fd5b8073ffffffffffffffffffffffffffffffffffffffff166388fd65cc6040518163ffffffff1660e01b815260040160206040518083038186803b1580156106f657600080fd5b505afa15801561070a573d6000803e3d6000fd5b505050506040513d602081101561072057600080fd5b8101908080519060200190929190505050610786576040517f08c379a000000000000000000000000000000000000000000000000000000000815260040180806020018281038252604f81526020018061182d604f913960600191505060405180910390fd5b7f000000000000000000000000000000000000000000000000000000000000000073ffffffffffffffffffffffffffffffffffffffff16ff5b60008054906101000a900473ffffffffffffffffffffffffffffffffffffffff1681565b7f000000000000000000000000000000000000000000000000000000000000000081565b7f000000000000000000000000000000000000000000000000000000000000000081565b600060159054906101000a900460ff1681565b7f000000000000000000000000000000000000000000000000000000000000000081565b7f000000000000000000000000000000000000000000000000000000000000000081565b7f000000000000000000000000000000000000000000000000000000000000000073ffffffffffffffffffffffffffffffffffffffff163373ffffffffffffffffffffffffffffffffffffffff161461092a576040517f08c379a000000000000000000000000000000000000000000000000000000000815260040180806020018281038252602c81526020018061179a602c913960400191505060405180910390fd5b427f000000000000000000000000000000000000000000000000000000000000000073ffffffffffffffffffffffffffffffffffffffff1663a814001f6040518163ffffffff1660e01b815260040160206040518083038186803b15801561099157600080fd5b505afa1580156109a5573d6000803e3d6000fd5b505050506040513d60208110156109bb57600080fd5b81019080805190602001909291905050501115610a40576040517f08c379a000000000000000000000000000000000000000000000000000000000815260040180806020018281038252601e8152602001807f4d61696e20636f6e7472616374206e6f742079657420657870697265642e000081525060200191505060405180910390fd5b8073ffffffffffffffffffffffffffffffffffffffff16ff5b7f000000000000000000000000000000000000000000000000000000000000000073ffffffffffffffffffffffffffffffffffffffff16637dc0d1d06040518163ffffffff1660e01b815260040160206040518083038186803b158015610abf57600080fd5b505afa158015610ad3573d6000803e3d6000fd5b505050506040513d6020811015610ae957600080fd5b810190808051906020019092919050505073ffffffffffffffffffffffffffffffffffffffff163373ffffffffffffffffffffffffffffffffffffffff1614610b7d576040517f08c379a00000000000000000000000000000000000000000000000000000000081526004018080602001828103825260258152602001806118086025913960400191505060405180910390fd5b6003600082815260200190815260200160002060009054906101000a900460ff16610bf3576040517f08c379a000000000000000000000000000000000000000000000000000000000815260040180806020018281038252602781526020018061190f6027913960400191505060405180910390fd5b81600181905550426002819055506003600082815260200190815260200160002060006101000a81549060ff02191690557fbb982b83e84d8c224d47d0ffbe2ed070a3574bc4babb08180953e2d34b6789a98282604051808381526020018281526020019250505060405180910390a15050565b7f000000000000000000000000000000000000000000000000000000000000000073ffffffffffffffffffffffffffffffffffffffff163373ffffffffffffffffffffffffffffffffffffffff1614610d0b576040517f08c379a000000000000000000000000000000000000000000000000000000000815260040180806020018281038252602881526020018061187c6028913960400191505060405180910390fd5b427f00000000000000000000000000000000000000000000000000000000000000001115610da1576040517f08c379a000000000000000000000000000000000000000000000000000000000815260040180806020018281038252601c8152602001807f537562636f6e7472616374206e6f742079657420657870697265642e0000000081525060200191505060405180910390fd5b60001515600060149054906101000a900460ff16151514610e0d576040517f08c379a00000000000000000000000000000000000000000000000000000000081526004018080602001828103825260428152602001806117c66042913960600191505060405180910390fd5b60007f00000000000000000000000000000000000000000000000000000000000000009050428173ffffffffffffffffffffffffffffffffffffffff1663a814001f6040518163ffffffff1660e01b815260040160206040518083038186803b158015610e7957600080fd5b505afa158015610e8d573d6000803e3d6000fd5b505050506040513d6020811015610ea357600080fd5b810190808051906020019092919050505011610f27576040517f08c379a00000000000000000000000000000000000000000000000000000000081526004018080602001828103825260168152602001807f4d61696e20636f6e747261637420657870697265642e0000000000000000000081525060200191505060405180910390fd5b60008173ffffffffffffffffffffffffffffffffffffffff1663c4b641ab6040518163ffffffff1660e01b815260040160206040518083038186803b158015610f6f57600080fd5b505afa158015610f83573d6000803e3d6000fd5b505050506040513d6020811015610f9957600080fd5b810190808051906020019092919050505090508060017f000000000000000000000000000000000000000000000000000000000000000001148061102a5750600073ffffffffffffffffffffffffffffffffffffffff1660008054906101000a900473ffffffffffffffffffffffffffffffffffffffff1673ffffffffffffffffffffffffffffffffffffffff1614155b15611134577f000000000000000000000000000000000000000000000000000000000000000060025410156110aa576040517f08c379a000000000000000000000000000000000000000000000000000000000815260040180806020018281038252604a8152602001806118c5604a913960600191505060405180910390fd5b60007f000000000000000000000000000000000000000000000000000000000000000073ffffffffffffffffffffffffffffffffffffffff166108fc829081150290604051600060405180830381858888f19350505050158015611112573d6000803e3d6000fd5b506001600060146101000a81548160ff02191690831515021790555050611229565b427f000000000000000000000000000000000000000000000000000000000000000011156111ad576040517f08c379a00000000000000000000000000000000000000000000000000000000081526004018080602001828103825260218152602001806118a46021913960400191505060405180910390fd5b6001600060156101000a81548160ff0219169083151502179055508173ffffffffffffffffffffffffffffffffffffffff1663c61038436040518163ffffffff1660e01b8152600401600060405180830381600087803b15801561121057600080fd5b505af1158015611224573d6000803e3d6000fd5b505050505b5050565b7f000000000000000000000000000000000000000000000000000000000000000073ffffffffffffffffffffffffffffffffffffffff163373ffffffffffffffffffffffffffffffffffffffff16146112d1576040517f08c379a000000000000000000000000000000000000000000000000000000000815260040180806020018281038252602c81526020018061179a602c913960400191505060405180910390fd5b427f000000000000000000000000000000000000000000000000000000000000000011611366576040517f08c379a000000000000000000000000000000000000000000000000000000000815260040180806020018281038252601b8152602001807f53656c6c657220677261636520706572696f64207061737365642e000000000081525060200191505060405180910390fd5b600073ffffffffffffffffffffffffffffffffffffffff1660008054906101000a900473ffffffffffffffffffffffffffffffffffffffff1673ffffffffffffffffffffffffffffffffffffffff1614611428576040517f08c379a000000000000000000000000000000000000000000000000000000000815260040180806020018281038252601d8152602001807f4e65787420737562636f6e747261637420616c7265616479207365742e00000081525060200191505060405180910390fd5b806000806101000a81548173ffffffffffffffffffffffffffffffffffffffff021916908373ffffffffffffffffffffffffffffffffffffffff16021790555050565b7f000000000000000000000000000000000000000000000000000000000000000073ffffffffffffffffffffffffffffffffffffffff163373ffffffffffffffffffffffffffffffffffffffff161461150f576040517f08c379a000000000000000000000000000000000000000000000000000000000815260040180806020018281038252602881526020018061187c6028913960400191505060405180910390fd5b60001515600060149054906101000a900460ff1615151461157b576040517f08c379a00000000000000000000000000000000000000000000000000000000081526004018080602001828103825260428152602001806117c66042913960600191505060405180910390fd5b60007f00000000000000000000000000000000000000000000000000000000000000004210156115ad574290506115d1565b7f000000000000000000000000000000000000000000000000000000000000000090505b60007f000000000000000000000000000000000000000000000000000000000000000073ffffffffffffffffffffffffffffffffffffffff16637dc0d1d06040518163ffffffff1660e01b815260040160206040518083038186803b15801561163957600080fd5b505afa15801561164d573d6000803e3d6000fd5b505050506040513d602081101561166357600080fd5b810190808051906020019092919050505073ffffffffffffffffffffffffffffffffffffffff16636cd18ce77f00000000000000000000000000000000000000000000000000000000000000007f0000000000000000000000000000000000000000000000000000000000000000856040518463ffffffff1660e01b8152600401808473ffffffffffffffffffffffffffffffffffffffff1681526020018381526020018281526020019350505050602060405180830381600087803b15801561172c57600080fd5b505af1158015611740573d6000803e3d6000fd5b505050506040513d602081101561175657600080fd5b8101908080519060200190929190505050905060016003600083815260200190815260200160002060006101000a81548160ff021916908315150217905550505056fe4f6e6c7920746865206d61696e20636f6e74726163742063616e2063616c6c2074686973206d6574686f642e416666696c6961746520616c72656164792063616c6c6564207265736f6c7665207375636365737366756c6c79206f6e207468697320737562636f6e74726163742e4f6e6c7920746865206f7261636c652063616e2063616c6c2074686973206d6574686f642e50726f766964656420737562636f6e7472616374206164647265737320646f6573206e6f742068617665206772616365506572696f644578706972656420666c61672073657420746f20747275652e4f6e6c792074686520616666696c696174652063616e2063616c6c2074686973206d6574686f642e53656c6c657220677261636520706572696f64206e6f7420796574206f7665722e43757272656e7420746f74616c206973206e6f7420757020746f20646174652c20616666696c69617465206d7573742063616c6c2075706461746543757272656e74546f74616c28292e546869732072657175657374206973206e6f7420696e206d792070656e64696e67206c6973742ea2646970667358221220d95f9c65dba902cfab448a232b27df17746a0e1af3ef4fa0b65b8014938f4e9c64736f6c63430007040033",
  "immutableReferences": {
    "615": [
      {
        "length": 32,
        "start": 1273
      },
      {
        "length": 32,
        "start": 1438
      },
      {
        "length": 32,
        "start": 2112
      },
      {
        "length": 32,
        "start": 2184
      },
      {
        "length": 32,
        "start": 2349
      },
      {
        "length": 32,
        "start": 2651
      },
      {
        "length": 32,
        "start": 3601
      },
      {
        "length": 32,
        "start": 4655
      },
      {
        "length": 32,
        "start": 5589
      }
    ],
    "617": [
      {
        "length": 32,
        "start": 1201
      },
      {
        "length": 32,
        "start": 1928
      },
      {
        "length": 32,
        "start": 3177
      },
      {
        "length": 32,
        "start": 4270
      },
      {
        "length": 32,
        "start": 5229
      },
      {
        "length": 32,
        "start": 5777
      }
    ],
    "619": [
      {
        "length": 32,
        "start": 1237
      },
      {
        "length": 32,
        "start": 3342
      },
      {
        "length": 32,
        "start": 4145
      },
      {
        "length": 32,
        "start": 5503
      },
      {
        "length": 32,
        "start": 5551
      }
    ],
    "621": [
      {
        "length": 32,
        "start": 2148
      },
      {
        "length": 32,
        "start": 4407
      },
      {
        "length": 32,
        "start": 4820
      }
    ],
    "623": [
      {
        "length": 32,
        "start": 2021
      },
      {
        "length": 32,
        "start": 4017
      }
    ],
    "641": [
      {
        "length": 32,
        "start": 2057
      },
      {
        "length": 32,
        "start": 5810
      }
    ]
  },
  "source": "// SPDX-License-Identifier: UNLICENSED\npragma solidity ^0.7.4;\n\nimport \"./AffiliateContract.sol\";\nimport \"./AffiliateOracle.sol\";\n\ncontract AffiliateSubcontract {\n  // The main AffiliateContract that created this contract, which in turn is owned by the business owner.\n  address payable public immutable owner;\n  // The affiliate's personal address.\n  address payable public immutable affiliate;\n\n  // The time this contract expires.\n  uint256 public immutable expiration;\n  // The time the seller's grace period ends. \n  uint256 public immutable sellerGracePeriodEnd;\n\n  // What index this subcontract has in the array in the main contract.\n  uint public immutable indexNumber;\n  // The address of the next subcontract when it gets created.\n  address public nextSubcontract = address(0x0);\n\n  // Flag that is true when the affiliate has successfully called the resolve method and cashed out.\n  bool public affiliateResolved = false;\n  // Flag that is true if the seller allowed the grace period to expire on this subcontract. This is only set when the affiliate calls affiliateResolve.\n  bool public gracePeriodExpired = false;\n\n  // The most recent value for the total sales for this affiliate for the time this subcontract covers.\n  uint256 public currentTotal;\n  // The timestamp when currentTotal was last updated.\n  uint256 public totalLastUpdated;\n  // The timestamp where this subcontract starts counting sales (i.e., where the last subcontract left off).\n  uint256 public immutable startTime;\n\n  // Used to keep track of async requests to get information from the oracle.\n  mapping(uint256 => bool) private myRequests;\n\n  event CurrentTotalUpdatedEvent(uint256 currentTotal, uint256 id);\n\n  receive() external payable { }\n  fallback() external payable { }\n\n  constructor(\n    address payable _affiliate,\n    uint256 subcontractDuration,\n    uint256 sellerGracePeriodDuration,\n    uint256 _startTime,\n    uint _indexNumber\n  ) payable {\n    owner = msg.sender;\n    affiliate = _affiliate;\n    expiration = _startTime + subcontractDuration;\n    sellerGracePeriodEnd = _startTime + subcontractDuration + sellerGracePeriodDuration;\n    startTime = _startTime;\n    indexNumber = _indexNumber;\n  }\n\n  modifier onlyMainContract {\n    require(msg.sender == owner, \"Only the main contract can call this method.\");\n    _;\n  }\n\n  modifier onlyAffiliate {\n    require(msg.sender == affiliate, \"Only the affiliate can call this method.\");\n    _;\n  }\n\n  function setNextSubcontract(address next) public onlyMainContract {\n    require(sellerGracePeriodEnd > block.timestamp, \"Seller grace period passed.\");\n    require(nextSubcontract == address(0x0), \"Next subcontract already set.\");\n    nextSubcontract = next;\n  }\n\n  function updateCurrentTotal() public onlyAffiliate {\n    require(affiliateResolved == false, \"Affiliate already called resolve successfully on this subcontract.\");\n    uint256 endTime;\n    if (block.timestamp < expiration) {\n      endTime = block.timestamp;\n    } else {\n      endTime = expiration;\n    }\n    uint256 id = AffiliateOracle(AffiliateContract(owner).oracle()).getAffiliateTotal(affiliate, startTime, endTime);\n    myRequests[id] = true;\n  }\n\n  function callback(uint256 _currentTotal, uint256 _id) public {\n    require(msg.sender == AffiliateContract(owner).oracle(), \"Only the oracle can call this method.\");\n    require(myRequests[_id], \"This request is not in my pending list.\");\n    currentTotal = _currentTotal;\n    totalLastUpdated = block.timestamp;\n    delete myRequests[_id];\n    emit CurrentTotalUpdatedEvent(_currentTotal, _id);\n  }\n\n  function affiliateResolve() public onlyAffiliate {\n    require(expiration <= block.timestamp, \"Subcontract not yet expired.\");\n    require(affiliateResolved == false, \"Affiliate already called resolve successfully on this subcontract.\");\n    AffiliateContract mainContract = AffiliateContract(owner);\n    require(mainContract.contractExpiration() > block.timestamp, \"Main contract expired.\");\n    uint totalSubcontracts = mainContract.totalSubcontracts();\n    // If this is the final subcontract or if the seller has already made the next subcontract, we can cash out now.\n    if ((indexNumber + 1) == totalSubcontracts || nextSubcontract != address(0x0)) {\n      require(totalLastUpdated >= expiration, \"Current total is not up to date, affiliate must call updateCurrentTotal().\");\n      // PLACEHOLDER\n      uint amount = 0;\n      affiliate.transfer(amount);\n      affiliateResolved = true;\n    } else {\n      // Else case - either the grace period isn't over and we're still waiting on the seller, or the seller has allowed it to pass without making the next subcontract.\n      require(sellerGracePeriodEnd <= block.timestamp, \"Seller grace period not yet over.\");\n      gracePeriodExpired = true;\n      mainContract.affiliateResolve();\n    }\n  }\n\n  function sellerResolve(address payable seller) public onlyMainContract {\n    require(AffiliateContract(owner).contractExpiration() <= block.timestamp, \"Main contract not yet expired.\");\n    selfdestruct(seller);\n  }\n\n  // This method is used for cleaning up the other subcontracts when one goes \"bad\" ie when the seller doesn't\n  // make a new subcontract within the grace period. \n  function affiliateCleanup(address payable bs) public onlyMainContract {\n    require(AffiliateContract(owner).contractExpiration() > block.timestamp, \"Main contract expired.\");\n    require(AffiliateSubcontract(bs).gracePeriodExpired(), \"Provided subcontract address does not have gracePeriodExpired flag set to true.\");\n    selfdestruct(affiliate);\n  }\n}",
  "sourcePath": "/home/madsilva/dev/blockchain/blockchain-project/truffle/contracts/AffiliateSubcontract.sol",
  "compiler": {
    "name": "solc",
    "version": "0.7.4+commit.3f05b770.Emscripten.clang"
  },
  "schemaVersion": "3.3.2",
  "updatedAt": "2020-12-07T01:03:35.110Z",
  "devdoc": {
    "kind": "dev",
    "methods": {},
    "version": 1
  },
  "userdoc": {
    "kind": "user",
    "methods": {},
    "version": 1
  }
}