{
  "contractName": "AffiliateOracle",
  "abi": [
    {
      "inputs": [],
      "stateMutability": "nonpayable",
      "type": "constructor"
    },
    {
      "anonymous": false,
      "inputs": [
        {
          "indexed": false,
          "internalType": "address",
          "name": "callerAddress",
          "type": "address"
        },
        {
          "indexed": false,
          "internalType": "uint256",
          "name": "id",
          "type": "uint256"
        },
        {
          "indexed": false,
          "internalType": "address payable",
          "name": "affiliate",
          "type": "address"
        },
        {
          "indexed": false,
          "internalType": "uint256",
          "name": "startTime",
          "type": "uint256"
        },
        {
          "indexed": false,
          "internalType": "uint256",
          "name": "endTime",
          "type": "uint256"
        }
      ],
      "name": "GetAffiliateTotalEvent",
      "type": "event"
    },
    {
      "anonymous": false,
      "inputs": [
        {
          "indexed": false,
          "internalType": "uint256",
          "name": "total",
          "type": "uint256"
        },
        {
          "indexed": false,
          "internalType": "address",
          "name": "callerAddress",
          "type": "address"
        }
      ],
      "name": "SetAffiliateTotalEvent",
      "type": "event"
    },
    {
      "inputs": [],
      "name": "owner",
      "outputs": [
        {
          "internalType": "address",
          "name": "",
          "type": "address"
        }
      ],
      "stateMutability": "view",
      "type": "function",
      "constant": true
    },
    {
      "inputs": [
        {
          "internalType": "address payable",
          "name": "affiliate",
          "type": "address"
        },
        {
          "internalType": "uint256",
          "name": "startTime",
          "type": "uint256"
        },
        {
          "internalType": "uint256",
          "name": "endTime",
          "type": "uint256"
        }
      ],
      "name": "getAffiliateTotal",
      "outputs": [
        {
          "internalType": "uint256",
          "name": "",
          "type": "uint256"
        }
      ],
      "stateMutability": "nonpayable",
      "type": "function"
    },
    {
      "inputs": [
        {
          "internalType": "uint256",
          "name": "_total",
          "type": "uint256"
        },
        {
          "internalType": "address payable",
          "name": "_callerAddress",
          "type": "address"
        },
        {
          "internalType": "uint256",
          "name": "_id",
          "type": "uint256"
        }
      ],
      "name": "setAffiliateTotal",
      "outputs": [],
      "stateMutability": "nonpayable",
      "type": "function"
    }
  ],
  "bytecode": "0x6080604052600060015534801561001557600080fd5b50336000806101000a81548173ffffffffffffffffffffffffffffffffffffffff021916908373ffffffffffffffffffffffffffffffffffffffff16021790555061051f806100656000396000f3fe608060405234801561001057600080fd5b50600436106100415760003560e01c80636cd18ce7146100465780638da5cb5b146100b2578063dc3f0eaa146100e6575b600080fd5b61009c6004803603606081101561005c57600080fd5b81019080803573ffffffffffffffffffffffffffffffffffffffff169060200190929190803590602001909291908035906020019092919050505061013e565b6040518082815260200191505060405180910390f35b6100ba610270565b604051808273ffffffffffffffffffffffffffffffffffffffff16815260200191505060405180910390f35b61013c600480360360608110156100fc57600080fd5b8101908080359060200190929190803573ffffffffffffffffffffffffffffffffffffffff16906020019092919080359060200190929190505050610294565b005b600060016000815480929190600101919050555060006103e84233600154604051602001808481526020018373ffffffffffffffffffffffffffffffffffffffff1660601b815260140182815260200193505050506040516020818303038152906040528051906020012060001c816101b357fe5b06905060016002600083815260200190815260200160002060006101000a81548160ff0219169083151502179055507f5098c66fe18a842abe69206253d2d81d36b3c75f55316bb3db66e2d864ce404e3382878787604051808673ffffffffffffffffffffffffffffffffffffffff1681526020018581526020018473ffffffffffffffffffffffffffffffffffffffff1681526020018381526020018281526020019550505050505060405180910390a1809150509392505050565b60008054906101000a900473ffffffffffffffffffffffffffffffffffffffff1681565b60008054906101000a900473ffffffffffffffffffffffffffffffffffffffff1673ffffffffffffffffffffffffffffffffffffffff163373ffffffffffffffffffffffffffffffffffffffff1614610338576040517f08c379a000000000000000000000000000000000000000000000000000000000815260040180806020018281038252602481526020018061049f6024913960400191505060405180910390fd5b6002600082815260200190815260200160002060009054906101000a900460ff166103ae576040517f08c379a00000000000000000000000000000000000000000000000000000000081526004018080602001828103825260278152602001806104c36027913960400191505060405180910390fd5b6002600082815260200190815260200160002060006101000a81549060ff02191690558173ffffffffffffffffffffffffffffffffffffffff1663b5d73ba484836040518363ffffffff1660e01b81526004018083815260200182815260200192505050600060405180830381600087803b15801561042c57600080fd5b505af1158015610440573d6000803e3d6000fd5b505050507f4e64348f4ec16683a96841349a46fe04aac256581cae72fb44e61e7c07ec91ef8383604051808381526020018273ffffffffffffffffffffffffffffffffffffffff1681526020019250505060405180910390a150505056fe4f6e6c7920746865206f776e65722063616e2063616c6c2074686973206d6574686f642e546869732072657175657374206973206e6f7420696e206d792070656e64696e67206c6973742ea264697066735822122050c652ab63f8cc9908c7ce69ad11440d9731293e6879f179ce574992e7b7c0fe64736f6c63430007040033",
  "immutableReferences": {},
  "source": "// SPDX-License-Identifier: UNLICENSED\npragma solidity ^0.7.4;\n\nimport \"./AffiliateSubcontract.sol\";\n\ncontract AffiliateOracle {\n  address public owner;\n  uint private randNonce = 0;\n  uint constant MODULUS = 1000;\n  mapping(uint256 => bool) pendingRequests;\n\n  event GetAffiliateTotalEvent(address callerAddress, uint id, address payable affiliate, uint256 startTime, uint256 endTime);\n  event SetAffiliateTotalEvent(uint256 total, address callerAddress);\n\n  constructor() {\n    owner = msg.sender;\n  }\n\n  function getAffiliateTotal(address payable affiliate, uint256 startTime, uint256 endTime) public returns (uint256) {\n    randNonce++;\n    uint id = uint(keccak256(abi.encodePacked(block.timestamp, msg.sender, randNonce))) % MODULUS;\n    pendingRequests[id] = true;\n    emit GetAffiliateTotalEvent(msg.sender, id, affiliate, startTime, endTime);\n    return id;\n  }\n\n  function setAffiliateTotal(uint256 _total, address payable _callerAddress, uint256 _id) public {\n    require(msg.sender == owner, \"Only the owner can call this method.\");\n    require(pendingRequests[_id], \"This request is not in my pending list.\");\n    delete pendingRequests[_id];\n    AffiliateSubcontract(_callerAddress).callback(_total, _id);\n    emit SetAffiliateTotalEvent(_total, _callerAddress);\n  }\n}",
  "sourcePath": "/home/madsilva/dev/blockchain/blockchain-project/truffle/contracts/AffiliateOracle.sol",
  "compiler": {
    "name": "solc",
    "version": "0.7.4+commit.3f05b770.Emscripten.clang"
  },
  "schemaVersion": "3.3.2",
  "updatedAt": "2020-12-15T16:16:24.229Z",
  "networkType": "ethereum",
  "devdoc": {
    "kind": "dev",
    "methods": {},
    "version": 1
  },
  "userdoc": {
    "kind": "user",
    "methods": {},
    "version": 1
  }
}