{
  "contractName": "AffiliateSubcontract",
  "abi": [
    {
      "inputs": [
        {
          "internalType": "address payable",
          "name": "_affiliate",
          "type": "address"
        },
        {
          "internalType": "uint256",
          "name": "subcontractDuration",
          "type": "uint256"
        },
        {
          "internalType": "uint256",
          "name": "sellerGracePeriodDuration",
          "type": "uint256"
        },
        {
          "internalType": "uint256",
          "name": "_startTime",
          "type": "uint256"
        },
        {
          "internalType": "uint256",
          "name": "_indexNumber",
          "type": "uint256"
        }
      ],
      "stateMutability": "payable",
      "type": "constructor"
    },
    {
      "anonymous": false,
      "inputs": [
        {
          "indexed": false,
          "internalType": "uint256",
          "name": "currentTotal",
          "type": "uint256"
        },
        {
          "indexed": false,
          "internalType": "uint256",
          "name": "id",
          "type": "uint256"
        }
      ],
      "name": "CurrentTotalUpdatedEvent",
      "type": "event"
    },
    {
      "stateMutability": "payable",
      "type": "fallback"
    },
    {
      "inputs": [],
      "name": "affiliate",
      "outputs": [
        {
          "internalType": "address payable",
          "name": "",
          "type": "address"
        }
      ],
      "stateMutability": "view",
      "type": "function"
    },
    {
      "inputs": [],
      "name": "affiliateResolved",
      "outputs": [
        {
          "internalType": "bool",
          "name": "",
          "type": "bool"
        }
      ],
      "stateMutability": "view",
      "type": "function"
    },
    {
      "inputs": [],
      "name": "currentTotal",
      "outputs": [
        {
          "internalType": "uint256",
          "name": "",
          "type": "uint256"
        }
      ],
      "stateMutability": "view",
      "type": "function"
    },
    {
      "inputs": [],
      "name": "expiration",
      "outputs": [
        {
          "internalType": "uint256",
          "name": "",
          "type": "uint256"
        }
      ],
      "stateMutability": "view",
      "type": "function"
    },
    {
      "inputs": [],
      "name": "gracePeriodExpired",
      "outputs": [
        {
          "internalType": "bool",
          "name": "",
          "type": "bool"
        }
      ],
      "stateMutability": "view",
      "type": "function"
    },
    {
      "inputs": [],
      "name": "indexNumber",
      "outputs": [
        {
          "internalType": "uint256",
          "name": "",
          "type": "uint256"
        }
      ],
      "stateMutability": "view",
      "type": "function"
    },
    {
      "inputs": [],
      "name": "nextSubcontract",
      "outputs": [
        {
          "internalType": "address",
          "name": "",
          "type": "address"
        }
      ],
      "stateMutability": "view",
      "type": "function"
    },
    {
      "inputs": [],
      "name": "owner",
      "outputs": [
        {
          "internalType": "address payable",
          "name": "",
          "type": "address"
        }
      ],
      "stateMutability": "view",
      "type": "function"
    },
    {
      "inputs": [],
      "name": "sellerGracePeriodEnd",
      "outputs": [
        {
          "internalType": "uint256",
          "name": "",
          "type": "uint256"
        }
      ],
      "stateMutability": "view",
      "type": "function"
    },
    {
      "inputs": [],
      "name": "startTime",
      "outputs": [
        {
          "internalType": "uint256",
          "name": "",
          "type": "uint256"
        }
      ],
      "stateMutability": "view",
      "type": "function"
    },
    {
      "inputs": [],
      "name": "totalLastUpdated",
      "outputs": [
        {
          "internalType": "uint256",
          "name": "",
          "type": "uint256"
        }
      ],
      "stateMutability": "view",
      "type": "function"
    },
    {
      "stateMutability": "payable",
      "type": "receive"
    },
    {
      "inputs": [
        {
          "internalType": "address",
          "name": "next",
          "type": "address"
        }
      ],
      "name": "setNextSubcontract",
      "outputs": [],
      "stateMutability": "nonpayable",
      "type": "function"
    },
    {
      "inputs": [],
      "name": "updateCurrentTotal",
      "outputs": [],
      "stateMutability": "nonpayable",
      "type": "function"
    },
    {
      "inputs": [
        {
          "internalType": "uint256",
          "name": "_currentTotal",
          "type": "uint256"
        },
        {
          "internalType": "uint256",
          "name": "_id",
          "type": "uint256"
        }
      ],
      "name": "callback",
      "outputs": [],
      "stateMutability": "nonpayable",
      "type": "function"
    },
    {
      "inputs": [],
      "name": "affiliateResolve",
      "outputs": [],
      "stateMutability": "nonpayable",
      "type": "function"
    },
    {
      "inputs": [
        {
          "internalType": "address payable",
          "name": "seller",
          "type": "address"
        }
      ],
      "name": "sellerResolve",
      "outputs": [],
      "stateMutability": "nonpayable",
      "type": "function"
    },
    {
      "inputs": [
        {
          "internalType": "address payable",
          "name": "bs",
          "type": "address"
        }
      ],
      "name": "affiliateCleanup",
      "outputs": [],
      "stateMutability": "nonpayable",
      "type": "function"
    }
  ],
  "bytecode": "0x6101206040526000600160006101000a81548173ffffffffffffffffffffffffffffffffffffffff021916908373ffffffffffffffffffffffffffffffffffffffff1602179055506000600160146101000a81548160ff0219169083151502179055506000600160156101000a81548160ff021916908315150217905550604051611baa380380611baa833981810160405260a081101561009f57600080fd5b8101908080519060200190929190805190602001909291908051906020019092919080519060200190929190805190602001909291905050503373ffffffffffffffffffffffffffffffffffffffff1660808173ffffffffffffffffffffffffffffffffffffffff1660601b815250508473ffffffffffffffffffffffffffffffffffffffff1660a08173ffffffffffffffffffffffffffffffffffffffff1660601b8152505083820160c08181525050828483010160e0818152505081610100818152505080600081905550505050505060805160601c60a05160601c60c05160e05161010051611995610215600039806107ed52806116bd525080610848528061119652806113325250806104d55280610cf25280610ff952806116de5250806104b152806107885280610c4d528061110d52806114ce528061169c5250806104f9528061059e5280610824528061086c52806109115280610a3f5280610df5528061128d52806115e052506119956000f3fe6080604052600436106101025760003560e01c806378e9792511610095578063ac44482911610064578063ac4448291461037b578063b5d73ba4146103cc578063c610384314610411578063d9d4503814610428578063ef8e26a31461047957610109565b806378e97925146102b757806388fd65cc146102e25780638da5cb5b1461030f578063a1b938541461035057610109565b80634665096d116100d15780634665096d146101cf57806356f225e8146101fa578063584215b51461024b578063672bf6051461028c57610109565b80630bc1abe11461010b5780633741f9f6146101385780633da8bfc91461016357806345e05f431461018e57610109565b3661010957005b005b34801561011757600080fd5b50610120610490565b60405180821515815260200191505060405180910390f35b34801561014457600080fd5b5061014d6104a3565b6040518082815260200191505060405180910390f35b34801561016f57600080fd5b506101786104a9565b6040518082815260200191505060405180910390f35b34801561019a57600080fd5b506101a36104af565b604051808273ffffffffffffffffffffffffffffffffffffffff16815260200191505060405180910390f35b3480156101db57600080fd5b506101e46104d3565b6040518082815260200191505060405180910390f35b34801561020657600080fd5b506102496004803603602081101561021d57600080fd5b81019080803573ffffffffffffffffffffffffffffffffffffffff1690602001909291905050506104f7565b005b34801561025757600080fd5b506102606107bf565b604051808273ffffffffffffffffffffffffffffffffffffffff16815260200191505060405180910390f35b34801561029857600080fd5b506102a16107e5565b6040518082815260200191505060405180910390f35b3480156102c357600080fd5b506102cc6107eb565b6040518082815260200191505060405180910390f35b3480156102ee57600080fd5b506102f761080f565b60405180821515815260200191505060405180910390f35b34801561031b57600080fd5b50610324610822565b604051808273ffffffffffffffffffffffffffffffffffffffff16815260200191505060405180910390f35b34801561035c57600080fd5b50610365610846565b6040518082815260200191505060405180910390f35b34801561038757600080fd5b506103ca6004803603602081101561039e57600080fd5b81019080803573ffffffffffffffffffffffffffffffffffffffff16906020019092919050505061086a565b005b3480156103d857600080fd5b5061040f600480360360408110156103ef57600080fd5b810190808035906020019092919080359060200190929190505050610a3d565b005b34801561041d57600080fd5b50610426610c4b565b005b34801561043457600080fd5b506104776004803603602081101561044b57600080fd5b81019080803573ffffffffffffffffffffffffffffffffffffffff16906020019092919050505061128b565b005b34801561048557600080fd5b5061048e6114cc565b005b600160149054906101000a900460ff1681565b60035481565b60025481565b7f000000000000000000000000000000000000000000000000000000000000000081565b7f000000000000000000000000000000000000000000000000000000000000000081565b7f000000000000000000000000000000000000000000000000000000000000000073ffffffffffffffffffffffffffffffffffffffff163373ffffffffffffffffffffffffffffffffffffffff161461059b576040517f08c379a000000000000000000000000000000000000000000000000000000000815260040180806020018281038252602c8152602001806117c4602c913960400191505060405180910390fd5b427f000000000000000000000000000000000000000000000000000000000000000073ffffffffffffffffffffffffffffffffffffffff1663a814001f6040518163ffffffff1660e01b815260040160206040518083038186803b15801561060257600080fd5b505afa158015610616573d6000803e3d6000fd5b505050506040513d602081101561062c57600080fd5b8101908080519060200190929190505050116106b0576040517f08c379a00000000000000000000000000000000000000000000000000000000081526004018080602001828103825260168152602001807f4d61696e20636f6e747261637420657870697265642e0000000000000000000081525060200191505060405180910390fd5b8073ffffffffffffffffffffffffffffffffffffffff166388fd65cc6040518163ffffffff1660e01b815260040160206040518083038186803b1580156106f657600080fd5b505afa15801561070a573d6000803e3d6000fd5b505050506040513d602081101561072057600080fd5b8101908080519060200190929190505050610786576040517f08c379a000000000000000000000000000000000000000000000000000000000815260040180806020018281038252604f815260200180611857604f913960600191505060405180910390fd5b7f000000000000000000000000000000000000000000000000000000000000000073ffffffffffffffffffffffffffffffffffffffff16ff5b600160009054906101000a900473ffffffffffffffffffffffffffffffffffffffff1681565b60005481565b7f000000000000000000000000000000000000000000000000000000000000000081565b600160159054906101000a900460ff1681565b7f000000000000000000000000000000000000000000000000000000000000000081565b7f000000000000000000000000000000000000000000000000000000000000000081565b7f000000000000000000000000000000000000000000000000000000000000000073ffffffffffffffffffffffffffffffffffffffff163373ffffffffffffffffffffffffffffffffffffffff161461090e576040517f08c379a000000000000000000000000000000000000000000000000000000000815260040180806020018281038252602c8152602001806117c4602c913960400191505060405180910390fd5b427f000000000000000000000000000000000000000000000000000000000000000073ffffffffffffffffffffffffffffffffffffffff1663a814001f6040518163ffffffff1660e01b815260040160206040518083038186803b15801561097557600080fd5b505afa158015610989573d6000803e3d6000fd5b505050506040513d602081101561099f57600080fd5b81019080805190602001909291905050501115610a24576040517f08c379a000000000000000000000000000000000000000000000000000000000815260040180806020018281038252601e8152602001807f4d61696e20636f6e7472616374206e6f742079657420657870697265642e000081525060200191505060405180910390fd5b8073ffffffffffffffffffffffffffffffffffffffff16ff5b7f000000000000000000000000000000000000000000000000000000000000000073ffffffffffffffffffffffffffffffffffffffff16637dc0d1d06040518163ffffffff1660e01b815260040160206040518083038186803b158015610aa357600080fd5b505afa158015610ab7573d6000803e3d6000fd5b505050506040513d6020811015610acd57600080fd5b810190808051906020019092919050505073ffffffffffffffffffffffffffffffffffffffff163373ffffffffffffffffffffffffffffffffffffffff1614610b61576040517f08c379a00000000000000000000000000000000000000000000000000000000081526004018080602001828103825260258152602001806118326025913960400191505060405180910390fd5b6004600082815260200190815260200160002060009054906101000a900460ff16610bd7576040517f08c379a00000000000000000000000000000000000000000000000000000000081526004018080602001828103825260278152602001806119396027913960400191505060405180910390fd5b81600281905550426003819055506004600082815260200190815260200160002060006101000a81549060ff02191690557fbb982b83e84d8c224d47d0ffbe2ed070a3574bc4babb08180953e2d34b6789a98282604051808381526020018281526020019250505060405180910390a15050565b7f000000000000000000000000000000000000000000000000000000000000000073ffffffffffffffffffffffffffffffffffffffff163373ffffffffffffffffffffffffffffffffffffffff1614610cef576040517f08c379a00000000000000000000000000000000000000000000000000000000081526004018080602001828103825260288152602001806118a66028913960400191505060405180910390fd5b427f00000000000000000000000000000000000000000000000000000000000000001115610d85576040517f08c379a000000000000000000000000000000000000000000000000000000000815260040180806020018281038252601c8152602001807f537562636f6e7472616374206e6f742079657420657870697265642e0000000081525060200191505060405180910390fd5b60001515600160149054906101000a900460ff16151514610df1576040517f08c379a00000000000000000000000000000000000000000000000000000000081526004018080602001828103825260428152602001806117f06042913960600191505060405180910390fd5b60007f00000000000000000000000000000000000000000000000000000000000000009050428173ffffffffffffffffffffffffffffffffffffffff1663a814001f6040518163ffffffff1660e01b815260040160206040518083038186803b158015610e5d57600080fd5b505afa158015610e71573d6000803e3d6000fd5b505050506040513d6020811015610e8757600080fd5b810190808051906020019092919050505011610f0b576040517f08c379a00000000000000000000000000000000000000000000000000000000081526004018080602001828103825260168152602001807f4d61696e20636f6e747261637420657870697265642e0000000000000000000081525060200191505060405180910390fd5b60008173ffffffffffffffffffffffffffffffffffffffff1663c4b641ab6040518163ffffffff1660e01b815260040160206040518083038186803b158015610f5357600080fd5b505afa158015610f67573d6000803e3d6000fd5b505050506040513d6020811015610f7d57600080fd5b81019080805190602001909291905050509050806001600054011480610ff25750600073ffffffffffffffffffffffffffffffffffffffff16600160009054906101000a900473ffffffffffffffffffffffffffffffffffffffff1673ffffffffffffffffffffffffffffffffffffffff1614155b15611193577f00000000000000000000000000000000000000000000000000000000000000006003541015611072576040517f08c379a000000000000000000000000000000000000000000000000000000000815260040180806020018281038252604a8152602001806118ef604a913960600191505060405180910390fd5b60008273ffffffffffffffffffffffffffffffffffffffff1663867a3c866002546040518263ffffffff1660e01b81526004018082815260200191505060206040518083038186803b1580156110c757600080fd5b505afa1580156110db573d6000803e3d6000fd5b505050506040513d60208110156110f157600080fd5b81019080805190602001909291905050509050806000819055507f000000000000000000000000000000000000000000000000000000000000000073ffffffffffffffffffffffffffffffffffffffff166108fc60009081150290604051600060405180830381858888f19350505050158015611172573d6000803e3d6000fd5b5060018060146101000a81548160ff02191690831515021790555050611287565b427f0000000000000000000000000000000000000000000000000000000000000000111561120c576040517f08c379a00000000000000000000000000000000000000000000000000000000081526004018080602001828103825260218152602001806118ce6021913960400191505060405180910390fd5b60018060156101000a81548160ff0219169083151502179055508173ffffffffffffffffffffffffffffffffffffffff1663c61038436040518163ffffffff1660e01b8152600401600060405180830381600087803b15801561126e57600080fd5b505af1158015611282573d6000803e3d6000fd5b505050505b5050565b7f000000000000000000000000000000000000000000000000000000000000000073ffffffffffffffffffffffffffffffffffffffff163373ffffffffffffffffffffffffffffffffffffffff161461132f576040517f08c379a000000000000000000000000000000000000000000000000000000000815260040180806020018281038252602c8152602001806117c4602c913960400191505060405180910390fd5b427f0000000000000000000000000000000000000000000000000000000000000000116113c4576040517f08c379a000000000000000000000000000000000000000000000000000000000815260040180806020018281038252601b8152602001807f53656c6c657220677261636520706572696f64207061737365642e000000000081525060200191505060405180910390fd5b600073ffffffffffffffffffffffffffffffffffffffff16600160009054906101000a900473ffffffffffffffffffffffffffffffffffffffff1673ffffffffffffffffffffffffffffffffffffffff1614611488576040517f08c379a000000000000000000000000000000000000000000000000000000000815260040180806020018281038252601d8152602001807f4e65787420737562636f6e747261637420616c7265616479207365742e00000081525060200191505060405180910390fd5b80600160006101000a81548173ffffffffffffffffffffffffffffffffffffffff021916908373ffffffffffffffffffffffffffffffffffffffff16021790555050565b7f000000000000000000000000000000000000000000000000000000000000000073ffffffffffffffffffffffffffffffffffffffff163373ffffffffffffffffffffffffffffffffffffffff1614611570576040517f08c379a00000000000000000000000000000000000000000000000000000000081526004018080602001828103825260288152602001806118a66028913960400191505060405180910390fd5b60001515600160149054906101000a900460ff161515146115dc576040517f08c379a00000000000000000000000000000000000000000000000000000000081526004018080602001828103825260428152602001806117f06042913960600191505060405180910390fd5b60007f000000000000000000000000000000000000000000000000000000000000000073ffffffffffffffffffffffffffffffffffffffff16637dc0d1d06040518163ffffffff1660e01b815260040160206040518083038186803b15801561164457600080fd5b505afa158015611658573d6000803e3d6000fd5b505050506040513d602081101561166e57600080fd5b810190808051906020019092919050505073ffffffffffffffffffffffffffffffffffffffff16636cd18ce77f00000000000000000000000000000000000000000000000000000000000000007f00000000000000000000000000000000000000000000000000000000000000007f00000000000000000000000000000000000000000000000000000000000000006040518463ffffffff1660e01b8152600401808473ffffffffffffffffffffffffffffffffffffffff1681526020018381526020018281526020019350505050602060405180830381600087803b15801561175757600080fd5b505af115801561176b573d6000803e3d6000fd5b505050506040513d602081101561178157600080fd5b8101908080519060200190929190505050905060016004600083815260200190815260200160002060006101000a81548160ff0219169083151502179055505056fe4f6e6c7920746865206d61696e20636f6e74726163742063616e2063616c6c2074686973206d6574686f642e416666696c6961746520616c72656164792063616c6c6564207265736f6c7665207375636365737366756c6c79206f6e207468697320737562636f6e74726163742e4f6e6c7920746865206f7261636c652063616e2063616c6c2074686973206d6574686f642e50726f766964656420737562636f6e7472616374206164647265737320646f6573206e6f742068617665206772616365506572696f644578706972656420666c61672073657420746f20747275652e4f6e6c792074686520616666696c696174652063616e2063616c6c2074686973206d6574686f642e53656c6c657220677261636520706572696f64206e6f7420796574206f7665722e43757272656e7420746f74616c206973206e6f7420757020746f20646174652c20616666696c69617465206d7573742063616c6c2075706461746543757272656e74546f74616c28292e546869732072657175657374206973206e6f7420696e206d792070656e64696e67206c6973742ea26469706673582212208a1dc6f7001bd53e4f3a8ee584497669e3ccc201e97278039bdececf8fa2637d64736f6c63430007040033",
  "immutableReferences": {
    "667": [
      {
        "length": 32,
        "start": 1273
      },
      {
        "length": 32,
        "start": 1438
      },
      {
        "length": 32,
        "start": 2084
      },
      {
        "length": 32,
        "start": 2156
      },
      {
        "length": 32,
        "start": 2321
      },
      {
        "length": 32,
        "start": 2623
      },
      {
        "length": 32,
        "start": 3573
      },
      {
        "length": 32,
        "start": 4749
      },
      {
        "length": 32,
        "start": 5600
      }
    ],
    "669": [
      {
        "length": 32,
        "start": 1201
      },
      {
        "length": 32,
        "start": 1928
      },
      {
        "length": 32,
        "start": 3149
      },
      {
        "length": 32,
        "start": 4365
      },
      {
        "length": 32,
        "start": 5326
      },
      {
        "length": 32,
        "start": 5788
      }
    ],
    "671": [
      {
        "length": 32,
        "start": 1237
      },
      {
        "length": 32,
        "start": 3314
      },
      {
        "length": 32,
        "start": 4089
      },
      {
        "length": 32,
        "start": 5854
      }
    ],
    "673": [
      {
        "length": 32,
        "start": 2120
      },
      {
        "length": 32,
        "start": 4502
      },
      {
        "length": 32,
        "start": 4914
      }
    ],
    "693": [
      {
        "length": 32,
        "start": 2029
      },
      {
        "length": 32,
        "start": 5821
      }
    ]
  },
  "source": "// SPDX-License-Identifier: UNLICENSED\npragma solidity ^0.7.4;\n\nimport \"./AffiliateContract.sol\";\nimport \"./AffiliateOracle.sol\";\n\ncontract AffiliateSubcontract {\n  // The main AffiliateContract that created this contract, which in turn is owned by the business owner.\n  address payable public immutable owner;\n  // The affiliate's personal address.\n  address payable public immutable affiliate;\n\n  // The time this contract expires.\n  uint public immutable expiration;\n  // The time the seller's grace period ends. \n  uint public immutable sellerGracePeriodEnd;\n\n  // What index this subcontract has in the array in the main contract.\n  //TEMPPPPPPPPP\n  uint public indexNumber;\n  // The address of the next subcontract when it gets created.\n  address public nextSubcontract = address(0x0);\n\n  // Flag that is true when the affiliate has successfully called the resolve method and cashed out.\n  bool public affiliateResolved = false;\n  // Flag that is true if the seller allowed the grace period to expire on this subcontract. This is only set when the affiliate calls affiliateResolve.\n  bool public gracePeriodExpired = false;\n\n  // The most recent value for the total sales for this affiliate for the time this subcontract covers.\n  uint public currentTotal;\n  // The timestamp when currentTotal was last updated.\n  uint public totalLastUpdated;\n  // The timestamp where this subcontract starts counting sales (i.e., where the last subcontract left off).\n  uint public immutable startTime;\n\n  // Used to keep track of async requests to get information from the oracle.\n  mapping(uint => bool) private myRequests;\n\n  event CurrentTotalUpdatedEvent(uint currentTotal, uint id);\n\n  receive() external payable { }\n  fallback() external payable { }\n\n  constructor(\n    address payable _affiliate,\n    uint subcontractDuration,\n    uint sellerGracePeriodDuration,\n    uint _startTime,\n    uint _indexNumber\n  ) payable {\n    owner = msg.sender;\n    affiliate = _affiliate;\n    expiration = _startTime + subcontractDuration;\n    sellerGracePeriodEnd = _startTime + subcontractDuration + sellerGracePeriodDuration;\n    startTime = _startTime;\n    indexNumber = _indexNumber;\n  }\n\n  modifier onlyMainContract {\n    require(msg.sender == owner, \"Only the main contract can call this method.\");\n    _;\n  }\n\n  modifier onlyAffiliate {\n    require(msg.sender == affiliate, \"Only the affiliate can call this method.\");\n    _;\n  }\n\n  function setNextSubcontract(address next) public onlyMainContract {\n    require(sellerGracePeriodEnd > block.timestamp, \"Seller grace period passed.\");\n    require(nextSubcontract == address(0x0), \"Next subcontract already set.\");\n    nextSubcontract = next;\n  }\n\n  function updateCurrentTotal() public onlyAffiliate {\n    require(affiliateResolved == false, \"Affiliate already called resolve successfully on this subcontract.\");\n    uint id = AffiliateOracle(AffiliateContract(owner).oracle()).getAffiliateTotal(affiliate, startTime, expiration);\n    myRequests[id] = true;\n  }\n\n  function callback(uint _currentTotal, uint _id) public {\n    require(msg.sender == AffiliateContract(owner).oracle(), \"Only the oracle can call this method.\");\n    require(myRequests[_id], \"This request is not in my pending list.\");\n    currentTotal = _currentTotal;\n    totalLastUpdated = block.timestamp;\n    delete myRequests[_id];\n    emit CurrentTotalUpdatedEvent(_currentTotal, _id);\n  }\n\n  function affiliateResolve() public onlyAffiliate {\n    require(expiration <= block.timestamp, \"Subcontract not yet expired.\");\n    require(affiliateResolved == false, \"Affiliate already called resolve successfully on this subcontract.\");\n    AffiliateContract mainContract = AffiliateContract(owner);\n    require(mainContract.contractExpiration() > block.timestamp, \"Main contract expired.\");\n    uint totalSubcontracts = mainContract.totalSubcontracts();\n    // If this is the final subcontract or if the seller has already made the next subcontract, we can cash out now.\n    if ((indexNumber + 1) == totalSubcontracts || nextSubcontract != address(0x0)) {\n      require(totalLastUpdated >= expiration, \"Current total is not up to date, affiliate must call updateCurrentTotal().\");\n      // PLACEHOLDER\n      uint earnings = mainContract.getAffiliateEarnings(currentTotal);\n      indexNumber = earnings;\n      affiliate.transfer(0);\n      affiliateResolved = true;\n    } else {\n      // Else case - either the grace period isn't over and we're still waiting on the seller, or the seller has allowed it to pass without making the next subcontract.\n      require(sellerGracePeriodEnd <= block.timestamp, \"Seller grace period not yet over.\");\n      gracePeriodExpired = true;\n      mainContract.affiliateResolve();\n    }\n  }\n\n  function sellerResolve(address payable seller) public onlyMainContract {\n    require(AffiliateContract(owner).contractExpiration() <= block.timestamp, \"Main contract not yet expired.\");\n    selfdestruct(seller);\n  }\n\n  // This method is used for cleaning up the other subcontracts when one goes \"bad\" ie when the seller doesn't\n  // make a new subcontract within the grace period. \n  function affiliateCleanup(address payable bs) public onlyMainContract {\n    require(AffiliateContract(owner).contractExpiration() > block.timestamp, \"Main contract expired.\");\n    require(AffiliateSubcontract(bs).gracePeriodExpired(), \"Provided subcontract address does not have gracePeriodExpired flag set to true.\");\n    selfdestruct(affiliate);\n  }\n}",
  "sourcePath": "/home/madsilva/dev/blockchain/blockchain-project/truffle/contracts/AffiliateSubcontract.sol",
  "compiler": {
    "name": "solc",
    "version": "0.7.4+commit.3f05b770.Emscripten.clang"
  },
  "schemaVersion": "3.3.2",
  "updatedAt": "2020-12-12T03:30:04.777Z",
  "devdoc": {
    "kind": "dev",
    "methods": {},
    "version": 1
  },
  "userdoc": {
    "kind": "user",
    "methods": {},
    "version": 1
  }
}