{
  "contractName": "AffiliateContract",
  "abi": [
    {
      "inputs": [
        {
          "internalType": "address payable",
          "name": "_affiliate",
          "type": "address"
        },
        {
          "internalType": "address",
          "name": "_oracle",
          "type": "address"
        },
        {
          "internalType": "uint256",
          "name": "_totalSubcontracts",
          "type": "uint256"
        },
        {
          "internalType": "uint256",
          "name": "_subcontractDuration",
          "type": "uint256"
        },
        {
          "internalType": "uint256",
          "name": "_gracePeriodDuration",
          "type": "uint256"
        },
        {
          "internalType": "uint256",
          "name": "_subcontractStake",
          "type": "uint256"
        },
        {
          "internalType": "uint256",
          "name": "_incentiveFee",
          "type": "uint256"
        },
        {
          "internalType": "uint256",
          "name": "_affiliatePercentage",
          "type": "uint256"
        }
      ],
      "stateMutability": "payable",
      "type": "constructor"
    },
    {
      "stateMutability": "payable",
      "type": "fallback"
    },
    {
      "inputs": [],
      "name": "affiliate",
      "outputs": [
        {
          "internalType": "address payable",
          "name": "",
          "type": "address"
        }
      ],
      "stateMutability": "view",
      "type": "function"
    },
    {
      "inputs": [],
      "name": "affiliatePercentage",
      "outputs": [
        {
          "internalType": "uint256",
          "name": "",
          "type": "uint256"
        }
      ],
      "stateMutability": "view",
      "type": "function"
    },
    {
      "inputs": [],
      "name": "contractExpiration",
      "outputs": [
        {
          "internalType": "uint256",
          "name": "",
          "type": "uint256"
        }
      ],
      "stateMutability": "view",
      "type": "function"
    },
    {
      "inputs": [],
      "name": "gracePeriodDuration",
      "outputs": [
        {
          "internalType": "uint256",
          "name": "",
          "type": "uint256"
        }
      ],
      "stateMutability": "view",
      "type": "function"
    },
    {
      "inputs": [],
      "name": "incentiveFee",
      "outputs": [
        {
          "internalType": "uint256",
          "name": "",
          "type": "uint256"
        }
      ],
      "stateMutability": "view",
      "type": "function"
    },
    {
      "inputs": [],
      "name": "oracle",
      "outputs": [
        {
          "internalType": "address",
          "name": "",
          "type": "address"
        }
      ],
      "stateMutability": "view",
      "type": "function"
    },
    {
      "inputs": [],
      "name": "owner",
      "outputs": [
        {
          "internalType": "address payable",
          "name": "",
          "type": "address"
        }
      ],
      "stateMutability": "view",
      "type": "function"
    },
    {
      "inputs": [],
      "name": "subcontractDuration",
      "outputs": [
        {
          "internalType": "uint256",
          "name": "",
          "type": "uint256"
        }
      ],
      "stateMutability": "view",
      "type": "function"
    },
    {
      "inputs": [],
      "name": "subcontractStake",
      "outputs": [
        {
          "internalType": "uint256",
          "name": "",
          "type": "uint256"
        }
      ],
      "stateMutability": "view",
      "type": "function"
    },
    {
      "inputs": [
        {
          "internalType": "uint256",
          "name": "",
          "type": "uint256"
        }
      ],
      "name": "subcontracts",
      "outputs": [
        {
          "internalType": "address payable",
          "name": "",
          "type": "address"
        }
      ],
      "stateMutability": "view",
      "type": "function"
    },
    {
      "inputs": [],
      "name": "subcontractsSoFar",
      "outputs": [
        {
          "internalType": "uint256",
          "name": "",
          "type": "uint256"
        }
      ],
      "stateMutability": "view",
      "type": "function"
    },
    {
      "inputs": [],
      "name": "totalSubcontracts",
      "outputs": [
        {
          "internalType": "uint256",
          "name": "",
          "type": "uint256"
        }
      ],
      "stateMutability": "view",
      "type": "function"
    },
    {
      "stateMutability": "payable",
      "type": "receive"
    },
    {
      "inputs": [
        {
          "internalType": "address",
          "name": "_oracleAddress",
          "type": "address"
        }
      ],
      "name": "setOracleAddress",
      "outputs": [],
      "stateMutability": "nonpayable",
      "type": "function"
    },
    {
      "inputs": [],
      "name": "getCurrentSubcontract",
      "outputs": [
        {
          "internalType": "address payable",
          "name": "",
          "type": "address"
        }
      ],
      "stateMutability": "view",
      "type": "function"
    },
    {
      "inputs": [],
      "name": "createNextSubContract",
      "outputs": [],
      "stateMutability": "payable",
      "type": "function"
    },
    {
      "inputs": [],
      "name": "affiliateResolve",
      "outputs": [],
      "stateMutability": "nonpayable",
      "type": "function"
    },
    {
      "inputs": [],
      "name": "sellerResolve",
      "outputs": [],
      "stateMutability": "nonpayable",
      "type": "function"
    }
  ],
  "bytecode": "0x6101a060405260008055604051620054283803806200542883398181016040526101008110156200002f57600080fd5b8101908080519060200190929190805190602001909291908051906020019092919080519060200190929190805190602001909291908051906020019092919080519060200190929190805190602001909291905050508282013414620000e2576040517f08c379a000000000000000000000000000000000000000000000000000000000815260040180806020018281038252604e815260200180620053da604e913960600191505060405180910390fd5b60038610156200013e576040517f08c379a0000000000000000000000000000000000000000000000000000000008152600401808060200182810382526025815260200180620053b56025913960400191505060405180910390fd5b3373ffffffffffffffffffffffffffffffffffffffff1660808173ffffffffffffffffffffffffffffffffffffffff1660601b815250508773ffffffffffffffffffffffffffffffffffffffff1660a08173ffffffffffffffffffffffffffffffffffffffff1660601b8152505086600260006101000a81548173ffffffffffffffffffffffffffffffffffffffff021916908373ffffffffffffffffffffffffffffffffffffffff1602179055508560c0818152505061012c85870242010160e08181525050846101008181525050836101208181525050826101408181525050816101608181525050806101808181525050600183898787426000604051620002499062000323565b808673ffffffffffffffffffffffffffffffffffffffff168152602001858152602001848152602001838152602001828152602001955050505050506040518091039082f0905080158015620002a3573d6000803e3d6000fd5b509080600181540180825580915050600190039060005260206000200160009091909190916101000a81548173ffffffffffffffffffffffffffffffffffffffff021916908373ffffffffffffffffffffffffffffffffffffffff1602179055506000808154809291906001019190505550505050505050505062000331565b611b93806200382283390190565b60805160601c60a05160601c60c05160e0516101005161012051610140516101605161018051613438620003ea600039806108f152508061045752508061048152806112225250806109cf52806114ed5250806105b152806114cc5250806106a052806109ab5280610a1852806111145250806109f35280610d4552806111a85250806104a5528061103652806114ab5250806104c952806105fb5280610800528061089452806108cd528061106f52506134386000f3fe6080604052600436106101025760003560e01c80638da5cb5b11610095578063a814001f11610064578063a814001f146103b3578063c099f575146103de578063c4b641ab14610409578063c610384314610434578063d1756e4f1461044b57610109565b80638da5cb5b146102a157806391a57544146102e2578063984d5e231461030d5780639ab053cf1461037257610109565b80634c69c00f116100d15780634c69c00f146101cd5780637b1118791461021e5780637dc0d1d0146102495780638d8705931461028a57610109565b8063069039001461010b57806325e6937a146101365780633dec872e1461016157806345e05f431461018c57610109565b3661010957005b005b34801561011757600080fd5b50610120610455565b6040518082815260200191505060405180910390f35b34801561014257600080fd5b5061014b610479565b6040518082815260200191505060405180910390f35b34801561016d57600080fd5b5061017661047f565b6040518082815260200191505060405180910390f35b34801561019857600080fd5b506101a16104a3565b604051808273ffffffffffffffffffffffffffffffffffffffff16815260200191505060405180910390f35b3480156101d957600080fd5b5061021c600480360360208110156101f057600080fd5b81019080803573ffffffffffffffffffffffffffffffffffffffff1690602001909291905050506104c7565b005b34801561022a57600080fd5b506102336105af565b6040518082815260200191505060405180910390f35b34801561025557600080fd5b5061025e6105d3565b604051808273ffffffffffffffffffffffffffffffffffffffff16815260200191505060405180910390f35b34801561029657600080fd5b5061029f6105f9565b005b3480156102ad57600080fd5b506102b66108cb565b604051808273ffffffffffffffffffffffffffffffffffffffff16815260200191505060405180910390f35b3480156102ee57600080fd5b506102f76108ef565b6040518082815260200191505060405180910390f35b34801561031957600080fd5b506103466004803603602081101561033057600080fd5b8101908080359060200190929190505050610913565b604051808273ffffffffffffffffffffffffffffffffffffffff16815260200191505060405180910390f35b34801561037e57600080fd5b50610387610952565b604051808273ffffffffffffffffffffffffffffffffffffffff16815260200191505060405180910390f35b3480156103bf57600080fd5b506103c86109a9565b6040518082815260200191505060405180910390f35b3480156103ea57600080fd5b506103f36109cd565b6040518082815260200191505060405180910390f35b34801561041557600080fd5b5061041e6109f1565b6040518082815260200191505060405180910390f35b34801561044057600080fd5b50610449610a15565b005b61045361106d565b005b7f000000000000000000000000000000000000000000000000000000000000000081565b60005481565b7f000000000000000000000000000000000000000000000000000000000000000081565b7f000000000000000000000000000000000000000000000000000000000000000081565b7f000000000000000000000000000000000000000000000000000000000000000073ffffffffffffffffffffffffffffffffffffffff163373ffffffffffffffffffffffffffffffffffffffff161461056b576040517f08c379a000000000000000000000000000000000000000000000000000000000815260040180806020018281038252602481526020018061330d6024913960400191505060405180910390fd5b80600260006101000a81548173ffffffffffffffffffffffffffffffffffffffff021916908373ffffffffffffffffffffffffffffffffffffffff16021790555050565b7f000000000000000000000000000000000000000000000000000000000000000081565b600260009054906101000a900473ffffffffffffffffffffffffffffffffffffffff1681565b7f000000000000000000000000000000000000000000000000000000000000000073ffffffffffffffffffffffffffffffffffffffff163373ffffffffffffffffffffffffffffffffffffffff161461069d576040517f08c379a000000000000000000000000000000000000000000000000000000000815260040180806020018281038252602481526020018061330d6024913960400191505060405180910390fd5b427f00000000000000000000000000000000000000000000000000000000000000001115610733576040517f08c379a000000000000000000000000000000000000000000000000000000000815260040180806020018281038252601e8152602001807f4d61696e20636f6e7472616374206e6f742079657420657870697265642e000081525060200191505060405180910390fd5b60005b60005481101561089157600073ffffffffffffffffffffffffffffffffffffffff166001828154811061076557fe5b9060005260206000200160009054906101000a900473ffffffffffffffffffffffffffffffffffffffff1673ffffffffffffffffffffffffffffffffffffffff161461088457600181815481106107b857fe5b9060005260206000200160009054906101000a900473ffffffffffffffffffffffffffffffffffffffff1673ffffffffffffffffffffffffffffffffffffffff1663ac4448297f00000000000000000000000000000000000000000000000000000000000000006040518263ffffffff1660e01b8152600401808273ffffffffffffffffffffffffffffffffffffffff168152602001915050600060405180830381600087803b15801561086b57600080fd5b505af115801561087f573d6000803e3d6000fd5b505050505b8080600101915050610736565b507f000000000000000000000000000000000000000000000000000000000000000073ffffffffffffffffffffffffffffffffffffffff16ff5b7f000000000000000000000000000000000000000000000000000000000000000081565b7f000000000000000000000000000000000000000000000000000000000000000081565b6001818154811061092357600080fd5b906000526020600020016000915054906101000a900473ffffffffffffffffffffffffffffffffffffffff1681565b60008060005411156109a157600180600054038154811061096f57fe5b9060005260206000200160009054906101000a900473ffffffffffffffffffffffffffffffffffffffff1690506109a6565b600090505b90565b7f000000000000000000000000000000000000000000000000000000000000000081565b7f000000000000000000000000000000000000000000000000000000000000000081565b7f000000000000000000000000000000000000000000000000000000000000000081565b427f000000000000000000000000000000000000000000000000000000000000000011610aaa576040517f08c379a00000000000000000000000000000000000000000000000000000000081526004018080602001828103825260168152602001807f4d61696e20636f6e747261637420657870697265642e0000000000000000000081525060200191505060405180910390fd5b6000805b600054811015610b35573373ffffffffffffffffffffffffffffffffffffffff1660018281548110610adc57fe5b9060005260206000200160009054906101000a900473ffffffffffffffffffffffffffffffffffffffff1673ffffffffffffffffffffffffffffffffffffffff161415610b2857600191505b8080600101915050610aae565b5080610b8c576040517f08c379a000000000000000000000000000000000000000000000000000000000815260040180806020018281038252602881526020018061338d6028913960400191505060405180910390fd5b6000339050428173ffffffffffffffffffffffffffffffffffffffff16634665096d6040518163ffffffff1660e01b815260040160206040518083038186803b158015610bd857600080fd5b505afa158015610bec573d6000803e3d6000fd5b505050506040513d6020811015610c0257600080fd5b81019080805190602001909291905050501115610c6a576040517f08c379a00000000000000000000000000000000000000000000000000000000081526004018080602001828103825260238152602001806132ea6023913960400191505060405180910390fd5b428173ffffffffffffffffffffffffffffffffffffffff1663a1b938546040518163ffffffff1660e01b815260040160206040518083038186803b158015610cb157600080fd5b505afa158015610cc5573d6000803e3d6000fd5b505050506040513d6020811015610cdb57600080fd5b81019080805190602001909291905050501115610d43576040517f08c379a00000000000000000000000000000000000000000000000000000000081526004018080602001828103825260368152602001806133316036913960400191505060405180910390fd5b7f000000000000000000000000000000000000000000000000000000000000000060018273ffffffffffffffffffffffffffffffffffffffff1663672bf6056040518163ffffffff1660e01b815260040160206040518083038186803b158015610dac57600080fd5b505afa158015610dc0573d6000803e3d6000fd5b505050506040513d6020811015610dd657600080fd5b8101908080519060200190929190505050011415610e3f576040517f08c379a00000000000000000000000000000000000000000000000000000000081526004018080602001828103825260258152602001806132c56025913960400191505060405180910390fd5b600073ffffffffffffffffffffffffffffffffffffffff168173ffffffffffffffffffffffffffffffffffffffff1663584215b56040518163ffffffff1660e01b815260040160206040518083038186803b158015610e9d57600080fd5b505afa158015610eb1573d6000803e3d6000fd5b505050506040513d6020811015610ec757600080fd5b810190808051906020019092919050505073ffffffffffffffffffffffffffffffffffffffff1614610f61576040517f08c379a000000000000000000000000000000000000000000000000000000000815260040180806020018281038252601c8152602001807f4e65787420737562636f6e74726163742069732070726573656e742e0000000081525060200191505060405180910390fd5b60005b6000548110156110335760018181548110610f7b57fe5b9060005260206000200160009054906101000a900473ffffffffffffffffffffffffffffffffffffffff1673ffffffffffffffffffffffffffffffffffffffff166356f225e8336040518263ffffffff1660e01b8152600401808273ffffffffffffffffffffffffffffffffffffffff168152602001915050600060405180830381600087803b15801561100e57600080fd5b505af1158015611022573d6000803e3d6000fd5b505050508080600101915050610f64565b507f000000000000000000000000000000000000000000000000000000000000000073ffffffffffffffffffffffffffffffffffffffff16ff5b7f000000000000000000000000000000000000000000000000000000000000000073ffffffffffffffffffffffffffffffffffffffff163373ffffffffffffffffffffffffffffffffffffffff1614611111576040517f08c379a000000000000000000000000000000000000000000000000000000000815260040180806020018281038252602481526020018061330d6024913960400191505060405180910390fd5b427f0000000000000000000000000000000000000000000000000000000000000000116111a6576040517f08c379a00000000000000000000000000000000000000000000000000000000081526004018080602001828103825260168152602001807f4d61696e20636f6e747261637420657870697265642e0000000000000000000081525060200191505060405180910390fd5b7f000000000000000000000000000000000000000000000000000000000000000060005410611220576040517f08c379a00000000000000000000000000000000000000000000000000000000081526004018080602001828103825260268152602001806133676026913960400191505060405180910390fd5b7f000000000000000000000000000000000000000000000000000000000000000034146112b5576040517f08c379a00000000000000000000000000000000000000000000000000000000081526004018080602001828103825260178152602001807f496e636f7272656374207374616b6520616d6f756e742e00000000000000000081525060200191505060405180910390fd5b600060018060005403815481106112c857fe5b9060005260206000200160009054906101000a900473ffffffffffffffffffffffffffffffffffffffff169050428173ffffffffffffffffffffffffffffffffffffffff16634665096d6040518163ffffffff1660e01b815260040160206040518083038186803b15801561133c57600080fd5b505afa158015611350573d6000803e3d6000fd5b505050506040513d602081101561136657600080fd5b810190808051906020019092919050505011156113ce576040517f08c379a00000000000000000000000000000000000000000000000000000000081526004018080602001828103825260288152602001806133b56028913960400191505060405180910390fd5b428173ffffffffffffffffffffffffffffffffffffffff1663a1b938546040518163ffffffff1660e01b815260040160206040518083038186803b15801561141557600080fd5b505afa158015611429573d6000803e3d6000fd5b505050506040513d602081101561143f57600080fd5b8101908080519060200190929190505050116114a6576040517f08c379a00000000000000000000000000000000000000000000000000000000081526004018080602001828103825260268152602001806133dd6026913960400191505060405180910390fd5b6001347f00000000000000000000000000000000000000000000000000000000000000007f00000000000000000000000000000000000000000000000000000000000000007f00000000000000000000000000000000000000000000000000000000000000008573ffffffffffffffffffffffffffffffffffffffff16634665096d6040518163ffffffff1660e01b815260040160206040518083038186803b15801561155257600080fd5b505afa158015611566573d6000803e3d6000fd5b505050506040513d602081101561157c57600080fd5b810190808051906020019092919050505060005460405161159c90611724565b808673ffffffffffffffffffffffffffffffffffffffff168152602001858152602001848152602001838152602001828152602001955050505050506040518091039082f09050801580156115f5573d6000803e3d6000fd5b509080600181540180825580915050600190039060005260206000200160009091909190916101000a81548173ffffffffffffffffffffffffffffffffffffffff021916908373ffffffffffffffffffffffffffffffffffffffff1602179055508073ffffffffffffffffffffffffffffffffffffffff1663d9d4503860016000548154811061168157fe5b9060005260206000200160009054906101000a900473ffffffffffffffffffffffffffffffffffffffff166040518263ffffffff1660e01b8152600401808273ffffffffffffffffffffffffffffffffffffffff168152602001915050600060405180830381600087803b1580156116f857600080fd5b505af115801561170c573d6000803e3d6000fd5b50505050600080815480929190600101919050555050565b611b93806117328339019056fe61014060405260008060006101000a81548173ffffffffffffffffffffffffffffffffffffffff021916908373ffffffffffffffffffffffffffffffffffffffff16021790555060008060146101000a81548160ff02191690831515021790555060008060156101000a81548160ff021916908315150217905550604051611b93380380611b93833981810160405260a081101561009c57600080fd5b8101908080519060200190929190805190602001909291908051906020019092919080519060200190929190805190602001909291905050503373ffffffffffffffffffffffffffffffffffffffff1660808173ffffffffffffffffffffffffffffffffffffffff1660601b815250508473ffffffffffffffffffffffffffffffffffffffff1660a08173ffffffffffffffffffffffffffffffffffffffff1660601b8152505083820160c08181525050828483010160e08181525050816101208181525050806101008181525050505050505060805160601c60a05160601c60c05160e051610100516101205161196b6102286000398061080952806116b25250806107e55280610fb1525080610864528061113752806112d45250806104d55280610d0e5280611031528061157f52806115af5250806104b152806107885280610c6952806110ae528061146d52806116915250806104f9528061059e52806108405280610888528061092d5280610a5b5280610e11528061122f52806115d5525061196b6000f3fe6080604052600436106101025760003560e01c806378e9792511610095578063ac44482911610064578063ac4448291461037b578063b5d73ba4146103cc578063c610384314610411578063d9d4503814610428578063ef8e26a31461047957610109565b806378e97925146102b757806388fd65cc146102e25780638da5cb5b1461030f578063a1b938541461035057610109565b80634665096d116100d15780634665096d146101cf57806356f225e8146101fa578063584215b51461024b578063672bf6051461028c57610109565b80630bc1abe11461010b5780633741f9f6146101385780633da8bfc91461016357806345e05f431461018e57610109565b3661010957005b005b34801561011757600080fd5b50610120610490565b60405180821515815260200191505060405180910390f35b34801561014457600080fd5b5061014d6104a3565b6040518082815260200191505060405180910390f35b34801561016f57600080fd5b506101786104a9565b6040518082815260200191505060405180910390f35b34801561019a57600080fd5b506101a36104af565b604051808273ffffffffffffffffffffffffffffffffffffffff16815260200191505060405180910390f35b3480156101db57600080fd5b506101e46104d3565b6040518082815260200191505060405180910390f35b34801561020657600080fd5b506102496004803603602081101561021d57600080fd5b81019080803573ffffffffffffffffffffffffffffffffffffffff1690602001909291905050506104f7565b005b34801561025757600080fd5b506102606107bf565b604051808273ffffffffffffffffffffffffffffffffffffffff16815260200191505060405180910390f35b34801561029857600080fd5b506102a16107e3565b6040518082815260200191505060405180910390f35b3480156102c357600080fd5b506102cc610807565b6040518082815260200191505060405180910390f35b3480156102ee57600080fd5b506102f761082b565b60405180821515815260200191505060405180910390f35b34801561031b57600080fd5b5061032461083e565b604051808273ffffffffffffffffffffffffffffffffffffffff16815260200191505060405180910390f35b34801561035c57600080fd5b50610365610862565b6040518082815260200191505060405180910390f35b34801561038757600080fd5b506103ca6004803603602081101561039e57600080fd5b81019080803573ffffffffffffffffffffffffffffffffffffffff169060200190929190505050610886565b005b3480156103d857600080fd5b5061040f600480360360408110156103ef57600080fd5b810190808035906020019092919080359060200190929190505050610a59565b005b34801561041d57600080fd5b50610426610c67565b005b34801561043457600080fd5b506104776004803603602081101561044b57600080fd5b81019080803573ffffffffffffffffffffffffffffffffffffffff16906020019092919050505061122d565b005b34801561048557600080fd5b5061048e61146b565b005b600060149054906101000a900460ff1681565b60025481565b60015481565b7f000000000000000000000000000000000000000000000000000000000000000081565b7f000000000000000000000000000000000000000000000000000000000000000081565b7f000000000000000000000000000000000000000000000000000000000000000073ffffffffffffffffffffffffffffffffffffffff163373ffffffffffffffffffffffffffffffffffffffff161461059b576040517f08c379a000000000000000000000000000000000000000000000000000000000815260040180806020018281038252602c81526020018061179a602c913960400191505060405180910390fd5b427f000000000000000000000000000000000000000000000000000000000000000073ffffffffffffffffffffffffffffffffffffffff1663a814001f6040518163ffffffff1660e01b815260040160206040518083038186803b15801561060257600080fd5b505afa158015610616573d6000803e3d6000fd5b505050506040513d602081101561062c57600080fd5b8101908080519060200190929190505050116106b0576040517f08c379a00000000000000000000000000000000000000000000000000000000081526004018080602001828103825260168152602001807f4d61696e20636f6e747261637420657870697265642e0000000000000000000081525060200191505060405180910390fd5b8073ffffffffffffffffffffffffffffffffffffffff166388fd65cc6040518163ffffffff1660e01b815260040160206040518083038186803b1580156106f657600080fd5b505afa15801561070a573d6000803e3d6000fd5b505050506040513d602081101561072057600080fd5b8101908080519060200190929190505050610786576040517f08c379a000000000000000000000000000000000000000000000000000000000815260040180806020018281038252604f81526020018061182d604f913960600191505060405180910390fd5b7f000000000000000000000000000000000000000000000000000000000000000073ffffffffffffffffffffffffffffffffffffffff16ff5b60008054906101000a900473ffffffffffffffffffffffffffffffffffffffff1681565b7f000000000000000000000000000000000000000000000000000000000000000081565b7f000000000000000000000000000000000000000000000000000000000000000081565b600060159054906101000a900460ff1681565b7f000000000000000000000000000000000000000000000000000000000000000081565b7f000000000000000000000000000000000000000000000000000000000000000081565b7f000000000000000000000000000000000000000000000000000000000000000073ffffffffffffffffffffffffffffffffffffffff163373ffffffffffffffffffffffffffffffffffffffff161461092a576040517f08c379a000000000000000000000000000000000000000000000000000000000815260040180806020018281038252602c81526020018061179a602c913960400191505060405180910390fd5b427f000000000000000000000000000000000000000000000000000000000000000073ffffffffffffffffffffffffffffffffffffffff1663a814001f6040518163ffffffff1660e01b815260040160206040518083038186803b15801561099157600080fd5b505afa1580156109a5573d6000803e3d6000fd5b505050506040513d60208110156109bb57600080fd5b81019080805190602001909291905050501115610a40576040517f08c379a000000000000000000000000000000000000000000000000000000000815260040180806020018281038252601e8152602001807f4d61696e20636f6e7472616374206e6f742079657420657870697265642e000081525060200191505060405180910390fd5b8073ffffffffffffffffffffffffffffffffffffffff16ff5b7f000000000000000000000000000000000000000000000000000000000000000073ffffffffffffffffffffffffffffffffffffffff16637dc0d1d06040518163ffffffff1660e01b815260040160206040518083038186803b158015610abf57600080fd5b505afa158015610ad3573d6000803e3d6000fd5b505050506040513d6020811015610ae957600080fd5b810190808051906020019092919050505073ffffffffffffffffffffffffffffffffffffffff163373ffffffffffffffffffffffffffffffffffffffff1614610b7d576040517f08c379a00000000000000000000000000000000000000000000000000000000081526004018080602001828103825260258152602001806118086025913960400191505060405180910390fd5b6003600082815260200190815260200160002060009054906101000a900460ff16610bf3576040517f08c379a000000000000000000000000000000000000000000000000000000000815260040180806020018281038252602781526020018061190f6027913960400191505060405180910390fd5b81600181905550426002819055506003600082815260200190815260200160002060006101000a81549060ff02191690557fbb982b83e84d8c224d47d0ffbe2ed070a3574bc4babb08180953e2d34b6789a98282604051808381526020018281526020019250505060405180910390a15050565b7f000000000000000000000000000000000000000000000000000000000000000073ffffffffffffffffffffffffffffffffffffffff163373ffffffffffffffffffffffffffffffffffffffff1614610d0b576040517f08c379a000000000000000000000000000000000000000000000000000000000815260040180806020018281038252602881526020018061187c6028913960400191505060405180910390fd5b427f00000000000000000000000000000000000000000000000000000000000000001115610da1576040517f08c379a000000000000000000000000000000000000000000000000000000000815260040180806020018281038252601c8152602001807f537562636f6e7472616374206e6f742079657420657870697265642e0000000081525060200191505060405180910390fd5b60001515600060149054906101000a900460ff16151514610e0d576040517f08c379a00000000000000000000000000000000000000000000000000000000081526004018080602001828103825260428152602001806117c66042913960600191505060405180910390fd5b60007f00000000000000000000000000000000000000000000000000000000000000009050428173ffffffffffffffffffffffffffffffffffffffff1663a814001f6040518163ffffffff1660e01b815260040160206040518083038186803b158015610e7957600080fd5b505afa158015610e8d573d6000803e3d6000fd5b505050506040513d6020811015610ea357600080fd5b810190808051906020019092919050505011610f27576040517f08c379a00000000000000000000000000000000000000000000000000000000081526004018080602001828103825260168152602001807f4d61696e20636f6e747261637420657870697265642e0000000000000000000081525060200191505060405180910390fd5b60008173ffffffffffffffffffffffffffffffffffffffff1663c4b641ab6040518163ffffffff1660e01b815260040160206040518083038186803b158015610f6f57600080fd5b505afa158015610f83573d6000803e3d6000fd5b505050506040513d6020811015610f9957600080fd5b810190808051906020019092919050505090508060017f000000000000000000000000000000000000000000000000000000000000000001148061102a5750600073ffffffffffffffffffffffffffffffffffffffff1660008054906101000a900473ffffffffffffffffffffffffffffffffffffffff1673ffffffffffffffffffffffffffffffffffffffff1614155b15611134577f000000000000000000000000000000000000000000000000000000000000000060025410156110aa576040517f08c379a000000000000000000000000000000000000000000000000000000000815260040180806020018281038252604a8152602001806118c5604a913960600191505060405180910390fd5b60007f000000000000000000000000000000000000000000000000000000000000000073ffffffffffffffffffffffffffffffffffffffff166108fc829081150290604051600060405180830381858888f19350505050158015611112573d6000803e3d6000fd5b506001600060146101000a81548160ff02191690831515021790555050611229565b427f000000000000000000000000000000000000000000000000000000000000000011156111ad576040517f08c379a00000000000000000000000000000000000000000000000000000000081526004018080602001828103825260218152602001806118a46021913960400191505060405180910390fd5b6001600060156101000a81548160ff0219169083151502179055508173ffffffffffffffffffffffffffffffffffffffff1663c61038436040518163ffffffff1660e01b8152600401600060405180830381600087803b15801561121057600080fd5b505af1158015611224573d6000803e3d6000fd5b505050505b5050565b7f000000000000000000000000000000000000000000000000000000000000000073ffffffffffffffffffffffffffffffffffffffff163373ffffffffffffffffffffffffffffffffffffffff16146112d1576040517f08c379a000000000000000000000000000000000000000000000000000000000815260040180806020018281038252602c81526020018061179a602c913960400191505060405180910390fd5b427f000000000000000000000000000000000000000000000000000000000000000011611366576040517f08c379a000000000000000000000000000000000000000000000000000000000815260040180806020018281038252601b8152602001807f53656c6c657220677261636520706572696f64207061737365642e000000000081525060200191505060405180910390fd5b600073ffffffffffffffffffffffffffffffffffffffff1660008054906101000a900473ffffffffffffffffffffffffffffffffffffffff1673ffffffffffffffffffffffffffffffffffffffff1614611428576040517f08c379a000000000000000000000000000000000000000000000000000000000815260040180806020018281038252601d8152602001807f4e65787420737562636f6e747261637420616c7265616479207365742e00000081525060200191505060405180910390fd5b806000806101000a81548173ffffffffffffffffffffffffffffffffffffffff021916908373ffffffffffffffffffffffffffffffffffffffff16021790555050565b7f000000000000000000000000000000000000000000000000000000000000000073ffffffffffffffffffffffffffffffffffffffff163373ffffffffffffffffffffffffffffffffffffffff161461150f576040517f08c379a000000000000000000000000000000000000000000000000000000000815260040180806020018281038252602881526020018061187c6028913960400191505060405180910390fd5b60001515600060149054906101000a900460ff1615151461157b576040517f08c379a00000000000000000000000000000000000000000000000000000000081526004018080602001828103825260428152602001806117c66042913960600191505060405180910390fd5b60007f00000000000000000000000000000000000000000000000000000000000000004210156115ad574290506115d1565b7f000000000000000000000000000000000000000000000000000000000000000090505b60007f000000000000000000000000000000000000000000000000000000000000000073ffffffffffffffffffffffffffffffffffffffff16637dc0d1d06040518163ffffffff1660e01b815260040160206040518083038186803b15801561163957600080fd5b505afa15801561164d573d6000803e3d6000fd5b505050506040513d602081101561166357600080fd5b810190808051906020019092919050505073ffffffffffffffffffffffffffffffffffffffff16636cd18ce77f00000000000000000000000000000000000000000000000000000000000000007f0000000000000000000000000000000000000000000000000000000000000000856040518463ffffffff1660e01b8152600401808473ffffffffffffffffffffffffffffffffffffffff1681526020018381526020018281526020019350505050602060405180830381600087803b15801561172c57600080fd5b505af1158015611740573d6000803e3d6000fd5b505050506040513d602081101561175657600080fd5b8101908080519060200190929190505050905060016003600083815260200190815260200160002060006101000a81548160ff021916908315150217905550505056fe4f6e6c7920746865206d61696e20636f6e74726163742063616e2063616c6c2074686973206d6574686f642e416666696c6961746520616c72656164792063616c6c6564207265736f6c7665207375636365737366756c6c79206f6e207468697320737562636f6e74726163742e4f6e6c7920746865206f7261636c652063616e2063616c6c2074686973206d6574686f642e50726f766964656420737562636f6e7472616374206164647265737320646f6573206e6f742068617665206772616365506572696f644578706972656420666c61672073657420746f20747275652e4f6e6c792074686520616666696c696174652063616e2063616c6c2074686973206d6574686f642e53656c6c657220677261636520706572696f64206e6f7420796574206f7665722e43757272656e7420746f74616c206973206e6f7420757020746f20646174652c20616666696c69617465206d7573742063616c6c2075706461746543757272656e74546f74616c28292e546869732072657175657374206973206e6f7420696e206d792070656e64696e67206c6973742ea2646970667358221220d95f9c65dba902cfab448a232b27df17746a0e1af3ef4fa0b65b8014938f4e9c64736f6c6343000704003343616e6e6f742062652063616c6c6564206279206c61737420737562636f6e74726163742e43616c6c657220737562636f6e7472616374206e6f742079657420657870697265642e4f6e6c7920746865206f776e65722063616e2063616c6c2074686973206d6574686f642e43616c6c657220737562636f6e74726163742073656c6c657220677261636520706572696f64206e6f7420796574207061737365642e546f74616c206e756d626572206f6620737562636f6e7472616374732065786365656465642e4f6e6c79206120737562636f6e74726163742063616e2063616c6c2074686973206d6574686f642e546865206c61737420737562636f6e7472616374206973206e6f742079657420657870697265642e5468652073656c6c657220677261636520706572696f6420616c726561647920656e6465642ea2646970667358221220254016792c1a171c151c577cf90524f6a151b1892000afe7243a99fbb6d4c53664736f6c6343000704003361014060405260008060006101000a81548173ffffffffffffffffffffffffffffffffffffffff021916908373ffffffffffffffffffffffffffffffffffffffff16021790555060008060146101000a81548160ff02191690831515021790555060008060156101000a81548160ff021916908315150217905550604051611b93380380611b93833981810160405260a081101561009c57600080fd5b8101908080519060200190929190805190602001909291908051906020019092919080519060200190929190805190602001909291905050503373ffffffffffffffffffffffffffffffffffffffff1660808173ffffffffffffffffffffffffffffffffffffffff1660601b815250508473ffffffffffffffffffffffffffffffffffffffff1660a08173ffffffffffffffffffffffffffffffffffffffff1660601b8152505083820160c08181525050828483010160e08181525050816101208181525050806101008181525050505050505060805160601c60a05160601c60c05160e051610100516101205161196b6102286000398061080952806116b25250806107e55280610fb1525080610864528061113752806112d45250806104d55280610d0e5280611031528061157f52806115af5250806104b152806107885280610c6952806110ae528061146d52806116915250806104f9528061059e52806108405280610888528061092d5280610a5b5280610e11528061122f52806115d5525061196b6000f3fe6080604052600436106101025760003560e01c806378e9792511610095578063ac44482911610064578063ac4448291461037b578063b5d73ba4146103cc578063c610384314610411578063d9d4503814610428578063ef8e26a31461047957610109565b806378e97925146102b757806388fd65cc146102e25780638da5cb5b1461030f578063a1b938541461035057610109565b80634665096d116100d15780634665096d146101cf57806356f225e8146101fa578063584215b51461024b578063672bf6051461028c57610109565b80630bc1abe11461010b5780633741f9f6146101385780633da8bfc91461016357806345e05f431461018e57610109565b3661010957005b005b34801561011757600080fd5b50610120610490565b60405180821515815260200191505060405180910390f35b34801561014457600080fd5b5061014d6104a3565b6040518082815260200191505060405180910390f35b34801561016f57600080fd5b506101786104a9565b6040518082815260200191505060405180910390f35b34801561019a57600080fd5b506101a36104af565b604051808273ffffffffffffffffffffffffffffffffffffffff16815260200191505060405180910390f35b3480156101db57600080fd5b506101e46104d3565b6040518082815260200191505060405180910390f35b34801561020657600080fd5b506102496004803603602081101561021d57600080fd5b81019080803573ffffffffffffffffffffffffffffffffffffffff1690602001909291905050506104f7565b005b34801561025757600080fd5b506102606107bf565b604051808273ffffffffffffffffffffffffffffffffffffffff16815260200191505060405180910390f35b34801561029857600080fd5b506102a16107e3565b6040518082815260200191505060405180910390f35b3480156102c357600080fd5b506102cc610807565b6040518082815260200191505060405180910390f35b3480156102ee57600080fd5b506102f761082b565b60405180821515815260200191505060405180910390f35b34801561031b57600080fd5b5061032461083e565b604051808273ffffffffffffffffffffffffffffffffffffffff16815260200191505060405180910390f35b34801561035c57600080fd5b50610365610862565b6040518082815260200191505060405180910390f35b34801561038757600080fd5b506103ca6004803603602081101561039e57600080fd5b81019080803573ffffffffffffffffffffffffffffffffffffffff169060200190929190505050610886565b005b3480156103d857600080fd5b5061040f600480360360408110156103ef57600080fd5b810190808035906020019092919080359060200190929190505050610a59565b005b34801561041d57600080fd5b50610426610c67565b005b34801561043457600080fd5b506104776004803603602081101561044b57600080fd5b81019080803573ffffffffffffffffffffffffffffffffffffffff16906020019092919050505061122d565b005b34801561048557600080fd5b5061048e61146b565b005b600060149054906101000a900460ff1681565b60025481565b60015481565b7f000000000000000000000000000000000000000000000000000000000000000081565b7f000000000000000000000000000000000000000000000000000000000000000081565b7f000000000000000000000000000000000000000000000000000000000000000073ffffffffffffffffffffffffffffffffffffffff163373ffffffffffffffffffffffffffffffffffffffff161461059b576040517f08c379a000000000000000000000000000000000000000000000000000000000815260040180806020018281038252602c81526020018061179a602c913960400191505060405180910390fd5b427f000000000000000000000000000000000000000000000000000000000000000073ffffffffffffffffffffffffffffffffffffffff1663a814001f6040518163ffffffff1660e01b815260040160206040518083038186803b15801561060257600080fd5b505afa158015610616573d6000803e3d6000fd5b505050506040513d602081101561062c57600080fd5b8101908080519060200190929190505050116106b0576040517f08c379a00000000000000000000000000000000000000000000000000000000081526004018080602001828103825260168152602001807f4d61696e20636f6e747261637420657870697265642e0000000000000000000081525060200191505060405180910390fd5b8073ffffffffffffffffffffffffffffffffffffffff166388fd65cc6040518163ffffffff1660e01b815260040160206040518083038186803b1580156106f657600080fd5b505afa15801561070a573d6000803e3d6000fd5b505050506040513d602081101561072057600080fd5b8101908080519060200190929190505050610786576040517f08c379a000000000000000000000000000000000000000000000000000000000815260040180806020018281038252604f81526020018061182d604f913960600191505060405180910390fd5b7f000000000000000000000000000000000000000000000000000000000000000073ffffffffffffffffffffffffffffffffffffffff16ff5b60008054906101000a900473ffffffffffffffffffffffffffffffffffffffff1681565b7f000000000000000000000000000000000000000000000000000000000000000081565b7f000000000000000000000000000000000000000000000000000000000000000081565b600060159054906101000a900460ff1681565b7f000000000000000000000000000000000000000000000000000000000000000081565b7f000000000000000000000000000000000000000000000000000000000000000081565b7f000000000000000000000000000000000000000000000000000000000000000073ffffffffffffffffffffffffffffffffffffffff163373ffffffffffffffffffffffffffffffffffffffff161461092a576040517f08c379a000000000000000000000000000000000000000000000000000000000815260040180806020018281038252602c81526020018061179a602c913960400191505060405180910390fd5b427f000000000000000000000000000000000000000000000000000000000000000073ffffffffffffffffffffffffffffffffffffffff1663a814001f6040518163ffffffff1660e01b815260040160206040518083038186803b15801561099157600080fd5b505afa1580156109a5573d6000803e3d6000fd5b505050506040513d60208110156109bb57600080fd5b81019080805190602001909291905050501115610a40576040517f08c379a000000000000000000000000000000000000000000000000000000000815260040180806020018281038252601e8152602001807f4d61696e20636f6e7472616374206e6f742079657420657870697265642e000081525060200191505060405180910390fd5b8073ffffffffffffffffffffffffffffffffffffffff16ff5b7f000000000000000000000000000000000000000000000000000000000000000073ffffffffffffffffffffffffffffffffffffffff16637dc0d1d06040518163ffffffff1660e01b815260040160206040518083038186803b158015610abf57600080fd5b505afa158015610ad3573d6000803e3d6000fd5b505050506040513d6020811015610ae957600080fd5b810190808051906020019092919050505073ffffffffffffffffffffffffffffffffffffffff163373ffffffffffffffffffffffffffffffffffffffff1614610b7d576040517f08c379a00000000000000000000000000000000000000000000000000000000081526004018080602001828103825260258152602001806118086025913960400191505060405180910390fd5b6003600082815260200190815260200160002060009054906101000a900460ff16610bf3576040517f08c379a000000000000000000000000000000000000000000000000000000000815260040180806020018281038252602781526020018061190f6027913960400191505060405180910390fd5b81600181905550426002819055506003600082815260200190815260200160002060006101000a81549060ff02191690557fbb982b83e84d8c224d47d0ffbe2ed070a3574bc4babb08180953e2d34b6789a98282604051808381526020018281526020019250505060405180910390a15050565b7f000000000000000000000000000000000000000000000000000000000000000073ffffffffffffffffffffffffffffffffffffffff163373ffffffffffffffffffffffffffffffffffffffff1614610d0b576040517f08c379a000000000000000000000000000000000000000000000000000000000815260040180806020018281038252602881526020018061187c6028913960400191505060405180910390fd5b427f00000000000000000000000000000000000000000000000000000000000000001115610da1576040517f08c379a000000000000000000000000000000000000000000000000000000000815260040180806020018281038252601c8152602001807f537562636f6e7472616374206e6f742079657420657870697265642e0000000081525060200191505060405180910390fd5b60001515600060149054906101000a900460ff16151514610e0d576040517f08c379a00000000000000000000000000000000000000000000000000000000081526004018080602001828103825260428152602001806117c66042913960600191505060405180910390fd5b60007f00000000000000000000000000000000000000000000000000000000000000009050428173ffffffffffffffffffffffffffffffffffffffff1663a814001f6040518163ffffffff1660e01b815260040160206040518083038186803b158015610e7957600080fd5b505afa158015610e8d573d6000803e3d6000fd5b505050506040513d6020811015610ea357600080fd5b810190808051906020019092919050505011610f27576040517f08c379a00000000000000000000000000000000000000000000000000000000081526004018080602001828103825260168152602001807f4d61696e20636f6e747261637420657870697265642e0000000000000000000081525060200191505060405180910390fd5b60008173ffffffffffffffffffffffffffffffffffffffff1663c4b641ab6040518163ffffffff1660e01b815260040160206040518083038186803b158015610f6f57600080fd5b505afa158015610f83573d6000803e3d6000fd5b505050506040513d6020811015610f9957600080fd5b810190808051906020019092919050505090508060017f000000000000000000000000000000000000000000000000000000000000000001148061102a5750600073ffffffffffffffffffffffffffffffffffffffff1660008054906101000a900473ffffffffffffffffffffffffffffffffffffffff1673ffffffffffffffffffffffffffffffffffffffff1614155b15611134577f000000000000000000000000000000000000000000000000000000000000000060025410156110aa576040517f08c379a000000000000000000000000000000000000000000000000000000000815260040180806020018281038252604a8152602001806118c5604a913960600191505060405180910390fd5b60007f000000000000000000000000000000000000000000000000000000000000000073ffffffffffffffffffffffffffffffffffffffff166108fc829081150290604051600060405180830381858888f19350505050158015611112573d6000803e3d6000fd5b506001600060146101000a81548160ff02191690831515021790555050611229565b427f000000000000000000000000000000000000000000000000000000000000000011156111ad576040517f08c379a00000000000000000000000000000000000000000000000000000000081526004018080602001828103825260218152602001806118a46021913960400191505060405180910390fd5b6001600060156101000a81548160ff0219169083151502179055508173ffffffffffffffffffffffffffffffffffffffff1663c61038436040518163ffffffff1660e01b8152600401600060405180830381600087803b15801561121057600080fd5b505af1158015611224573d6000803e3d6000fd5b505050505b5050565b7f000000000000000000000000000000000000000000000000000000000000000073ffffffffffffffffffffffffffffffffffffffff163373ffffffffffffffffffffffffffffffffffffffff16146112d1576040517f08c379a000000000000000000000000000000000000000000000000000000000815260040180806020018281038252602c81526020018061179a602c913960400191505060405180910390fd5b427f000000000000000000000000000000000000000000000000000000000000000011611366576040517f08c379a000000000000000000000000000000000000000000000000000000000815260040180806020018281038252601b8152602001807f53656c6c657220677261636520706572696f64207061737365642e000000000081525060200191505060405180910390fd5b600073ffffffffffffffffffffffffffffffffffffffff1660008054906101000a900473ffffffffffffffffffffffffffffffffffffffff1673ffffffffffffffffffffffffffffffffffffffff1614611428576040517f08c379a000000000000000000000000000000000000000000000000000000000815260040180806020018281038252601d8152602001807f4e65787420737562636f6e747261637420616c7265616479207365742e00000081525060200191505060405180910390fd5b806000806101000a81548173ffffffffffffffffffffffffffffffffffffffff021916908373ffffffffffffffffffffffffffffffffffffffff16021790555050565b7f000000000000000000000000000000000000000000000000000000000000000073ffffffffffffffffffffffffffffffffffffffff163373ffffffffffffffffffffffffffffffffffffffff161461150f576040517f08c379a000000000000000000000000000000000000000000000000000000000815260040180806020018281038252602881526020018061187c6028913960400191505060405180910390fd5b60001515600060149054906101000a900460ff1615151461157b576040517f08c379a00000000000000000000000000000000000000000000000000000000081526004018080602001828103825260428152602001806117c66042913960600191505060405180910390fd5b60007f00000000000000000000000000000000000000000000000000000000000000004210156115ad574290506115d1565b7f000000000000000000000000000000000000000000000000000000000000000090505b60007f000000000000000000000000000000000000000000000000000000000000000073ffffffffffffffffffffffffffffffffffffffff16637dc0d1d06040518163ffffffff1660e01b815260040160206040518083038186803b15801561163957600080fd5b505afa15801561164d573d6000803e3d6000fd5b505050506040513d602081101561166357600080fd5b810190808051906020019092919050505073ffffffffffffffffffffffffffffffffffffffff16636cd18ce77f00000000000000000000000000000000000000000000000000000000000000007f0000000000000000000000000000000000000000000000000000000000000000856040518463ffffffff1660e01b8152600401808473ffffffffffffffffffffffffffffffffffffffff1681526020018381526020018281526020019350505050602060405180830381600087803b15801561172c57600080fd5b505af1158015611740573d6000803e3d6000fd5b505050506040513d602081101561175657600080fd5b8101908080519060200190929190505050905060016003600083815260200190815260200160002060006101000a81548160ff021916908315150217905550505056fe4f6e6c7920746865206d61696e20636f6e74726163742063616e2063616c6c2074686973206d6574686f642e416666696c6961746520616c72656164792063616c6c6564207265736f6c7665207375636365737366756c6c79206f6e207468697320737562636f6e74726163742e4f6e6c7920746865206f7261636c652063616e2063616c6c2074686973206d6574686f642e50726f766964656420737562636f6e7472616374206164647265737320646f6573206e6f742068617665206772616365506572696f644578706972656420666c61672073657420746f20747275652e4f6e6c792074686520616666696c696174652063616e2063616c6c2074686973206d6574686f642e53656c6c657220677261636520706572696f64206e6f7420796574206f7665722e43757272656e7420746f74616c206973206e6f7420757020746f20646174652c20616666696c69617465206d7573742063616c6c2075706461746543757272656e74546f74616c28292e546869732072657175657374206973206e6f7420696e206d792070656e64696e67206c6973742ea2646970667358221220d95f9c65dba902cfab448a232b27df17746a0e1af3ef4fa0b65b8014938f4e9c64736f6c63430007040033746f74616c20737562636f6e747261637473206d757374206265206174206c656173742033616d6f756e742073656e7420746f20636f6e7374727563746f72206d75737420657175616c20696e63656e746976652066656520706c7573206f6e6520737562636f6e7472616374207374616b65",
  "immutableReferences": {
    "10": [
      {
        "length": 32,
        "start": 1225
      },
      {
        "length": 32,
        "start": 1531
      },
      {
        "length": 32,
        "start": 2048
      },
      {
        "length": 32,
        "start": 2196
      },
      {
        "length": 32,
        "start": 2253
      },
      {
        "length": 32,
        "start": 4207
      }
    ],
    "12": [
      {
        "length": 32,
        "start": 1189
      },
      {
        "length": 32,
        "start": 4150
      },
      {
        "length": 32,
        "start": 5291
      }
    ],
    "14": [
      {
        "length": 32,
        "start": 2547
      },
      {
        "length": 32,
        "start": 3397
      },
      {
        "length": 32,
        "start": 4520
      }
    ],
    "22": [
      {
        "length": 32,
        "start": 1696
      },
      {
        "length": 32,
        "start": 2475
      },
      {
        "length": 32,
        "start": 2584
      },
      {
        "length": 32,
        "start": 4372
      }
    ],
    "24": [
      {
        "length": 32,
        "start": 1457
      },
      {
        "length": 32,
        "start": 5324
      }
    ],
    "26": [
      {
        "length": 32,
        "start": 2511
      },
      {
        "length": 32,
        "start": 5357
      }
    ],
    "28": [
      {
        "length": 32,
        "start": 1153
      },
      {
        "length": 32,
        "start": 4642
      }
    ],
    "30": [
      {
        "length": 32,
        "start": 1111
      }
    ],
    "32": [
      {
        "length": 32,
        "start": 2289
      }
    ]
  },
  "source": "// SPDX-License-Identifier: UNLICENSED\npragma solidity ^0.7.4;\n\nimport * as SC from \"./AffiliateSubcontract.sol\";\n\ncontract AffiliateContract {\n  // The minimum number of subcontracts is 3.\n  uint constant MIN_TOTAL_SUBCONTRACTS = 3;\n  // The amount of time that's added on to the contract expiration time so that the affiliate has extra time to clear out all subcontracts.\n  // PLACEHOLDER - NEED TO FIX\n  uint256 constant CONTRACT_END_GRACE_PERIOD = 300;\n\n  // The business that wants to pay affiliates. Set to the address that calls the contract's constructor.\n  address payable public immutable owner;\n  // The affiliate's personal address that funds will be sent to.\n  address payable public immutable affiliate;\n\n  // The total number of subcontracts that can be created from this one.\n  uint public immutable totalSubcontracts;\n  // The number of the latest created subcontract.\n  uint public subcontractsSoFar = 0;\n  // Array containing the subcontracts\n  // Storage array (by default)\n  address payable[] public subcontracts;\n\n  // When the main contract will expire\n  uint256 public immutable contractExpiration;\n  // The length of time each subcontract will be valid for\n  uint256 public immutable subcontractDuration;\n  // The seller's grace period for issuing a new subcontract\n  uint256 public immutable gracePeriodDuration;\n\n  // The amount that will be staked for the affiliate to earn in each subcontract.\n  uint public immutable subcontractStake;\n  // The amount of the incentive fee staked by the seller to incentivize them to hold up their end of the deal.\n  uint public immutable incentiveFee;\n  // An integer representing the percentage of sales that the affiliate will receive. \n  uint public immutable affiliatePercentage;\n\n  // The address of the oracle contract.\n  address public oracle;\n\n  // The constructor should be called with the amount of the incentive fee plus the first contract stake.\n  constructor(\n    address payable _affiliate,\n    address _oracle,\n    uint _totalSubcontracts,\n    uint256 _subcontractDuration,\n    uint256 _gracePeriodDuration,\n    uint _subcontractStake,\n    uint _incentiveFee,\n    uint _affiliatePercentage\n  ) payable {\n    require(msg.value == (_incentiveFee + _subcontractStake), \"amount sent to constructor must equal incentive fee plus one subcontract stake\");\n    require(_totalSubcontracts >= MIN_TOTAL_SUBCONTRACTS, \"total subcontracts must be at least 3\");\n    owner = msg.sender;\n    affiliate = _affiliate;\n    oracle = _oracle;\n    totalSubcontracts = _totalSubcontracts;\n    // PLACEHOLDER - check this???\n    contractExpiration = block.timestamp + (_totalSubcontracts*_subcontractDuration) + CONTRACT_END_GRACE_PERIOD;\n    subcontractDuration = _subcontractDuration;\n    gracePeriodDuration = _gracePeriodDuration;\n    subcontractStake = _subcontractStake;\n    incentiveFee = _incentiveFee;\n    affiliatePercentage = _affiliatePercentage;\n\n    // Creating the first subcontract.\n    // REMEMBER THAT SUBCONTRACTSSOFAR MUST HAVE 1 SUBTRACTED BEFORE USING FOR INDEXING\n    subcontracts.push(address((new SC.AffiliateSubcontract){value: _subcontractStake}(_affiliate, _subcontractDuration, _gracePeriodDuration, block.timestamp, 0)));\n    subcontractsSoFar++;\n  }\n\n  receive() external payable { }\n  fallback() external payable { }\n\n  modifier onlyOwner {\n    require(msg.sender == owner, \"Only the owner can call this method.\");\n    _;\n  }\n\n  modifier contractNotExpired {\n    require(contractExpiration > block.timestamp, \"Main contract expired.\");\n    _;\n  }\n\n  function setOracleAddress (address _oracleAddress) public onlyOwner {\n    oracle = _oracleAddress;\n  }\n\n  function getCurrentSubcontract() public view returns(address payable) {\n    if (subcontractsSoFar > 0) {\n      return subcontracts[subcontractsSoFar - 1];\n    } else {\n      return address(0x0);\n    }\n  }\n\n  // called by the owner\n  function createNextSubContract() public payable onlyOwner contractNotExpired {\n    require(subcontractsSoFar < totalSubcontracts, \"Total number of subcontracts exceeded.\");\n    require(msg.value == subcontractStake, \"Incorrect stake amount.\");\n    // Getting a reference to the previous/\"current\" subcontract\n    SC.AffiliateSubcontract lastSubcontract = SC.AffiliateSubcontract(subcontracts[subcontractsSoFar - 1]);\n    // Checking all the conditions necessary for making the next subcontract.\n    require(lastSubcontract.expiration() <= block.timestamp, \"The last subcontract is not yet expired.\");\n    require(lastSubcontract.sellerGracePeriodEnd() > block.timestamp, \"The seller grace period already ended.\");\n    // msg.value = total amount the subcontract will be populated with \n    subcontracts.push(address((new SC.AffiliateSubcontract){value: msg.value}(affiliate, subcontractDuration, gracePeriodDuration, lastSubcontract.expiration(), subcontractsSoFar)));\n    lastSubcontract.setNextSubcontract(subcontracts[subcontractsSoFar]);\n    subcontractsSoFar++;\n  }\n\n  // only called in dispute case\n  function affiliateResolve() public contractNotExpired {\n    bool calledBySubcontract = false;\n    for (uint i = 0; i < subcontractsSoFar; i++) {\n      if (subcontracts[i] == msg.sender) {\n        calledBySubcontract = true;\n      }\n    }\n    require(calledBySubcontract, \"Only a subcontract can call this method.\");\n    SC.AffiliateSubcontract callerSubcontract = SC.AffiliateSubcontract(msg.sender);\n    require(callerSubcontract.expiration() <= block.timestamp, \"Caller subcontract not yet expired.\");\n    require(callerSubcontract.sellerGracePeriodEnd() <= block.timestamp, \"Caller subcontract seller grace period not yet passed.\");\n    require((callerSubcontract.indexNumber() + 1) != totalSubcontracts, \"Cannot be called by last subcontract.\");\n    require(callerSubcontract.nextSubcontract() == address(0x0), \"Next subcontract is present.\");\n    for (uint i = 0; i < subcontractsSoFar; i++) {\n      SC.AffiliateSubcontract(subcontracts[i]).affiliateCleanup(msg.sender);\n    }\n    selfdestruct(affiliate);\n  }\n\n  function sellerResolve() public onlyOwner {\n    require(contractExpiration <= block.timestamp, \"Main contract not yet expired.\");\n    for (uint i = 0; i < subcontractsSoFar; i++) {\n      if (subcontracts[i] != address(0x0)) {\n        SC.AffiliateSubcontract(subcontracts[i]).sellerResolve(owner);\n      }\n    }\n    selfdestruct(owner);\n  }\n}",
  "sourcePath": "/home/madsilva/dev/blockchain/blockchain-project/truffle/contracts/AffiliateContract.sol",
  "compiler": {
    "name": "solc",
    "version": "0.7.4+commit.3f05b770.Emscripten.clang"
  },
  "schemaVersion": "3.3.2",
  "updatedAt": "2020-12-04T00:43:12.901Z",
  "devdoc": {
    "kind": "dev",
    "methods": {},
    "version": 1
  },
  "userdoc": {
    "kind": "user",
    "methods": {},
    "version": 1
  }
}