{
  "contractName": "AffiliateContract",
  "abi": [
    {
      "inputs": [
        {
          "internalType": "address payable",
          "name": "_affiliate",
          "type": "address"
        },
        {
          "internalType": "address",
          "name": "_oracle",
          "type": "address"
        },
        {
          "internalType": "uint256",
          "name": "_totalSubcontracts",
          "type": "uint256"
        },
        {
          "internalType": "uint256",
          "name": "_subcontractDuration",
          "type": "uint256"
        },
        {
          "internalType": "uint256",
          "name": "_gracePeriodDuration",
          "type": "uint256"
        },
        {
          "internalType": "uint256",
          "name": "_contractEndGracePeriodDuration",
          "type": "uint256"
        },
        {
          "internalType": "uint256",
          "name": "_subcontractStake",
          "type": "uint256"
        },
        {
          "internalType": "uint256",
          "name": "_incentiveFee",
          "type": "uint256"
        },
        {
          "internalType": "bytes32",
          "name": "_affiliatePercentage",
          "type": "bytes32"
        }
      ],
      "stateMutability": "payable",
      "type": "constructor"
    },
    {
      "stateMutability": "payable",
      "type": "fallback"
    },
    {
      "inputs": [],
      "name": "affiliate",
      "outputs": [
        {
          "internalType": "address payable",
          "name": "",
          "type": "address"
        }
      ],
      "stateMutability": "view",
      "type": "function"
    },
    {
      "inputs": [],
      "name": "affiliatePercentage",
      "outputs": [
        {
          "internalType": "bytes32",
          "name": "",
          "type": "bytes32"
        }
      ],
      "stateMutability": "view",
      "type": "function"
    },
    {
      "inputs": [],
      "name": "contractExpiration",
      "outputs": [
        {
          "internalType": "uint256",
          "name": "",
          "type": "uint256"
        }
      ],
      "stateMutability": "view",
      "type": "function"
    },
    {
      "inputs": [],
      "name": "gracePeriodDuration",
      "outputs": [
        {
          "internalType": "uint256",
          "name": "",
          "type": "uint256"
        }
      ],
      "stateMutability": "view",
      "type": "function"
    },
    {
      "inputs": [],
      "name": "incentiveFee",
      "outputs": [
        {
          "internalType": "uint256",
          "name": "",
          "type": "uint256"
        }
      ],
      "stateMutability": "view",
      "type": "function"
    },
    {
      "inputs": [],
      "name": "oracle",
      "outputs": [
        {
          "internalType": "address",
          "name": "",
          "type": "address"
        }
      ],
      "stateMutability": "view",
      "type": "function"
    },
    {
      "inputs": [],
      "name": "owner",
      "outputs": [
        {
          "internalType": "address payable",
          "name": "",
          "type": "address"
        }
      ],
      "stateMutability": "view",
      "type": "function"
    },
    {
      "inputs": [],
      "name": "subcontractDuration",
      "outputs": [
        {
          "internalType": "uint256",
          "name": "",
          "type": "uint256"
        }
      ],
      "stateMutability": "view",
      "type": "function"
    },
    {
      "inputs": [],
      "name": "subcontractStake",
      "outputs": [
        {
          "internalType": "uint256",
          "name": "",
          "type": "uint256"
        }
      ],
      "stateMutability": "view",
      "type": "function"
    },
    {
      "inputs": [
        {
          "internalType": "uint256",
          "name": "",
          "type": "uint256"
        }
      ],
      "name": "subcontracts",
      "outputs": [
        {
          "internalType": "address payable",
          "name": "",
          "type": "address"
        }
      ],
      "stateMutability": "view",
      "type": "function"
    },
    {
      "inputs": [],
      "name": "subcontractsSoFar",
      "outputs": [
        {
          "internalType": "uint256",
          "name": "",
          "type": "uint256"
        }
      ],
      "stateMutability": "view",
      "type": "function"
    },
    {
      "inputs": [],
      "name": "totalSubcontracts",
      "outputs": [
        {
          "internalType": "uint256",
          "name": "",
          "type": "uint256"
        }
      ],
      "stateMutability": "view",
      "type": "function"
    },
    {
      "stateMutability": "payable",
      "type": "receive"
    },
    {
      "inputs": [
        {
          "internalType": "address",
          "name": "_oracleAddress",
          "type": "address"
        }
      ],
      "name": "setOracleAddress",
      "outputs": [],
      "stateMutability": "nonpayable",
      "type": "function"
    },
    {
      "inputs": [],
      "name": "getCurrentSubcontract",
      "outputs": [
        {
          "internalType": "address payable",
          "name": "",
          "type": "address"
        }
      ],
      "stateMutability": "view",
      "type": "function"
    },
    {
      "inputs": [
        {
          "internalType": "uint256",
          "name": "_rawTotal",
          "type": "uint256"
        }
      ],
      "name": "getAffiliateEarnings",
      "outputs": [
        {
          "internalType": "uint256",
          "name": "",
          "type": "uint256"
        }
      ],
      "stateMutability": "view",
      "type": "function"
    },
    {
      "inputs": [],
      "name": "createNextSubContract",
      "outputs": [],
      "stateMutability": "payable",
      "type": "function"
    },
    {
      "inputs": [],
      "name": "affiliateResolve",
      "outputs": [],
      "stateMutability": "nonpayable",
      "type": "function"
    },
    {
      "inputs": [],
      "name": "sellerResolve",
      "outputs": [],
      "stateMutability": "nonpayable",
      "type": "function"
    }
  ],
  "bytecode": "0x6101806040526000600155604051620055503803806200555083398181016040526101208110156200003057600080fd5b810190808051906020019092919080519060200190929190805190602001909291908051906020019092919080519060200190929190805190602001909291908051906020019092919080519060200190929190805190602001909291905050508282013414620000ed576040517f08c379a000000000000000000000000000000000000000000000000000000000815260040180806020018281038252604e81526020018062005502604e913960600191505060405180910390fd5b600387101562000149576040517f08c379a0000000000000000000000000000000000000000000000000000000008152600401808060200182810382526025815260200180620054dd6025913960400191505060405180910390fd5b3373ffffffffffffffffffffffffffffffffffffffff1660808173ffffffffffffffffffffffffffffffffffffffff1660601b815250508873ffffffffffffffffffffffffffffffffffffffff1660a08173ffffffffffffffffffffffffffffffffffffffff1660601b81525050876000806101000a81548173ffffffffffffffffffffffffffffffffffffffff021916908373ffffffffffffffffffffffffffffffffffffffff1602179055508660c081815250508386880242010160e08181525050856101008181525050846101208181525050826101408181525050816101608181525050806003819055506002838a88884260006040516200024f906200032b565b808673ffffffffffffffffffffffffffffffffffffffff168152602001858152602001848152602001838152602001828152602001955050505050506040518091039082f0905080158015620002a9573d6000803e3d6000fd5b509080600181540180825580915050600190039060005260206000200160009091909190916101000a81548173ffffffffffffffffffffffffffffffffffffffff021916908373ffffffffffffffffffffffffffffffffffffffff16021790555060016000815480929190600101919050555050505050505050505062000339565b611baa806200393383390190565b60805160601c60a05160601c60c05160e0516101005161012051610140516101605161354b620003e8600039806104b15250806104db528061131d525080610aca52806115e852508061060a52806115c75250806107b95280610aa65280610b13528061120f525080610aee5280610e4052806112a35250806104ff528061113152806115a65250806105235280610714528061091952806109ad52806109e6528061116a525061354b6000f3fe60806040526004361061010d5760003560e01c80638da5cb5b11610095578063a814001f11610064578063a814001f1461040d578063c099f57514610438578063c4b641ab14610463578063c61038431461048e578063d1756e4f146104a557610114565b80638da5cb5b146102fb57806391a575441461033c578063984d5e23146103675780639ab053cf146103cc57610114565b80634c69c00f116100dc5780634c69c00f146101d85780637b111879146102295780637dc0d1d014610254578063867a3c86146102955780638d870593146102e457610114565b8063069039001461011657806325e6937a146101415780633dec872e1461016c57806345e05f431461019757610114565b3661011457005b005b34801561012257600080fd5b5061012b6104af565b6040518082815260200191505060405180910390f35b34801561014d57600080fd5b506101566104d3565b6040518082815260200191505060405180910390f35b34801561017857600080fd5b506101816104d9565b6040518082815260200191505060405180910390f35b3480156101a357600080fd5b506101ac6104fd565b604051808273ffffffffffffffffffffffffffffffffffffffff16815260200191505060405180910390f35b3480156101e457600080fd5b50610227600480360360208110156101fb57600080fd5b81019080803573ffffffffffffffffffffffffffffffffffffffff169060200190929190505050610521565b005b34801561023557600080fd5b5061023e610608565b6040518082815260200191505060405180910390f35b34801561026057600080fd5b5061026961062c565b604051808273ffffffffffffffffffffffffffffffffffffffff16815260200191505060405180910390f35b3480156102a157600080fd5b506102ce600480360360208110156102b857600080fd5b8101908080359060200190929190505050610650565b6040518082815260200191505060405180910390f35b3480156102f057600080fd5b506102f9610712565b005b34801561030757600080fd5b506103106109e4565b604051808273ffffffffffffffffffffffffffffffffffffffff16815260200191505060405180910390f35b34801561034857600080fd5b50610351610a08565b6040518082815260200191505060405180910390f35b34801561037357600080fd5b506103a06004803603602081101561038a57600080fd5b8101908080359060200190929190505050610a0e565b604051808273ffffffffffffffffffffffffffffffffffffffff16815260200191505060405180910390f35b3480156103d857600080fd5b506103e1610a4d565b604051808273ffffffffffffffffffffffffffffffffffffffff16815260200191505060405180910390f35b34801561041957600080fd5b50610422610aa4565b6040518082815260200191505060405180910390f35b34801561044457600080fd5b5061044d610ac8565b6040518082815260200191505060405180910390f35b34801561046f57600080fd5b50610478610aec565b6040518082815260200191505060405180910390f35b34801561049a57600080fd5b506104a3610b10565b005b6104ad611168565b005b7f000000000000000000000000000000000000000000000000000000000000000081565b60015481565b7f000000000000000000000000000000000000000000000000000000000000000081565b7f000000000000000000000000000000000000000000000000000000000000000081565b7f000000000000000000000000000000000000000000000000000000000000000073ffffffffffffffffffffffffffffffffffffffff163373ffffffffffffffffffffffffffffffffffffffff16146105c5576040517f08c379a00000000000000000000000000000000000000000000000000000000081526004018080602001828103825260248152602001806134206024913960400191505060405180910390fd5b806000806101000a81548173ffffffffffffffffffffffffffffffffffffffff021916908373ffffffffffffffffffffffffffffffffffffffff16021790555050565b7f000000000000000000000000000000000000000000000000000000000000000081565b60008054906101000a900473ffffffffffffffffffffffffffffffffffffffff1681565b600080829050600080602090505b600181106107075760007f31000000000000000000000000000000000000000000000000000000000000009050807effffffffffffffffffffffffffffffffffffffffffffffffffffffffffffff191660035460018403602081106106bf57fe5b1a60f81b7effffffffffffffffffffffffffffffffffffffffffffffffffffffffffffff191614156106f15783830192505b600184901c93505080806001900391505061065e565b508092505050919050565b7f000000000000000000000000000000000000000000000000000000000000000073ffffffffffffffffffffffffffffffffffffffff163373ffffffffffffffffffffffffffffffffffffffff16146107b6576040517f08c379a00000000000000000000000000000000000000000000000000000000081526004018080602001828103825260248152602001806134206024913960400191505060405180910390fd5b427f0000000000000000000000000000000000000000000000000000000000000000111561084c576040517f08c379a000000000000000000000000000000000000000000000000000000000815260040180806020018281038252601e8152602001807f4d61696e20636f6e7472616374206e6f742079657420657870697265642e000081525060200191505060405180910390fd5b60005b6001548110156109aa57600073ffffffffffffffffffffffffffffffffffffffff166002828154811061087e57fe5b9060005260206000200160009054906101000a900473ffffffffffffffffffffffffffffffffffffffff1673ffffffffffffffffffffffffffffffffffffffff161461099d57600281815481106108d157fe5b9060005260206000200160009054906101000a900473ffffffffffffffffffffffffffffffffffffffff1673ffffffffffffffffffffffffffffffffffffffff1663ac4448297f00000000000000000000000000000000000000000000000000000000000000006040518263ffffffff1660e01b8152600401808273ffffffffffffffffffffffffffffffffffffffff168152602001915050600060405180830381600087803b15801561098457600080fd5b505af1158015610998573d6000803e3d6000fd5b505050505b808060010191505061084f565b507f000000000000000000000000000000000000000000000000000000000000000073ffffffffffffffffffffffffffffffffffffffff16ff5b7f000000000000000000000000000000000000000000000000000000000000000081565b60035481565b60028181548110610a1e57600080fd5b906000526020600020016000915054906101000a900473ffffffffffffffffffffffffffffffffffffffff1681565b6000806001541115610a9c576002600180540381548110610a6a57fe5b9060005260206000200160009054906101000a900473ffffffffffffffffffffffffffffffffffffffff169050610aa1565b600090505b90565b7f000000000000000000000000000000000000000000000000000000000000000081565b7f000000000000000000000000000000000000000000000000000000000000000081565b7f000000000000000000000000000000000000000000000000000000000000000081565b427f000000000000000000000000000000000000000000000000000000000000000011610ba5576040517f08c379a00000000000000000000000000000000000000000000000000000000081526004018080602001828103825260168152602001807f4d61696e20636f6e747261637420657870697265642e0000000000000000000081525060200191505060405180910390fd5b6000805b600154811015610c30573373ffffffffffffffffffffffffffffffffffffffff1660028281548110610bd757fe5b9060005260206000200160009054906101000a900473ffffffffffffffffffffffffffffffffffffffff1673ffffffffffffffffffffffffffffffffffffffff161415610c2357600191505b8080600101915050610ba9565b5080610c87576040517f08c379a00000000000000000000000000000000000000000000000000000000081526004018080602001828103825260288152602001806134a06028913960400191505060405180910390fd5b6000339050428173ffffffffffffffffffffffffffffffffffffffff16634665096d6040518163ffffffff1660e01b815260040160206040518083038186803b158015610cd357600080fd5b505afa158015610ce7573d6000803e3d6000fd5b505050506040513d6020811015610cfd57600080fd5b81019080805190602001909291905050501115610d65576040517f08c379a00000000000000000000000000000000000000000000000000000000081526004018080602001828103825260238152602001806133fd6023913960400191505060405180910390fd5b428173ffffffffffffffffffffffffffffffffffffffff1663a1b938546040518163ffffffff1660e01b815260040160206040518083038186803b158015610dac57600080fd5b505afa158015610dc0573d6000803e3d6000fd5b505050506040513d6020811015610dd657600080fd5b81019080805190602001909291905050501115610e3e576040517f08c379a00000000000000000000000000000000000000000000000000000000081526004018080602001828103825260368152602001806134446036913960400191505060405180910390fd5b7f000000000000000000000000000000000000000000000000000000000000000060018273ffffffffffffffffffffffffffffffffffffffff1663672bf6056040518163ffffffff1660e01b815260040160206040518083038186803b158015610ea757600080fd5b505afa158015610ebb573d6000803e3d6000fd5b505050506040513d6020811015610ed157600080fd5b8101908080519060200190929190505050011415610f3a576040517f08c379a00000000000000000000000000000000000000000000000000000000081526004018080602001828103825260258152602001806133d86025913960400191505060405180910390fd5b600073ffffffffffffffffffffffffffffffffffffffff168173ffffffffffffffffffffffffffffffffffffffff1663584215b56040518163ffffffff1660e01b815260040160206040518083038186803b158015610f9857600080fd5b505afa158015610fac573d6000803e3d6000fd5b505050506040513d6020811015610fc257600080fd5b810190808051906020019092919050505073ffffffffffffffffffffffffffffffffffffffff161461105c576040517f08c379a000000000000000000000000000000000000000000000000000000000815260040180806020018281038252601c8152602001807f4e65787420737562636f6e74726163742069732070726573656e742e0000000081525060200191505060405180910390fd5b60005b60015481101561112e576002818154811061107657fe5b9060005260206000200160009054906101000a900473ffffffffffffffffffffffffffffffffffffffff1673ffffffffffffffffffffffffffffffffffffffff166356f225e8336040518263ffffffff1660e01b8152600401808273ffffffffffffffffffffffffffffffffffffffff168152602001915050600060405180830381600087803b15801561110957600080fd5b505af115801561111d573d6000803e3d6000fd5b50505050808060010191505061105f565b507f000000000000000000000000000000000000000000000000000000000000000073ffffffffffffffffffffffffffffffffffffffff16ff5b7f000000000000000000000000000000000000000000000000000000000000000073ffffffffffffffffffffffffffffffffffffffff163373ffffffffffffffffffffffffffffffffffffffff161461120c576040517f08c379a00000000000000000000000000000000000000000000000000000000081526004018080602001828103825260248152602001806134206024913960400191505060405180910390fd5b427f0000000000000000000000000000000000000000000000000000000000000000116112a1576040517f08c379a00000000000000000000000000000000000000000000000000000000081526004018080602001828103825260168152602001807f4d61696e20636f6e747261637420657870697265642e0000000000000000000081525060200191505060405180910390fd5b7f00000000000000000000000000000000000000000000000000000000000000006001541061131b576040517f08c379a000000000000000000000000000000000000000000000000000000000815260040180806020018281038252602681526020018061347a6026913960400191505060405180910390fd5b7f000000000000000000000000000000000000000000000000000000000000000034146113b0576040517f08c379a00000000000000000000000000000000000000000000000000000000081526004018080602001828103825260178152602001807f496e636f7272656374207374616b6520616d6f756e742e00000000000000000081525060200191505060405180910390fd5b600060026001805403815481106113c357fe5b9060005260206000200160009054906101000a900473ffffffffffffffffffffffffffffffffffffffff169050428173ffffffffffffffffffffffffffffffffffffffff16634665096d6040518163ffffffff1660e01b815260040160206040518083038186803b15801561143757600080fd5b505afa15801561144b573d6000803e3d6000fd5b505050506040513d602081101561146157600080fd5b810190808051906020019092919050505011156114c9576040517f08c379a00000000000000000000000000000000000000000000000000000000081526004018080602001828103825260288152602001806134c86028913960400191505060405180910390fd5b428173ffffffffffffffffffffffffffffffffffffffff1663a1b938546040518163ffffffff1660e01b815260040160206040518083038186803b15801561151057600080fd5b505afa158015611524573d6000803e3d6000fd5b505050506040513d602081101561153a57600080fd5b8101908080519060200190929190505050116115a1576040517f08c379a00000000000000000000000000000000000000000000000000000000081526004018080602001828103825260268152602001806134f06026913960400191505060405180910390fd5b6002347f00000000000000000000000000000000000000000000000000000000000000007f00000000000000000000000000000000000000000000000000000000000000007f00000000000000000000000000000000000000000000000000000000000000008573ffffffffffffffffffffffffffffffffffffffff16634665096d6040518163ffffffff1660e01b815260040160206040518083038186803b15801561164d57600080fd5b505afa158015611661573d6000803e3d6000fd5b505050506040513d602081101561167757600080fd5b810190808051906020019092919050505060015460405161169790611820565b808673ffffffffffffffffffffffffffffffffffffffff168152602001858152602001848152602001838152602001828152602001955050505050506040518091039082f09050801580156116f0573d6000803e3d6000fd5b509080600181540180825580915050600190039060005260206000200160009091909190916101000a81548173ffffffffffffffffffffffffffffffffffffffff021916908373ffffffffffffffffffffffffffffffffffffffff1602179055508073ffffffffffffffffffffffffffffffffffffffff1663d9d4503860026001548154811061177c57fe5b9060005260206000200160009054906101000a900473ffffffffffffffffffffffffffffffffffffffff166040518263ffffffff1660e01b8152600401808273ffffffffffffffffffffffffffffffffffffffff168152602001915050600060405180830381600087803b1580156117f357600080fd5b505af1158015611807573d6000803e3d6000fd5b5050505060016000815480929190600101919050555050565b611baa8061182e8339019056fe6101206040526000600160006101000a81548173ffffffffffffffffffffffffffffffffffffffff021916908373ffffffffffffffffffffffffffffffffffffffff1602179055506000600160146101000a81548160ff0219169083151502179055506000600160156101000a81548160ff021916908315150217905550604051611baa380380611baa833981810160405260a081101561009f57600080fd5b8101908080519060200190929190805190602001909291908051906020019092919080519060200190929190805190602001909291905050503373ffffffffffffffffffffffffffffffffffffffff1660808173ffffffffffffffffffffffffffffffffffffffff1660601b815250508473ffffffffffffffffffffffffffffffffffffffff1660a08173ffffffffffffffffffffffffffffffffffffffff1660601b8152505083820160c08181525050828483010160e0818152505081610100818152505080600081905550505050505060805160601c60a05160601c60c05160e05161010051611995610215600039806107ed52806116bd525080610848528061119652806113325250806104d55280610cf25280610ff952806116de5250806104b152806107885280610c4d528061110d52806114ce528061169c5250806104f9528061059e5280610824528061086c52806109115280610a3f5280610df5528061128d52806115e052506119956000f3fe6080604052600436106101025760003560e01c806378e9792511610095578063ac44482911610064578063ac4448291461037b578063b5d73ba4146103cc578063c610384314610411578063d9d4503814610428578063ef8e26a31461047957610109565b806378e97925146102b757806388fd65cc146102e25780638da5cb5b1461030f578063a1b938541461035057610109565b80634665096d116100d15780634665096d146101cf57806356f225e8146101fa578063584215b51461024b578063672bf6051461028c57610109565b80630bc1abe11461010b5780633741f9f6146101385780633da8bfc91461016357806345e05f431461018e57610109565b3661010957005b005b34801561011757600080fd5b50610120610490565b60405180821515815260200191505060405180910390f35b34801561014457600080fd5b5061014d6104a3565b6040518082815260200191505060405180910390f35b34801561016f57600080fd5b506101786104a9565b6040518082815260200191505060405180910390f35b34801561019a57600080fd5b506101a36104af565b604051808273ffffffffffffffffffffffffffffffffffffffff16815260200191505060405180910390f35b3480156101db57600080fd5b506101e46104d3565b6040518082815260200191505060405180910390f35b34801561020657600080fd5b506102496004803603602081101561021d57600080fd5b81019080803573ffffffffffffffffffffffffffffffffffffffff1690602001909291905050506104f7565b005b34801561025757600080fd5b506102606107bf565b604051808273ffffffffffffffffffffffffffffffffffffffff16815260200191505060405180910390f35b34801561029857600080fd5b506102a16107e5565b6040518082815260200191505060405180910390f35b3480156102c357600080fd5b506102cc6107eb565b6040518082815260200191505060405180910390f35b3480156102ee57600080fd5b506102f761080f565b60405180821515815260200191505060405180910390f35b34801561031b57600080fd5b50610324610822565b604051808273ffffffffffffffffffffffffffffffffffffffff16815260200191505060405180910390f35b34801561035c57600080fd5b50610365610846565b6040518082815260200191505060405180910390f35b34801561038757600080fd5b506103ca6004803603602081101561039e57600080fd5b81019080803573ffffffffffffffffffffffffffffffffffffffff16906020019092919050505061086a565b005b3480156103d857600080fd5b5061040f600480360360408110156103ef57600080fd5b810190808035906020019092919080359060200190929190505050610a3d565b005b34801561041d57600080fd5b50610426610c4b565b005b34801561043457600080fd5b506104776004803603602081101561044b57600080fd5b81019080803573ffffffffffffffffffffffffffffffffffffffff16906020019092919050505061128b565b005b34801561048557600080fd5b5061048e6114cc565b005b600160149054906101000a900460ff1681565b60035481565b60025481565b7f000000000000000000000000000000000000000000000000000000000000000081565b7f000000000000000000000000000000000000000000000000000000000000000081565b7f000000000000000000000000000000000000000000000000000000000000000073ffffffffffffffffffffffffffffffffffffffff163373ffffffffffffffffffffffffffffffffffffffff161461059b576040517f08c379a000000000000000000000000000000000000000000000000000000000815260040180806020018281038252602c8152602001806117c4602c913960400191505060405180910390fd5b427f000000000000000000000000000000000000000000000000000000000000000073ffffffffffffffffffffffffffffffffffffffff1663a814001f6040518163ffffffff1660e01b815260040160206040518083038186803b15801561060257600080fd5b505afa158015610616573d6000803e3d6000fd5b505050506040513d602081101561062c57600080fd5b8101908080519060200190929190505050116106b0576040517f08c379a00000000000000000000000000000000000000000000000000000000081526004018080602001828103825260168152602001807f4d61696e20636f6e747261637420657870697265642e0000000000000000000081525060200191505060405180910390fd5b8073ffffffffffffffffffffffffffffffffffffffff166388fd65cc6040518163ffffffff1660e01b815260040160206040518083038186803b1580156106f657600080fd5b505afa15801561070a573d6000803e3d6000fd5b505050506040513d602081101561072057600080fd5b8101908080519060200190929190505050610786576040517f08c379a000000000000000000000000000000000000000000000000000000000815260040180806020018281038252604f815260200180611857604f913960600191505060405180910390fd5b7f000000000000000000000000000000000000000000000000000000000000000073ffffffffffffffffffffffffffffffffffffffff16ff5b600160009054906101000a900473ffffffffffffffffffffffffffffffffffffffff1681565b60005481565b7f000000000000000000000000000000000000000000000000000000000000000081565b600160159054906101000a900460ff1681565b7f000000000000000000000000000000000000000000000000000000000000000081565b7f000000000000000000000000000000000000000000000000000000000000000081565b7f000000000000000000000000000000000000000000000000000000000000000073ffffffffffffffffffffffffffffffffffffffff163373ffffffffffffffffffffffffffffffffffffffff161461090e576040517f08c379a000000000000000000000000000000000000000000000000000000000815260040180806020018281038252602c8152602001806117c4602c913960400191505060405180910390fd5b427f000000000000000000000000000000000000000000000000000000000000000073ffffffffffffffffffffffffffffffffffffffff1663a814001f6040518163ffffffff1660e01b815260040160206040518083038186803b15801561097557600080fd5b505afa158015610989573d6000803e3d6000fd5b505050506040513d602081101561099f57600080fd5b81019080805190602001909291905050501115610a24576040517f08c379a000000000000000000000000000000000000000000000000000000000815260040180806020018281038252601e8152602001807f4d61696e20636f6e7472616374206e6f742079657420657870697265642e000081525060200191505060405180910390fd5b8073ffffffffffffffffffffffffffffffffffffffff16ff5b7f000000000000000000000000000000000000000000000000000000000000000073ffffffffffffffffffffffffffffffffffffffff16637dc0d1d06040518163ffffffff1660e01b815260040160206040518083038186803b158015610aa357600080fd5b505afa158015610ab7573d6000803e3d6000fd5b505050506040513d6020811015610acd57600080fd5b810190808051906020019092919050505073ffffffffffffffffffffffffffffffffffffffff163373ffffffffffffffffffffffffffffffffffffffff1614610b61576040517f08c379a00000000000000000000000000000000000000000000000000000000081526004018080602001828103825260258152602001806118326025913960400191505060405180910390fd5b6004600082815260200190815260200160002060009054906101000a900460ff16610bd7576040517f08c379a00000000000000000000000000000000000000000000000000000000081526004018080602001828103825260278152602001806119396027913960400191505060405180910390fd5b81600281905550426003819055506004600082815260200190815260200160002060006101000a81549060ff02191690557fbb982b83e84d8c224d47d0ffbe2ed070a3574bc4babb08180953e2d34b6789a98282604051808381526020018281526020019250505060405180910390a15050565b7f000000000000000000000000000000000000000000000000000000000000000073ffffffffffffffffffffffffffffffffffffffff163373ffffffffffffffffffffffffffffffffffffffff1614610cef576040517f08c379a00000000000000000000000000000000000000000000000000000000081526004018080602001828103825260288152602001806118a66028913960400191505060405180910390fd5b427f00000000000000000000000000000000000000000000000000000000000000001115610d85576040517f08c379a000000000000000000000000000000000000000000000000000000000815260040180806020018281038252601c8152602001807f537562636f6e7472616374206e6f742079657420657870697265642e0000000081525060200191505060405180910390fd5b60001515600160149054906101000a900460ff16151514610df1576040517f08c379a00000000000000000000000000000000000000000000000000000000081526004018080602001828103825260428152602001806117f06042913960600191505060405180910390fd5b60007f00000000000000000000000000000000000000000000000000000000000000009050428173ffffffffffffffffffffffffffffffffffffffff1663a814001f6040518163ffffffff1660e01b815260040160206040518083038186803b158015610e5d57600080fd5b505afa158015610e71573d6000803e3d6000fd5b505050506040513d6020811015610e8757600080fd5b810190808051906020019092919050505011610f0b576040517f08c379a00000000000000000000000000000000000000000000000000000000081526004018080602001828103825260168152602001807f4d61696e20636f6e747261637420657870697265642e0000000000000000000081525060200191505060405180910390fd5b60008173ffffffffffffffffffffffffffffffffffffffff1663c4b641ab6040518163ffffffff1660e01b815260040160206040518083038186803b158015610f5357600080fd5b505afa158015610f67573d6000803e3d6000fd5b505050506040513d6020811015610f7d57600080fd5b81019080805190602001909291905050509050806001600054011480610ff25750600073ffffffffffffffffffffffffffffffffffffffff16600160009054906101000a900473ffffffffffffffffffffffffffffffffffffffff1673ffffffffffffffffffffffffffffffffffffffff1614155b15611193577f00000000000000000000000000000000000000000000000000000000000000006003541015611072576040517f08c379a000000000000000000000000000000000000000000000000000000000815260040180806020018281038252604a8152602001806118ef604a913960600191505060405180910390fd5b60008273ffffffffffffffffffffffffffffffffffffffff1663867a3c866002546040518263ffffffff1660e01b81526004018082815260200191505060206040518083038186803b1580156110c757600080fd5b505afa1580156110db573d6000803e3d6000fd5b505050506040513d60208110156110f157600080fd5b81019080805190602001909291905050509050806000819055507f000000000000000000000000000000000000000000000000000000000000000073ffffffffffffffffffffffffffffffffffffffff166108fc60009081150290604051600060405180830381858888f19350505050158015611172573d6000803e3d6000fd5b5060018060146101000a81548160ff02191690831515021790555050611287565b427f0000000000000000000000000000000000000000000000000000000000000000111561120c576040517f08c379a00000000000000000000000000000000000000000000000000000000081526004018080602001828103825260218152602001806118ce6021913960400191505060405180910390fd5b60018060156101000a81548160ff0219169083151502179055508173ffffffffffffffffffffffffffffffffffffffff1663c61038436040518163ffffffff1660e01b8152600401600060405180830381600087803b15801561126e57600080fd5b505af1158015611282573d6000803e3d6000fd5b505050505b5050565b7f000000000000000000000000000000000000000000000000000000000000000073ffffffffffffffffffffffffffffffffffffffff163373ffffffffffffffffffffffffffffffffffffffff161461132f576040517f08c379a000000000000000000000000000000000000000000000000000000000815260040180806020018281038252602c8152602001806117c4602c913960400191505060405180910390fd5b427f0000000000000000000000000000000000000000000000000000000000000000116113c4576040517f08c379a000000000000000000000000000000000000000000000000000000000815260040180806020018281038252601b8152602001807f53656c6c657220677261636520706572696f64207061737365642e000000000081525060200191505060405180910390fd5b600073ffffffffffffffffffffffffffffffffffffffff16600160009054906101000a900473ffffffffffffffffffffffffffffffffffffffff1673ffffffffffffffffffffffffffffffffffffffff1614611488576040517f08c379a000000000000000000000000000000000000000000000000000000000815260040180806020018281038252601d8152602001807f4e65787420737562636f6e747261637420616c7265616479207365742e00000081525060200191505060405180910390fd5b80600160006101000a81548173ffffffffffffffffffffffffffffffffffffffff021916908373ffffffffffffffffffffffffffffffffffffffff16021790555050565b7f000000000000000000000000000000000000000000000000000000000000000073ffffffffffffffffffffffffffffffffffffffff163373ffffffffffffffffffffffffffffffffffffffff1614611570576040517f08c379a00000000000000000000000000000000000000000000000000000000081526004018080602001828103825260288152602001806118a66028913960400191505060405180910390fd5b60001515600160149054906101000a900460ff161515146115dc576040517f08c379a00000000000000000000000000000000000000000000000000000000081526004018080602001828103825260428152602001806117f06042913960600191505060405180910390fd5b60007f000000000000000000000000000000000000000000000000000000000000000073ffffffffffffffffffffffffffffffffffffffff16637dc0d1d06040518163ffffffff1660e01b815260040160206040518083038186803b15801561164457600080fd5b505afa158015611658573d6000803e3d6000fd5b505050506040513d602081101561166e57600080fd5b810190808051906020019092919050505073ffffffffffffffffffffffffffffffffffffffff16636cd18ce77f00000000000000000000000000000000000000000000000000000000000000007f00000000000000000000000000000000000000000000000000000000000000007f00000000000000000000000000000000000000000000000000000000000000006040518463ffffffff1660e01b8152600401808473ffffffffffffffffffffffffffffffffffffffff1681526020018381526020018281526020019350505050602060405180830381600087803b15801561175757600080fd5b505af115801561176b573d6000803e3d6000fd5b505050506040513d602081101561178157600080fd5b8101908080519060200190929190505050905060016004600083815260200190815260200160002060006101000a81548160ff0219169083151502179055505056fe4f6e6c7920746865206d61696e20636f6e74726163742063616e2063616c6c2074686973206d6574686f642e416666696c6961746520616c72656164792063616c6c6564207265736f6c7665207375636365737366756c6c79206f6e207468697320737562636f6e74726163742e4f6e6c7920746865206f7261636c652063616e2063616c6c2074686973206d6574686f642e50726f766964656420737562636f6e7472616374206164647265737320646f6573206e6f742068617665206772616365506572696f644578706972656420666c61672073657420746f20747275652e4f6e6c792074686520616666696c696174652063616e2063616c6c2074686973206d6574686f642e53656c6c657220677261636520706572696f64206e6f7420796574206f7665722e43757272656e7420746f74616c206973206e6f7420757020746f20646174652c20616666696c69617465206d7573742063616c6c2075706461746543757272656e74546f74616c28292e546869732072657175657374206973206e6f7420696e206d792070656e64696e67206c6973742ea26469706673582212208a1dc6f7001bd53e4f3a8ee584497669e3ccc201e97278039bdececf8fa2637d64736f6c6343000704003343616e6e6f742062652063616c6c6564206279206c61737420737562636f6e74726163742e43616c6c657220737562636f6e7472616374206e6f742079657420657870697265642e4f6e6c7920746865206f776e65722063616e2063616c6c2074686973206d6574686f642e43616c6c657220737562636f6e74726163742073656c6c657220677261636520706572696f64206e6f7420796574207061737365642e546f74616c206e756d626572206f6620737562636f6e7472616374732065786365656465642e4f6e6c79206120737562636f6e74726163742063616e2063616c6c2074686973206d6574686f642e546865206c61737420737562636f6e7472616374206973206e6f742079657420657870697265642e5468652073656c6c657220677261636520706572696f6420616c726561647920656e6465642ea2646970667358221220aaf36dc865438e58da78d0ac8c588a8cf66bb8311fa29415e909868ca27ab1e364736f6c634300070400336101206040526000600160006101000a81548173ffffffffffffffffffffffffffffffffffffffff021916908373ffffffffffffffffffffffffffffffffffffffff1602179055506000600160146101000a81548160ff0219169083151502179055506000600160156101000a81548160ff021916908315150217905550604051611baa380380611baa833981810160405260a081101561009f57600080fd5b8101908080519060200190929190805190602001909291908051906020019092919080519060200190929190805190602001909291905050503373ffffffffffffffffffffffffffffffffffffffff1660808173ffffffffffffffffffffffffffffffffffffffff1660601b815250508473ffffffffffffffffffffffffffffffffffffffff1660a08173ffffffffffffffffffffffffffffffffffffffff1660601b8152505083820160c08181525050828483010160e0818152505081610100818152505080600081905550505050505060805160601c60a05160601c60c05160e05161010051611995610215600039806107ed52806116bd525080610848528061119652806113325250806104d55280610cf25280610ff952806116de5250806104b152806107885280610c4d528061110d52806114ce528061169c5250806104f9528061059e5280610824528061086c52806109115280610a3f5280610df5528061128d52806115e052506119956000f3fe6080604052600436106101025760003560e01c806378e9792511610095578063ac44482911610064578063ac4448291461037b578063b5d73ba4146103cc578063c610384314610411578063d9d4503814610428578063ef8e26a31461047957610109565b806378e97925146102b757806388fd65cc146102e25780638da5cb5b1461030f578063a1b938541461035057610109565b80634665096d116100d15780634665096d146101cf57806356f225e8146101fa578063584215b51461024b578063672bf6051461028c57610109565b80630bc1abe11461010b5780633741f9f6146101385780633da8bfc91461016357806345e05f431461018e57610109565b3661010957005b005b34801561011757600080fd5b50610120610490565b60405180821515815260200191505060405180910390f35b34801561014457600080fd5b5061014d6104a3565b6040518082815260200191505060405180910390f35b34801561016f57600080fd5b506101786104a9565b6040518082815260200191505060405180910390f35b34801561019a57600080fd5b506101a36104af565b604051808273ffffffffffffffffffffffffffffffffffffffff16815260200191505060405180910390f35b3480156101db57600080fd5b506101e46104d3565b6040518082815260200191505060405180910390f35b34801561020657600080fd5b506102496004803603602081101561021d57600080fd5b81019080803573ffffffffffffffffffffffffffffffffffffffff1690602001909291905050506104f7565b005b34801561025757600080fd5b506102606107bf565b604051808273ffffffffffffffffffffffffffffffffffffffff16815260200191505060405180910390f35b34801561029857600080fd5b506102a16107e5565b6040518082815260200191505060405180910390f35b3480156102c357600080fd5b506102cc6107eb565b6040518082815260200191505060405180910390f35b3480156102ee57600080fd5b506102f761080f565b60405180821515815260200191505060405180910390f35b34801561031b57600080fd5b50610324610822565b604051808273ffffffffffffffffffffffffffffffffffffffff16815260200191505060405180910390f35b34801561035c57600080fd5b50610365610846565b6040518082815260200191505060405180910390f35b34801561038757600080fd5b506103ca6004803603602081101561039e57600080fd5b81019080803573ffffffffffffffffffffffffffffffffffffffff16906020019092919050505061086a565b005b3480156103d857600080fd5b5061040f600480360360408110156103ef57600080fd5b810190808035906020019092919080359060200190929190505050610a3d565b005b34801561041d57600080fd5b50610426610c4b565b005b34801561043457600080fd5b506104776004803603602081101561044b57600080fd5b81019080803573ffffffffffffffffffffffffffffffffffffffff16906020019092919050505061128b565b005b34801561048557600080fd5b5061048e6114cc565b005b600160149054906101000a900460ff1681565b60035481565b60025481565b7f000000000000000000000000000000000000000000000000000000000000000081565b7f000000000000000000000000000000000000000000000000000000000000000081565b7f000000000000000000000000000000000000000000000000000000000000000073ffffffffffffffffffffffffffffffffffffffff163373ffffffffffffffffffffffffffffffffffffffff161461059b576040517f08c379a000000000000000000000000000000000000000000000000000000000815260040180806020018281038252602c8152602001806117c4602c913960400191505060405180910390fd5b427f000000000000000000000000000000000000000000000000000000000000000073ffffffffffffffffffffffffffffffffffffffff1663a814001f6040518163ffffffff1660e01b815260040160206040518083038186803b15801561060257600080fd5b505afa158015610616573d6000803e3d6000fd5b505050506040513d602081101561062c57600080fd5b8101908080519060200190929190505050116106b0576040517f08c379a00000000000000000000000000000000000000000000000000000000081526004018080602001828103825260168152602001807f4d61696e20636f6e747261637420657870697265642e0000000000000000000081525060200191505060405180910390fd5b8073ffffffffffffffffffffffffffffffffffffffff166388fd65cc6040518163ffffffff1660e01b815260040160206040518083038186803b1580156106f657600080fd5b505afa15801561070a573d6000803e3d6000fd5b505050506040513d602081101561072057600080fd5b8101908080519060200190929190505050610786576040517f08c379a000000000000000000000000000000000000000000000000000000000815260040180806020018281038252604f815260200180611857604f913960600191505060405180910390fd5b7f000000000000000000000000000000000000000000000000000000000000000073ffffffffffffffffffffffffffffffffffffffff16ff5b600160009054906101000a900473ffffffffffffffffffffffffffffffffffffffff1681565b60005481565b7f000000000000000000000000000000000000000000000000000000000000000081565b600160159054906101000a900460ff1681565b7f000000000000000000000000000000000000000000000000000000000000000081565b7f000000000000000000000000000000000000000000000000000000000000000081565b7f000000000000000000000000000000000000000000000000000000000000000073ffffffffffffffffffffffffffffffffffffffff163373ffffffffffffffffffffffffffffffffffffffff161461090e576040517f08c379a000000000000000000000000000000000000000000000000000000000815260040180806020018281038252602c8152602001806117c4602c913960400191505060405180910390fd5b427f000000000000000000000000000000000000000000000000000000000000000073ffffffffffffffffffffffffffffffffffffffff1663a814001f6040518163ffffffff1660e01b815260040160206040518083038186803b15801561097557600080fd5b505afa158015610989573d6000803e3d6000fd5b505050506040513d602081101561099f57600080fd5b81019080805190602001909291905050501115610a24576040517f08c379a000000000000000000000000000000000000000000000000000000000815260040180806020018281038252601e8152602001807f4d61696e20636f6e7472616374206e6f742079657420657870697265642e000081525060200191505060405180910390fd5b8073ffffffffffffffffffffffffffffffffffffffff16ff5b7f000000000000000000000000000000000000000000000000000000000000000073ffffffffffffffffffffffffffffffffffffffff16637dc0d1d06040518163ffffffff1660e01b815260040160206040518083038186803b158015610aa357600080fd5b505afa158015610ab7573d6000803e3d6000fd5b505050506040513d6020811015610acd57600080fd5b810190808051906020019092919050505073ffffffffffffffffffffffffffffffffffffffff163373ffffffffffffffffffffffffffffffffffffffff1614610b61576040517f08c379a00000000000000000000000000000000000000000000000000000000081526004018080602001828103825260258152602001806118326025913960400191505060405180910390fd5b6004600082815260200190815260200160002060009054906101000a900460ff16610bd7576040517f08c379a00000000000000000000000000000000000000000000000000000000081526004018080602001828103825260278152602001806119396027913960400191505060405180910390fd5b81600281905550426003819055506004600082815260200190815260200160002060006101000a81549060ff02191690557fbb982b83e84d8c224d47d0ffbe2ed070a3574bc4babb08180953e2d34b6789a98282604051808381526020018281526020019250505060405180910390a15050565b7f000000000000000000000000000000000000000000000000000000000000000073ffffffffffffffffffffffffffffffffffffffff163373ffffffffffffffffffffffffffffffffffffffff1614610cef576040517f08c379a00000000000000000000000000000000000000000000000000000000081526004018080602001828103825260288152602001806118a66028913960400191505060405180910390fd5b427f00000000000000000000000000000000000000000000000000000000000000001115610d85576040517f08c379a000000000000000000000000000000000000000000000000000000000815260040180806020018281038252601c8152602001807f537562636f6e7472616374206e6f742079657420657870697265642e0000000081525060200191505060405180910390fd5b60001515600160149054906101000a900460ff16151514610df1576040517f08c379a00000000000000000000000000000000000000000000000000000000081526004018080602001828103825260428152602001806117f06042913960600191505060405180910390fd5b60007f00000000000000000000000000000000000000000000000000000000000000009050428173ffffffffffffffffffffffffffffffffffffffff1663a814001f6040518163ffffffff1660e01b815260040160206040518083038186803b158015610e5d57600080fd5b505afa158015610e71573d6000803e3d6000fd5b505050506040513d6020811015610e8757600080fd5b810190808051906020019092919050505011610f0b576040517f08c379a00000000000000000000000000000000000000000000000000000000081526004018080602001828103825260168152602001807f4d61696e20636f6e747261637420657870697265642e0000000000000000000081525060200191505060405180910390fd5b60008173ffffffffffffffffffffffffffffffffffffffff1663c4b641ab6040518163ffffffff1660e01b815260040160206040518083038186803b158015610f5357600080fd5b505afa158015610f67573d6000803e3d6000fd5b505050506040513d6020811015610f7d57600080fd5b81019080805190602001909291905050509050806001600054011480610ff25750600073ffffffffffffffffffffffffffffffffffffffff16600160009054906101000a900473ffffffffffffffffffffffffffffffffffffffff1673ffffffffffffffffffffffffffffffffffffffff1614155b15611193577f00000000000000000000000000000000000000000000000000000000000000006003541015611072576040517f08c379a000000000000000000000000000000000000000000000000000000000815260040180806020018281038252604a8152602001806118ef604a913960600191505060405180910390fd5b60008273ffffffffffffffffffffffffffffffffffffffff1663867a3c866002546040518263ffffffff1660e01b81526004018082815260200191505060206040518083038186803b1580156110c757600080fd5b505afa1580156110db573d6000803e3d6000fd5b505050506040513d60208110156110f157600080fd5b81019080805190602001909291905050509050806000819055507f000000000000000000000000000000000000000000000000000000000000000073ffffffffffffffffffffffffffffffffffffffff166108fc60009081150290604051600060405180830381858888f19350505050158015611172573d6000803e3d6000fd5b5060018060146101000a81548160ff02191690831515021790555050611287565b427f0000000000000000000000000000000000000000000000000000000000000000111561120c576040517f08c379a00000000000000000000000000000000000000000000000000000000081526004018080602001828103825260218152602001806118ce6021913960400191505060405180910390fd5b60018060156101000a81548160ff0219169083151502179055508173ffffffffffffffffffffffffffffffffffffffff1663c61038436040518163ffffffff1660e01b8152600401600060405180830381600087803b15801561126e57600080fd5b505af1158015611282573d6000803e3d6000fd5b505050505b5050565b7f000000000000000000000000000000000000000000000000000000000000000073ffffffffffffffffffffffffffffffffffffffff163373ffffffffffffffffffffffffffffffffffffffff161461132f576040517f08c379a000000000000000000000000000000000000000000000000000000000815260040180806020018281038252602c8152602001806117c4602c913960400191505060405180910390fd5b427f0000000000000000000000000000000000000000000000000000000000000000116113c4576040517f08c379a000000000000000000000000000000000000000000000000000000000815260040180806020018281038252601b8152602001807f53656c6c657220677261636520706572696f64207061737365642e000000000081525060200191505060405180910390fd5b600073ffffffffffffffffffffffffffffffffffffffff16600160009054906101000a900473ffffffffffffffffffffffffffffffffffffffff1673ffffffffffffffffffffffffffffffffffffffff1614611488576040517f08c379a000000000000000000000000000000000000000000000000000000000815260040180806020018281038252601d8152602001807f4e65787420737562636f6e747261637420616c7265616479207365742e00000081525060200191505060405180910390fd5b80600160006101000a81548173ffffffffffffffffffffffffffffffffffffffff021916908373ffffffffffffffffffffffffffffffffffffffff16021790555050565b7f000000000000000000000000000000000000000000000000000000000000000073ffffffffffffffffffffffffffffffffffffffff163373ffffffffffffffffffffffffffffffffffffffff1614611570576040517f08c379a00000000000000000000000000000000000000000000000000000000081526004018080602001828103825260288152602001806118a66028913960400191505060405180910390fd5b60001515600160149054906101000a900460ff161515146115dc576040517f08c379a00000000000000000000000000000000000000000000000000000000081526004018080602001828103825260428152602001806117f06042913960600191505060405180910390fd5b60007f000000000000000000000000000000000000000000000000000000000000000073ffffffffffffffffffffffffffffffffffffffff16637dc0d1d06040518163ffffffff1660e01b815260040160206040518083038186803b15801561164457600080fd5b505afa158015611658573d6000803e3d6000fd5b505050506040513d602081101561166e57600080fd5b810190808051906020019092919050505073ffffffffffffffffffffffffffffffffffffffff16636cd18ce77f00000000000000000000000000000000000000000000000000000000000000007f00000000000000000000000000000000000000000000000000000000000000007f00000000000000000000000000000000000000000000000000000000000000006040518463ffffffff1660e01b8152600401808473ffffffffffffffffffffffffffffffffffffffff1681526020018381526020018281526020019350505050602060405180830381600087803b15801561175757600080fd5b505af115801561176b573d6000803e3d6000fd5b505050506040513d602081101561178157600080fd5b8101908080519060200190929190505050905060016004600083815260200190815260200160002060006101000a81548160ff0219169083151502179055505056fe4f6e6c7920746865206d61696e20636f6e74726163742063616e2063616c6c2074686973206d6574686f642e416666696c6961746520616c72656164792063616c6c6564207265736f6c7665207375636365737366756c6c79206f6e207468697320737562636f6e74726163742e4f6e6c7920746865206f7261636c652063616e2063616c6c2074686973206d6574686f642e50726f766964656420737562636f6e7472616374206164647265737320646f6573206e6f742068617665206772616365506572696f644578706972656420666c61672073657420746f20747275652e4f6e6c792074686520616666696c696174652063616e2063616c6c2074686973206d6574686f642e53656c6c657220677261636520706572696f64206e6f7420796574206f7665722e43757272656e7420746f74616c206973206e6f7420757020746f20646174652c20616666696c69617465206d7573742063616c6c2075706461746543757272656e74546f74616c28292e546869732072657175657374206973206e6f7420696e206d792070656e64696e67206c6973742ea26469706673582212208a1dc6f7001bd53e4f3a8ee584497669e3ccc201e97278039bdececf8fa2637d64736f6c63430007040033546f74616c20737562636f6e747261637473206d757374206265206174206c656173742033416d6f756e742073656e7420746f20636f6e7374727563746f72206d75737420657175616c20696e63656e746976652066656520706c7573206f6e6520737562636f6e7472616374207374616b65",
  "immutableReferences": {
    "7": [
      {
        "length": 32,
        "start": 1315
      },
      {
        "length": 32,
        "start": 1812
      },
      {
        "length": 32,
        "start": 2329
      },
      {
        "length": 32,
        "start": 2477
      },
      {
        "length": 32,
        "start": 2534
      },
      {
        "length": 32,
        "start": 4458
      }
    ],
    "9": [
      {
        "length": 32,
        "start": 1279
      },
      {
        "length": 32,
        "start": 4401
      },
      {
        "length": 32,
        "start": 5542
      }
    ],
    "13": [
      {
        "length": 32,
        "start": 2798
      },
      {
        "length": 32,
        "start": 3648
      },
      {
        "length": 32,
        "start": 4771
      }
    ],
    "21": [
      {
        "length": 32,
        "start": 1977
      },
      {
        "length": 32,
        "start": 2726
      },
      {
        "length": 32,
        "start": 2835
      },
      {
        "length": 32,
        "start": 4623
      }
    ],
    "23": [
      {
        "length": 32,
        "start": 1546
      },
      {
        "length": 32,
        "start": 5575
      }
    ],
    "25": [
      {
        "length": 32,
        "start": 2762
      },
      {
        "length": 32,
        "start": 5608
      }
    ],
    "27": [
      {
        "length": 32,
        "start": 1243
      },
      {
        "length": 32,
        "start": 4893
      }
    ],
    "29": [
      {
        "length": 32,
        "start": 1201
      }
    ]
  },
  "source": "// SPDX-License-Identifier: UNLICENSED\npragma solidity ^0.7.4;\n\nimport * as SC from \"./AffiliateSubcontract.sol\";\n\ncontract AffiliateContract {\n  // The minimum number of subcontracts is 3.\n  uint constant MIN_TOTAL_SUBCONTRACTS = 3;\n  \n  // The business that wants to pay affiliates. Set to the address that calls the contract's constructor.\n  address payable public immutable owner;\n  // The affiliate's personal address that funds will be sent to.\n  address payable public immutable affiliate;\n  // The address of the oracle contract.\n  address public oracle;\n\n  // The total number of subcontracts that can be created from this one.\n  uint public immutable totalSubcontracts;\n  // The number of the latest created subcontract.\n  uint public subcontractsSoFar = 0;\n  // Array containing the subcontract addresses.\n  address payable[] public subcontracts;\n\n  // When the main contract will expire.\n  uint public immutable contractExpiration;\n  // The length of time each subcontract will be valid for.\n  uint public immutable subcontractDuration;\n  // The seller's grace period for issuing a new subcontract.\n  uint public immutable gracePeriodDuration;\n\n  // The amount that will be staked for the affiliate to earn in each subcontract.\n  uint public immutable subcontractStake;\n  // The amount of the incentive fee staked by the seller to incentivize them to hold up their end of the deal.\n  uint public immutable incentiveFee;\n  // A byte array representing the percentage of sales that the affiliate will receive. \n  bytes32 public affiliatePercentage;\n\n  // The constructor should be called with the amount of the incentive fee plus the first contract stake.\n  constructor(\n    address payable _affiliate,\n    address _oracle,\n    uint _totalSubcontracts,\n    uint _subcontractDuration,\n    uint _gracePeriodDuration,\n    uint _contractEndGracePeriodDuration,\n    uint _subcontractStake,\n    uint _incentiveFee,\n    bytes32 _affiliatePercentage\n  ) payable {\n    require(msg.value == (_incentiveFee + _subcontractStake), \"Amount sent to constructor must equal incentive fee plus one subcontract stake\");\n    require(_totalSubcontracts >= MIN_TOTAL_SUBCONTRACTS, \"Total subcontracts must be at least 3\");\n    owner = msg.sender;\n    affiliate = _affiliate;\n    oracle = _oracle;\n    totalSubcontracts = _totalSubcontracts;\n    contractExpiration = block.timestamp + (_totalSubcontracts*_subcontractDuration) + _contractEndGracePeriodDuration;\n    subcontractDuration = _subcontractDuration;\n    gracePeriodDuration = _gracePeriodDuration;\n    subcontractStake = _subcontractStake;\n    incentiveFee = _incentiveFee;\n    affiliatePercentage = _affiliatePercentage;\n\n    // Creating the first subcontract.\n    // REMEMBER THAT SUBCONTRACTSSOFAR MUST HAVE 1 SUBTRACTED BEFORE USING FOR INDEXING\n    subcontracts.push(address((new SC.AffiliateSubcontract){value: _subcontractStake}(_affiliate, _subcontractDuration, _gracePeriodDuration, block.timestamp, 0)));\n    subcontractsSoFar++;\n  }\n\n  receive() external payable { }\n  fallback() external payable { }\n\n  modifier onlyOwner {\n    require(msg.sender == owner, \"Only the owner can call this method.\");\n    _;\n  }\n\n  modifier contractNotExpired {\n    require(contractExpiration > block.timestamp, \"Main contract expired.\");\n    _;\n  }\n\n  function setOracleAddress (address _oracleAddress) public onlyOwner {\n    oracle = _oracleAddress;\n  }\n\n  function getCurrentSubcontract() public view returns(address payable) {\n    if (subcontractsSoFar > 0) {\n      return subcontracts[subcontractsSoFar - 1];\n    } else {\n      return address(0x0);\n    }\n  }\n\n  function getAffiliateEarnings(uint _rawTotal) public view returns(uint) {\n    uint rawTotal = _rawTotal;\n    uint earnings = 0;\n    for (uint i = 32; i >= 1; i--) {\n      byte bit = \"1\";\n      if (affiliatePercentage[i - 1] == bit) {\n        earnings += rawTotal;\n      }\n      rawTotal = rawTotal >> 1;\n    }\n    return earnings;\n  }\n\n  function createNextSubContract() public payable onlyOwner contractNotExpired {\n    require(subcontractsSoFar < totalSubcontracts, \"Total number of subcontracts exceeded.\");\n    require(msg.value == subcontractStake, \"Incorrect stake amount.\");\n    // Getting a reference to the previous/\"current\" subcontract\n    SC.AffiliateSubcontract lastSubcontract = SC.AffiliateSubcontract(subcontracts[subcontractsSoFar - 1]);\n    // Checking all the conditions necessary for making the next subcontract.\n    require(lastSubcontract.expiration() <= block.timestamp, \"The last subcontract is not yet expired.\");\n    require(lastSubcontract.sellerGracePeriodEnd() > block.timestamp, \"The seller grace period already ended.\");\n    // msg.value = total amount the subcontract will be populated with \n    subcontracts.push(address((new SC.AffiliateSubcontract){value: msg.value}(affiliate, subcontractDuration, gracePeriodDuration, lastSubcontract.expiration(), subcontractsSoFar)));\n    lastSubcontract.setNextSubcontract(subcontracts[subcontractsSoFar]);\n    subcontractsSoFar++;\n  }\n\n  // only called in dispute case\n  function affiliateResolve() public contractNotExpired {\n    bool calledBySubcontract = false;\n    for (uint i = 0; i < subcontractsSoFar; i++) {\n      if (subcontracts[i] == msg.sender) {\n        calledBySubcontract = true;\n      }\n    }\n    require(calledBySubcontract, \"Only a subcontract can call this method.\");\n    SC.AffiliateSubcontract callerSubcontract = SC.AffiliateSubcontract(msg.sender);\n    require(callerSubcontract.expiration() <= block.timestamp, \"Caller subcontract not yet expired.\");\n    require(callerSubcontract.sellerGracePeriodEnd() <= block.timestamp, \"Caller subcontract seller grace period not yet passed.\");\n    require((callerSubcontract.indexNumber() + 1) != totalSubcontracts, \"Cannot be called by last subcontract.\");\n    require(callerSubcontract.nextSubcontract() == address(0x0), \"Next subcontract is present.\");\n    for (uint i = 0; i < subcontractsSoFar; i++) {\n      SC.AffiliateSubcontract(subcontracts[i]).affiliateCleanup(msg.sender);\n    }\n    selfdestruct(affiliate);\n  }\n\n  function sellerResolve() public onlyOwner {\n    require(contractExpiration <= block.timestamp, \"Main contract not yet expired.\");\n    for (uint i = 0; i < subcontractsSoFar; i++) {\n      if (subcontracts[i] != address(0x0)) {\n        SC.AffiliateSubcontract(subcontracts[i]).sellerResolve(owner);\n      }\n    }\n    selfdestruct(owner);\n  }\n}",
  "sourcePath": "/home/madsilva/dev/blockchain/blockchain-project/truffle/contracts/AffiliateContract.sol",
  "compiler": {
    "name": "solc",
    "version": "0.7.4+commit.3f05b770.Emscripten.clang"
  },
  "schemaVersion": "3.3.2",
  "updatedAt": "2020-12-12T03:30:04.763Z",
  "devdoc": {
    "kind": "dev",
    "methods": {},
    "version": 1
  },
  "userdoc": {
    "kind": "user",
    "methods": {},
    "version": 1
  }
}