{
  "contractName": "AffiliateSubcontract",
  "abi": [
    {
      "inputs": [
        {
          "internalType": "address payable",
          "name": "_affiliate",
          "type": "address"
        },
        {
          "internalType": "uint256",
          "name": "subcontractDuration",
          "type": "uint256"
        },
        {
          "internalType": "uint256",
          "name": "sellerGracePeriodDuration",
          "type": "uint256"
        },
        {
          "internalType": "uint256",
          "name": "_startTime",
          "type": "uint256"
        },
        {
          "internalType": "uint256",
          "name": "_indexNumber",
          "type": "uint256"
        }
      ],
      "stateMutability": "payable",
      "type": "constructor"
    },
    {
      "anonymous": false,
      "inputs": [
        {
          "indexed": false,
          "internalType": "uint256",
          "name": "currentTotal",
          "type": "uint256"
        },
        {
          "indexed": false,
          "internalType": "uint256",
          "name": "id",
          "type": "uint256"
        }
      ],
      "name": "CurrentTotalUpdatedEvent",
      "type": "event"
    },
    {
      "stateMutability": "payable",
      "type": "fallback"
    },
    {
      "inputs": [],
      "name": "affiliate",
      "outputs": [
        {
          "internalType": "address payable",
          "name": "",
          "type": "address"
        }
      ],
      "stateMutability": "view",
      "type": "function"
    },
    {
      "inputs": [],
      "name": "affiliateResolved",
      "outputs": [
        {
          "internalType": "bool",
          "name": "",
          "type": "bool"
        }
      ],
      "stateMutability": "view",
      "type": "function"
    },
    {
      "inputs": [],
      "name": "currentTotal",
      "outputs": [
        {
          "internalType": "uint256",
          "name": "",
          "type": "uint256"
        }
      ],
      "stateMutability": "view",
      "type": "function"
    },
    {
      "inputs": [],
      "name": "expiration",
      "outputs": [
        {
          "internalType": "uint256",
          "name": "",
          "type": "uint256"
        }
      ],
      "stateMutability": "view",
      "type": "function"
    },
    {
      "inputs": [],
      "name": "gracePeriodExpired",
      "outputs": [
        {
          "internalType": "bool",
          "name": "",
          "type": "bool"
        }
      ],
      "stateMutability": "view",
      "type": "function"
    },
    {
      "inputs": [],
      "name": "indexNumber",
      "outputs": [
        {
          "internalType": "uint256",
          "name": "",
          "type": "uint256"
        }
      ],
      "stateMutability": "view",
      "type": "function"
    },
    {
      "inputs": [],
      "name": "nextSubcontract",
      "outputs": [
        {
          "internalType": "address",
          "name": "",
          "type": "address"
        }
      ],
      "stateMutability": "view",
      "type": "function"
    },
    {
      "inputs": [],
      "name": "owner",
      "outputs": [
        {
          "internalType": "address payable",
          "name": "",
          "type": "address"
        }
      ],
      "stateMutability": "view",
      "type": "function"
    },
    {
      "inputs": [],
      "name": "payout",
      "outputs": [
        {
          "internalType": "uint256",
          "name": "",
          "type": "uint256"
        }
      ],
      "stateMutability": "view",
      "type": "function"
    },
    {
      "inputs": [],
      "name": "sellerGracePeriodEnd",
      "outputs": [
        {
          "internalType": "uint256",
          "name": "",
          "type": "uint256"
        }
      ],
      "stateMutability": "view",
      "type": "function"
    },
    {
      "inputs": [],
      "name": "startTime",
      "outputs": [
        {
          "internalType": "uint256",
          "name": "",
          "type": "uint256"
        }
      ],
      "stateMutability": "view",
      "type": "function"
    },
    {
      "inputs": [],
      "name": "totalLastUpdated",
      "outputs": [
        {
          "internalType": "uint256",
          "name": "",
          "type": "uint256"
        }
      ],
      "stateMutability": "view",
      "type": "function"
    },
    {
      "stateMutability": "payable",
      "type": "receive"
    },
    {
      "inputs": [
        {
          "internalType": "address",
          "name": "next",
          "type": "address"
        }
      ],
      "name": "setNextSubcontract",
      "outputs": [],
      "stateMutability": "nonpayable",
      "type": "function"
    },
    {
      "inputs": [],
      "name": "updateCurrentTotal",
      "outputs": [],
      "stateMutability": "nonpayable",
      "type": "function"
    },
    {
      "inputs": [
        {
          "internalType": "uint256",
          "name": "_currentTotal",
          "type": "uint256"
        },
        {
          "internalType": "uint256",
          "name": "_id",
          "type": "uint256"
        }
      ],
      "name": "callback",
      "outputs": [],
      "stateMutability": "nonpayable",
      "type": "function"
    },
    {
      "inputs": [],
      "name": "affiliateResolve",
      "outputs": [],
      "stateMutability": "nonpayable",
      "type": "function"
    },
    {
      "inputs": [
        {
          "internalType": "address payable",
          "name": "seller",
          "type": "address"
        }
      ],
      "name": "sellerResolve",
      "outputs": [],
      "stateMutability": "nonpayable",
      "type": "function"
    },
    {
      "inputs": [
        {
          "internalType": "address payable",
          "name": "bs",
          "type": "address"
        }
      ],
      "name": "affiliateCleanup",
      "outputs": [],
      "stateMutability": "nonpayable",
      "type": "function"
    }
  ],
  "bytecode": "0x61014060405260008060006101000a81548173ffffffffffffffffffffffffffffffffffffffff021916908373ffffffffffffffffffffffffffffffffffffffff16021790555060008060146101000a81548160ff02191690831515021790555060008060156101000a81548160ff0219169083151502179055506000600355604051611ca6380380611ca6833981810160405260a08110156100a157600080fd5b8101908080519060200190929190805190602001909291908051906020019092919080519060200190929190805190602001909291905050503373ffffffffffffffffffffffffffffffffffffffff1660808173ffffffffffffffffffffffffffffffffffffffff1660601b815250508473ffffffffffffffffffffffffffffffffffffffff1660a08173ffffffffffffffffffffffffffffffffffffffff1660601b8152505083820160c08181525050828483010160e08181525050816101208181525050806101008181525050505050505060805160601c60a05160601c60c05160e0516101005161012051611a7961022d6000398061084552806117a15250806108215280610fed5250806108a0528061127c528061141952508061050b5280610d4a528061106d52806117c25250806104e752806107be5280610ca5528061118552806111f352806115b2528061178052508061052f52806105d4528061087c52806108c452806109695280610a975280610e4d528061137452806116c45250611a796000f3fe60806040526004361061010d5760003560e01c806378e9792511610095578063ac44482911610064578063ac444829146103b1578063b5d73ba414610402578063c610384314610447578063d9d450381461045e578063ef8e26a3146104af57610114565b806378e97925146102ed57806388fd65cc146103185780638da5cb5b14610345578063a1b938541461038657610114565b80634665096d116100dc5780634665096d146101da57806356f225e814610205578063584215b51461025657806363bd1d4a14610297578063672bf605146102c257610114565b80630bc1abe1146101165780633741f9f6146101435780633da8bfc91461016e57806345e05f431461019957610114565b3661011457005b005b34801561012257600080fd5b5061012b6104c6565b60405180821515815260200191505060405180910390f35b34801561014f57600080fd5b506101586104d9565b6040518082815260200191505060405180910390f35b34801561017a57600080fd5b506101836104df565b6040518082815260200191505060405180910390f35b3480156101a557600080fd5b506101ae6104e5565b604051808273ffffffffffffffffffffffffffffffffffffffff16815260200191505060405180910390f35b3480156101e657600080fd5b506101ef610509565b6040518082815260200191505060405180910390f35b34801561021157600080fd5b506102546004803603602081101561022857600080fd5b81019080803573ffffffffffffffffffffffffffffffffffffffff16906020019092919050505061052d565b005b34801561026257600080fd5b5061026b6107f5565b604051808273ffffffffffffffffffffffffffffffffffffffff16815260200191505060405180910390f35b3480156102a357600080fd5b506102ac610819565b6040518082815260200191505060405180910390f35b3480156102ce57600080fd5b506102d761081f565b6040518082815260200191505060405180910390f35b3480156102f957600080fd5b50610302610843565b6040518082815260200191505060405180910390f35b34801561032457600080fd5b5061032d610867565b60405180821515815260200191505060405180910390f35b34801561035157600080fd5b5061035a61087a565b604051808273ffffffffffffffffffffffffffffffffffffffff16815260200191505060405180910390f35b34801561039257600080fd5b5061039b61089e565b6040518082815260200191505060405180910390f35b3480156103bd57600080fd5b50610400600480360360208110156103d457600080fd5b81019080803573ffffffffffffffffffffffffffffffffffffffff1690602001909291905050506108c2565b005b34801561040e57600080fd5b506104456004803603604081101561042557600080fd5b810190808035906020019092919080359060200190929190505050610a95565b005b34801561045357600080fd5b5061045c610ca3565b005b34801561046a57600080fd5b506104ad6004803603602081101561048157600080fd5b81019080803573ffffffffffffffffffffffffffffffffffffffff169060200190929190505050611372565b005b3480156104bb57600080fd5b506104c46115b0565b005b600060149054906101000a900460ff1681565b60025481565b60015481565b7f000000000000000000000000000000000000000000000000000000000000000081565b7f000000000000000000000000000000000000000000000000000000000000000081565b7f000000000000000000000000000000000000000000000000000000000000000073ffffffffffffffffffffffffffffffffffffffff163373ffffffffffffffffffffffffffffffffffffffff16146105d1576040517f08c379a000000000000000000000000000000000000000000000000000000000815260040180806020018281038252602c8152602001806118a8602c913960400191505060405180910390fd5b427f000000000000000000000000000000000000000000000000000000000000000073ffffffffffffffffffffffffffffffffffffffff1663a814001f6040518163ffffffff1660e01b815260040160206040518083038186803b15801561063857600080fd5b505afa15801561064c573d6000803e3d6000fd5b505050506040513d602081101561066257600080fd5b8101908080519060200190929190505050116106e6576040517f08c379a00000000000000000000000000000000000000000000000000000000081526004018080602001828103825260168152602001807f4d61696e20636f6e747261637420657870697265642e0000000000000000000081525060200191505060405180910390fd5b8073ffffffffffffffffffffffffffffffffffffffff166388fd65cc6040518163ffffffff1660e01b815260040160206040518083038186803b15801561072c57600080fd5b505afa158015610740573d6000803e3d6000fd5b505050506040513d602081101561075657600080fd5b81019080805190602001909291905050506107bc576040517f08c379a000000000000000000000000000000000000000000000000000000000815260040180806020018281038252604f81526020018061193b604f913960600191505060405180910390fd5b7f000000000000000000000000000000000000000000000000000000000000000073ffffffffffffffffffffffffffffffffffffffff16ff5b60008054906101000a900473ffffffffffffffffffffffffffffffffffffffff1681565b60035481565b7f000000000000000000000000000000000000000000000000000000000000000081565b7f000000000000000000000000000000000000000000000000000000000000000081565b600060159054906101000a900460ff1681565b7f000000000000000000000000000000000000000000000000000000000000000081565b7f000000000000000000000000000000000000000000000000000000000000000081565b7f000000000000000000000000000000000000000000000000000000000000000073ffffffffffffffffffffffffffffffffffffffff163373ffffffffffffffffffffffffffffffffffffffff1614610966576040517f08c379a000000000000000000000000000000000000000000000000000000000815260040180806020018281038252602c8152602001806118a8602c913960400191505060405180910390fd5b427f000000000000000000000000000000000000000000000000000000000000000073ffffffffffffffffffffffffffffffffffffffff1663a814001f6040518163ffffffff1660e01b815260040160206040518083038186803b1580156109cd57600080fd5b505afa1580156109e1573d6000803e3d6000fd5b505050506040513d60208110156109f757600080fd5b81019080805190602001909291905050501115610a7c576040517f08c379a000000000000000000000000000000000000000000000000000000000815260040180806020018281038252601e8152602001807f4d61696e20636f6e7472616374206e6f742079657420657870697265642e000081525060200191505060405180910390fd5b8073ffffffffffffffffffffffffffffffffffffffff16ff5b7f000000000000000000000000000000000000000000000000000000000000000073ffffffffffffffffffffffffffffffffffffffff16637dc0d1d06040518163ffffffff1660e01b815260040160206040518083038186803b158015610afb57600080fd5b505afa158015610b0f573d6000803e3d6000fd5b505050506040513d6020811015610b2557600080fd5b810190808051906020019092919050505073ffffffffffffffffffffffffffffffffffffffff163373ffffffffffffffffffffffffffffffffffffffff1614610bb9576040517f08c379a00000000000000000000000000000000000000000000000000000000081526004018080602001828103825260258152602001806119166025913960400191505060405180910390fd5b6004600082815260200190815260200160002060009054906101000a900460ff16610c2f576040517f08c379a0000000000000000000000000000000000000000000000000000000008152600401808060200182810382526027815260200180611a1d6027913960400191505060405180910390fd5b81600181905550426002819055506004600082815260200190815260200160002060006101000a81549060ff02191690557fbb982b83e84d8c224d47d0ffbe2ed070a3574bc4babb08180953e2d34b6789a98282604051808381526020018281526020019250505060405180910390a15050565b7f000000000000000000000000000000000000000000000000000000000000000073ffffffffffffffffffffffffffffffffffffffff163373ffffffffffffffffffffffffffffffffffffffff1614610d47576040517f08c379a000000000000000000000000000000000000000000000000000000000815260040180806020018281038252602881526020018061198a6028913960400191505060405180910390fd5b427f00000000000000000000000000000000000000000000000000000000000000001115610ddd576040517f08c379a000000000000000000000000000000000000000000000000000000000815260040180806020018281038252601c8152602001807f537562636f6e7472616374206e6f742079657420657870697265642e0000000081525060200191505060405180910390fd5b60001515600060149054906101000a900460ff16151514610e49576040517f08c379a00000000000000000000000000000000000000000000000000000000081526004018080602001828103825260428152602001806118d46042913960600191505060405180910390fd5b60007f00000000000000000000000000000000000000000000000000000000000000009050428173ffffffffffffffffffffffffffffffffffffffff1663a814001f6040518163ffffffff1660e01b815260040160206040518083038186803b158015610eb557600080fd5b505afa158015610ec9573d6000803e3d6000fd5b505050506040513d6020811015610edf57600080fd5b810190808051906020019092919050505011610f63576040517f08c379a00000000000000000000000000000000000000000000000000000000081526004018080602001828103825260168152602001807f4d61696e20636f6e747261637420657870697265642e0000000000000000000081525060200191505060405180910390fd5b60008173ffffffffffffffffffffffffffffffffffffffff1663c4b641ab6040518163ffffffff1660e01b815260040160206040518083038186803b158015610fab57600080fd5b505afa158015610fbf573d6000803e3d6000fd5b505050506040513d6020811015610fd557600080fd5b810190808051906020019092919050505090508060017f00000000000000000000000000000000000000000000000000000000000000000114806110665750600073ffffffffffffffffffffffffffffffffffffffff1660008054906101000a900473ffffffffffffffffffffffffffffffffffffffff1673ffffffffffffffffffffffffffffffffffffffff1614155b15611279577f000000000000000000000000000000000000000000000000000000000000000060025410156110e6576040517f08c379a000000000000000000000000000000000000000000000000000000000815260040180806020018281038252604a8152602001806119d3604a913960600191505060405180910390fd5b8173ffffffffffffffffffffffffffffffffffffffff1663867a3c866001546040518263ffffffff1660e01b81526004018082815260200191505060206040518083038186803b15801561113957600080fd5b505afa15801561114d573d6000803e3d6000fd5b505050506040513d602081101561116357600080fd5b810190808051906020019092919050505060038190555047600354116111f1577f000000000000000000000000000000000000000000000000000000000000000073ffffffffffffffffffffffffffffffffffffffff166108fc6003549081150290604051600060405180830381858888f193505050501580156111eb573d6000803e3d6000fd5b50611259565b7f000000000000000000000000000000000000000000000000000000000000000073ffffffffffffffffffffffffffffffffffffffff166108fc479081150290604051600060405180830381858888f19350505050158015611257573d6000803e3d6000fd5b505b6001600060146101000a81548160ff02191690831515021790555061136e565b427f000000000000000000000000000000000000000000000000000000000000000011156112f2576040517f08c379a00000000000000000000000000000000000000000000000000000000081526004018080602001828103825260218152602001806119b26021913960400191505060405180910390fd5b6001600060156101000a81548160ff0219169083151502179055508173ffffffffffffffffffffffffffffffffffffffff1663c61038436040518163ffffffff1660e01b8152600401600060405180830381600087803b15801561135557600080fd5b505af1158015611369573d6000803e3d6000fd5b505050505b5050565b7f000000000000000000000000000000000000000000000000000000000000000073ffffffffffffffffffffffffffffffffffffffff163373ffffffffffffffffffffffffffffffffffffffff1614611416576040517f08c379a000000000000000000000000000000000000000000000000000000000815260040180806020018281038252602c8152602001806118a8602c913960400191505060405180910390fd5b427f0000000000000000000000000000000000000000000000000000000000000000116114ab576040517f08c379a000000000000000000000000000000000000000000000000000000000815260040180806020018281038252601b8152602001807f53656c6c657220677261636520706572696f64207061737365642e000000000081525060200191505060405180910390fd5b600073ffffffffffffffffffffffffffffffffffffffff1660008054906101000a900473ffffffffffffffffffffffffffffffffffffffff1673ffffffffffffffffffffffffffffffffffffffff161461156d576040517f08c379a000000000000000000000000000000000000000000000000000000000815260040180806020018281038252601d8152602001807f4e65787420737562636f6e747261637420616c7265616479207365742e00000081525060200191505060405180910390fd5b806000806101000a81548173ffffffffffffffffffffffffffffffffffffffff021916908373ffffffffffffffffffffffffffffffffffffffff16021790555050565b7f000000000000000000000000000000000000000000000000000000000000000073ffffffffffffffffffffffffffffffffffffffff163373ffffffffffffffffffffffffffffffffffffffff1614611654576040517f08c379a000000000000000000000000000000000000000000000000000000000815260040180806020018281038252602881526020018061198a6028913960400191505060405180910390fd5b60001515600060149054906101000a900460ff161515146116c0576040517f08c379a00000000000000000000000000000000000000000000000000000000081526004018080602001828103825260428152602001806118d46042913960600191505060405180910390fd5b60007f000000000000000000000000000000000000000000000000000000000000000073ffffffffffffffffffffffffffffffffffffffff16637dc0d1d06040518163ffffffff1660e01b815260040160206040518083038186803b15801561172857600080fd5b505afa15801561173c573d6000803e3d6000fd5b505050506040513d602081101561175257600080fd5b810190808051906020019092919050505073ffffffffffffffffffffffffffffffffffffffff16636cd18ce77f00000000000000000000000000000000000000000000000000000000000000007f00000000000000000000000000000000000000000000000000000000000000007f00000000000000000000000000000000000000000000000000000000000000006040518463ffffffff1660e01b8152600401808473ffffffffffffffffffffffffffffffffffffffff1681526020018381526020018281526020019350505050602060405180830381600087803b15801561183b57600080fd5b505af115801561184f573d6000803e3d6000fd5b505050506040513d602081101561186557600080fd5b8101908080519060200190929190505050905060016004600083815260200190815260200160002060006101000a81548160ff0219169083151502179055505056fe4f6e6c7920746865206d61696e20636f6e74726163742063616e2063616c6c2074686973206d6574686f642e416666696c6961746520616c72656164792063616c6c6564207265736f6c7665207375636365737366756c6c79206f6e207468697320737562636f6e74726163742e4f6e6c7920746865206f7261636c652063616e2063616c6c2074686973206d6574686f642e50726f766964656420737562636f6e7472616374206164647265737320646f6573206e6f742068617665206772616365506572696f644578706972656420666c61672073657420746f20747275652e4f6e6c792074686520616666696c696174652063616e2063616c6c2074686973206d6574686f642e53656c6c657220677261636520706572696f64206e6f7420796574206f7665722e43757272656e7420746f74616c206973206e6f7420757020746f20646174652c20616666696c69617465206d7573742063616c6c2075706461746543757272656e74546f74616c28292e546869732072657175657374206973206e6f7420696e206d792070656e64696e67206c6973742ea26469706673582212200c2b41a97b4246f68208131a17c6cf818005c9fc96c94876e845059e5b4f4ce564736f6c63430007040033",
  "immutableReferences": {
    "663": [
      {
        "length": 32,
        "start": 1327
      },
      {
        "length": 32,
        "start": 1492
      },
      {
        "length": 32,
        "start": 2172
      },
      {
        "length": 32,
        "start": 2244
      },
      {
        "length": 32,
        "start": 2409
      },
      {
        "length": 32,
        "start": 2711
      },
      {
        "length": 32,
        "start": 3661
      },
      {
        "length": 32,
        "start": 4980
      },
      {
        "length": 32,
        "start": 5828
      }
    ],
    "665": [
      {
        "length": 32,
        "start": 1255
      },
      {
        "length": 32,
        "start": 1982
      },
      {
        "length": 32,
        "start": 3237
      },
      {
        "length": 32,
        "start": 4485
      },
      {
        "length": 32,
        "start": 4595
      },
      {
        "length": 32,
        "start": 5554
      },
      {
        "length": 32,
        "start": 6016
      }
    ],
    "667": [
      {
        "length": 32,
        "start": 1291
      },
      {
        "length": 32,
        "start": 3402
      },
      {
        "length": 32,
        "start": 4205
      },
      {
        "length": 32,
        "start": 6082
      }
    ],
    "669": [
      {
        "length": 32,
        "start": 2208
      },
      {
        "length": 32,
        "start": 4732
      },
      {
        "length": 32,
        "start": 5145
      }
    ],
    "671": [
      {
        "length": 32,
        "start": 2081
      },
      {
        "length": 32,
        "start": 4077
      }
    ],
    "689": [
      {
        "length": 32,
        "start": 2117
      },
      {
        "length": 32,
        "start": 6049
      }
    ]
  },
  "source": "// SPDX-License-Identifier: UNLICENSED\npragma solidity ^0.7.4;\n\nimport \"./AffiliateContract.sol\";\nimport \"./AffiliateOracle.sol\";\n\ncontract AffiliateSubcontract {\n  // The main AffiliateContract that created this contract, which in turn is owned by the business owner.\n  address payable public immutable owner;\n  // The affiliate's personal address.\n  address payable public immutable affiliate;\n\n  // The time this contract expires.\n  uint public immutable expiration;\n  // The time the seller's grace period ends. \n  uint public immutable sellerGracePeriodEnd;\n\n  // What index this subcontract has in the array in the main contract.\n  uint public immutable indexNumber;\n  // The address of the next subcontract when it gets created.\n  address public nextSubcontract = address(0x0);\n\n  // Flag that is true when the affiliate has successfully called the resolve method and cashed out.\n  bool public affiliateResolved = false;\n  // Flag that is true if the seller allowed the grace period to expire on this subcontract. This is only set when the affiliate calls affiliateResolve.\n  bool public gracePeriodExpired = false;\n\n  // The most recent value for the total sales for this affiliate for the time this subcontract covers.\n  uint public currentTotal;\n  // The timestamp when currentTotal was last updated.\n  uint public totalLastUpdated;\n  // The timestamp where this subcontract starts counting sales (i.e., where the last subcontract left off).\n  uint public immutable startTime;\n  // The amount paid out to the affiliate when the subcontract is resolved (mostly for debugging).\n  uint public payout = 0;\n\n  // Used to keep track of async requests to get information from the oracle.\n  mapping(uint => bool) private myRequests;\n\n  event CurrentTotalUpdatedEvent(uint currentTotal, uint id);\n\n  receive() external payable { }\n  fallback() external payable { }\n\n  constructor(\n    address payable _affiliate,\n    uint subcontractDuration,\n    uint sellerGracePeriodDuration,\n    uint _startTime,\n    uint _indexNumber\n  ) payable {\n    owner = msg.sender;\n    affiliate = _affiliate;\n    expiration = _startTime + subcontractDuration;\n    sellerGracePeriodEnd = _startTime + subcontractDuration + sellerGracePeriodDuration;\n    startTime = _startTime;\n    indexNumber = _indexNumber;\n  }\n\n  modifier onlyMainContract {\n    require(msg.sender == owner, \"Only the main contract can call this method.\");\n    _;\n  }\n\n  modifier onlyAffiliate {\n    require(msg.sender == affiliate, \"Only the affiliate can call this method.\");\n    _;\n  }\n\n  function setNextSubcontract(address next) public onlyMainContract {\n    require(sellerGracePeriodEnd > block.timestamp, \"Seller grace period passed.\");\n    require(nextSubcontract == address(0x0), \"Next subcontract already set.\");\n    nextSubcontract = next;\n  }\n\n  function updateCurrentTotal() public onlyAffiliate {\n    require(affiliateResolved == false, \"Affiliate already called resolve successfully on this subcontract.\");\n    uint id = AffiliateOracle(AffiliateContract(owner).oracle()).getAffiliateTotal(affiliate, startTime, expiration);\n    myRequests[id] = true;\n  }\n\n  function callback(uint _currentTotal, uint _id) public {\n    require(msg.sender == AffiliateContract(owner).oracle(), \"Only the oracle can call this method.\");\n    require(myRequests[_id], \"This request is not in my pending list.\");\n    currentTotal = _currentTotal;\n    totalLastUpdated = block.timestamp;\n    delete myRequests[_id];\n    emit CurrentTotalUpdatedEvent(_currentTotal, _id);\n  }\n\n  function affiliateResolve() public onlyAffiliate {\n    require(expiration <= block.timestamp, \"Subcontract not yet expired.\");\n    require(affiliateResolved == false, \"Affiliate already called resolve successfully on this subcontract.\");\n    AffiliateContract mainContract = AffiliateContract(owner);\n    require(mainContract.contractExpiration() > block.timestamp, \"Main contract expired.\");\n    uint totalSubcontracts = mainContract.totalSubcontracts();\n    // If this is the final subcontract or if the seller has already made the next subcontract, we can cash out now.\n    if ((indexNumber + 1) == totalSubcontracts || nextSubcontract != address(0x0)) {\n      require(totalLastUpdated >= expiration, \"Current total is not up to date, affiliate must call updateCurrentTotal().\");\n      payout = mainContract.getAffiliateEarnings(currentTotal);\n      if (payout <= address(this).balance) {\n        affiliate.transfer(payout);\n      } else {\n        affiliate.transfer(address(this).balance);\n      }\n      affiliateResolved = true;\n    } else {\n      // Else case - either the grace period isn't over and we're still waiting on the seller, or the seller has allowed it to pass without making the next subcontract.\n      require(sellerGracePeriodEnd <= block.timestamp, \"Seller grace period not yet over.\");\n      gracePeriodExpired = true;\n      mainContract.affiliateResolve();\n    }\n  }\n\n  function sellerResolve(address payable seller) public onlyMainContract {\n    require(AffiliateContract(owner).contractExpiration() <= block.timestamp, \"Main contract not yet expired.\");\n    selfdestruct(seller);\n  }\n\n  // This method is used for cleaning up the other subcontracts when one goes \"bad\" ie when the seller doesn't\n  // make a new subcontract within the grace period. \n  function affiliateCleanup(address payable bs) public onlyMainContract {\n    require(AffiliateContract(owner).contractExpiration() > block.timestamp, \"Main contract expired.\");\n    require(AffiliateSubcontract(bs).gracePeriodExpired(), \"Provided subcontract address does not have gracePeriodExpired flag set to true.\");\n    selfdestruct(affiliate);\n  }\n}",
  "sourcePath": "/home/madsilva/dev/blockchain/blockchain-project/truffle/contracts/AffiliateSubcontract.sol",
  "compiler": {
    "name": "solc",
    "version": "0.7.4+commit.3f05b770.Emscripten.clang"
  },
  "schemaVersion": "3.3.2",
  "updatedAt": "2020-12-13T00:10:25.715Z",
  "devdoc": {
    "kind": "dev",
    "methods": {},
    "version": 1
  },
  "userdoc": {
    "kind": "user",
    "methods": {},
    "version": 1
  }
}