{
  "contractName": "AffiliateContract",
  "abi": [
    {
      "inputs": [
        {
          "internalType": "address payable",
          "name": "_affiliate",
          "type": "address"
        },
        {
          "internalType": "address",
          "name": "_oracle",
          "type": "address"
        },
        {
          "internalType": "uint256",
          "name": "_totalSubcontracts",
          "type": "uint256"
        },
        {
          "internalType": "uint256",
          "name": "_subcontractDuration",
          "type": "uint256"
        },
        {
          "internalType": "uint256",
          "name": "_gracePeriodDuration",
          "type": "uint256"
        },
        {
          "internalType": "uint256",
          "name": "_subcontractStake",
          "type": "uint256"
        },
        {
          "internalType": "uint256",
          "name": "_incentiveFee",
          "type": "uint256"
        },
        {
          "internalType": "uint256",
          "name": "_affiliatePercentage",
          "type": "uint256"
        }
      ],
      "stateMutability": "payable",
      "type": "constructor"
    },
    {
      "anonymous": false,
      "inputs": [
        {
          "indexed": false,
          "internalType": "address payable",
          "name": "currentSubcontract",
          "type": "address"
        },
        {
          "indexed": false,
          "internalType": "uint256",
          "name": "subsSoFar",
          "type": "uint256"
        },
        {
          "indexed": false,
          "internalType": "uint256",
          "name": "expiration",
          "type": "uint256"
        }
      ],
      "name": "GetMainContractStateInfoEvent",
      "type": "event"
    },
    {
      "stateMutability": "payable",
      "type": "fallback"
    },
    {
      "inputs": [],
      "name": "affiliate",
      "outputs": [
        {
          "internalType": "address payable",
          "name": "",
          "type": "address"
        }
      ],
      "stateMutability": "view",
      "type": "function"
    },
    {
      "inputs": [],
      "name": "affiliatePercentage",
      "outputs": [
        {
          "internalType": "uint256",
          "name": "",
          "type": "uint256"
        }
      ],
      "stateMutability": "view",
      "type": "function"
    },
    {
      "inputs": [],
      "name": "contractExpiration",
      "outputs": [
        {
          "internalType": "uint256",
          "name": "",
          "type": "uint256"
        }
      ],
      "stateMutability": "view",
      "type": "function"
    },
    {
      "inputs": [],
      "name": "gracePeriodDuration",
      "outputs": [
        {
          "internalType": "uint256",
          "name": "",
          "type": "uint256"
        }
      ],
      "stateMutability": "view",
      "type": "function"
    },
    {
      "inputs": [],
      "name": "incentiveFee",
      "outputs": [
        {
          "internalType": "uint256",
          "name": "",
          "type": "uint256"
        }
      ],
      "stateMutability": "view",
      "type": "function"
    },
    {
      "inputs": [],
      "name": "oracle",
      "outputs": [
        {
          "internalType": "address",
          "name": "",
          "type": "address"
        }
      ],
      "stateMutability": "view",
      "type": "function"
    },
    {
      "inputs": [],
      "name": "owner",
      "outputs": [
        {
          "internalType": "address payable",
          "name": "",
          "type": "address"
        }
      ],
      "stateMutability": "view",
      "type": "function"
    },
    {
      "inputs": [],
      "name": "subcontractDuration",
      "outputs": [
        {
          "internalType": "uint256",
          "name": "",
          "type": "uint256"
        }
      ],
      "stateMutability": "view",
      "type": "function"
    },
    {
      "inputs": [],
      "name": "subcontractStake",
      "outputs": [
        {
          "internalType": "uint256",
          "name": "",
          "type": "uint256"
        }
      ],
      "stateMutability": "view",
      "type": "function"
    },
    {
      "inputs": [
        {
          "internalType": "uint256",
          "name": "",
          "type": "uint256"
        }
      ],
      "name": "subcontracts",
      "outputs": [
        {
          "internalType": "address payable",
          "name": "",
          "type": "address"
        }
      ],
      "stateMutability": "view",
      "type": "function"
    },
    {
      "inputs": [],
      "name": "totalSubcontracts",
      "outputs": [
        {
          "internalType": "uint256",
          "name": "",
          "type": "uint256"
        }
      ],
      "stateMutability": "view",
      "type": "function"
    },
    {
      "stateMutability": "payable",
      "type": "receive"
    },
    {
      "inputs": [
        {
          "internalType": "address",
          "name": "_oracleAddress",
          "type": "address"
        }
      ],
      "name": "setOracleAddress",
      "outputs": [],
      "stateMutability": "nonpayable",
      "type": "function"
    },
    {
      "inputs": [],
      "name": "getMainContractStateInfo",
      "outputs": [],
      "stateMutability": "nonpayable",
      "type": "function"
    },
    {
      "inputs": [],
      "name": "createNextSubContract",
      "outputs": [],
      "stateMutability": "payable",
      "type": "function"
    },
    {
      "inputs": [],
      "name": "affiliateResolve",
      "outputs": [],
      "stateMutability": "nonpayable",
      "type": "function"
    },
    {
      "inputs": [],
      "name": "sellerResolve",
      "outputs": [],
      "stateMutability": "nonpayable",
      "type": "function"
    }
  ],
  "bytecode": "0x6101a0604052600080556040516200554a3803806200554a83398181016040526101008110156200002f57600080fd5b8101908080519060200190929190805190602001909291908051906020019092919080519060200190929190805190602001909291908051906020019092919080519060200190929190805190602001909291905050508282013414620000e2576040517f08c379a000000000000000000000000000000000000000000000000000000000815260040180806020018281038252604e815260200180620054fc604e913960600191505060405180910390fd5b60038610156200013e576040517f08c379a0000000000000000000000000000000000000000000000000000000008152600401808060200182810382526025815260200180620054d76025913960400191505060405180910390fd5b3373ffffffffffffffffffffffffffffffffffffffff1660808173ffffffffffffffffffffffffffffffffffffffff1660601b815250508773ffffffffffffffffffffffffffffffffffffffff1660a08173ffffffffffffffffffffffffffffffffffffffff1660601b8152505086600260006101000a81548173ffffffffffffffffffffffffffffffffffffffff021916908373ffffffffffffffffffffffffffffffffffffffff1602179055508560c0818152505061012c85870242010160e08181525050846101008181525050836101208181525050826101408181525050816101608181525050806101808181525050600183898787426000604051620002499062000323565b808673ffffffffffffffffffffffffffffffffffffffff168152602001858152602001848152602001838152602001828152602001955050505050506040518091039082f0905080158015620002a3573d6000803e3d6000fd5b509080600181540180825580915050600190039060005260206000200160009091909190916101000a81548173ffffffffffffffffffffffffffffffffffffffff021916908373ffffffffffffffffffffffffffffffffffffffff1602179055506000808154809291906001019190505550505050505050505062000331565b611c1a80620038bd83390190565b60805160601c60a05160601c60c05160e05161010051610120516101405161016051610180516134ce620003ef600039806109575250806103f752508061041b52806112315250806109de52806114fc52508061061752806114db5250806105ba528061070652806109ba5280610a275280611123525080610a025280610d5452806111b752508061043f528061104552806114ba5250806104635280610661528061086652806108fa5280610933528061107e52506134ce6000f3fe6080604052600436106100f75760003560e01c80638da5cb5b1161008a578063c099f57511610059578063c099f5751461037e578063c4b641ab146103a9578063c6103843146103d4578063d1756e4f146103eb576100fe565b80638da5cb5b1461028257806391a57544146102c3578063984d5e23146102ee578063a814001f14610353576100fe565b806372274d18116100c657806372274d18146101e85780637b111879146101ff5780637dc0d1d01461022a5780638d8705931461026b576100fe565b806306903900146101005780633dec872e1461012b57806345e05f43146101565780634c69c00f14610197576100fe565b366100fe57005b005b34801561010c57600080fd5b506101156103f5565b6040518082815260200191505060405180910390f35b34801561013757600080fd5b50610140610419565b6040518082815260200191505060405180910390f35b34801561016257600080fd5b5061016b61043d565b604051808273ffffffffffffffffffffffffffffffffffffffff16815260200191505060405180910390f35b3480156101a357600080fd5b506101e6600480360360208110156101ba57600080fd5b81019080803573ffffffffffffffffffffffffffffffffffffffff169060200190929190505050610461565b005b3480156101f457600080fd5b506101fd610549565b005b34801561020b57600080fd5b50610214610615565b6040518082815260200191505060405180910390f35b34801561023657600080fd5b5061023f610639565b604051808273ffffffffffffffffffffffffffffffffffffffff16815260200191505060405180910390f35b34801561027757600080fd5b5061028061065f565b005b34801561028e57600080fd5b50610297610931565b604051808273ffffffffffffffffffffffffffffffffffffffff16815260200191505060405180910390f35b3480156102cf57600080fd5b506102d8610955565b6040518082815260200191505060405180910390f35b3480156102fa57600080fd5b506103276004803603602081101561031157600080fd5b8101908080359060200190929190505050610979565b604051808273ffffffffffffffffffffffffffffffffffffffff16815260200191505060405180910390f35b34801561035f57600080fd5b506103686109b8565b6040518082815260200191505060405180910390f35b34801561038a57600080fd5b506103936109dc565b6040518082815260200191505060405180910390f35b3480156103b557600080fd5b506103be610a00565b6040518082815260200191505060405180910390f35b3480156103e057600080fd5b506103e9610a24565b005b6103f361107c565b005b7f000000000000000000000000000000000000000000000000000000000000000081565b7f000000000000000000000000000000000000000000000000000000000000000081565b7f000000000000000000000000000000000000000000000000000000000000000081565b7f000000000000000000000000000000000000000000000000000000000000000073ffffffffffffffffffffffffffffffffffffffff163373ffffffffffffffffffffffffffffffffffffffff1614610505576040517f08c379a00000000000000000000000000000000000000000000000000000000081526004018080602001828103825260248152602001806133a36024913960400191505060405180910390fd5b80600260006101000a81548173ffffffffffffffffffffffffffffffffffffffff021916908373ffffffffffffffffffffffffffffffffffffffff16021790555050565b6000808054111561059357600180600054038154811061056557fe5b9060005260206000200160009054906101000a900473ffffffffffffffffffffffffffffffffffffffff1690505b7fd5142badf21baae3943b9a17fd7abed6fe54be15f4ed6af6d03750cffca750b7816000547f0000000000000000000000000000000000000000000000000000000000000000604051808473ffffffffffffffffffffffffffffffffffffffff168152602001838152602001828152602001935050505060405180910390a150565b7f000000000000000000000000000000000000000000000000000000000000000081565b600260009054906101000a900473ffffffffffffffffffffffffffffffffffffffff1681565b7f000000000000000000000000000000000000000000000000000000000000000073ffffffffffffffffffffffffffffffffffffffff163373ffffffffffffffffffffffffffffffffffffffff1614610703576040517f08c379a00000000000000000000000000000000000000000000000000000000081526004018080602001828103825260248152602001806133a36024913960400191505060405180910390fd5b427f00000000000000000000000000000000000000000000000000000000000000001115610799576040517f08c379a000000000000000000000000000000000000000000000000000000000815260040180806020018281038252601e8152602001807f4d61696e20636f6e7472616374206e6f742079657420657870697265642e000081525060200191505060405180910390fd5b60005b6000548110156108f757600073ffffffffffffffffffffffffffffffffffffffff16600182815481106107cb57fe5b9060005260206000200160009054906101000a900473ffffffffffffffffffffffffffffffffffffffff1673ffffffffffffffffffffffffffffffffffffffff16146108ea576001818154811061081e57fe5b9060005260206000200160009054906101000a900473ffffffffffffffffffffffffffffffffffffffff1673ffffffffffffffffffffffffffffffffffffffff1663ac4448297f00000000000000000000000000000000000000000000000000000000000000006040518263ffffffff1660e01b8152600401808273ffffffffffffffffffffffffffffffffffffffff168152602001915050600060405180830381600087803b1580156108d157600080fd5b505af11580156108e5573d6000803e3d6000fd5b505050505b808060010191505061079c565b507f000000000000000000000000000000000000000000000000000000000000000073ffffffffffffffffffffffffffffffffffffffff16ff5b7f000000000000000000000000000000000000000000000000000000000000000081565b7f000000000000000000000000000000000000000000000000000000000000000081565b6001818154811061098957600080fd5b906000526020600020016000915054906101000a900473ffffffffffffffffffffffffffffffffffffffff1681565b7f000000000000000000000000000000000000000000000000000000000000000081565b7f000000000000000000000000000000000000000000000000000000000000000081565b7f000000000000000000000000000000000000000000000000000000000000000081565b427f000000000000000000000000000000000000000000000000000000000000000011610ab9576040517f08c379a00000000000000000000000000000000000000000000000000000000081526004018080602001828103825260168152602001807f4d61696e20636f6e747261637420657870697265642e0000000000000000000081525060200191505060405180910390fd5b6000805b600054811015610b44573373ffffffffffffffffffffffffffffffffffffffff1660018281548110610aeb57fe5b9060005260206000200160009054906101000a900473ffffffffffffffffffffffffffffffffffffffff1673ffffffffffffffffffffffffffffffffffffffff161415610b3757600191505b8080600101915050610abd565b5080610b9b576040517f08c379a00000000000000000000000000000000000000000000000000000000081526004018080602001828103825260288152602001806134236028913960400191505060405180910390fd5b6000339050428173ffffffffffffffffffffffffffffffffffffffff16634665096d6040518163ffffffff1660e01b815260040160206040518083038186803b158015610be757600080fd5b505afa158015610bfb573d6000803e3d6000fd5b505050506040513d6020811015610c1157600080fd5b81019080805190602001909291905050501115610c79576040517f08c379a00000000000000000000000000000000000000000000000000000000081526004018080602001828103825260238152602001806133806023913960400191505060405180910390fd5b428173ffffffffffffffffffffffffffffffffffffffff1663a1b938546040518163ffffffff1660e01b815260040160206040518083038186803b158015610cc057600080fd5b505afa158015610cd4573d6000803e3d6000fd5b505050506040513d6020811015610cea57600080fd5b81019080805190602001909291905050501115610d52576040517f08c379a00000000000000000000000000000000000000000000000000000000081526004018080602001828103825260368152602001806133c76036913960400191505060405180910390fd5b7f000000000000000000000000000000000000000000000000000000000000000060018273ffffffffffffffffffffffffffffffffffffffff1663672bf6056040518163ffffffff1660e01b815260040160206040518083038186803b158015610dbb57600080fd5b505afa158015610dcf573d6000803e3d6000fd5b505050506040513d6020811015610de557600080fd5b8101908080519060200190929190505050011415610e4e576040517f08c379a000000000000000000000000000000000000000000000000000000000815260040180806020018281038252602581526020018061335b6025913960400191505060405180910390fd5b600073ffffffffffffffffffffffffffffffffffffffff168173ffffffffffffffffffffffffffffffffffffffff1663584215b56040518163ffffffff1660e01b815260040160206040518083038186803b158015610eac57600080fd5b505afa158015610ec0573d6000803e3d6000fd5b505050506040513d6020811015610ed657600080fd5b810190808051906020019092919050505073ffffffffffffffffffffffffffffffffffffffff1614610f70576040517f08c379a000000000000000000000000000000000000000000000000000000000815260040180806020018281038252601c8152602001807f4e65787420737562636f6e74726163742069732070726573656e742e0000000081525060200191505060405180910390fd5b60005b6000548110156110425760018181548110610f8a57fe5b9060005260206000200160009054906101000a900473ffffffffffffffffffffffffffffffffffffffff1673ffffffffffffffffffffffffffffffffffffffff166356f225e8336040518263ffffffff1660e01b8152600401808273ffffffffffffffffffffffffffffffffffffffff168152602001915050600060405180830381600087803b15801561101d57600080fd5b505af1158015611031573d6000803e3d6000fd5b505050508080600101915050610f73565b507f000000000000000000000000000000000000000000000000000000000000000073ffffffffffffffffffffffffffffffffffffffff16ff5b7f000000000000000000000000000000000000000000000000000000000000000073ffffffffffffffffffffffffffffffffffffffff163373ffffffffffffffffffffffffffffffffffffffff1614611120576040517f08c379a00000000000000000000000000000000000000000000000000000000081526004018080602001828103825260248152602001806133a36024913960400191505060405180910390fd5b427f0000000000000000000000000000000000000000000000000000000000000000116111b5576040517f08c379a00000000000000000000000000000000000000000000000000000000081526004018080602001828103825260168152602001807f4d61696e20636f6e747261637420657870697265642e0000000000000000000081525060200191505060405180910390fd5b7f00000000000000000000000000000000000000000000000000000000000000006000541061122f576040517f08c379a00000000000000000000000000000000000000000000000000000000081526004018080602001828103825260268152602001806133fd6026913960400191505060405180910390fd5b7f000000000000000000000000000000000000000000000000000000000000000034146112c4576040517f08c379a00000000000000000000000000000000000000000000000000000000081526004018080602001828103825260178152602001807f496e636f7272656374207374616b6520616d6f756e742e00000000000000000081525060200191505060405180910390fd5b600060018060005403815481106112d757fe5b9060005260206000200160009054906101000a900473ffffffffffffffffffffffffffffffffffffffff169050428173ffffffffffffffffffffffffffffffffffffffff16634665096d6040518163ffffffff1660e01b815260040160206040518083038186803b15801561134b57600080fd5b505afa15801561135f573d6000803e3d6000fd5b505050506040513d602081101561137557600080fd5b810190808051906020019092919050505011156113dd576040517f08c379a000000000000000000000000000000000000000000000000000000000815260040180806020018281038252602881526020018061344b6028913960400191505060405180910390fd5b428173ffffffffffffffffffffffffffffffffffffffff1663a1b938546040518163ffffffff1660e01b815260040160206040518083038186803b15801561142457600080fd5b505afa158015611438573d6000803e3d6000fd5b505050506040513d602081101561144e57600080fd5b8101908080519060200190929190505050116114b5576040517f08c379a00000000000000000000000000000000000000000000000000000000081526004018080602001828103825260268152602001806134736026913960400191505060405180910390fd5b6001347f00000000000000000000000000000000000000000000000000000000000000007f00000000000000000000000000000000000000000000000000000000000000007f00000000000000000000000000000000000000000000000000000000000000008573ffffffffffffffffffffffffffffffffffffffff16634665096d6040518163ffffffff1660e01b815260040160206040518083038186803b15801561156157600080fd5b505afa158015611575573d6000803e3d6000fd5b505050506040513d602081101561158b57600080fd5b81019080805190602001909291905050506000546040516115ab90611733565b808673ffffffffffffffffffffffffffffffffffffffff168152602001858152602001848152602001838152602001828152602001955050505050506040518091039082f0905080158015611604573d6000803e3d6000fd5b509080600181540180825580915050600190039060005260206000200160009091909190916101000a81548173ffffffffffffffffffffffffffffffffffffffff021916908373ffffffffffffffffffffffffffffffffffffffff1602179055508073ffffffffffffffffffffffffffffffffffffffff1663d9d4503860016000548154811061169057fe5b9060005260206000200160009054906101000a900473ffffffffffffffffffffffffffffffffffffffff166040518263ffffffff1660e01b8152600401808273ffffffffffffffffffffffffffffffffffffffff168152602001915050600060405180830381600087803b15801561170757600080fd5b505af115801561171b573d6000803e3d6000fd5b50505050600080815480929190600101919050555050565b611c1a806117418339019056fe61014060405260008060006101000a81548173ffffffffffffffffffffffffffffffffffffffff021916908373ffffffffffffffffffffffffffffffffffffffff16021790555060008060146101000a81548160ff02191690831515021790555060008060156101000a81548160ff021916908315150217905550604051611c1a380380611c1a833981810160405260a081101561009c57600080fd5b8101908080519060200190929190805190602001909291908051906020019092919080519060200190929190805190602001909291905050503373ffffffffffffffffffffffffffffffffffffffff1660808173ffffffffffffffffffffffffffffffffffffffff1660601b815250508473ffffffffffffffffffffffffffffffffffffffff1660a08173ffffffffffffffffffffffffffffffffffffffff1660601b8152505083820160c08181525050828483010160e08181525050816101208181525050806101008181525050505050505060805160601c60a05160601c60c05160e05161010051610120516119e8610232600039806107a4528061172f525080610780528061102e5250806107ff528061086552806111b4528061135152508061047052806108445280610d8b52806110ae52806115fc528061162c52508061044c52806107235280610ce6528061112b52806114ea528061170e525080610494528061053952806107db528061090552806109aa5280610ad85280610e8e52806112ac528061165252506119e86000f3fe6080604052600436106100f75760003560e01c80638da5cb5b1161008a578063b5d73ba411610059578063b5d73ba414610380578063c6103843146103c5578063d9d45038146103dc578063ef8e26a31461042d576100fe565b80638da5cb5b146102ac578063a1b93854146102ed578063a8a881e614610318578063ac4448291461032f576100fe565b8063584215b5116100c6578063584215b5146101e8578063672bf6051461022957806378e979251461025457806388fd65cc1461027f576100fe565b80633da8bfc91461010057806345e05f431461012b5780634665096d1461016c57806356f225e814610197576100fe565b366100fe57005b005b34801561010c57600080fd5b50610115610444565b6040518082815260200191505060405180910390f35b34801561013757600080fd5b5061014061044a565b604051808273ffffffffffffffffffffffffffffffffffffffff16815260200191505060405180910390f35b34801561017857600080fd5b5061018161046e565b6040518082815260200191505060405180910390f35b3480156101a357600080fd5b506101e6600480360360208110156101ba57600080fd5b81019080803573ffffffffffffffffffffffffffffffffffffffff169060200190929190505050610492565b005b3480156101f457600080fd5b506101fd61075a565b604051808273ffffffffffffffffffffffffffffffffffffffff16815260200191505060405180910390f35b34801561023557600080fd5b5061023e61077e565b6040518082815260200191505060405180910390f35b34801561026057600080fd5b506102696107a2565b6040518082815260200191505060405180910390f35b34801561028b57600080fd5b506102946107c6565b60405180821515815260200191505060405180910390f35b3480156102b857600080fd5b506102c16107d9565b604051808273ffffffffffffffffffffffffffffffffffffffff16815260200191505060405180910390f35b3480156102f957600080fd5b506103026107fd565b6040518082815260200191505060405180910390f35b34801561032457600080fd5b5061032d610821565b005b34801561033b57600080fd5b5061037e6004803603602081101561035257600080fd5b81019080803573ffffffffffffffffffffffffffffffffffffffff169060200190929190505050610903565b005b34801561038c57600080fd5b506103c3600480360360408110156103a357600080fd5b810190808035906020019092919080359060200190929190505050610ad6565b005b3480156103d157600080fd5b506103da610ce4565b005b3480156103e857600080fd5b5061042b600480360360208110156103ff57600080fd5b81019080803573ffffffffffffffffffffffffffffffffffffffff1690602001909291905050506112aa565b005b34801561043957600080fd5b506104426114e8565b005b60015481565b7f000000000000000000000000000000000000000000000000000000000000000081565b7f000000000000000000000000000000000000000000000000000000000000000081565b7f000000000000000000000000000000000000000000000000000000000000000073ffffffffffffffffffffffffffffffffffffffff163373ffffffffffffffffffffffffffffffffffffffff1614610536576040517f08c379a000000000000000000000000000000000000000000000000000000000815260040180806020018281038252602c815260200180611817602c913960400191505060405180910390fd5b427f000000000000000000000000000000000000000000000000000000000000000073ffffffffffffffffffffffffffffffffffffffff1663a814001f6040518163ffffffff1660e01b815260040160206040518083038186803b15801561059d57600080fd5b505afa1580156105b1573d6000803e3d6000fd5b505050506040513d60208110156105c757600080fd5b81019080805190602001909291905050501161064b576040517f08c379a00000000000000000000000000000000000000000000000000000000081526004018080602001828103825260168152602001807f4d61696e20636f6e747261637420657870697265642e0000000000000000000081525060200191505060405180910390fd5b8073ffffffffffffffffffffffffffffffffffffffff166388fd65cc6040518163ffffffff1660e01b815260040160206040518083038186803b15801561069157600080fd5b505afa1580156106a5573d6000803e3d6000fd5b505050506040513d60208110156106bb57600080fd5b8101908080519060200190929190505050610721576040517f08c379a000000000000000000000000000000000000000000000000000000000815260040180806020018281038252604f8152602001806118aa604f913960600191505060405180910390fd5b7f000000000000000000000000000000000000000000000000000000000000000073ffffffffffffffffffffffffffffffffffffffff16ff5b60008054906101000a900473ffffffffffffffffffffffffffffffffffffffff1681565b7f000000000000000000000000000000000000000000000000000000000000000081565b7f000000000000000000000000000000000000000000000000000000000000000081565b600060159054906101000a900460ff1681565b7f000000000000000000000000000000000000000000000000000000000000000081565b7f000000000000000000000000000000000000000000000000000000000000000081565b7fa5a0f8571583dde9c34333b13f7556b8c09296580706928e18d4d53570308b9e7f00000000000000000000000000000000000000000000000000000000000000007f000000000000000000000000000000000000000000000000000000000000000060008054906101000a900473ffffffffffffffffffffffffffffffffffffffff16600060149054906101000a900460ff16600154604051808681526020018581526020018473ffffffffffffffffffffffffffffffffffffffff16815260200183151581526020018281526020019550505050505060405180910390a1565b7f000000000000000000000000000000000000000000000000000000000000000073ffffffffffffffffffffffffffffffffffffffff163373ffffffffffffffffffffffffffffffffffffffff16146109a7576040517f08c379a000000000000000000000000000000000000000000000000000000000815260040180806020018281038252602c815260200180611817602c913960400191505060405180910390fd5b427f000000000000000000000000000000000000000000000000000000000000000073ffffffffffffffffffffffffffffffffffffffff1663a814001f6040518163ffffffff1660e01b815260040160206040518083038186803b158015610a0e57600080fd5b505afa158015610a22573d6000803e3d6000fd5b505050506040513d6020811015610a3857600080fd5b81019080805190602001909291905050501115610abd576040517f08c379a000000000000000000000000000000000000000000000000000000000815260040180806020018281038252601e8152602001807f4d61696e20636f6e7472616374206e6f742079657420657870697265642e000081525060200191505060405180910390fd5b8073ffffffffffffffffffffffffffffffffffffffff16ff5b7f000000000000000000000000000000000000000000000000000000000000000073ffffffffffffffffffffffffffffffffffffffff16637dc0d1d06040518163ffffffff1660e01b815260040160206040518083038186803b158015610b3c57600080fd5b505afa158015610b50573d6000803e3d6000fd5b505050506040513d6020811015610b6657600080fd5b810190808051906020019092919050505073ffffffffffffffffffffffffffffffffffffffff163373ffffffffffffffffffffffffffffffffffffffff1614610bfa576040517f08c379a00000000000000000000000000000000000000000000000000000000081526004018080602001828103825260258152602001806118856025913960400191505060405180910390fd5b6003600082815260200190815260200160002060009054906101000a900460ff16610c70576040517f08c379a000000000000000000000000000000000000000000000000000000000815260040180806020018281038252602781526020018061198c6027913960400191505060405180910390fd5b81600181905550426002819055506003600082815260200190815260200160002060006101000a81549060ff02191690557fbb982b83e84d8c224d47d0ffbe2ed070a3574bc4babb08180953e2d34b6789a98282604051808381526020018281526020019250505060405180910390a15050565b7f000000000000000000000000000000000000000000000000000000000000000073ffffffffffffffffffffffffffffffffffffffff163373ffffffffffffffffffffffffffffffffffffffff1614610d88576040517f08c379a00000000000000000000000000000000000000000000000000000000081526004018080602001828103825260288152602001806118f96028913960400191505060405180910390fd5b427f00000000000000000000000000000000000000000000000000000000000000001115610e1e576040517f08c379a000000000000000000000000000000000000000000000000000000000815260040180806020018281038252601c8152602001807f537562636f6e7472616374206e6f742079657420657870697265642e0000000081525060200191505060405180910390fd5b60001515600060149054906101000a900460ff16151514610e8a576040517f08c379a00000000000000000000000000000000000000000000000000000000081526004018080602001828103825260428152602001806118436042913960600191505060405180910390fd5b60007f00000000000000000000000000000000000000000000000000000000000000009050428173ffffffffffffffffffffffffffffffffffffffff1663a814001f6040518163ffffffff1660e01b815260040160206040518083038186803b158015610ef657600080fd5b505afa158015610f0a573d6000803e3d6000fd5b505050506040513d6020811015610f2057600080fd5b810190808051906020019092919050505011610fa4576040517f08c379a00000000000000000000000000000000000000000000000000000000081526004018080602001828103825260168152602001807f4d61696e20636f6e747261637420657870697265642e0000000000000000000081525060200191505060405180910390fd5b60008173ffffffffffffffffffffffffffffffffffffffff1663c4b641ab6040518163ffffffff1660e01b815260040160206040518083038186803b158015610fec57600080fd5b505afa158015611000573d6000803e3d6000fd5b505050506040513d602081101561101657600080fd5b810190808051906020019092919050505090508060017f00000000000000000000000000000000000000000000000000000000000000000114806110a75750600073ffffffffffffffffffffffffffffffffffffffff1660008054906101000a900473ffffffffffffffffffffffffffffffffffffffff1673ffffffffffffffffffffffffffffffffffffffff1614155b156111b1577f00000000000000000000000000000000000000000000000000000000000000006002541015611127576040517f08c379a000000000000000000000000000000000000000000000000000000000815260040180806020018281038252604a815260200180611942604a913960600191505060405180910390fd5b60007f000000000000000000000000000000000000000000000000000000000000000073ffffffffffffffffffffffffffffffffffffffff166108fc829081150290604051600060405180830381858888f1935050505015801561118f573d6000803e3d6000fd5b506001600060146101000a81548160ff021916908315150217905550506112a6565b427f0000000000000000000000000000000000000000000000000000000000000000111561122a576040517f08c379a00000000000000000000000000000000000000000000000000000000081526004018080602001828103825260218152602001806119216021913960400191505060405180910390fd5b6001600060156101000a81548160ff0219169083151502179055508173ffffffffffffffffffffffffffffffffffffffff1663c61038436040518163ffffffff1660e01b8152600401600060405180830381600087803b15801561128d57600080fd5b505af11580156112a1573d6000803e3d6000fd5b505050505b5050565b7f000000000000000000000000000000000000000000000000000000000000000073ffffffffffffffffffffffffffffffffffffffff163373ffffffffffffffffffffffffffffffffffffffff161461134e576040517f08c379a000000000000000000000000000000000000000000000000000000000815260040180806020018281038252602c815260200180611817602c913960400191505060405180910390fd5b427f0000000000000000000000000000000000000000000000000000000000000000116113e3576040517f08c379a000000000000000000000000000000000000000000000000000000000815260040180806020018281038252601b8152602001807f53656c6c657220677261636520706572696f64207061737365642e000000000081525060200191505060405180910390fd5b600073ffffffffffffffffffffffffffffffffffffffff1660008054906101000a900473ffffffffffffffffffffffffffffffffffffffff1673ffffffffffffffffffffffffffffffffffffffff16146114a5576040517f08c379a000000000000000000000000000000000000000000000000000000000815260040180806020018281038252601d8152602001807f4e65787420737562636f6e747261637420616c7265616479207365742e00000081525060200191505060405180910390fd5b806000806101000a81548173ffffffffffffffffffffffffffffffffffffffff021916908373ffffffffffffffffffffffffffffffffffffffff16021790555050565b7f000000000000000000000000000000000000000000000000000000000000000073ffffffffffffffffffffffffffffffffffffffff163373ffffffffffffffffffffffffffffffffffffffff161461158c576040517f08c379a00000000000000000000000000000000000000000000000000000000081526004018080602001828103825260288152602001806118f96028913960400191505060405180910390fd5b60001515600060149054906101000a900460ff161515146115f8576040517f08c379a00000000000000000000000000000000000000000000000000000000081526004018080602001828103825260428152602001806118436042913960600191505060405180910390fd5b60007f000000000000000000000000000000000000000000000000000000000000000042101561162a5742905061164e565b7f000000000000000000000000000000000000000000000000000000000000000090505b60007f000000000000000000000000000000000000000000000000000000000000000073ffffffffffffffffffffffffffffffffffffffff16637dc0d1d06040518163ffffffff1660e01b815260040160206040518083038186803b1580156116b657600080fd5b505afa1580156116ca573d6000803e3d6000fd5b505050506040513d60208110156116e057600080fd5b810190808051906020019092919050505073ffffffffffffffffffffffffffffffffffffffff16636cd18ce77f00000000000000000000000000000000000000000000000000000000000000007f0000000000000000000000000000000000000000000000000000000000000000856040518463ffffffff1660e01b8152600401808473ffffffffffffffffffffffffffffffffffffffff1681526020018381526020018281526020019350505050602060405180830381600087803b1580156117a957600080fd5b505af11580156117bd573d6000803e3d6000fd5b505050506040513d60208110156117d357600080fd5b8101908080519060200190929190505050905060016003600083815260200190815260200160002060006101000a81548160ff021916908315150217905550505056fe4f6e6c7920746865206d61696e20636f6e74726163742063616e2063616c6c2074686973206d6574686f642e416666696c6961746520616c72656164792063616c6c6564207265736f6c7665207375636365737366756c6c79206f6e207468697320737562636f6e74726163742e4f6e6c7920746865206f7261636c652063616e2063616c6c2074686973206d6574686f642e50726f766964656420737562636f6e7472616374206164647265737320646f6573206e6f742068617665206772616365506572696f644578706972656420666c61672073657420746f20747275652e4f6e6c792074686520616666696c696174652063616e2063616c6c2074686973206d6574686f642e53656c6c657220677261636520706572696f64206e6f7420796574206f7665722e43757272656e7420746f74616c206973206e6f7420757020746f20646174652c20616666696c69617465206d7573742063616c6c2075706461746543757272656e74546f74616c28292e546869732072657175657374206973206e6f7420696e206d792070656e64696e67206c6973742ea2646970667358221220642a473c1b16d7729f802be49829c22dd48263ffa666c58a8b143a05a0889f4064736f6c6343000704003343616e6e6f742062652063616c6c6564206279206c61737420737562636f6e74726163742e43616c6c657220737562636f6e7472616374206e6f742079657420657870697265642e4f6e6c7920746865206f776e65722063616e2063616c6c2074686973206d6574686f642e43616c6c657220737562636f6e74726163742073656c6c657220677261636520706572696f64206e6f7420796574207061737365642e546f74616c206e756d626572206f6620737562636f6e7472616374732065786365656465642e4f6e6c79206120737562636f6e74726163742063616e2063616c6c2074686973206d6574686f642e546865206c61737420737562636f6e7472616374206973206e6f742079657420657870697265642e5468652073656c6c657220677261636520706572696f6420616c726561647920656e6465642ea26469706673582212209b68a46d89b52bd3ea74cef7ab7f5d9cfb113b6599ed245ca3b4b4d2c01c4a2564736f6c6343000704003361014060405260008060006101000a81548173ffffffffffffffffffffffffffffffffffffffff021916908373ffffffffffffffffffffffffffffffffffffffff16021790555060008060146101000a81548160ff02191690831515021790555060008060156101000a81548160ff021916908315150217905550604051611c1a380380611c1a833981810160405260a081101561009c57600080fd5b8101908080519060200190929190805190602001909291908051906020019092919080519060200190929190805190602001909291905050503373ffffffffffffffffffffffffffffffffffffffff1660808173ffffffffffffffffffffffffffffffffffffffff1660601b815250508473ffffffffffffffffffffffffffffffffffffffff1660a08173ffffffffffffffffffffffffffffffffffffffff1660601b8152505083820160c08181525050828483010160e08181525050816101208181525050806101008181525050505050505060805160601c60a05160601c60c05160e05161010051610120516119e8610232600039806107a4528061172f525080610780528061102e5250806107ff528061086552806111b4528061135152508061047052806108445280610d8b52806110ae52806115fc528061162c52508061044c52806107235280610ce6528061112b52806114ea528061170e525080610494528061053952806107db528061090552806109aa5280610ad85280610e8e52806112ac528061165252506119e86000f3fe6080604052600436106100f75760003560e01c80638da5cb5b1161008a578063b5d73ba411610059578063b5d73ba414610380578063c6103843146103c5578063d9d45038146103dc578063ef8e26a31461042d576100fe565b80638da5cb5b146102ac578063a1b93854146102ed578063a8a881e614610318578063ac4448291461032f576100fe565b8063584215b5116100c6578063584215b5146101e8578063672bf6051461022957806378e979251461025457806388fd65cc1461027f576100fe565b80633da8bfc91461010057806345e05f431461012b5780634665096d1461016c57806356f225e814610197576100fe565b366100fe57005b005b34801561010c57600080fd5b50610115610444565b6040518082815260200191505060405180910390f35b34801561013757600080fd5b5061014061044a565b604051808273ffffffffffffffffffffffffffffffffffffffff16815260200191505060405180910390f35b34801561017857600080fd5b5061018161046e565b6040518082815260200191505060405180910390f35b3480156101a357600080fd5b506101e6600480360360208110156101ba57600080fd5b81019080803573ffffffffffffffffffffffffffffffffffffffff169060200190929190505050610492565b005b3480156101f457600080fd5b506101fd61075a565b604051808273ffffffffffffffffffffffffffffffffffffffff16815260200191505060405180910390f35b34801561023557600080fd5b5061023e61077e565b6040518082815260200191505060405180910390f35b34801561026057600080fd5b506102696107a2565b6040518082815260200191505060405180910390f35b34801561028b57600080fd5b506102946107c6565b60405180821515815260200191505060405180910390f35b3480156102b857600080fd5b506102c16107d9565b604051808273ffffffffffffffffffffffffffffffffffffffff16815260200191505060405180910390f35b3480156102f957600080fd5b506103026107fd565b6040518082815260200191505060405180910390f35b34801561032457600080fd5b5061032d610821565b005b34801561033b57600080fd5b5061037e6004803603602081101561035257600080fd5b81019080803573ffffffffffffffffffffffffffffffffffffffff169060200190929190505050610903565b005b34801561038c57600080fd5b506103c3600480360360408110156103a357600080fd5b810190808035906020019092919080359060200190929190505050610ad6565b005b3480156103d157600080fd5b506103da610ce4565b005b3480156103e857600080fd5b5061042b600480360360208110156103ff57600080fd5b81019080803573ffffffffffffffffffffffffffffffffffffffff1690602001909291905050506112aa565b005b34801561043957600080fd5b506104426114e8565b005b60015481565b7f000000000000000000000000000000000000000000000000000000000000000081565b7f000000000000000000000000000000000000000000000000000000000000000081565b7f000000000000000000000000000000000000000000000000000000000000000073ffffffffffffffffffffffffffffffffffffffff163373ffffffffffffffffffffffffffffffffffffffff1614610536576040517f08c379a000000000000000000000000000000000000000000000000000000000815260040180806020018281038252602c815260200180611817602c913960400191505060405180910390fd5b427f000000000000000000000000000000000000000000000000000000000000000073ffffffffffffffffffffffffffffffffffffffff1663a814001f6040518163ffffffff1660e01b815260040160206040518083038186803b15801561059d57600080fd5b505afa1580156105b1573d6000803e3d6000fd5b505050506040513d60208110156105c757600080fd5b81019080805190602001909291905050501161064b576040517f08c379a00000000000000000000000000000000000000000000000000000000081526004018080602001828103825260168152602001807f4d61696e20636f6e747261637420657870697265642e0000000000000000000081525060200191505060405180910390fd5b8073ffffffffffffffffffffffffffffffffffffffff166388fd65cc6040518163ffffffff1660e01b815260040160206040518083038186803b15801561069157600080fd5b505afa1580156106a5573d6000803e3d6000fd5b505050506040513d60208110156106bb57600080fd5b8101908080519060200190929190505050610721576040517f08c379a000000000000000000000000000000000000000000000000000000000815260040180806020018281038252604f8152602001806118aa604f913960600191505060405180910390fd5b7f000000000000000000000000000000000000000000000000000000000000000073ffffffffffffffffffffffffffffffffffffffff16ff5b60008054906101000a900473ffffffffffffffffffffffffffffffffffffffff1681565b7f000000000000000000000000000000000000000000000000000000000000000081565b7f000000000000000000000000000000000000000000000000000000000000000081565b600060159054906101000a900460ff1681565b7f000000000000000000000000000000000000000000000000000000000000000081565b7f000000000000000000000000000000000000000000000000000000000000000081565b7fa5a0f8571583dde9c34333b13f7556b8c09296580706928e18d4d53570308b9e7f00000000000000000000000000000000000000000000000000000000000000007f000000000000000000000000000000000000000000000000000000000000000060008054906101000a900473ffffffffffffffffffffffffffffffffffffffff16600060149054906101000a900460ff16600154604051808681526020018581526020018473ffffffffffffffffffffffffffffffffffffffff16815260200183151581526020018281526020019550505050505060405180910390a1565b7f000000000000000000000000000000000000000000000000000000000000000073ffffffffffffffffffffffffffffffffffffffff163373ffffffffffffffffffffffffffffffffffffffff16146109a7576040517f08c379a000000000000000000000000000000000000000000000000000000000815260040180806020018281038252602c815260200180611817602c913960400191505060405180910390fd5b427f000000000000000000000000000000000000000000000000000000000000000073ffffffffffffffffffffffffffffffffffffffff1663a814001f6040518163ffffffff1660e01b815260040160206040518083038186803b158015610a0e57600080fd5b505afa158015610a22573d6000803e3d6000fd5b505050506040513d6020811015610a3857600080fd5b81019080805190602001909291905050501115610abd576040517f08c379a000000000000000000000000000000000000000000000000000000000815260040180806020018281038252601e8152602001807f4d61696e20636f6e7472616374206e6f742079657420657870697265642e000081525060200191505060405180910390fd5b8073ffffffffffffffffffffffffffffffffffffffff16ff5b7f000000000000000000000000000000000000000000000000000000000000000073ffffffffffffffffffffffffffffffffffffffff16637dc0d1d06040518163ffffffff1660e01b815260040160206040518083038186803b158015610b3c57600080fd5b505afa158015610b50573d6000803e3d6000fd5b505050506040513d6020811015610b6657600080fd5b810190808051906020019092919050505073ffffffffffffffffffffffffffffffffffffffff163373ffffffffffffffffffffffffffffffffffffffff1614610bfa576040517f08c379a00000000000000000000000000000000000000000000000000000000081526004018080602001828103825260258152602001806118856025913960400191505060405180910390fd5b6003600082815260200190815260200160002060009054906101000a900460ff16610c70576040517f08c379a000000000000000000000000000000000000000000000000000000000815260040180806020018281038252602781526020018061198c6027913960400191505060405180910390fd5b81600181905550426002819055506003600082815260200190815260200160002060006101000a81549060ff02191690557fbb982b83e84d8c224d47d0ffbe2ed070a3574bc4babb08180953e2d34b6789a98282604051808381526020018281526020019250505060405180910390a15050565b7f000000000000000000000000000000000000000000000000000000000000000073ffffffffffffffffffffffffffffffffffffffff163373ffffffffffffffffffffffffffffffffffffffff1614610d88576040517f08c379a00000000000000000000000000000000000000000000000000000000081526004018080602001828103825260288152602001806118f96028913960400191505060405180910390fd5b427f00000000000000000000000000000000000000000000000000000000000000001115610e1e576040517f08c379a000000000000000000000000000000000000000000000000000000000815260040180806020018281038252601c8152602001807f537562636f6e7472616374206e6f742079657420657870697265642e0000000081525060200191505060405180910390fd5b60001515600060149054906101000a900460ff16151514610e8a576040517f08c379a00000000000000000000000000000000000000000000000000000000081526004018080602001828103825260428152602001806118436042913960600191505060405180910390fd5b60007f00000000000000000000000000000000000000000000000000000000000000009050428173ffffffffffffffffffffffffffffffffffffffff1663a814001f6040518163ffffffff1660e01b815260040160206040518083038186803b158015610ef657600080fd5b505afa158015610f0a573d6000803e3d6000fd5b505050506040513d6020811015610f2057600080fd5b810190808051906020019092919050505011610fa4576040517f08c379a00000000000000000000000000000000000000000000000000000000081526004018080602001828103825260168152602001807f4d61696e20636f6e747261637420657870697265642e0000000000000000000081525060200191505060405180910390fd5b60008173ffffffffffffffffffffffffffffffffffffffff1663c4b641ab6040518163ffffffff1660e01b815260040160206040518083038186803b158015610fec57600080fd5b505afa158015611000573d6000803e3d6000fd5b505050506040513d602081101561101657600080fd5b810190808051906020019092919050505090508060017f00000000000000000000000000000000000000000000000000000000000000000114806110a75750600073ffffffffffffffffffffffffffffffffffffffff1660008054906101000a900473ffffffffffffffffffffffffffffffffffffffff1673ffffffffffffffffffffffffffffffffffffffff1614155b156111b1577f00000000000000000000000000000000000000000000000000000000000000006002541015611127576040517f08c379a000000000000000000000000000000000000000000000000000000000815260040180806020018281038252604a815260200180611942604a913960600191505060405180910390fd5b60007f000000000000000000000000000000000000000000000000000000000000000073ffffffffffffffffffffffffffffffffffffffff166108fc829081150290604051600060405180830381858888f1935050505015801561118f573d6000803e3d6000fd5b506001600060146101000a81548160ff021916908315150217905550506112a6565b427f0000000000000000000000000000000000000000000000000000000000000000111561122a576040517f08c379a00000000000000000000000000000000000000000000000000000000081526004018080602001828103825260218152602001806119216021913960400191505060405180910390fd5b6001600060156101000a81548160ff0219169083151502179055508173ffffffffffffffffffffffffffffffffffffffff1663c61038436040518163ffffffff1660e01b8152600401600060405180830381600087803b15801561128d57600080fd5b505af11580156112a1573d6000803e3d6000fd5b505050505b5050565b7f000000000000000000000000000000000000000000000000000000000000000073ffffffffffffffffffffffffffffffffffffffff163373ffffffffffffffffffffffffffffffffffffffff161461134e576040517f08c379a000000000000000000000000000000000000000000000000000000000815260040180806020018281038252602c815260200180611817602c913960400191505060405180910390fd5b427f0000000000000000000000000000000000000000000000000000000000000000116113e3576040517f08c379a000000000000000000000000000000000000000000000000000000000815260040180806020018281038252601b8152602001807f53656c6c657220677261636520706572696f64207061737365642e000000000081525060200191505060405180910390fd5b600073ffffffffffffffffffffffffffffffffffffffff1660008054906101000a900473ffffffffffffffffffffffffffffffffffffffff1673ffffffffffffffffffffffffffffffffffffffff16146114a5576040517f08c379a000000000000000000000000000000000000000000000000000000000815260040180806020018281038252601d8152602001807f4e65787420737562636f6e747261637420616c7265616479207365742e00000081525060200191505060405180910390fd5b806000806101000a81548173ffffffffffffffffffffffffffffffffffffffff021916908373ffffffffffffffffffffffffffffffffffffffff16021790555050565b7f000000000000000000000000000000000000000000000000000000000000000073ffffffffffffffffffffffffffffffffffffffff163373ffffffffffffffffffffffffffffffffffffffff161461158c576040517f08c379a00000000000000000000000000000000000000000000000000000000081526004018080602001828103825260288152602001806118f96028913960400191505060405180910390fd5b60001515600060149054906101000a900460ff161515146115f8576040517f08c379a00000000000000000000000000000000000000000000000000000000081526004018080602001828103825260428152602001806118436042913960600191505060405180910390fd5b60007f000000000000000000000000000000000000000000000000000000000000000042101561162a5742905061164e565b7f000000000000000000000000000000000000000000000000000000000000000090505b60007f000000000000000000000000000000000000000000000000000000000000000073ffffffffffffffffffffffffffffffffffffffff16637dc0d1d06040518163ffffffff1660e01b815260040160206040518083038186803b1580156116b657600080fd5b505afa1580156116ca573d6000803e3d6000fd5b505050506040513d60208110156116e057600080fd5b810190808051906020019092919050505073ffffffffffffffffffffffffffffffffffffffff16636cd18ce77f00000000000000000000000000000000000000000000000000000000000000007f0000000000000000000000000000000000000000000000000000000000000000856040518463ffffffff1660e01b8152600401808473ffffffffffffffffffffffffffffffffffffffff1681526020018381526020018281526020019350505050602060405180830381600087803b1580156117a957600080fd5b505af11580156117bd573d6000803e3d6000fd5b505050506040513d60208110156117d357600080fd5b8101908080519060200190929190505050905060016003600083815260200190815260200160002060006101000a81548160ff021916908315150217905550505056fe4f6e6c7920746865206d61696e20636f6e74726163742063616e2063616c6c2074686973206d6574686f642e416666696c6961746520616c72656164792063616c6c6564207265736f6c7665207375636365737366756c6c79206f6e207468697320737562636f6e74726163742e4f6e6c7920746865206f7261636c652063616e2063616c6c2074686973206d6574686f642e50726f766964656420737562636f6e7472616374206164647265737320646f6573206e6f742068617665206772616365506572696f644578706972656420666c61672073657420746f20747275652e4f6e6c792074686520616666696c696174652063616e2063616c6c2074686973206d6574686f642e53656c6c657220677261636520706572696f64206e6f7420796574206f7665722e43757272656e7420746f74616c206973206e6f7420757020746f20646174652c20616666696c69617465206d7573742063616c6c2075706461746543757272656e74546f74616c28292e546869732072657175657374206973206e6f7420696e206d792070656e64696e67206c6973742ea2646970667358221220642a473c1b16d7729f802be49829c22dd48263ffa666c58a8b143a05a0889f4064736f6c63430007040033746f74616c20737562636f6e747261637473206d757374206265206174206c656173742033616d6f756e742073656e7420746f20636f6e7374727563746f72206d75737420657175616c20696e63656e746976652066656520706c7573206f6e6520737562636f6e7472616374207374616b65",
  "immutableReferences": {
    "10": [
      {
        "length": 32,
        "start": 1123
      },
      {
        "length": 32,
        "start": 1633
      },
      {
        "length": 32,
        "start": 2150
      },
      {
        "length": 32,
        "start": 2298
      },
      {
        "length": 32,
        "start": 2355
      },
      {
        "length": 32,
        "start": 4222
      }
    ],
    "12": [
      {
        "length": 32,
        "start": 1087
      },
      {
        "length": 32,
        "start": 4165
      },
      {
        "length": 32,
        "start": 5306
      }
    ],
    "14": [
      {
        "length": 32,
        "start": 2562
      },
      {
        "length": 32,
        "start": 3412
      },
      {
        "length": 32,
        "start": 4535
      }
    ],
    "22": [
      {
        "length": 32,
        "start": 1466
      },
      {
        "length": 32,
        "start": 1798
      },
      {
        "length": 32,
        "start": 2490
      },
      {
        "length": 32,
        "start": 2599
      },
      {
        "length": 32,
        "start": 4387
      }
    ],
    "24": [
      {
        "length": 32,
        "start": 1559
      },
      {
        "length": 32,
        "start": 5339
      }
    ],
    "26": [
      {
        "length": 32,
        "start": 2526
      },
      {
        "length": 32,
        "start": 5372
      }
    ],
    "28": [
      {
        "length": 32,
        "start": 1051
      },
      {
        "length": 32,
        "start": 4657
      }
    ],
    "30": [
      {
        "length": 32,
        "start": 1015
      }
    ],
    "32": [
      {
        "length": 32,
        "start": 2391
      }
    ]
  },
  "source": "// SPDX-License-Identifier: UNLICENSED\npragma solidity ^0.7.4;\n\nimport * as SC from \"./AffiliateSubcontract.sol\";\n\ncontract AffiliateContract {\n  // The minimum number of subcontracts is 3.\n  uint constant MIN_TOTAL_SUBCONTRACTS = 3;\n  // The amount of time that's added on to the contract expiration time so that the affiliate has extra time to clear out all subcontracts.\n  // PLACEHOLDER - NEED TO FIX\n  uint256 constant CONTRACT_END_GRACE_PERIOD = 300;\n\n  // The business that wants to pay affiliates. Set to the address that calls the contract's constructor.\n  address payable public immutable owner;\n  // The affiliate's personal address that funds will be sent to.\n  address payable public immutable affiliate;\n\n  // The total number of subcontracts that can be created from this one.\n  uint public immutable totalSubcontracts;\n  // The number of the latest created subcontract.\n  uint internal subcontractsSoFar = 0;\n  // Array containing the subcontracts\n  // Storage array (by default)\n  address payable[] public subcontracts;\n\n  // When the main contract will expire\n  uint256 public immutable contractExpiration;\n  // The length of time each subcontract will be valid for\n  uint256 public immutable subcontractDuration;\n  // The seller's grace period for issuing a new subcontract\n  uint256 public immutable gracePeriodDuration;\n\n  // The amount that will be staked for the affiliate to earn in each subcontract.\n  uint public immutable subcontractStake;\n  // The amount of the incentive fee staked by the seller to incentivize them to hold up their end of the deal.\n  uint public immutable incentiveFee;\n  // An integer representing the percentage of sales that the affiliate will receive. \n  uint public immutable affiliatePercentage;\n\n  // The address of the oracle contract.\n  address public oracle;\n\n  // The constructor should be called with the amount of the incentive fee plus the first contract stake.\n  constructor(\n    address payable _affiliate,\n    address _oracle,\n    uint _totalSubcontracts,\n    uint256 _subcontractDuration,\n    uint256 _gracePeriodDuration,\n    uint _subcontractStake,\n    uint _incentiveFee,\n    uint _affiliatePercentage\n  ) payable {\n    require(msg.value == (_incentiveFee + _subcontractStake), \"amount sent to constructor must equal incentive fee plus one subcontract stake\");\n    require(_totalSubcontracts >= MIN_TOTAL_SUBCONTRACTS, \"total subcontracts must be at least 3\");\n    owner = msg.sender;\n    affiliate = _affiliate;\n    oracle = _oracle;\n    totalSubcontracts = _totalSubcontracts;\n    // PLACEHOLDER - check this???\n    contractExpiration = block.timestamp + (_totalSubcontracts*_subcontractDuration) + CONTRACT_END_GRACE_PERIOD;\n    subcontractDuration = _subcontractDuration;\n    gracePeriodDuration = _gracePeriodDuration;\n    subcontractStake = _subcontractStake;\n    incentiveFee = _incentiveFee;\n    affiliatePercentage = _affiliatePercentage;\n\n    // Creating the first subcontract.\n    // REMEMBER THAT SUBCONTRACTSSOFAR MUST HAVE 1 SUBTRACTED BEFORE USING FOR INDEXING\n    subcontracts.push(address((new SC.AffiliateSubcontract){value: _subcontractStake}(_affiliate, _subcontractDuration, _gracePeriodDuration, block.timestamp, 0)));\n    subcontractsSoFar++;\n  }\n\n  receive() external payable { }\n  fallback() external payable { }\n\n  modifier onlyOwner {\n    require(msg.sender == owner, \"Only the owner can call this method.\");\n    _;\n  }\n\n  modifier contractNotExpired {\n    require(contractExpiration > block.timestamp, \"Main contract expired.\");\n    _;\n  }\n\n  function setOracleAddress (address _oracleAddress) public onlyOwner {\n    oracle = _oracleAddress;\n  }\n\n  event GetMainContractStateInfoEvent(address payable currentSubcontract, uint subsSoFar, uint256 expiration);\n\n  function getMainContractStateInfo() public {\n    address payable currentSubcontract = address(0x0);\n    if (subcontractsSoFar > 0) {\n      currentSubcontract = subcontracts[subcontractsSoFar - 1];\n    }\n    emit GetMainContractStateInfoEvent(currentSubcontract, subcontractsSoFar, contractExpiration);\n  }\n\n  // called by the owner\n  function createNextSubContract() public payable onlyOwner contractNotExpired {\n    require(subcontractsSoFar < totalSubcontracts, \"Total number of subcontracts exceeded.\");\n    require(msg.value == subcontractStake, \"Incorrect stake amount.\");\n    // Getting a reference to the previous/\"current\" subcontract\n    SC.AffiliateSubcontract lastSubcontract = SC.AffiliateSubcontract(subcontracts[subcontractsSoFar - 1]);\n    // Checking all the conditions necessary for making the next subcontract.\n    require(lastSubcontract.expiration() <= block.timestamp, \"The last subcontract is not yet expired.\");\n    require(lastSubcontract.sellerGracePeriodEnd() > block.timestamp, \"The seller grace period already ended.\");\n    // msg.value = total amount the subcontract will be populated with \n    subcontracts.push(address((new SC.AffiliateSubcontract){value: msg.value}(affiliate, subcontractDuration, gracePeriodDuration, lastSubcontract.expiration(), subcontractsSoFar)));\n    lastSubcontract.setNextSubcontract(subcontracts[subcontractsSoFar]);\n    subcontractsSoFar++;\n  }\n\n  // only called in dispute case\n  function affiliateResolve() public contractNotExpired {\n    bool calledBySubcontract = false;\n    for (uint i = 0; i < subcontractsSoFar; i++) {\n      if (subcontracts[i] == msg.sender) {\n        calledBySubcontract = true;\n      }\n    }\n    require(calledBySubcontract, \"Only a subcontract can call this method.\");\n    SC.AffiliateSubcontract callerSubcontract = SC.AffiliateSubcontract(msg.sender);\n    require(callerSubcontract.expiration() <= block.timestamp, \"Caller subcontract not yet expired.\");\n    require(callerSubcontract.sellerGracePeriodEnd() <= block.timestamp, \"Caller subcontract seller grace period not yet passed.\");\n    require((callerSubcontract.indexNumber() + 1) != totalSubcontracts, \"Cannot be called by last subcontract.\");\n    require(callerSubcontract.nextSubcontract() == address(0x0), \"Next subcontract is present.\");\n    for (uint i = 0; i < subcontractsSoFar; i++) {\n      SC.AffiliateSubcontract(subcontracts[i]).affiliateCleanup(msg.sender);\n    }\n    selfdestruct(affiliate);\n  }\n\n  function sellerResolve() public onlyOwner {\n    require(contractExpiration <= block.timestamp, \"Main contract not yet expired.\");\n    for (uint i = 0; i < subcontractsSoFar; i++) {\n      if (subcontracts[i] != address(0x0)) {\n        SC.AffiliateSubcontract(subcontracts[i]).sellerResolve(owner);\n      }\n    }\n    selfdestruct(owner);\n  }\n}",
  "sourcePath": "/home/madsilva/dev/blockchain/blockchain-project/truffle/contracts/AffiliateContract.sol",
  "compiler": {
    "name": "solc",
    "version": "0.7.4+commit.3f05b770.Emscripten.clang"
  },
  "schemaVersion": "3.3.2",
  "updatedAt": "2020-12-01T00:13:36.851Z",
  "devdoc": {
    "kind": "dev",
    "methods": {},
    "version": 1
  },
  "userdoc": {
    "kind": "user",
    "methods": {},
    "version": 1
  }
}