{
  "contractName": "AffiliateContract",
  "abi": [
    {
      "inputs": [
        {
          "internalType": "address payable",
          "name": "_affiliate",
          "type": "address"
        },
        {
          "internalType": "address",
          "name": "_oracle",
          "type": "address"
        },
        {
          "internalType": "uint256",
          "name": "_totalSubcontracts",
          "type": "uint256"
        },
        {
          "internalType": "uint256",
          "name": "_subcontractDuration",
          "type": "uint256"
        },
        {
          "internalType": "uint256",
          "name": "_gracePeriodDuration",
          "type": "uint256"
        },
        {
          "internalType": "uint256",
          "name": "_contractEndGracePeriodDuration",
          "type": "uint256"
        },
        {
          "internalType": "uint256",
          "name": "_subcontractStake",
          "type": "uint256"
        },
        {
          "internalType": "uint256",
          "name": "_incentiveFee",
          "type": "uint256"
        },
        {
          "internalType": "bytes32",
          "name": "_affiliatePercentage",
          "type": "bytes32"
        },
        {
          "internalType": "uint256",
          "name": "_humanReadableAffiliatePercentage",
          "type": "uint256"
        }
      ],
      "stateMutability": "payable",
      "type": "constructor"
    },
    {
      "stateMutability": "payable",
      "type": "fallback"
    },
    {
      "inputs": [],
      "name": "affiliate",
      "outputs": [
        {
          "internalType": "address payable",
          "name": "",
          "type": "address"
        }
      ],
      "stateMutability": "view",
      "type": "function"
    },
    {
      "inputs": [],
      "name": "affiliatePercentage",
      "outputs": [
        {
          "internalType": "bytes32",
          "name": "",
          "type": "bytes32"
        }
      ],
      "stateMutability": "view",
      "type": "function"
    },
    {
      "inputs": [],
      "name": "contractExpiration",
      "outputs": [
        {
          "internalType": "uint256",
          "name": "",
          "type": "uint256"
        }
      ],
      "stateMutability": "view",
      "type": "function"
    },
    {
      "inputs": [],
      "name": "gracePeriodDuration",
      "outputs": [
        {
          "internalType": "uint256",
          "name": "",
          "type": "uint256"
        }
      ],
      "stateMutability": "view",
      "type": "function"
    },
    {
      "inputs": [],
      "name": "humanReadableAffiliatePercentage",
      "outputs": [
        {
          "internalType": "uint256",
          "name": "",
          "type": "uint256"
        }
      ],
      "stateMutability": "view",
      "type": "function"
    },
    {
      "inputs": [],
      "name": "incentiveFee",
      "outputs": [
        {
          "internalType": "uint256",
          "name": "",
          "type": "uint256"
        }
      ],
      "stateMutability": "view",
      "type": "function"
    },
    {
      "inputs": [],
      "name": "oracle",
      "outputs": [
        {
          "internalType": "address",
          "name": "",
          "type": "address"
        }
      ],
      "stateMutability": "view",
      "type": "function"
    },
    {
      "inputs": [],
      "name": "owner",
      "outputs": [
        {
          "internalType": "address payable",
          "name": "",
          "type": "address"
        }
      ],
      "stateMutability": "view",
      "type": "function"
    },
    {
      "inputs": [],
      "name": "subcontractDuration",
      "outputs": [
        {
          "internalType": "uint256",
          "name": "",
          "type": "uint256"
        }
      ],
      "stateMutability": "view",
      "type": "function"
    },
    {
      "inputs": [],
      "name": "subcontractStake",
      "outputs": [
        {
          "internalType": "uint256",
          "name": "",
          "type": "uint256"
        }
      ],
      "stateMutability": "view",
      "type": "function"
    },
    {
      "inputs": [
        {
          "internalType": "uint256",
          "name": "",
          "type": "uint256"
        }
      ],
      "name": "subcontracts",
      "outputs": [
        {
          "internalType": "address payable",
          "name": "",
          "type": "address"
        }
      ],
      "stateMutability": "view",
      "type": "function"
    },
    {
      "inputs": [],
      "name": "subcontractsSoFar",
      "outputs": [
        {
          "internalType": "uint256",
          "name": "",
          "type": "uint256"
        }
      ],
      "stateMutability": "view",
      "type": "function"
    },
    {
      "inputs": [],
      "name": "totalSubcontracts",
      "outputs": [
        {
          "internalType": "uint256",
          "name": "",
          "type": "uint256"
        }
      ],
      "stateMutability": "view",
      "type": "function"
    },
    {
      "stateMutability": "payable",
      "type": "receive"
    },
    {
      "inputs": [
        {
          "internalType": "address",
          "name": "_oracleAddress",
          "type": "address"
        }
      ],
      "name": "setOracleAddress",
      "outputs": [],
      "stateMutability": "nonpayable",
      "type": "function"
    },
    {
      "inputs": [],
      "name": "getCurrentSubcontract",
      "outputs": [
        {
          "internalType": "address payable",
          "name": "",
          "type": "address"
        }
      ],
      "stateMutability": "view",
      "type": "function"
    },
    {
      "inputs": [
        {
          "internalType": "uint256",
          "name": "rawTotal",
          "type": "uint256"
        }
      ],
      "name": "getAffiliateEarnings",
      "outputs": [
        {
          "internalType": "uint256",
          "name": "",
          "type": "uint256"
        }
      ],
      "stateMutability": "view",
      "type": "function"
    },
    {
      "inputs": [],
      "name": "createNextSubContract",
      "outputs": [],
      "stateMutability": "payable",
      "type": "function"
    },
    {
      "inputs": [],
      "name": "affiliateResolve",
      "outputs": [],
      "stateMutability": "nonpayable",
      "type": "function"
    },
    {
      "inputs": [],
      "name": "sellerResolve",
      "outputs": [],
      "stateMutability": "nonpayable",
      "type": "function"
    }
  ],
  "bytecode": "0x6101a06040526000600155604051620057bf380380620057bf83398181016040526101408110156200003057600080fd5b81019080805190602001909291908051906020019092919080519060200190929190805190602001909291908051906020019092919080519060200190929190805190602001909291908051906020019092919080519060200190929190805190602001909291905050508383013414620000f7576040517f08c379a000000000000000000000000000000000000000000000000000000000815260040180806020018281038252604e81526020018062005771604e913960600191505060405180910390fd5b600388101562000153576040517f08c379a00000000000000000000000000000000000000000000000000000000081526004018080602001828103825260258152602001806200574c6025913960400191505060405180910390fd5b3373ffffffffffffffffffffffffffffffffffffffff1660808173ffffffffffffffffffffffffffffffffffffffff1660601b815250508973ffffffffffffffffffffffffffffffffffffffff1660a08173ffffffffffffffffffffffffffffffffffffffff1660601b81525050886000806101000a81548173ffffffffffffffffffffffffffffffffffffffff021916908373ffffffffffffffffffffffffffffffffffffffff1602179055508760c081815250508487890242010160e08181525050866101008181525050856101208181525050836101408181525050826101608181525050816003819055508061018081815250506002848b898942600060405162000262906200033f565b808673ffffffffffffffffffffffffffffffffffffffff168152602001858152602001848152602001838152602001828152602001955050505050506040518091039082f0905080158015620002bc573d6000803e3d6000fd5b509080600181540180825580915050600190039060005260206000200160009091909190916101000a81548173ffffffffffffffffffffffffffffffffffffffff021916908373ffffffffffffffffffffffffffffffffffffffff160217905550600160008154809291906001019190505550505050505050505050506200034d565b611ca68062003aa683390190565b60805160601c60a05160601c60c05160e05161010051610120516101405161016051610180516136a0620004066000398061050b5250806104e75250806105355280611376525080610b23528061164152508061066452806116205250806108125280610aff5280610b6c5280611268525080610b475280610e9952806112fc525080610559528061118a52806115ff52508061057d528061076d52806109725280610a065280610a3f52806111c352506136a06000f3fe6080604052600436106101185760003560e01c80638d870593116100a0578063a814001f11610064578063a814001f14610443578063c099f5751461046e578063c4b641ab14610499578063c6103843146104c4578063d1756e4f146104db5761011f565b80638d8705931461031a5780638da5cb5b1461033157806391a5754414610372578063984d5e231461039d5780639ab053cf146104025761011f565b806345e05f43116100e757806345e05f43146101cd5780634c69c00f1461020e5780637b1118791461025f5780637dc0d1d01461028a578063867a3c86146102cb5761011f565b8063069039001461012157806325c167111461014c57806325e6937a146101775780633dec872e146101a25761011f565b3661011f57005b005b34801561012d57600080fd5b506101366104e5565b6040518082815260200191505060405180910390f35b34801561015857600080fd5b50610161610509565b6040518082815260200191505060405180910390f35b34801561018357600080fd5b5061018c61052d565b6040518082815260200191505060405180910390f35b3480156101ae57600080fd5b506101b7610533565b6040518082815260200191505060405180910390f35b3480156101d957600080fd5b506101e2610557565b604051808273ffffffffffffffffffffffffffffffffffffffff16815260200191505060405180910390f35b34801561021a57600080fd5b5061025d6004803603602081101561023157600080fd5b81019080803573ffffffffffffffffffffffffffffffffffffffff16906020019092919050505061057b565b005b34801561026b57600080fd5b50610274610662565b6040518082815260200191505060405180910390f35b34801561029657600080fd5b5061029f610686565b604051808273ffffffffffffffffffffffffffffffffffffffff16815260200191505060405180910390f35b3480156102d757600080fd5b50610304600480360360208110156102ee57600080fd5b81019080803590602001909291905050506106aa565b6040518082815260200191505060405180910390f35b34801561032657600080fd5b5061032f61076b565b005b34801561033d57600080fd5b50610346610a3d565b604051808273ffffffffffffffffffffffffffffffffffffffff16815260200191505060405180910390f35b34801561037e57600080fd5b50610387610a61565b6040518082815260200191505060405180910390f35b3480156103a957600080fd5b506103d6600480360360208110156103c057600080fd5b8101908080359060200190929190505050610a67565b604051808273ffffffffffffffffffffffffffffffffffffffff16815260200191505060405180910390f35b34801561040e57600080fd5b50610417610aa6565b604051808273ffffffffffffffffffffffffffffffffffffffff16815260200191505060405180910390f35b34801561044f57600080fd5b50610458610afd565b6040518082815260200191505060405180910390f35b34801561047a57600080fd5b50610483610b21565b6040518082815260200191505060405180910390f35b3480156104a557600080fd5b506104ae610b45565b6040518082815260200191505060405180910390f35b3480156104d057600080fd5b506104d9610b69565b005b6104e36111c1565b005b7f000000000000000000000000000000000000000000000000000000000000000081565b7f000000000000000000000000000000000000000000000000000000000000000081565b60015481565b7f000000000000000000000000000000000000000000000000000000000000000081565b7f000000000000000000000000000000000000000000000000000000000000000081565b7f000000000000000000000000000000000000000000000000000000000000000073ffffffffffffffffffffffffffffffffffffffff163373ffffffffffffffffffffffffffffffffffffffff161461061f576040517f08c379a00000000000000000000000000000000000000000000000000000000081526004018080602001828103825260248152602001806135756024913960400191505060405180910390fd5b806000806101000a81548173ffffffffffffffffffffffffffffffffffffffff021916908373ffffffffffffffffffffffffffffffffffffffff16021790555050565b7f000000000000000000000000000000000000000000000000000000000000000081565b60008054906101000a900473ffffffffffffffffffffffffffffffffffffffff1681565b6000806000905060007f310000000000000000000000000000000000000000000000000000000000000090506000602090505b6001811061076057817effffffffffffffffffffffffffffffffffffffffffffffffffffffffffffff1916600354600183036020811061071957fe5b1a60f81b7effffffffffffffffffffffffffffffffffffffffffffffffffffffffffffff1916141561074b5784830192505b600185901c94508080600190039150506106dd565b508192505050919050565b7f000000000000000000000000000000000000000000000000000000000000000073ffffffffffffffffffffffffffffffffffffffff163373ffffffffffffffffffffffffffffffffffffffff161461080f576040517f08c379a00000000000000000000000000000000000000000000000000000000081526004018080602001828103825260248152602001806135756024913960400191505060405180910390fd5b427f000000000000000000000000000000000000000000000000000000000000000011156108a5576040517f08c379a000000000000000000000000000000000000000000000000000000000815260040180806020018281038252601e8152602001807f4d61696e20636f6e7472616374206e6f742079657420657870697265642e000081525060200191505060405180910390fd5b60005b600154811015610a0357600073ffffffffffffffffffffffffffffffffffffffff16600282815481106108d757fe5b9060005260206000200160009054906101000a900473ffffffffffffffffffffffffffffffffffffffff1673ffffffffffffffffffffffffffffffffffffffff16146109f6576002818154811061092a57fe5b9060005260206000200160009054906101000a900473ffffffffffffffffffffffffffffffffffffffff1673ffffffffffffffffffffffffffffffffffffffff1663ac4448297f00000000000000000000000000000000000000000000000000000000000000006040518263ffffffff1660e01b8152600401808273ffffffffffffffffffffffffffffffffffffffff168152602001915050600060405180830381600087803b1580156109dd57600080fd5b505af11580156109f1573d6000803e3d6000fd5b505050505b80806001019150506108a8565b507f000000000000000000000000000000000000000000000000000000000000000073ffffffffffffffffffffffffffffffffffffffff16ff5b7f000000000000000000000000000000000000000000000000000000000000000081565b60035481565b60028181548110610a7757600080fd5b906000526020600020016000915054906101000a900473ffffffffffffffffffffffffffffffffffffffff1681565b6000806001541115610af5576002600180540381548110610ac357fe5b9060005260206000200160009054906101000a900473ffffffffffffffffffffffffffffffffffffffff169050610afa565b600090505b90565b7f000000000000000000000000000000000000000000000000000000000000000081565b7f000000000000000000000000000000000000000000000000000000000000000081565b7f000000000000000000000000000000000000000000000000000000000000000081565b427f000000000000000000000000000000000000000000000000000000000000000011610bfe576040517f08c379a00000000000000000000000000000000000000000000000000000000081526004018080602001828103825260168152602001807f4d61696e20636f6e747261637420657870697265642e0000000000000000000081525060200191505060405180910390fd5b6000805b600154811015610c89573373ffffffffffffffffffffffffffffffffffffffff1660028281548110610c3057fe5b9060005260206000200160009054906101000a900473ffffffffffffffffffffffffffffffffffffffff1673ffffffffffffffffffffffffffffffffffffffff161415610c7c57600191505b8080600101915050610c02565b5080610ce0576040517f08c379a00000000000000000000000000000000000000000000000000000000081526004018080602001828103825260288152602001806135f56028913960400191505060405180910390fd5b6000339050428173ffffffffffffffffffffffffffffffffffffffff16634665096d6040518163ffffffff1660e01b815260040160206040518083038186803b158015610d2c57600080fd5b505afa158015610d40573d6000803e3d6000fd5b505050506040513d6020811015610d5657600080fd5b81019080805190602001909291905050501115610dbe576040517f08c379a00000000000000000000000000000000000000000000000000000000081526004018080602001828103825260238152602001806135526023913960400191505060405180910390fd5b428173ffffffffffffffffffffffffffffffffffffffff1663a1b938546040518163ffffffff1660e01b815260040160206040518083038186803b158015610e0557600080fd5b505afa158015610e19573d6000803e3d6000fd5b505050506040513d6020811015610e2f57600080fd5b81019080805190602001909291905050501115610e97576040517f08c379a00000000000000000000000000000000000000000000000000000000081526004018080602001828103825260368152602001806135996036913960400191505060405180910390fd5b7f000000000000000000000000000000000000000000000000000000000000000060018273ffffffffffffffffffffffffffffffffffffffff1663672bf6056040518163ffffffff1660e01b815260040160206040518083038186803b158015610f0057600080fd5b505afa158015610f14573d6000803e3d6000fd5b505050506040513d6020811015610f2a57600080fd5b8101908080519060200190929190505050011415610f93576040517f08c379a000000000000000000000000000000000000000000000000000000000815260040180806020018281038252602581526020018061352d6025913960400191505060405180910390fd5b600073ffffffffffffffffffffffffffffffffffffffff168173ffffffffffffffffffffffffffffffffffffffff1663584215b56040518163ffffffff1660e01b815260040160206040518083038186803b158015610ff157600080fd5b505afa158015611005573d6000803e3d6000fd5b505050506040513d602081101561101b57600080fd5b810190808051906020019092919050505073ffffffffffffffffffffffffffffffffffffffff16146110b5576040517f08c379a000000000000000000000000000000000000000000000000000000000815260040180806020018281038252601c8152602001807f4e65787420737562636f6e74726163742069732070726573656e742e0000000081525060200191505060405180910390fd5b60005b60015481101561118757600281815481106110cf57fe5b9060005260206000200160009054906101000a900473ffffffffffffffffffffffffffffffffffffffff1673ffffffffffffffffffffffffffffffffffffffff166356f225e8336040518263ffffffff1660e01b8152600401808273ffffffffffffffffffffffffffffffffffffffff168152602001915050600060405180830381600087803b15801561116257600080fd5b505af1158015611176573d6000803e3d6000fd5b5050505080806001019150506110b8565b507f000000000000000000000000000000000000000000000000000000000000000073ffffffffffffffffffffffffffffffffffffffff16ff5b7f000000000000000000000000000000000000000000000000000000000000000073ffffffffffffffffffffffffffffffffffffffff163373ffffffffffffffffffffffffffffffffffffffff1614611265576040517f08c379a00000000000000000000000000000000000000000000000000000000081526004018080602001828103825260248152602001806135756024913960400191505060405180910390fd5b427f0000000000000000000000000000000000000000000000000000000000000000116112fa576040517f08c379a00000000000000000000000000000000000000000000000000000000081526004018080602001828103825260168152602001807f4d61696e20636f6e747261637420657870697265642e0000000000000000000081525060200191505060405180910390fd5b7f000000000000000000000000000000000000000000000000000000000000000060015410611374576040517f08c379a00000000000000000000000000000000000000000000000000000000081526004018080602001828103825260268152602001806135cf6026913960400191505060405180910390fd5b7f00000000000000000000000000000000000000000000000000000000000000003414611409576040517f08c379a00000000000000000000000000000000000000000000000000000000081526004018080602001828103825260178152602001807f496e636f7272656374207374616b6520616d6f756e742e00000000000000000081525060200191505060405180910390fd5b6000600260018054038154811061141c57fe5b9060005260206000200160009054906101000a900473ffffffffffffffffffffffffffffffffffffffff169050428173ffffffffffffffffffffffffffffffffffffffff16634665096d6040518163ffffffff1660e01b815260040160206040518083038186803b15801561149057600080fd5b505afa1580156114a4573d6000803e3d6000fd5b505050506040513d60208110156114ba57600080fd5b81019080805190602001909291905050501115611522576040517f08c379a000000000000000000000000000000000000000000000000000000000815260040180806020018281038252602881526020018061361d6028913960400191505060405180910390fd5b428173ffffffffffffffffffffffffffffffffffffffff1663a1b938546040518163ffffffff1660e01b815260040160206040518083038186803b15801561156957600080fd5b505afa15801561157d573d6000803e3d6000fd5b505050506040513d602081101561159357600080fd5b8101908080519060200190929190505050116115fa576040517f08c379a00000000000000000000000000000000000000000000000000000000081526004018080602001828103825260268152602001806136456026913960400191505060405180910390fd5b6002347f00000000000000000000000000000000000000000000000000000000000000007f00000000000000000000000000000000000000000000000000000000000000007f00000000000000000000000000000000000000000000000000000000000000008573ffffffffffffffffffffffffffffffffffffffff16634665096d6040518163ffffffff1660e01b815260040160206040518083038186803b1580156116a657600080fd5b505afa1580156116ba573d6000803e3d6000fd5b505050506040513d60208110156116d057600080fd5b81019080805190602001909291905050506001546040516116f090611879565b808673ffffffffffffffffffffffffffffffffffffffff168152602001858152602001848152602001838152602001828152602001955050505050506040518091039082f0905080158015611749573d6000803e3d6000fd5b509080600181540180825580915050600190039060005260206000200160009091909190916101000a81548173ffffffffffffffffffffffffffffffffffffffff021916908373ffffffffffffffffffffffffffffffffffffffff1602179055508073ffffffffffffffffffffffffffffffffffffffff1663d9d450386002600154815481106117d557fe5b9060005260206000200160009054906101000a900473ffffffffffffffffffffffffffffffffffffffff166040518263ffffffff1660e01b8152600401808273ffffffffffffffffffffffffffffffffffffffff168152602001915050600060405180830381600087803b15801561184c57600080fd5b505af1158015611860573d6000803e3d6000fd5b5050505060016000815480929190600101919050555050565b611ca6806118878339019056fe61014060405260008060006101000a81548173ffffffffffffffffffffffffffffffffffffffff021916908373ffffffffffffffffffffffffffffffffffffffff16021790555060008060146101000a81548160ff02191690831515021790555060008060156101000a81548160ff0219169083151502179055506000600355604051611ca6380380611ca6833981810160405260a08110156100a157600080fd5b8101908080519060200190929190805190602001909291908051906020019092919080519060200190929190805190602001909291905050503373ffffffffffffffffffffffffffffffffffffffff1660808173ffffffffffffffffffffffffffffffffffffffff1660601b815250508473ffffffffffffffffffffffffffffffffffffffff1660a08173ffffffffffffffffffffffffffffffffffffffff1660601b8152505083820160c08181525050828483010160e08181525050816101208181525050806101008181525050505050505060805160601c60a05160601c60c05160e0516101005161012051611a7961022d6000398061084552806117a15250806108215280610fed5250806108a0528061127c528061141952508061050b5280610d4a528061106d52806117c25250806104e752806107be5280610ca5528061118552806111f352806115b2528061178052508061052f52806105d4528061087c52806108c452806109695280610a975280610e4d528061137452806116c45250611a796000f3fe60806040526004361061010d5760003560e01c806378e9792511610095578063ac44482911610064578063ac444829146103b1578063b5d73ba414610402578063c610384314610447578063d9d450381461045e578063ef8e26a3146104af57610114565b806378e97925146102ed57806388fd65cc146103185780638da5cb5b14610345578063a1b938541461038657610114565b80634665096d116100dc5780634665096d146101da57806356f225e814610205578063584215b51461025657806363bd1d4a14610297578063672bf605146102c257610114565b80630bc1abe1146101165780633741f9f6146101435780633da8bfc91461016e57806345e05f431461019957610114565b3661011457005b005b34801561012257600080fd5b5061012b6104c6565b60405180821515815260200191505060405180910390f35b34801561014f57600080fd5b506101586104d9565b6040518082815260200191505060405180910390f35b34801561017a57600080fd5b506101836104df565b6040518082815260200191505060405180910390f35b3480156101a557600080fd5b506101ae6104e5565b604051808273ffffffffffffffffffffffffffffffffffffffff16815260200191505060405180910390f35b3480156101e657600080fd5b506101ef610509565b6040518082815260200191505060405180910390f35b34801561021157600080fd5b506102546004803603602081101561022857600080fd5b81019080803573ffffffffffffffffffffffffffffffffffffffff16906020019092919050505061052d565b005b34801561026257600080fd5b5061026b6107f5565b604051808273ffffffffffffffffffffffffffffffffffffffff16815260200191505060405180910390f35b3480156102a357600080fd5b506102ac610819565b6040518082815260200191505060405180910390f35b3480156102ce57600080fd5b506102d761081f565b6040518082815260200191505060405180910390f35b3480156102f957600080fd5b50610302610843565b6040518082815260200191505060405180910390f35b34801561032457600080fd5b5061032d610867565b60405180821515815260200191505060405180910390f35b34801561035157600080fd5b5061035a61087a565b604051808273ffffffffffffffffffffffffffffffffffffffff16815260200191505060405180910390f35b34801561039257600080fd5b5061039b61089e565b6040518082815260200191505060405180910390f35b3480156103bd57600080fd5b50610400600480360360208110156103d457600080fd5b81019080803573ffffffffffffffffffffffffffffffffffffffff1690602001909291905050506108c2565b005b34801561040e57600080fd5b506104456004803603604081101561042557600080fd5b810190808035906020019092919080359060200190929190505050610a95565b005b34801561045357600080fd5b5061045c610ca3565b005b34801561046a57600080fd5b506104ad6004803603602081101561048157600080fd5b81019080803573ffffffffffffffffffffffffffffffffffffffff169060200190929190505050611372565b005b3480156104bb57600080fd5b506104c46115b0565b005b600060149054906101000a900460ff1681565b60025481565b60015481565b7f000000000000000000000000000000000000000000000000000000000000000081565b7f000000000000000000000000000000000000000000000000000000000000000081565b7f000000000000000000000000000000000000000000000000000000000000000073ffffffffffffffffffffffffffffffffffffffff163373ffffffffffffffffffffffffffffffffffffffff16146105d1576040517f08c379a000000000000000000000000000000000000000000000000000000000815260040180806020018281038252602c8152602001806118a8602c913960400191505060405180910390fd5b427f000000000000000000000000000000000000000000000000000000000000000073ffffffffffffffffffffffffffffffffffffffff1663a814001f6040518163ffffffff1660e01b815260040160206040518083038186803b15801561063857600080fd5b505afa15801561064c573d6000803e3d6000fd5b505050506040513d602081101561066257600080fd5b8101908080519060200190929190505050116106e6576040517f08c379a00000000000000000000000000000000000000000000000000000000081526004018080602001828103825260168152602001807f4d61696e20636f6e747261637420657870697265642e0000000000000000000081525060200191505060405180910390fd5b8073ffffffffffffffffffffffffffffffffffffffff166388fd65cc6040518163ffffffff1660e01b815260040160206040518083038186803b15801561072c57600080fd5b505afa158015610740573d6000803e3d6000fd5b505050506040513d602081101561075657600080fd5b81019080805190602001909291905050506107bc576040517f08c379a000000000000000000000000000000000000000000000000000000000815260040180806020018281038252604f81526020018061193b604f913960600191505060405180910390fd5b7f000000000000000000000000000000000000000000000000000000000000000073ffffffffffffffffffffffffffffffffffffffff16ff5b60008054906101000a900473ffffffffffffffffffffffffffffffffffffffff1681565b60035481565b7f000000000000000000000000000000000000000000000000000000000000000081565b7f000000000000000000000000000000000000000000000000000000000000000081565b600060159054906101000a900460ff1681565b7f000000000000000000000000000000000000000000000000000000000000000081565b7f000000000000000000000000000000000000000000000000000000000000000081565b7f000000000000000000000000000000000000000000000000000000000000000073ffffffffffffffffffffffffffffffffffffffff163373ffffffffffffffffffffffffffffffffffffffff1614610966576040517f08c379a000000000000000000000000000000000000000000000000000000000815260040180806020018281038252602c8152602001806118a8602c913960400191505060405180910390fd5b427f000000000000000000000000000000000000000000000000000000000000000073ffffffffffffffffffffffffffffffffffffffff1663a814001f6040518163ffffffff1660e01b815260040160206040518083038186803b1580156109cd57600080fd5b505afa1580156109e1573d6000803e3d6000fd5b505050506040513d60208110156109f757600080fd5b81019080805190602001909291905050501115610a7c576040517f08c379a000000000000000000000000000000000000000000000000000000000815260040180806020018281038252601e8152602001807f4d61696e20636f6e7472616374206e6f742079657420657870697265642e000081525060200191505060405180910390fd5b8073ffffffffffffffffffffffffffffffffffffffff16ff5b7f000000000000000000000000000000000000000000000000000000000000000073ffffffffffffffffffffffffffffffffffffffff16637dc0d1d06040518163ffffffff1660e01b815260040160206040518083038186803b158015610afb57600080fd5b505afa158015610b0f573d6000803e3d6000fd5b505050506040513d6020811015610b2557600080fd5b810190808051906020019092919050505073ffffffffffffffffffffffffffffffffffffffff163373ffffffffffffffffffffffffffffffffffffffff1614610bb9576040517f08c379a00000000000000000000000000000000000000000000000000000000081526004018080602001828103825260258152602001806119166025913960400191505060405180910390fd5b6004600082815260200190815260200160002060009054906101000a900460ff16610c2f576040517f08c379a0000000000000000000000000000000000000000000000000000000008152600401808060200182810382526027815260200180611a1d6027913960400191505060405180910390fd5b81600181905550426002819055506004600082815260200190815260200160002060006101000a81549060ff02191690557fbb982b83e84d8c224d47d0ffbe2ed070a3574bc4babb08180953e2d34b6789a98282604051808381526020018281526020019250505060405180910390a15050565b7f000000000000000000000000000000000000000000000000000000000000000073ffffffffffffffffffffffffffffffffffffffff163373ffffffffffffffffffffffffffffffffffffffff1614610d47576040517f08c379a000000000000000000000000000000000000000000000000000000000815260040180806020018281038252602881526020018061198a6028913960400191505060405180910390fd5b427f00000000000000000000000000000000000000000000000000000000000000001115610ddd576040517f08c379a000000000000000000000000000000000000000000000000000000000815260040180806020018281038252601c8152602001807f537562636f6e7472616374206e6f742079657420657870697265642e0000000081525060200191505060405180910390fd5b60001515600060149054906101000a900460ff16151514610e49576040517f08c379a00000000000000000000000000000000000000000000000000000000081526004018080602001828103825260428152602001806118d46042913960600191505060405180910390fd5b60007f00000000000000000000000000000000000000000000000000000000000000009050428173ffffffffffffffffffffffffffffffffffffffff1663a814001f6040518163ffffffff1660e01b815260040160206040518083038186803b158015610eb557600080fd5b505afa158015610ec9573d6000803e3d6000fd5b505050506040513d6020811015610edf57600080fd5b810190808051906020019092919050505011610f63576040517f08c379a00000000000000000000000000000000000000000000000000000000081526004018080602001828103825260168152602001807f4d61696e20636f6e747261637420657870697265642e0000000000000000000081525060200191505060405180910390fd5b60008173ffffffffffffffffffffffffffffffffffffffff1663c4b641ab6040518163ffffffff1660e01b815260040160206040518083038186803b158015610fab57600080fd5b505afa158015610fbf573d6000803e3d6000fd5b505050506040513d6020811015610fd557600080fd5b810190808051906020019092919050505090508060017f00000000000000000000000000000000000000000000000000000000000000000114806110665750600073ffffffffffffffffffffffffffffffffffffffff1660008054906101000a900473ffffffffffffffffffffffffffffffffffffffff1673ffffffffffffffffffffffffffffffffffffffff1614155b15611279577f000000000000000000000000000000000000000000000000000000000000000060025410156110e6576040517f08c379a000000000000000000000000000000000000000000000000000000000815260040180806020018281038252604a8152602001806119d3604a913960600191505060405180910390fd5b8173ffffffffffffffffffffffffffffffffffffffff1663867a3c866001546040518263ffffffff1660e01b81526004018082815260200191505060206040518083038186803b15801561113957600080fd5b505afa15801561114d573d6000803e3d6000fd5b505050506040513d602081101561116357600080fd5b810190808051906020019092919050505060038190555047600354116111f1577f000000000000000000000000000000000000000000000000000000000000000073ffffffffffffffffffffffffffffffffffffffff166108fc6003549081150290604051600060405180830381858888f193505050501580156111eb573d6000803e3d6000fd5b50611259565b7f000000000000000000000000000000000000000000000000000000000000000073ffffffffffffffffffffffffffffffffffffffff166108fc479081150290604051600060405180830381858888f19350505050158015611257573d6000803e3d6000fd5b505b6001600060146101000a81548160ff02191690831515021790555061136e565b427f000000000000000000000000000000000000000000000000000000000000000011156112f2576040517f08c379a00000000000000000000000000000000000000000000000000000000081526004018080602001828103825260218152602001806119b26021913960400191505060405180910390fd5b6001600060156101000a81548160ff0219169083151502179055508173ffffffffffffffffffffffffffffffffffffffff1663c61038436040518163ffffffff1660e01b8152600401600060405180830381600087803b15801561135557600080fd5b505af1158015611369573d6000803e3d6000fd5b505050505b5050565b7f000000000000000000000000000000000000000000000000000000000000000073ffffffffffffffffffffffffffffffffffffffff163373ffffffffffffffffffffffffffffffffffffffff1614611416576040517f08c379a000000000000000000000000000000000000000000000000000000000815260040180806020018281038252602c8152602001806118a8602c913960400191505060405180910390fd5b427f0000000000000000000000000000000000000000000000000000000000000000116114ab576040517f08c379a000000000000000000000000000000000000000000000000000000000815260040180806020018281038252601b8152602001807f53656c6c657220677261636520706572696f64207061737365642e000000000081525060200191505060405180910390fd5b600073ffffffffffffffffffffffffffffffffffffffff1660008054906101000a900473ffffffffffffffffffffffffffffffffffffffff1673ffffffffffffffffffffffffffffffffffffffff161461156d576040517f08c379a000000000000000000000000000000000000000000000000000000000815260040180806020018281038252601d8152602001807f4e65787420737562636f6e747261637420616c7265616479207365742e00000081525060200191505060405180910390fd5b806000806101000a81548173ffffffffffffffffffffffffffffffffffffffff021916908373ffffffffffffffffffffffffffffffffffffffff16021790555050565b7f000000000000000000000000000000000000000000000000000000000000000073ffffffffffffffffffffffffffffffffffffffff163373ffffffffffffffffffffffffffffffffffffffff1614611654576040517f08c379a000000000000000000000000000000000000000000000000000000000815260040180806020018281038252602881526020018061198a6028913960400191505060405180910390fd5b60001515600060149054906101000a900460ff161515146116c0576040517f08c379a00000000000000000000000000000000000000000000000000000000081526004018080602001828103825260428152602001806118d46042913960600191505060405180910390fd5b60007f000000000000000000000000000000000000000000000000000000000000000073ffffffffffffffffffffffffffffffffffffffff16637dc0d1d06040518163ffffffff1660e01b815260040160206040518083038186803b15801561172857600080fd5b505afa15801561173c573d6000803e3d6000fd5b505050506040513d602081101561175257600080fd5b810190808051906020019092919050505073ffffffffffffffffffffffffffffffffffffffff16636cd18ce77f00000000000000000000000000000000000000000000000000000000000000007f00000000000000000000000000000000000000000000000000000000000000007f00000000000000000000000000000000000000000000000000000000000000006040518463ffffffff1660e01b8152600401808473ffffffffffffffffffffffffffffffffffffffff1681526020018381526020018281526020019350505050602060405180830381600087803b15801561183b57600080fd5b505af115801561184f573d6000803e3d6000fd5b505050506040513d602081101561186557600080fd5b8101908080519060200190929190505050905060016004600083815260200190815260200160002060006101000a81548160ff0219169083151502179055505056fe4f6e6c7920746865206d61696e20636f6e74726163742063616e2063616c6c2074686973206d6574686f642e416666696c6961746520616c72656164792063616c6c6564207265736f6c7665207375636365737366756c6c79206f6e207468697320737562636f6e74726163742e4f6e6c7920746865206f7261636c652063616e2063616c6c2074686973206d6574686f642e50726f766964656420737562636f6e7472616374206164647265737320646f6573206e6f742068617665206772616365506572696f644578706972656420666c61672073657420746f20747275652e4f6e6c792074686520616666696c696174652063616e2063616c6c2074686973206d6574686f642e53656c6c657220677261636520706572696f64206e6f7420796574206f7665722e43757272656e7420746f74616c206973206e6f7420757020746f20646174652c20616666696c69617465206d7573742063616c6c2075706461746543757272656e74546f74616c28292e546869732072657175657374206973206e6f7420696e206d792070656e64696e67206c6973742ea26469706673582212209b02323241847e7a7ed4172bd8c84838004afbd1cef9caa4ac6221826b7ea7b564736f6c6343000704003343616e6e6f742062652063616c6c6564206279206c61737420737562636f6e74726163742e43616c6c657220737562636f6e7472616374206e6f742079657420657870697265642e4f6e6c7920746865206f776e65722063616e2063616c6c2074686973206d6574686f642e43616c6c657220737562636f6e74726163742073656c6c657220677261636520706572696f64206e6f7420796574207061737365642e546f74616c206e756d626572206f6620737562636f6e7472616374732065786365656465642e4f6e6c79206120737562636f6e74726163742063616e2063616c6c2074686973206d6574686f642e546865206c61737420737562636f6e7472616374206973206e6f742079657420657870697265642e5468652073656c6c657220677261636520706572696f6420616c726561647920656e6465642ea2646970667358221220ba4d635ee8bb77bd43e530507d20c04ece3861ce6bd18954ae28be9bb4e13a1e64736f6c6343000704003361014060405260008060006101000a81548173ffffffffffffffffffffffffffffffffffffffff021916908373ffffffffffffffffffffffffffffffffffffffff16021790555060008060146101000a81548160ff02191690831515021790555060008060156101000a81548160ff0219169083151502179055506000600355604051611ca6380380611ca6833981810160405260a08110156100a157600080fd5b8101908080519060200190929190805190602001909291908051906020019092919080519060200190929190805190602001909291905050503373ffffffffffffffffffffffffffffffffffffffff1660808173ffffffffffffffffffffffffffffffffffffffff1660601b815250508473ffffffffffffffffffffffffffffffffffffffff1660a08173ffffffffffffffffffffffffffffffffffffffff1660601b8152505083820160c08181525050828483010160e08181525050816101208181525050806101008181525050505050505060805160601c60a05160601c60c05160e0516101005161012051611a7961022d6000398061084552806117a15250806108215280610fed5250806108a0528061127c528061141952508061050b5280610d4a528061106d52806117c25250806104e752806107be5280610ca5528061118552806111f352806115b2528061178052508061052f52806105d4528061087c52806108c452806109695280610a975280610e4d528061137452806116c45250611a796000f3fe60806040526004361061010d5760003560e01c806378e9792511610095578063ac44482911610064578063ac444829146103b1578063b5d73ba414610402578063c610384314610447578063d9d450381461045e578063ef8e26a3146104af57610114565b806378e97925146102ed57806388fd65cc146103185780638da5cb5b14610345578063a1b938541461038657610114565b80634665096d116100dc5780634665096d146101da57806356f225e814610205578063584215b51461025657806363bd1d4a14610297578063672bf605146102c257610114565b80630bc1abe1146101165780633741f9f6146101435780633da8bfc91461016e57806345e05f431461019957610114565b3661011457005b005b34801561012257600080fd5b5061012b6104c6565b60405180821515815260200191505060405180910390f35b34801561014f57600080fd5b506101586104d9565b6040518082815260200191505060405180910390f35b34801561017a57600080fd5b506101836104df565b6040518082815260200191505060405180910390f35b3480156101a557600080fd5b506101ae6104e5565b604051808273ffffffffffffffffffffffffffffffffffffffff16815260200191505060405180910390f35b3480156101e657600080fd5b506101ef610509565b6040518082815260200191505060405180910390f35b34801561021157600080fd5b506102546004803603602081101561022857600080fd5b81019080803573ffffffffffffffffffffffffffffffffffffffff16906020019092919050505061052d565b005b34801561026257600080fd5b5061026b6107f5565b604051808273ffffffffffffffffffffffffffffffffffffffff16815260200191505060405180910390f35b3480156102a357600080fd5b506102ac610819565b6040518082815260200191505060405180910390f35b3480156102ce57600080fd5b506102d761081f565b6040518082815260200191505060405180910390f35b3480156102f957600080fd5b50610302610843565b6040518082815260200191505060405180910390f35b34801561032457600080fd5b5061032d610867565b60405180821515815260200191505060405180910390f35b34801561035157600080fd5b5061035a61087a565b604051808273ffffffffffffffffffffffffffffffffffffffff16815260200191505060405180910390f35b34801561039257600080fd5b5061039b61089e565b6040518082815260200191505060405180910390f35b3480156103bd57600080fd5b50610400600480360360208110156103d457600080fd5b81019080803573ffffffffffffffffffffffffffffffffffffffff1690602001909291905050506108c2565b005b34801561040e57600080fd5b506104456004803603604081101561042557600080fd5b810190808035906020019092919080359060200190929190505050610a95565b005b34801561045357600080fd5b5061045c610ca3565b005b34801561046a57600080fd5b506104ad6004803603602081101561048157600080fd5b81019080803573ffffffffffffffffffffffffffffffffffffffff169060200190929190505050611372565b005b3480156104bb57600080fd5b506104c46115b0565b005b600060149054906101000a900460ff1681565b60025481565b60015481565b7f000000000000000000000000000000000000000000000000000000000000000081565b7f000000000000000000000000000000000000000000000000000000000000000081565b7f000000000000000000000000000000000000000000000000000000000000000073ffffffffffffffffffffffffffffffffffffffff163373ffffffffffffffffffffffffffffffffffffffff16146105d1576040517f08c379a000000000000000000000000000000000000000000000000000000000815260040180806020018281038252602c8152602001806118a8602c913960400191505060405180910390fd5b427f000000000000000000000000000000000000000000000000000000000000000073ffffffffffffffffffffffffffffffffffffffff1663a814001f6040518163ffffffff1660e01b815260040160206040518083038186803b15801561063857600080fd5b505afa15801561064c573d6000803e3d6000fd5b505050506040513d602081101561066257600080fd5b8101908080519060200190929190505050116106e6576040517f08c379a00000000000000000000000000000000000000000000000000000000081526004018080602001828103825260168152602001807f4d61696e20636f6e747261637420657870697265642e0000000000000000000081525060200191505060405180910390fd5b8073ffffffffffffffffffffffffffffffffffffffff166388fd65cc6040518163ffffffff1660e01b815260040160206040518083038186803b15801561072c57600080fd5b505afa158015610740573d6000803e3d6000fd5b505050506040513d602081101561075657600080fd5b81019080805190602001909291905050506107bc576040517f08c379a000000000000000000000000000000000000000000000000000000000815260040180806020018281038252604f81526020018061193b604f913960600191505060405180910390fd5b7f000000000000000000000000000000000000000000000000000000000000000073ffffffffffffffffffffffffffffffffffffffff16ff5b60008054906101000a900473ffffffffffffffffffffffffffffffffffffffff1681565b60035481565b7f000000000000000000000000000000000000000000000000000000000000000081565b7f000000000000000000000000000000000000000000000000000000000000000081565b600060159054906101000a900460ff1681565b7f000000000000000000000000000000000000000000000000000000000000000081565b7f000000000000000000000000000000000000000000000000000000000000000081565b7f000000000000000000000000000000000000000000000000000000000000000073ffffffffffffffffffffffffffffffffffffffff163373ffffffffffffffffffffffffffffffffffffffff1614610966576040517f08c379a000000000000000000000000000000000000000000000000000000000815260040180806020018281038252602c8152602001806118a8602c913960400191505060405180910390fd5b427f000000000000000000000000000000000000000000000000000000000000000073ffffffffffffffffffffffffffffffffffffffff1663a814001f6040518163ffffffff1660e01b815260040160206040518083038186803b1580156109cd57600080fd5b505afa1580156109e1573d6000803e3d6000fd5b505050506040513d60208110156109f757600080fd5b81019080805190602001909291905050501115610a7c576040517f08c379a000000000000000000000000000000000000000000000000000000000815260040180806020018281038252601e8152602001807f4d61696e20636f6e7472616374206e6f742079657420657870697265642e000081525060200191505060405180910390fd5b8073ffffffffffffffffffffffffffffffffffffffff16ff5b7f000000000000000000000000000000000000000000000000000000000000000073ffffffffffffffffffffffffffffffffffffffff16637dc0d1d06040518163ffffffff1660e01b815260040160206040518083038186803b158015610afb57600080fd5b505afa158015610b0f573d6000803e3d6000fd5b505050506040513d6020811015610b2557600080fd5b810190808051906020019092919050505073ffffffffffffffffffffffffffffffffffffffff163373ffffffffffffffffffffffffffffffffffffffff1614610bb9576040517f08c379a00000000000000000000000000000000000000000000000000000000081526004018080602001828103825260258152602001806119166025913960400191505060405180910390fd5b6004600082815260200190815260200160002060009054906101000a900460ff16610c2f576040517f08c379a0000000000000000000000000000000000000000000000000000000008152600401808060200182810382526027815260200180611a1d6027913960400191505060405180910390fd5b81600181905550426002819055506004600082815260200190815260200160002060006101000a81549060ff02191690557fbb982b83e84d8c224d47d0ffbe2ed070a3574bc4babb08180953e2d34b6789a98282604051808381526020018281526020019250505060405180910390a15050565b7f000000000000000000000000000000000000000000000000000000000000000073ffffffffffffffffffffffffffffffffffffffff163373ffffffffffffffffffffffffffffffffffffffff1614610d47576040517f08c379a000000000000000000000000000000000000000000000000000000000815260040180806020018281038252602881526020018061198a6028913960400191505060405180910390fd5b427f00000000000000000000000000000000000000000000000000000000000000001115610ddd576040517f08c379a000000000000000000000000000000000000000000000000000000000815260040180806020018281038252601c8152602001807f537562636f6e7472616374206e6f742079657420657870697265642e0000000081525060200191505060405180910390fd5b60001515600060149054906101000a900460ff16151514610e49576040517f08c379a00000000000000000000000000000000000000000000000000000000081526004018080602001828103825260428152602001806118d46042913960600191505060405180910390fd5b60007f00000000000000000000000000000000000000000000000000000000000000009050428173ffffffffffffffffffffffffffffffffffffffff1663a814001f6040518163ffffffff1660e01b815260040160206040518083038186803b158015610eb557600080fd5b505afa158015610ec9573d6000803e3d6000fd5b505050506040513d6020811015610edf57600080fd5b810190808051906020019092919050505011610f63576040517f08c379a00000000000000000000000000000000000000000000000000000000081526004018080602001828103825260168152602001807f4d61696e20636f6e747261637420657870697265642e0000000000000000000081525060200191505060405180910390fd5b60008173ffffffffffffffffffffffffffffffffffffffff1663c4b641ab6040518163ffffffff1660e01b815260040160206040518083038186803b158015610fab57600080fd5b505afa158015610fbf573d6000803e3d6000fd5b505050506040513d6020811015610fd557600080fd5b810190808051906020019092919050505090508060017f00000000000000000000000000000000000000000000000000000000000000000114806110665750600073ffffffffffffffffffffffffffffffffffffffff1660008054906101000a900473ffffffffffffffffffffffffffffffffffffffff1673ffffffffffffffffffffffffffffffffffffffff1614155b15611279577f000000000000000000000000000000000000000000000000000000000000000060025410156110e6576040517f08c379a000000000000000000000000000000000000000000000000000000000815260040180806020018281038252604a8152602001806119d3604a913960600191505060405180910390fd5b8173ffffffffffffffffffffffffffffffffffffffff1663867a3c866001546040518263ffffffff1660e01b81526004018082815260200191505060206040518083038186803b15801561113957600080fd5b505afa15801561114d573d6000803e3d6000fd5b505050506040513d602081101561116357600080fd5b810190808051906020019092919050505060038190555047600354116111f1577f000000000000000000000000000000000000000000000000000000000000000073ffffffffffffffffffffffffffffffffffffffff166108fc6003549081150290604051600060405180830381858888f193505050501580156111eb573d6000803e3d6000fd5b50611259565b7f000000000000000000000000000000000000000000000000000000000000000073ffffffffffffffffffffffffffffffffffffffff166108fc479081150290604051600060405180830381858888f19350505050158015611257573d6000803e3d6000fd5b505b6001600060146101000a81548160ff02191690831515021790555061136e565b427f000000000000000000000000000000000000000000000000000000000000000011156112f2576040517f08c379a00000000000000000000000000000000000000000000000000000000081526004018080602001828103825260218152602001806119b26021913960400191505060405180910390fd5b6001600060156101000a81548160ff0219169083151502179055508173ffffffffffffffffffffffffffffffffffffffff1663c61038436040518163ffffffff1660e01b8152600401600060405180830381600087803b15801561135557600080fd5b505af1158015611369573d6000803e3d6000fd5b505050505b5050565b7f000000000000000000000000000000000000000000000000000000000000000073ffffffffffffffffffffffffffffffffffffffff163373ffffffffffffffffffffffffffffffffffffffff1614611416576040517f08c379a000000000000000000000000000000000000000000000000000000000815260040180806020018281038252602c8152602001806118a8602c913960400191505060405180910390fd5b427f0000000000000000000000000000000000000000000000000000000000000000116114ab576040517f08c379a000000000000000000000000000000000000000000000000000000000815260040180806020018281038252601b8152602001807f53656c6c657220677261636520706572696f64207061737365642e000000000081525060200191505060405180910390fd5b600073ffffffffffffffffffffffffffffffffffffffff1660008054906101000a900473ffffffffffffffffffffffffffffffffffffffff1673ffffffffffffffffffffffffffffffffffffffff161461156d576040517f08c379a000000000000000000000000000000000000000000000000000000000815260040180806020018281038252601d8152602001807f4e65787420737562636f6e747261637420616c7265616479207365742e00000081525060200191505060405180910390fd5b806000806101000a81548173ffffffffffffffffffffffffffffffffffffffff021916908373ffffffffffffffffffffffffffffffffffffffff16021790555050565b7f000000000000000000000000000000000000000000000000000000000000000073ffffffffffffffffffffffffffffffffffffffff163373ffffffffffffffffffffffffffffffffffffffff1614611654576040517f08c379a000000000000000000000000000000000000000000000000000000000815260040180806020018281038252602881526020018061198a6028913960400191505060405180910390fd5b60001515600060149054906101000a900460ff161515146116c0576040517f08c379a00000000000000000000000000000000000000000000000000000000081526004018080602001828103825260428152602001806118d46042913960600191505060405180910390fd5b60007f000000000000000000000000000000000000000000000000000000000000000073ffffffffffffffffffffffffffffffffffffffff16637dc0d1d06040518163ffffffff1660e01b815260040160206040518083038186803b15801561172857600080fd5b505afa15801561173c573d6000803e3d6000fd5b505050506040513d602081101561175257600080fd5b810190808051906020019092919050505073ffffffffffffffffffffffffffffffffffffffff16636cd18ce77f00000000000000000000000000000000000000000000000000000000000000007f00000000000000000000000000000000000000000000000000000000000000007f00000000000000000000000000000000000000000000000000000000000000006040518463ffffffff1660e01b8152600401808473ffffffffffffffffffffffffffffffffffffffff1681526020018381526020018281526020019350505050602060405180830381600087803b15801561183b57600080fd5b505af115801561184f573d6000803e3d6000fd5b505050506040513d602081101561186557600080fd5b8101908080519060200190929190505050905060016004600083815260200190815260200160002060006101000a81548160ff0219169083151502179055505056fe4f6e6c7920746865206d61696e20636f6e74726163742063616e2063616c6c2074686973206d6574686f642e416666696c6961746520616c72656164792063616c6c6564207265736f6c7665207375636365737366756c6c79206f6e207468697320737562636f6e74726163742e4f6e6c7920746865206f7261636c652063616e2063616c6c2074686973206d6574686f642e50726f766964656420737562636f6e7472616374206164647265737320646f6573206e6f742068617665206772616365506572696f644578706972656420666c61672073657420746f20747275652e4f6e6c792074686520616666696c696174652063616e2063616c6c2074686973206d6574686f642e53656c6c657220677261636520706572696f64206e6f7420796574206f7665722e43757272656e7420746f74616c206973206e6f7420757020746f20646174652c20616666696c69617465206d7573742063616c6c2075706461746543757272656e74546f74616c28292e546869732072657175657374206973206e6f7420696e206d792070656e64696e67206c6973742ea26469706673582212209b02323241847e7a7ed4172bd8c84838004afbd1cef9caa4ac6221826b7ea7b564736f6c63430007040033546f74616c20737562636f6e747261637473206d757374206265206174206c656173742033416d6f756e742073656e7420746f20636f6e7374727563746f72206d75737420657175616c20696e63656e746976652066656520706c7573206f6e6520737562636f6e7472616374207374616b65",
  "immutableReferences": {
    "7": [
      {
        "length": 32,
        "start": 1405
      },
      {
        "length": 32,
        "start": 1901
      },
      {
        "length": 32,
        "start": 2418
      },
      {
        "length": 32,
        "start": 2566
      },
      {
        "length": 32,
        "start": 2623
      },
      {
        "length": 32,
        "start": 4547
      }
    ],
    "9": [
      {
        "length": 32,
        "start": 1369
      },
      {
        "length": 32,
        "start": 4490
      },
      {
        "length": 32,
        "start": 5631
      }
    ],
    "13": [
      {
        "length": 32,
        "start": 2887
      },
      {
        "length": 32,
        "start": 3737
      },
      {
        "length": 32,
        "start": 4860
      }
    ],
    "21": [
      {
        "length": 32,
        "start": 2066
      },
      {
        "length": 32,
        "start": 2815
      },
      {
        "length": 32,
        "start": 2924
      },
      {
        "length": 32,
        "start": 4712
      }
    ],
    "23": [
      {
        "length": 32,
        "start": 1636
      },
      {
        "length": 32,
        "start": 5664
      }
    ],
    "25": [
      {
        "length": 32,
        "start": 2851
      },
      {
        "length": 32,
        "start": 5697
      }
    ],
    "27": [
      {
        "length": 32,
        "start": 1333
      },
      {
        "length": 32,
        "start": 4982
      }
    ],
    "29": [
      {
        "length": 32,
        "start": 1255
      }
    ],
    "33": [
      {
        "length": 32,
        "start": 1291
      }
    ]
  },
  "source": "// SPDX-License-Identifier: UNLICENSED\npragma solidity ^0.7.4;\n\nimport * as SC from \"./AffiliateSubcontract.sol\";\n\ncontract AffiliateContract {\n  // The minimum number of subcontracts is 3.\n  uint constant MIN_TOTAL_SUBCONTRACTS = 3;\n  \n  // The business that wants to pay affiliates. Set to the address that calls the contract's constructor.\n  address payable public immutable owner;\n  // The affiliate's personal address that funds will be sent to.\n  address payable public immutable affiliate;\n  // The address of the oracle contract.\n  address public oracle;\n\n  // The total number of subcontracts that can be created from this one.\n  uint public immutable totalSubcontracts;\n  // The number of the latest created subcontract.\n  uint public subcontractsSoFar = 0;\n  // Array containing the subcontract addresses.\n  address payable[] public subcontracts;\n\n  // When the main contract will expire.\n  uint public immutable contractExpiration;\n  // The length of time each subcontract will be valid for.\n  uint public immutable subcontractDuration;\n  // The seller's grace period for issuing a new subcontract.\n  uint public immutable gracePeriodDuration;\n\n  // The amount that will be staked for the affiliate to earn in each subcontract.\n  uint public immutable subcontractStake;\n  // The amount of the incentive fee staked by the seller to incentivize them to hold up their end of the deal.\n  uint public immutable incentiveFee;\n  // A byte array representing the percentage of sales that the affiliate will receive. \n  bytes32 public affiliatePercentage;\n  // Human readable version of affiliate percentage.\n  uint public immutable humanReadableAffiliatePercentage;\n\n  // The constructor should be called with the amount of the incentive fee plus the first contract stake.\n  constructor(\n    address payable _affiliate,\n    address _oracle,\n    uint _totalSubcontracts,\n    uint _subcontractDuration,\n    uint _gracePeriodDuration,\n    uint _contractEndGracePeriodDuration,\n    uint _subcontractStake,\n    uint _incentiveFee,\n    bytes32 _affiliatePercentage,\n    uint _humanReadableAffiliatePercentage\n  ) payable {\n    require(msg.value == (_incentiveFee + _subcontractStake), \"Amount sent to constructor must equal incentive fee plus one subcontract stake\");\n    require(_totalSubcontracts >= MIN_TOTAL_SUBCONTRACTS, \"Total subcontracts must be at least 3\");\n    owner = msg.sender;\n    affiliate = _affiliate;\n    oracle = _oracle;\n    totalSubcontracts = _totalSubcontracts;\n    contractExpiration = block.timestamp + (_totalSubcontracts*_subcontractDuration) + _contractEndGracePeriodDuration;\n    subcontractDuration = _subcontractDuration;\n    gracePeriodDuration = _gracePeriodDuration;\n    subcontractStake = _subcontractStake;\n    incentiveFee = _incentiveFee;\n    affiliatePercentage = _affiliatePercentage;\n    humanReadableAffiliatePercentage = _humanReadableAffiliatePercentage;\n\n    // Creating the first subcontract.\n    // REMEMBER THAT SUBCONTRACTSSOFAR MUST HAVE 1 SUBTRACTED BEFORE USING FOR INDEXING\n    subcontracts.push(address((new SC.AffiliateSubcontract){value: _subcontractStake}(_affiliate, _subcontractDuration, _gracePeriodDuration, block.timestamp, 0)));\n    subcontractsSoFar++;\n  }\n\n  receive() external payable { }\n  fallback() external payable { }\n\n  modifier onlyOwner {\n    require(msg.sender == owner, \"Only the owner can call this method.\");\n    _;\n  }\n\n  modifier contractNotExpired {\n    require(contractExpiration > block.timestamp, \"Main contract expired.\");\n    _;\n  }\n\n  function setOracleAddress (address _oracleAddress) public onlyOwner {\n    oracle = _oracleAddress;\n  }\n\n  function getCurrentSubcontract() public view returns(address payable) {\n    if (subcontractsSoFar > 0) {\n      return subcontracts[subcontractsSoFar - 1];\n    } else {\n      return address(0x0);\n    }\n  }\n\n  function getAffiliateEarnings(uint rawTotal) public view returns(uint) {\n    uint earnings = 0;\n    byte one = \"1\";\n    for (uint i = 32; i >= 1; i--) {\n      if (affiliatePercentage[i - 1] == one) {\n        earnings += rawTotal;\n      }\n      rawTotal = rawTotal >> 1;\n    }\n    return earnings;\n  }\n\n  function createNextSubContract() public payable onlyOwner contractNotExpired {\n    require(subcontractsSoFar < totalSubcontracts, \"Total number of subcontracts exceeded.\");\n    require(msg.value == subcontractStake, \"Incorrect stake amount.\");\n    // Getting a reference to the previous/\"current\" subcontract\n    SC.AffiliateSubcontract lastSubcontract = SC.AffiliateSubcontract(subcontracts[subcontractsSoFar - 1]);\n    // Checking all the conditions necessary for making the next subcontract.\n    require(lastSubcontract.expiration() <= block.timestamp, \"The last subcontract is not yet expired.\");\n    require(lastSubcontract.sellerGracePeriodEnd() > block.timestamp, \"The seller grace period already ended.\");\n    // msg.value = total amount the subcontract will be populated with \n    subcontracts.push(address((new SC.AffiliateSubcontract){value: msg.value}(affiliate, subcontractDuration, gracePeriodDuration, lastSubcontract.expiration(), subcontractsSoFar)));\n    lastSubcontract.setNextSubcontract(subcontracts[subcontractsSoFar]);\n    subcontractsSoFar++;\n  }\n\n  // only called in dispute case\n  function affiliateResolve() public contractNotExpired {\n    bool calledBySubcontract = false;\n    for (uint i = 0; i < subcontractsSoFar; i++) {\n      if (subcontracts[i] == msg.sender) {\n        calledBySubcontract = true;\n      }\n    }\n    require(calledBySubcontract, \"Only a subcontract can call this method.\");\n    SC.AffiliateSubcontract callerSubcontract = SC.AffiliateSubcontract(msg.sender);\n    require(callerSubcontract.expiration() <= block.timestamp, \"Caller subcontract not yet expired.\");\n    require(callerSubcontract.sellerGracePeriodEnd() <= block.timestamp, \"Caller subcontract seller grace period not yet passed.\");\n    require((callerSubcontract.indexNumber() + 1) != totalSubcontracts, \"Cannot be called by last subcontract.\");\n    require(callerSubcontract.nextSubcontract() == address(0x0), \"Next subcontract is present.\");\n    for (uint i = 0; i < subcontractsSoFar; i++) {\n      SC.AffiliateSubcontract(subcontracts[i]).affiliateCleanup(msg.sender);\n    }\n    selfdestruct(affiliate);\n  }\n\n  function sellerResolve() public onlyOwner {\n    require(contractExpiration <= block.timestamp, \"Main contract not yet expired.\");\n    for (uint i = 0; i < subcontractsSoFar; i++) {\n      if (subcontracts[i] != address(0x0)) {\n        SC.AffiliateSubcontract(subcontracts[i]).sellerResolve(owner);\n      }\n    }\n    selfdestruct(owner);\n  }\n}",
  "sourcePath": "/home/madsilva/dev/blockchain/blockchain-project/truffle/contracts/AffiliateContract.sol",
  "compiler": {
    "name": "solc",
    "version": "0.7.4+commit.3f05b770.Emscripten.clang"
  },
  "schemaVersion": "3.3.2",
  "updatedAt": "2020-12-15T16:16:00.193Z",
  "devdoc": {
    "kind": "dev",
    "methods": {},
    "version": 1
  },
  "userdoc": {
    "kind": "user",
    "methods": {},
    "version": 1
  }
}