{
  "contractName": "AffiliateContract",
  "abi": [
    {
      "inputs": [
        {
          "internalType": "address payable",
          "name": "_affiliate",
          "type": "address"
        },
        {
          "internalType": "uint256",
          "name": "_totalSubcontracts",
          "type": "uint256"
        },
        {
          "internalType": "uint256",
          "name": "_subcontractDuration",
          "type": "uint256"
        },
        {
          "internalType": "uint256",
          "name": "_gracePeriodDuration",
          "type": "uint256"
        },
        {
          "internalType": "uint256",
          "name": "_subcontractStake",
          "type": "uint256"
        },
        {
          "internalType": "uint256",
          "name": "_incentiveFee",
          "type": "uint256"
        }
      ],
      "stateMutability": "payable",
      "type": "constructor"
    },
    {
      "stateMutability": "payable",
      "type": "fallback"
    },
    {
      "inputs": [],
      "name": "affiliate",
      "outputs": [
        {
          "internalType": "address payable",
          "name": "",
          "type": "address"
        }
      ],
      "stateMutability": "view",
      "type": "function"
    },
    {
      "inputs": [],
      "name": "contractExpiration",
      "outputs": [
        {
          "internalType": "uint256",
          "name": "",
          "type": "uint256"
        }
      ],
      "stateMutability": "view",
      "type": "function"
    },
    {
      "inputs": [],
      "name": "gracePeriodDuration",
      "outputs": [
        {
          "internalType": "uint256",
          "name": "",
          "type": "uint256"
        }
      ],
      "stateMutability": "view",
      "type": "function"
    },
    {
      "inputs": [],
      "name": "incentiveFee",
      "outputs": [
        {
          "internalType": "uint256",
          "name": "",
          "type": "uint256"
        }
      ],
      "stateMutability": "view",
      "type": "function"
    },
    {
      "inputs": [],
      "name": "owner",
      "outputs": [
        {
          "internalType": "address payable",
          "name": "",
          "type": "address"
        }
      ],
      "stateMutability": "view",
      "type": "function"
    },
    {
      "inputs": [],
      "name": "subcontractDuration",
      "outputs": [
        {
          "internalType": "uint256",
          "name": "",
          "type": "uint256"
        }
      ],
      "stateMutability": "view",
      "type": "function"
    },
    {
      "inputs": [],
      "name": "subcontractStake",
      "outputs": [
        {
          "internalType": "uint256",
          "name": "",
          "type": "uint256"
        }
      ],
      "stateMutability": "view",
      "type": "function"
    },
    {
      "inputs": [
        {
          "internalType": "uint256",
          "name": "",
          "type": "uint256"
        }
      ],
      "name": "subcontracts",
      "outputs": [
        {
          "internalType": "address payable",
          "name": "",
          "type": "address"
        }
      ],
      "stateMutability": "view",
      "type": "function"
    },
    {
      "inputs": [],
      "name": "totalSubcontracts",
      "outputs": [
        {
          "internalType": "uint256",
          "name": "",
          "type": "uint256"
        }
      ],
      "stateMutability": "view",
      "type": "function"
    },
    {
      "stateMutability": "payable",
      "type": "receive"
    },
    {
      "inputs": [],
      "name": "getCurrentSubcontract",
      "outputs": [
        {
          "internalType": "address payable",
          "name": "",
          "type": "address"
        }
      ],
      "stateMutability": "nonpayable",
      "type": "function"
    },
    {
      "inputs": [],
      "name": "createNextSubContract",
      "outputs": [],
      "stateMutability": "payable",
      "type": "function"
    },
    {
      "inputs": [],
      "name": "affiliateResolve",
      "outputs": [],
      "stateMutability": "nonpayable",
      "type": "function"
    },
    {
      "inputs": [],
      "name": "sellerResolve",
      "outputs": [],
      "stateMutability": "nonpayable",
      "type": "function"
    }
  ],
  "bytecode": "0x6101806040526000805560405162003fa938038062003fa9833981810160405260c081101561002d57600080fd5b8101908080519060200190929190805190602001909291908051906020019092919080519060200190929190805190602001909291908051906020019092919050505081810134146100cb576040517f08c379a000000000000000000000000000000000000000000000000000000000815260040180806020018281038252604e81526020018062003f5b604e913960600191505060405180910390fd5b6003851015610126576040517f08c379a000000000000000000000000000000000000000000000000000000000815260040180806020018281038252602581526020018062003f366025913960400191505060405180910390fd5b3373ffffffffffffffffffffffffffffffffffffffff1660808173ffffffffffffffffffffffffffffffffffffffff1660601b815250508573ffffffffffffffffffffffffffffffffffffffff1660a08173ffffffffffffffffffffffffffffffffffffffff1660601b815250508460c08181525050600f838501860242010160e081815250506000600f848601870242010190508461010081815250508361012081815250508261014081815250508161016081815250506001838887878560006040516101f4906102cb565b808673ffffffffffffffffffffffffffffffffffffffff168152602001858152602001848152602001838152602001828152602001955050505050506040518091039082f090508015801561024d573d6000803e3d6000fd5b509080600181540180825580915050600190039060005260206000200160009091909190916101000a81548173ffffffffffffffffffffffffffffffffffffffff021916908373ffffffffffffffffffffffffffffffffffffffff1602179055506000808154809291906001019190505550505050505050506102d9565b6112ed8062002c4983390190565b60805160601c60a05160601c60c05160e051610100516101205161014051610160516128c162000388600039806103335250806103575280610fc6525080610773528061129152508061039f5280611270525080610468528061074f52806107bc5280610eb852806112b25250806107975280610ae95280610f4c52508061037b5280610dda528061124f5250806103c352806105c8528061065c52806106955280610e1352506128c16000f3fe6080604052600436106100c65760003560e01c8063984d5e231161007f578063c099f57511610059578063c099f575146102ba578063c4b641ab146102e5578063c610384314610310578063d1756e4f14610327576100cd565b8063984d5e23146101e95780639ab053cf1461024e578063a814001f1461028f576100cd565b806306903900146100cf5780633dec872e146100fa57806345e05f43146101255780637b111879146101665780638d870593146101915780638da5cb5b146101a8576100cd565b366100cd57005b005b3480156100db57600080fd5b506100e4610331565b6040518082815260200191505060405180910390f35b34801561010657600080fd5b5061010f610355565b6040518082815260200191505060405180910390f35b34801561013157600080fd5b5061013a610379565b604051808273ffffffffffffffffffffffffffffffffffffffff16815260200191505060405180910390f35b34801561017257600080fd5b5061017b61039d565b6040518082815260200191505060405180910390f35b34801561019d57600080fd5b506101a66103c1565b005b3480156101b457600080fd5b506101bd610693565b604051808273ffffffffffffffffffffffffffffffffffffffff16815260200191505060405180910390f35b3480156101f557600080fd5b506102226004803603602081101561020c57600080fd5b81019080803590602001909291905050506106b7565b604051808273ffffffffffffffffffffffffffffffffffffffff16815260200191505060405180910390f35b34801561025a57600080fd5b506102636106f6565b604051808273ffffffffffffffffffffffffffffffffffffffff16815260200191505060405180910390f35b34801561029b57600080fd5b506102a461074d565b6040518082815260200191505060405180910390f35b3480156102c657600080fd5b506102cf610771565b6040518082815260200191505060405180910390f35b3480156102f157600080fd5b506102fa610795565b6040518082815260200191505060405180910390f35b34801561031c57600080fd5b506103256107b9565b005b61032f610e11565b005b7f000000000000000000000000000000000000000000000000000000000000000081565b7f000000000000000000000000000000000000000000000000000000000000000081565b7f000000000000000000000000000000000000000000000000000000000000000081565b7f000000000000000000000000000000000000000000000000000000000000000081565b7f000000000000000000000000000000000000000000000000000000000000000073ffffffffffffffffffffffffffffffffffffffff163373ffffffffffffffffffffffffffffffffffffffff1614610465576040517f08c379a00000000000000000000000000000000000000000000000000000000081526004018080602001828103825260248152602001806127886024913960400191505060405180910390fd5b427f000000000000000000000000000000000000000000000000000000000000000011156104fb576040517f08c379a000000000000000000000000000000000000000000000000000000000815260040180806020018281038252601e8152602001807f4d61696e20636f6e7472616374206e6f742079657420657870697265642e000081525060200191505060405180910390fd5b60005b60005481101561065957600073ffffffffffffffffffffffffffffffffffffffff166001828154811061052d57fe5b9060005260206000200160009054906101000a900473ffffffffffffffffffffffffffffffffffffffff1673ffffffffffffffffffffffffffffffffffffffff161461064c576001818154811061058057fe5b9060005260206000200160009054906101000a900473ffffffffffffffffffffffffffffffffffffffff1673ffffffffffffffffffffffffffffffffffffffff1663ac4448297f00000000000000000000000000000000000000000000000000000000000000006040518263ffffffff1660e01b8152600401808273ffffffffffffffffffffffffffffffffffffffff168152602001915050600060405180830381600087803b15801561063357600080fd5b505af1158015610647573d6000803e3d6000fd5b505050505b80806001019150506104fe565b507f000000000000000000000000000000000000000000000000000000000000000073ffffffffffffffffffffffffffffffffffffffff16ff5b7f000000000000000000000000000000000000000000000000000000000000000081565b600181815481106106c757600080fd5b906000526020600020016000915054906101000a900473ffffffffffffffffffffffffffffffffffffffff1681565b600080600054111561074557600180600054038154811061071357fe5b9060005260206000200160009054906101000a900473ffffffffffffffffffffffffffffffffffffffff16905061074a565b600090505b90565b7f000000000000000000000000000000000000000000000000000000000000000081565b7f000000000000000000000000000000000000000000000000000000000000000081565b7f000000000000000000000000000000000000000000000000000000000000000081565b427f00000000000000000000000000000000000000000000000000000000000000001161084e576040517f08c379a00000000000000000000000000000000000000000000000000000000081526004018080602001828103825260168152602001807f4d61696e20636f6e747261637420657870697265642e0000000000000000000081525060200191505060405180910390fd5b6000805b6000548110156108d9573373ffffffffffffffffffffffffffffffffffffffff166001828154811061088057fe5b9060005260206000200160009054906101000a900473ffffffffffffffffffffffffffffffffffffffff1673ffffffffffffffffffffffffffffffffffffffff1614156108cc57600191505b8080600101915050610852565b5080610930576040517f08c379a00000000000000000000000000000000000000000000000000000000081526004018080602001828103825260288152602001806127d26028913960400191505060405180910390fd5b6000339050428173ffffffffffffffffffffffffffffffffffffffff16634665096d6040518163ffffffff1660e01b815260040160206040518083038186803b15801561097c57600080fd5b505afa158015610990573d6000803e3d6000fd5b505050506040513d60208110156109a657600080fd5b81019080805190602001909291905050501115610a0e576040517f08c379a000000000000000000000000000000000000000000000000000000000815260040180806020018281038252602181526020018061281d6021913960400191505060405180910390fd5b428173ffffffffffffffffffffffffffffffffffffffff1663a1b938546040518163ffffffff1660e01b815260040160206040518083038186803b158015610a5557600080fd5b505afa158015610a69573d6000803e3d6000fd5b505050506040513d6020811015610a7f57600080fd5b81019080805190602001909291905050501115610ae7576040517f08c379a00000000000000000000000000000000000000000000000000000000081526004018080602001828103825260238152602001806127fa6023913960400191505060405180910390fd5b7f000000000000000000000000000000000000000000000000000000000000000060018273ffffffffffffffffffffffffffffffffffffffff1663672bf6056040518163ffffffff1660e01b815260040160206040518083038186803b158015610b5057600080fd5b505afa158015610b64573d6000803e3d6000fd5b505050506040513d6020811015610b7a57600080fd5b8101908080519060200190929190505050011415610be3576040517f08c379a00000000000000000000000000000000000000000000000000000000081526004018080602001828103825260258152602001806127636025913960400191505060405180910390fd5b600073ffffffffffffffffffffffffffffffffffffffff168173ffffffffffffffffffffffffffffffffffffffff1663584215b56040518163ffffffff1660e01b815260040160206040518083038186803b158015610c4157600080fd5b505afa158015610c55573d6000803e3d6000fd5b505050506040513d6020811015610c6b57600080fd5b810190808051906020019092919050505073ffffffffffffffffffffffffffffffffffffffff1614610d05576040517f08c379a000000000000000000000000000000000000000000000000000000000815260040180806020018281038252601c8152602001807f4e65787420737562636f6e74726163742069732070726573656e742e0000000081525060200191505060405180910390fd5b60005b600054811015610dd75760018181548110610d1f57fe5b9060005260206000200160009054906101000a900473ffffffffffffffffffffffffffffffffffffffff1673ffffffffffffffffffffffffffffffffffffffff166356f225e8336040518263ffffffff1660e01b8152600401808273ffffffffffffffffffffffffffffffffffffffff168152602001915050600060405180830381600087803b158015610db257600080fd5b505af1158015610dc6573d6000803e3d6000fd5b505050508080600101915050610d08565b507f000000000000000000000000000000000000000000000000000000000000000073ffffffffffffffffffffffffffffffffffffffff16ff5b7f000000000000000000000000000000000000000000000000000000000000000073ffffffffffffffffffffffffffffffffffffffff163373ffffffffffffffffffffffffffffffffffffffff1614610eb5576040517f08c379a00000000000000000000000000000000000000000000000000000000081526004018080602001828103825260248152602001806127886024913960400191505060405180910390fd5b427f000000000000000000000000000000000000000000000000000000000000000011610f4a576040517f08c379a00000000000000000000000000000000000000000000000000000000081526004018080602001828103825260168152602001807f4d61696e20636f6e747261637420657870697265642e0000000000000000000081525060200191505060405180910390fd5b7f000000000000000000000000000000000000000000000000000000000000000060005410610fc4576040517f08c379a00000000000000000000000000000000000000000000000000000000081526004018080602001828103825260268152602001806127ac6026913960400191505060405180910390fd5b7f00000000000000000000000000000000000000000000000000000000000000003414611059576040517f08c379a00000000000000000000000000000000000000000000000000000000081526004018080602001828103825260178152602001807f496e636f7272656374207374616b6520616d6f756e742e00000000000000000081525060200191505060405180910390fd5b6000600180600054038154811061106c57fe5b9060005260206000200160009054906101000a900473ffffffffffffffffffffffffffffffffffffffff169050428173ffffffffffffffffffffffffffffffffffffffff16634665096d6040518163ffffffff1660e01b815260040160206040518083038186803b1580156110e057600080fd5b505afa1580156110f4573d6000803e3d6000fd5b505050506040513d602081101561110a57600080fd5b81019080805190602001909291905050501115611172576040517f08c379a000000000000000000000000000000000000000000000000000000000815260040180806020018281038252602881526020018061283e6028913960400191505060405180910390fd5b428173ffffffffffffffffffffffffffffffffffffffff1663a1b938546040518163ffffffff1660e01b815260040160206040518083038186803b1580156111b957600080fd5b505afa1580156111cd573d6000803e3d6000fd5b505050506040513d60208110156111e357600080fd5b81019080805190602001909291905050501161124a576040517f08c379a00000000000000000000000000000000000000000000000000000000081526004018080602001828103825260268152602001806128666026913960400191505060405180910390fd5b6001347f00000000000000000000000000000000000000000000000000000000000000007f00000000000000000000000000000000000000000000000000000000000000007f00000000000000000000000000000000000000000000000000000000000000007f00000000000000000000000000000000000000000000000000000000000000006000546040516112e090611468565b808673ffffffffffffffffffffffffffffffffffffffff168152602001858152602001848152602001838152602001828152602001955050505050506040518091039082f0905080158015611339573d6000803e3d6000fd5b509080600181540180825580915050600190039060005260206000200160009091909190916101000a81548173ffffffffffffffffffffffffffffffffffffffff021916908373ffffffffffffffffffffffffffffffffffffffff1602179055508073ffffffffffffffffffffffffffffffffffffffff1663d9d450386001600054815481106113c557fe5b9060005260206000200160009054906101000a900473ffffffffffffffffffffffffffffffffffffffff166040518263ffffffff1660e01b8152600401808273ffffffffffffffffffffffffffffffffffffffff168152602001915050600060405180830381600087803b15801561143c57600080fd5b505af1158015611450573d6000803e3d6000fd5b50505050600080815480929190600101919050555050565b6112ed806114768339019056fe61014060405260008060006101000a81548173ffffffffffffffffffffffffffffffffffffffff021916908373ffffffffffffffffffffffffffffffffffffffff16021790555060008060146101000a81548160ff02191690831515021790555060008060156101000a81548160ff0219169083151502179055506040516112ed3803806112ed833981810160405260a081101561009c57600080fd5b8101908080519060200190929190805190602001909291908051906020019092919080519060200190929190805190602001909291905050503373ffffffffffffffffffffffffffffffffffffffff1660808173ffffffffffffffffffffffffffffffffffffffff1660601b815250508473ffffffffffffffffffffffffffffffffffffffff1660a08173ffffffffffffffffffffffffffffffffffffffff1660601b8152505083420160c08181525050828442010160e08181525050816101008181525050806101208181525050505050505060805160601c60a05160601c60c05160e05161010051610120516110e361020a600039806106705280610b255250806104a4528061079452806109e95280610d475250806106cb5280610c305280610e105250806103db52806108e75250806103b7528061061352806108425280610ba75250806103ff52806106a752806106ef5280610a7f5280610cc35280610d6b52506110e36000f3fe6080604052600436106100c65760003560e01c806388fd65cc1161007f578063ac44482911610059578063ac444829146102be578063c61038431461030f578063d3e0fd2714610326578063d9d4503814610351576100cd565b806388fd65cc146102255780638da5cb5b14610252578063a1b9385414610293576100cd565b80630bc1abe1146100cf57806345e05f43146100fc5780634665096d1461013d57806356f225e814610168578063584215b5146101b9578063672bf605146101fa576100cd565b366100cd57005b005b3480156100db57600080fd5b506100e46103a2565b60405180821515815260200191505060405180910390f35b34801561010857600080fd5b506101116103b5565b604051808273ffffffffffffffffffffffffffffffffffffffff16815260200191505060405180910390f35b34801561014957600080fd5b506101526103d9565b6040518082815260200191505060405180910390f35b34801561017457600080fd5b506101b76004803603602081101561018b57600080fd5b81019080803573ffffffffffffffffffffffffffffffffffffffff1690602001909291905050506103fd565b005b3480156101c557600080fd5b506101ce61064a565b604051808273ffffffffffffffffffffffffffffffffffffffff16815260200191505060405180910390f35b34801561020657600080fd5b5061020f61066e565b6040518082815260200191505060405180910390f35b34801561023157600080fd5b5061023a610692565b60405180821515815260200191505060405180910390f35b34801561025e57600080fd5b506102676106a5565b604051808273ffffffffffffffffffffffffffffffffffffffff16815260200191505060405180910390f35b34801561029f57600080fd5b506102a86106c9565b6040518082815260200191505060405180910390f35b3480156102ca57600080fd5b5061030d600480360360208110156102e157600080fd5b81019080803573ffffffffffffffffffffffffffffffffffffffff1690602001909291905050506106ed565b005b34801561031b57600080fd5b50610324610840565b005b34801561033257600080fd5b5061033b610d45565b6040518082815260200191505060405180910390f35b34801561035d57600080fd5b506103a06004803603602081101561037457600080fd5b81019080803573ffffffffffffffffffffffffffffffffffffffff169060200190929190505050610d69565b005b600060149054906101000a900460ff1681565b7f000000000000000000000000000000000000000000000000000000000000000081565b7f000000000000000000000000000000000000000000000000000000000000000081565b7f000000000000000000000000000000000000000000000000000000000000000073ffffffffffffffffffffffffffffffffffffffff163373ffffffffffffffffffffffffffffffffffffffff16146104a1576040517f08c379a000000000000000000000000000000000000000000000000000000000815260040180806020018281038252602c815260200180610fa8602c913960400191505060405180910390fd5b427f000000000000000000000000000000000000000000000000000000000000000011610536576040517f08c379a00000000000000000000000000000000000000000000000000000000081526004018080602001828103825260168152602001807f4d61696e20636f6e747261637420657870697265642e0000000000000000000081525060200191505060405180910390fd5b60008190508073ffffffffffffffffffffffffffffffffffffffff166388fd65cc6040518163ffffffff1660e01b815260040160206040518083038186803b15801561058157600080fd5b505afa158015610595573d6000803e3d6000fd5b505050506040513d60208110156105ab57600080fd5b8101908080519060200190929190505050610611576040517f08c379a000000000000000000000000000000000000000000000000000000000815260040180806020018281038252604f815260200180611016604f913960600191505060405180910390fd5b7f000000000000000000000000000000000000000000000000000000000000000073ffffffffffffffffffffffffffffffffffffffff16ff5b60008054906101000a900473ffffffffffffffffffffffffffffffffffffffff1681565b7f000000000000000000000000000000000000000000000000000000000000000081565b600060159054906101000a900460ff1681565b7f000000000000000000000000000000000000000000000000000000000000000081565b7f000000000000000000000000000000000000000000000000000000000000000081565b7f000000000000000000000000000000000000000000000000000000000000000073ffffffffffffffffffffffffffffffffffffffff163373ffffffffffffffffffffffffffffffffffffffff1614610791576040517f08c379a000000000000000000000000000000000000000000000000000000000815260040180806020018281038252602c815260200180610fa8602c913960400191505060405180910390fd5b427f00000000000000000000000000000000000000000000000000000000000000001115610827576040517f08c379a000000000000000000000000000000000000000000000000000000000815260040180806020018281038252601e8152602001807f4d61696e20636f6e7472616374206e6f742079657420657870697265642e000081525060200191505060405180910390fd5b8073ffffffffffffffffffffffffffffffffffffffff16ff5b7f000000000000000000000000000000000000000000000000000000000000000073ffffffffffffffffffffffffffffffffffffffff163373ffffffffffffffffffffffffffffffffffffffff16146108e4576040517f08c379a00000000000000000000000000000000000000000000000000000000081526004018080602001828103825260288152602001806110656028913960400191505060405180910390fd5b427f0000000000000000000000000000000000000000000000000000000000000000111561097a576040517f08c379a000000000000000000000000000000000000000000000000000000000815260040180806020018281038252601c8152602001807f537562636f6e7472616374206e6f742079657420657870697265642e0000000081525060200191505060405180910390fd5b60001515600060149054906101000a900460ff161515146109e6576040517f08c379a0000000000000000000000000000000000000000000000000000000008152600401808060200182810382526042815260200180610fd46042913960600191505060405180910390fd5b427f000000000000000000000000000000000000000000000000000000000000000011610a7b576040517f08c379a00000000000000000000000000000000000000000000000000000000081526004018080602001828103825260168152602001807f4d61696e20636f6e747261637420657870697265642e0000000000000000000081525060200191505060405180910390fd5b60007f000000000000000000000000000000000000000000000000000000000000000073ffffffffffffffffffffffffffffffffffffffff1663c4b641ab6040518163ffffffff1660e01b815260040160206040518083038186803b158015610ae357600080fd5b505afa158015610af7573d6000803e3d6000fd5b505050506040513d6020811015610b0d57600080fd5b810190808051906020019092919050505090508060017f0000000000000000000000000000000000000000000000000000000000000000011480610b9e5750600073ffffffffffffffffffffffffffffffffffffffff1660008054906101000a900473ffffffffffffffffffffffffffffffffffffffff1673ffffffffffffffffffffffffffffffffffffffff1614155b15610c2d5760007f000000000000000000000000000000000000000000000000000000000000000073ffffffffffffffffffffffffffffffffffffffff166108fc829081150290604051600060405180830381858888f19350505050158015610c0b573d6000803e3d6000fd5b506001600060146101000a81548160ff02191690831515021790555050610d42565b427f00000000000000000000000000000000000000000000000000000000000000001115610ca6576040517f08c379a000000000000000000000000000000000000000000000000000000000815260040180806020018281038252602181526020018061108d6021913960400191505060405180910390fd5b6001600060156101000a81548160ff0219169083151502179055507f000000000000000000000000000000000000000000000000000000000000000073ffffffffffffffffffffffffffffffffffffffff1663c61038436040518163ffffffff1660e01b8152600401600060405180830381600087803b158015610d2957600080fd5b505af1158015610d3d573d6000803e3d6000fd5b505050505b50565b7f000000000000000000000000000000000000000000000000000000000000000081565b7f000000000000000000000000000000000000000000000000000000000000000073ffffffffffffffffffffffffffffffffffffffff163373ffffffffffffffffffffffffffffffffffffffff1614610e0d576040517f08c379a000000000000000000000000000000000000000000000000000000000815260040180806020018281038252602c815260200180610fa8602c913960400191505060405180910390fd5b427f000000000000000000000000000000000000000000000000000000000000000011610ea2576040517f08c379a000000000000000000000000000000000000000000000000000000000815260040180806020018281038252601b8152602001807f53656c6c657220677261636520706572696f64207061737365642e000000000081525060200191505060405180910390fd5b600073ffffffffffffffffffffffffffffffffffffffff1660008054906101000a900473ffffffffffffffffffffffffffffffffffffffff1673ffffffffffffffffffffffffffffffffffffffff1614610f64576040517f08c379a000000000000000000000000000000000000000000000000000000000815260040180806020018281038252601d8152602001807f4e65787420737562636f6e747261637420616c7265616479207365742e00000081525060200191505060405180910390fd5b806000806101000a81548173ffffffffffffffffffffffffffffffffffffffff021916908373ffffffffffffffffffffffffffffffffffffffff1602179055505056fe4f6e6c7920746865206d61696e20636f6e74726163742063616e2063616c6c2074686973206d6574686f642e416666696c6961746520616c72656164792063616c6c6564207265736f6c7665207375636365737366756c6c79206f6e207468697320737562636f6e74726163742e50726f766964656420737562636f6e7472616374206164647265737320646f6573206e6f742068617665206772616365506572696f644578706972656420666c61672073657420746f20747275652e4f6e6c792074686520616666696c696174652063616e2063616c6c2074686973206d6574686f642e53656c6c657220677261636520706572696f64206e6f7420796574206f7665722ea2646970667358221220dbe923b085e7a4fdb4d0becda0d1739fd932c2a1da278ea6ada538c1f948317f64736f6c6343000704003343616e6e6f742062652063616c6c6564206279206c61737420737562636f6e74726163742e4f6e6c7920746865206f776e65722063616e2063616c6c2074686973206d6574686f642e546f74616c206e756d626572206f6620737562636f6e7472616374732065786365656465642e4f6e6c79206120737562636f6e74726163742063616e2063616c6c2074686973206d6574686f642e53656c6c657220677261636520706572696f64206e6f7420796574207061737365642e4c61737420737562636f6e7472616374206e6f742079657420657870697265642e546865206c61737420737562636f6e7472616374206973206e6f742079657420657870697265642e5468652073656c6c657220677261636520706572696f6420616c726561647920656e6465642ea2646970667358221220012a21767c1d29a1c7e0456d067891db4d5f4c4f0854c92ebc76519c7fe0032364736f6c6343000704003361014060405260008060006101000a81548173ffffffffffffffffffffffffffffffffffffffff021916908373ffffffffffffffffffffffffffffffffffffffff16021790555060008060146101000a81548160ff02191690831515021790555060008060156101000a81548160ff0219169083151502179055506040516112ed3803806112ed833981810160405260a081101561009c57600080fd5b8101908080519060200190929190805190602001909291908051906020019092919080519060200190929190805190602001909291905050503373ffffffffffffffffffffffffffffffffffffffff1660808173ffffffffffffffffffffffffffffffffffffffff1660601b815250508473ffffffffffffffffffffffffffffffffffffffff1660a08173ffffffffffffffffffffffffffffffffffffffff1660601b8152505083420160c08181525050828442010160e08181525050816101008181525050806101208181525050505050505060805160601c60a05160601c60c05160e05161010051610120516110e361020a600039806106705280610b255250806104a4528061079452806109e95280610d475250806106cb5280610c305280610e105250806103db52806108e75250806103b7528061061352806108425280610ba75250806103ff52806106a752806106ef5280610a7f5280610cc35280610d6b52506110e36000f3fe6080604052600436106100c65760003560e01c806388fd65cc1161007f578063ac44482911610059578063ac444829146102be578063c61038431461030f578063d3e0fd2714610326578063d9d4503814610351576100cd565b806388fd65cc146102255780638da5cb5b14610252578063a1b9385414610293576100cd565b80630bc1abe1146100cf57806345e05f43146100fc5780634665096d1461013d57806356f225e814610168578063584215b5146101b9578063672bf605146101fa576100cd565b366100cd57005b005b3480156100db57600080fd5b506100e46103a2565b60405180821515815260200191505060405180910390f35b34801561010857600080fd5b506101116103b5565b604051808273ffffffffffffffffffffffffffffffffffffffff16815260200191505060405180910390f35b34801561014957600080fd5b506101526103d9565b6040518082815260200191505060405180910390f35b34801561017457600080fd5b506101b76004803603602081101561018b57600080fd5b81019080803573ffffffffffffffffffffffffffffffffffffffff1690602001909291905050506103fd565b005b3480156101c557600080fd5b506101ce61064a565b604051808273ffffffffffffffffffffffffffffffffffffffff16815260200191505060405180910390f35b34801561020657600080fd5b5061020f61066e565b6040518082815260200191505060405180910390f35b34801561023157600080fd5b5061023a610692565b60405180821515815260200191505060405180910390f35b34801561025e57600080fd5b506102676106a5565b604051808273ffffffffffffffffffffffffffffffffffffffff16815260200191505060405180910390f35b34801561029f57600080fd5b506102a86106c9565b6040518082815260200191505060405180910390f35b3480156102ca57600080fd5b5061030d600480360360208110156102e157600080fd5b81019080803573ffffffffffffffffffffffffffffffffffffffff1690602001909291905050506106ed565b005b34801561031b57600080fd5b50610324610840565b005b34801561033257600080fd5b5061033b610d45565b6040518082815260200191505060405180910390f35b34801561035d57600080fd5b506103a06004803603602081101561037457600080fd5b81019080803573ffffffffffffffffffffffffffffffffffffffff169060200190929190505050610d69565b005b600060149054906101000a900460ff1681565b7f000000000000000000000000000000000000000000000000000000000000000081565b7f000000000000000000000000000000000000000000000000000000000000000081565b7f000000000000000000000000000000000000000000000000000000000000000073ffffffffffffffffffffffffffffffffffffffff163373ffffffffffffffffffffffffffffffffffffffff16146104a1576040517f08c379a000000000000000000000000000000000000000000000000000000000815260040180806020018281038252602c815260200180610fa8602c913960400191505060405180910390fd5b427f000000000000000000000000000000000000000000000000000000000000000011610536576040517f08c379a00000000000000000000000000000000000000000000000000000000081526004018080602001828103825260168152602001807f4d61696e20636f6e747261637420657870697265642e0000000000000000000081525060200191505060405180910390fd5b60008190508073ffffffffffffffffffffffffffffffffffffffff166388fd65cc6040518163ffffffff1660e01b815260040160206040518083038186803b15801561058157600080fd5b505afa158015610595573d6000803e3d6000fd5b505050506040513d60208110156105ab57600080fd5b8101908080519060200190929190505050610611576040517f08c379a000000000000000000000000000000000000000000000000000000000815260040180806020018281038252604f815260200180611016604f913960600191505060405180910390fd5b7f000000000000000000000000000000000000000000000000000000000000000073ffffffffffffffffffffffffffffffffffffffff16ff5b60008054906101000a900473ffffffffffffffffffffffffffffffffffffffff1681565b7f000000000000000000000000000000000000000000000000000000000000000081565b600060159054906101000a900460ff1681565b7f000000000000000000000000000000000000000000000000000000000000000081565b7f000000000000000000000000000000000000000000000000000000000000000081565b7f000000000000000000000000000000000000000000000000000000000000000073ffffffffffffffffffffffffffffffffffffffff163373ffffffffffffffffffffffffffffffffffffffff1614610791576040517f08c379a000000000000000000000000000000000000000000000000000000000815260040180806020018281038252602c815260200180610fa8602c913960400191505060405180910390fd5b427f00000000000000000000000000000000000000000000000000000000000000001115610827576040517f08c379a000000000000000000000000000000000000000000000000000000000815260040180806020018281038252601e8152602001807f4d61696e20636f6e7472616374206e6f742079657420657870697265642e000081525060200191505060405180910390fd5b8073ffffffffffffffffffffffffffffffffffffffff16ff5b7f000000000000000000000000000000000000000000000000000000000000000073ffffffffffffffffffffffffffffffffffffffff163373ffffffffffffffffffffffffffffffffffffffff16146108e4576040517f08c379a00000000000000000000000000000000000000000000000000000000081526004018080602001828103825260288152602001806110656028913960400191505060405180910390fd5b427f0000000000000000000000000000000000000000000000000000000000000000111561097a576040517f08c379a000000000000000000000000000000000000000000000000000000000815260040180806020018281038252601c8152602001807f537562636f6e7472616374206e6f742079657420657870697265642e0000000081525060200191505060405180910390fd5b60001515600060149054906101000a900460ff161515146109e6576040517f08c379a0000000000000000000000000000000000000000000000000000000008152600401808060200182810382526042815260200180610fd46042913960600191505060405180910390fd5b427f000000000000000000000000000000000000000000000000000000000000000011610a7b576040517f08c379a00000000000000000000000000000000000000000000000000000000081526004018080602001828103825260168152602001807f4d61696e20636f6e747261637420657870697265642e0000000000000000000081525060200191505060405180910390fd5b60007f000000000000000000000000000000000000000000000000000000000000000073ffffffffffffffffffffffffffffffffffffffff1663c4b641ab6040518163ffffffff1660e01b815260040160206040518083038186803b158015610ae357600080fd5b505afa158015610af7573d6000803e3d6000fd5b505050506040513d6020811015610b0d57600080fd5b810190808051906020019092919050505090508060017f0000000000000000000000000000000000000000000000000000000000000000011480610b9e5750600073ffffffffffffffffffffffffffffffffffffffff1660008054906101000a900473ffffffffffffffffffffffffffffffffffffffff1673ffffffffffffffffffffffffffffffffffffffff1614155b15610c2d5760007f000000000000000000000000000000000000000000000000000000000000000073ffffffffffffffffffffffffffffffffffffffff166108fc829081150290604051600060405180830381858888f19350505050158015610c0b573d6000803e3d6000fd5b506001600060146101000a81548160ff02191690831515021790555050610d42565b427f00000000000000000000000000000000000000000000000000000000000000001115610ca6576040517f08c379a000000000000000000000000000000000000000000000000000000000815260040180806020018281038252602181526020018061108d6021913960400191505060405180910390fd5b6001600060156101000a81548160ff0219169083151502179055507f000000000000000000000000000000000000000000000000000000000000000073ffffffffffffffffffffffffffffffffffffffff1663c61038436040518163ffffffff1660e01b8152600401600060405180830381600087803b158015610d2957600080fd5b505af1158015610d3d573d6000803e3d6000fd5b505050505b50565b7f000000000000000000000000000000000000000000000000000000000000000081565b7f000000000000000000000000000000000000000000000000000000000000000073ffffffffffffffffffffffffffffffffffffffff163373ffffffffffffffffffffffffffffffffffffffff1614610e0d576040517f08c379a000000000000000000000000000000000000000000000000000000000815260040180806020018281038252602c815260200180610fa8602c913960400191505060405180910390fd5b427f000000000000000000000000000000000000000000000000000000000000000011610ea2576040517f08c379a000000000000000000000000000000000000000000000000000000000815260040180806020018281038252601b8152602001807f53656c6c657220677261636520706572696f64207061737365642e000000000081525060200191505060405180910390fd5b600073ffffffffffffffffffffffffffffffffffffffff1660008054906101000a900473ffffffffffffffffffffffffffffffffffffffff1673ffffffffffffffffffffffffffffffffffffffff1614610f64576040517f08c379a000000000000000000000000000000000000000000000000000000000815260040180806020018281038252601d8152602001807f4e65787420737562636f6e747261637420616c7265616479207365742e00000081525060200191505060405180910390fd5b806000806101000a81548173ffffffffffffffffffffffffffffffffffffffff021916908373ffffffffffffffffffffffffffffffffffffffff1602179055505056fe4f6e6c7920746865206d61696e20636f6e74726163742063616e2063616c6c2074686973206d6574686f642e416666696c6961746520616c72656164792063616c6c6564207265736f6c7665207375636365737366756c6c79206f6e207468697320737562636f6e74726163742e50726f766964656420737562636f6e7472616374206164647265737320646f6573206e6f742068617665206772616365506572696f644578706972656420666c61672073657420746f20747275652e4f6e6c792074686520616666696c696174652063616e2063616c6c2074686973206d6574686f642e53656c6c657220677261636520706572696f64206e6f7420796574206f7665722ea2646970667358221220dbe923b085e7a4fdb4d0becda0d1739fd932c2a1da278ea6ada538c1f948317f64736f6c63430007040033746f74616c20737562636f6e747261637473206d757374206265206174206c656173742033616d6f756e742073656e7420746f20636f6e7374727563746f72206d75737420657175616c20696e63656e746976652066656520706c7573206f6e6520737562636f6e7472616374207374616b65",
  "immutableReferences": {
    "306": [
      {
        "length": 32,
        "start": 963
      },
      {
        "length": 32,
        "start": 1480
      },
      {
        "length": 32,
        "start": 1628
      },
      {
        "length": 32,
        "start": 1685
      },
      {
        "length": 32,
        "start": 3603
      }
    ],
    "308": [
      {
        "length": 32,
        "start": 891
      },
      {
        "length": 32,
        "start": 3546
      },
      {
        "length": 32,
        "start": 4687
      }
    ],
    "310": [
      {
        "length": 32,
        "start": 1943
      },
      {
        "length": 32,
        "start": 2793
      },
      {
        "length": 32,
        "start": 3916
      }
    ],
    "318": [
      {
        "length": 32,
        "start": 1128
      },
      {
        "length": 32,
        "start": 1871
      },
      {
        "length": 32,
        "start": 1980
      },
      {
        "length": 32,
        "start": 3768
      },
      {
        "length": 32,
        "start": 4786
      }
    ],
    "320": [
      {
        "length": 32,
        "start": 927
      },
      {
        "length": 32,
        "start": 4720
      }
    ],
    "322": [
      {
        "length": 32,
        "start": 1907
      },
      {
        "length": 32,
        "start": 4753
      }
    ],
    "324": [
      {
        "length": 32,
        "start": 855
      },
      {
        "length": 32,
        "start": 4038
      }
    ],
    "326": [
      {
        "length": 32,
        "start": 819
      }
    ]
  },
  "source": "// SPDX-License-Identifier: UNLICENSED\npragma solidity ^0.7.4;\n\nimport * as SC from \"./affiliate_subcontract.sol\";\n\ncontract AffiliateContract {\n  // The minimum number of subcontracts is 3.\n  uint constant MIN_TOTAL_SUBCONTRACTS = 3;\n  // The amount of time that's added onto the contract expiration time so that the affiliate has extra time to clear out all subcontracts.\n  // PLACEHOLDER - NEED TO FIX\n  uint256 constant CONTRACT_END_GRACE_PERIOD = 15;\n\n  // The business that wants to pay affiliates. Set to the address that calls the contract's constructor.\n  address payable public immutable owner;\n  // The affiliate's personal address that funds will be sent to.\n  address payable public immutable affiliate;\n\n  // The total number of subcontracts that can be created from this one.\n  uint public immutable totalSubcontracts;\n  // The number of the latest created subcontract.\n  uint internal subcontractsSoFar = 0;\n  // Array containing the subcontracts\n  // Storage array (by default)\n  address payable[] public subcontracts;\n\n  // When the main contract will expire\n  uint256 public immutable contractExpiration;\n  // The length of time each subcontract will be valid for\n  uint256 public immutable subcontractDuration;\n  // The seller's grace period for issuing a new subcontract\n  uint256 public immutable gracePeriodDuration;\n\n  // The amount that will be staked for the affiliate to earn in each subcontract.\n  uint public immutable subcontractStake;\n  // The amount of the incentive fee staked by the seller to incentivize them to hold up their end of the deal.\n  uint public immutable incentiveFee;\n\n  // The constructor should be called with the amount of the incentive fee plus the first contract stake.\n  constructor(\n    address payable _affiliate,\n    uint _totalSubcontracts,\n    uint256 _subcontractDuration,\n    uint256 _gracePeriodDuration,\n    uint _subcontractStake,\n    uint _incentiveFee\n  ) payable {\n    require(msg.value == (_incentiveFee + _subcontractStake), \"amount sent to constructor must equal incentive fee plus one subcontract stake\");\n    require(_totalSubcontracts >= MIN_TOTAL_SUBCONTRACTS, \"total subcontracts must be at least 3\");\n    owner = msg.sender;\n    affiliate = _affiliate;\n    totalSubcontracts = _totalSubcontracts;\n    // PLACEHOLDER - check this???\n    contractExpiration = block.timestamp + _totalSubcontracts*(_subcontractDuration + _gracePeriodDuration) + CONTRACT_END_GRACE_PERIOD;\n    // This is needed because immutabe vars can't be read in a constructor, so we use this instead of contractExpiration down below when we create the first subcontract.\n    uint256 tempContractExpiration = block.timestamp + _totalSubcontracts*(_subcontractDuration + _gracePeriodDuration) + CONTRACT_END_GRACE_PERIOD;\n    subcontractDuration = _subcontractDuration;\n    gracePeriodDuration = _gracePeriodDuration;\n    subcontractStake = _subcontractStake;\n    incentiveFee = _incentiveFee;\n\n    // Creating the first subcontract.\n    // REMEMBER THAT SUBCONTRACTSSOFAR MUST HAVE 1 SUBTRACTED BEFORE USING FOR INDEXING\n    subcontracts.push(address((new SC.AffiliateSubcontract){value: _subcontractStake}(_affiliate, _subcontractDuration, _gracePeriodDuration, tempContractExpiration, 0)));\n    subcontractsSoFar++;\n  }\n\n  receive() external payable { }\n  fallback() external payable { }\n\n  modifier onlyOwner {\n    require(msg.sender == owner, \"Only the owner can call this method.\");\n    _;\n  }\n\n  modifier contractNotExpired {\n    require(contractExpiration > block.timestamp, \"Main contract expired.\");\n    _;\n  }\n\n  function getCurrentSubcontract() public returns(address payable) {\n    if (subcontractsSoFar > 0) {\n      return subcontracts[subcontractsSoFar - 1];\n    } else {\n      return address(0x0);\n    }\n  }\n\n  // called by the owner\n  function createNextSubContract() public payable onlyOwner contractNotExpired {\n    require(subcontractsSoFar < totalSubcontracts, \"Total number of subcontracts exceeded.\");\n    require(msg.value == subcontractStake, \"Incorrect stake amount.\");\n    \n    // Getting a reference to the previous/\"current\" subcontract\n    SC.AffiliateSubcontract lastSubcontract = SC.AffiliateSubcontract(subcontracts[subcontractsSoFar - 1]);\n    // Checking all the conditions necessary for making the next subcontract.\n    require(lastSubcontract.expiration() <= block.timestamp, \"The last subcontract is not yet expired.\");\n    require(lastSubcontract.sellerGracePeriodEnd() > block.timestamp, \"The seller grace period already ended.\");\n    // msg.value = total amount the subcontract will be populated with \n    subcontracts.push(address((new SC.AffiliateSubcontract){value: msg.value}(affiliate, subcontractDuration, gracePeriodDuration, contractExpiration, subcontractsSoFar)));\n    lastSubcontract.setNextSubcontract(subcontracts[subcontractsSoFar]);\n    subcontractsSoFar++;\n  }\n\n  // only called in dispute case\n  function affiliateResolve() public contractNotExpired {\n    bool calledBySubcontract = false;\n    for (uint i = 0; i < subcontractsSoFar; i++) {\n      if (subcontracts[i] == msg.sender) {\n        calledBySubcontract = true;\n      }\n    }\n    require(calledBySubcontract, \"Only a subcontract can call this method.\");\n    SC.AffiliateSubcontract lastSubcontract = SC.AffiliateSubcontract(msg.sender);\n    require(lastSubcontract.expiration() <= block.timestamp, \"Last subcontract not yet expired.\");\n    require(lastSubcontract.sellerGracePeriodEnd() <= block.timestamp, \"Seller grace period not yet passed.\");\n    require((lastSubcontract.indexNumber() + 1) != totalSubcontracts, \"Cannot be called by last subcontract.\");\n    require(lastSubcontract.nextSubcontract() == address(0x0), \"Next subcontract is present.\");\n    for (uint i = 0; i < subcontractsSoFar; i++) {\n      SC.AffiliateSubcontract(subcontracts[i]).affiliateCleanup(msg.sender);\n    }\n    selfdestruct(affiliate);\n  }\n\n  function sellerResolve() public onlyOwner {\n    require(contractExpiration <= block.timestamp, \"Main contract not yet expired.\");\n    for (uint i = 0; i < subcontractsSoFar; i++) {\n      if (subcontracts[i] != address(0x0)) {\n        SC.AffiliateSubcontract(subcontracts[i]).sellerResolve(owner);\n      }\n    }\n    selfdestruct(owner);\n  }\n}",
  "sourcePath": "/home/madsilva/dev/blockchain/blockchain-project/truffle/contracts/affiliate_contract.sol",
  "compiler": {
    "name": "solc",
    "version": "0.7.4+commit.3f05b770.Emscripten.clang"
  },
  "schemaVersion": "3.3.2",
  "updatedAt": "2020-11-23T22:58:25.394Z",
  "devdoc": {
    "kind": "dev",
    "methods": {},
    "version": 1
  },
  "userdoc": {
    "kind": "user",
    "methods": {},
    "version": 1
  }
}