{
  "contractName": "AffiliateContract",
  "abi": [
    {
      "inputs": [
        {
          "internalType": "address payable",
          "name": "_affiliate",
          "type": "address"
        },
        {
          "internalType": "uint256",
          "name": "_totalSubcontracts",
          "type": "uint256"
        },
        {
          "internalType": "uint256",
          "name": "_subcontractDuration",
          "type": "uint256"
        },
        {
          "internalType": "uint256",
          "name": "_gracePeriodDuration",
          "type": "uint256"
        },
        {
          "internalType": "uint256",
          "name": "_subcontractStake",
          "type": "uint256"
        },
        {
          "internalType": "uint256",
          "name": "_incentiveFee",
          "type": "uint256"
        },
        {
          "internalType": "uint256",
          "name": "_affiliatePercentage",
          "type": "uint256"
        }
      ],
      "stateMutability": "payable",
      "type": "constructor"
    },
    {
      "anonymous": false,
      "inputs": [
        {
          "indexed": false,
          "internalType": "address payable",
          "name": "sc",
          "type": "address"
        }
      ],
      "name": "GetCurrentSubcontractEvent",
      "type": "event"
    },
    {
      "stateMutability": "payable",
      "type": "fallback"
    },
    {
      "inputs": [],
      "name": "affiliate",
      "outputs": [
        {
          "internalType": "address payable",
          "name": "",
          "type": "address"
        }
      ],
      "stateMutability": "view",
      "type": "function"
    },
    {
      "inputs": [],
      "name": "affiliatePercentage",
      "outputs": [
        {
          "internalType": "uint256",
          "name": "",
          "type": "uint256"
        }
      ],
      "stateMutability": "view",
      "type": "function"
    },
    {
      "inputs": [],
      "name": "contractExpiration",
      "outputs": [
        {
          "internalType": "uint256",
          "name": "",
          "type": "uint256"
        }
      ],
      "stateMutability": "view",
      "type": "function"
    },
    {
      "inputs": [],
      "name": "gracePeriodDuration",
      "outputs": [
        {
          "internalType": "uint256",
          "name": "",
          "type": "uint256"
        }
      ],
      "stateMutability": "view",
      "type": "function"
    },
    {
      "inputs": [],
      "name": "incentiveFee",
      "outputs": [
        {
          "internalType": "uint256",
          "name": "",
          "type": "uint256"
        }
      ],
      "stateMutability": "view",
      "type": "function"
    },
    {
      "inputs": [],
      "name": "oracle",
      "outputs": [
        {
          "internalType": "address",
          "name": "",
          "type": "address"
        }
      ],
      "stateMutability": "view",
      "type": "function"
    },
    {
      "inputs": [],
      "name": "owner",
      "outputs": [
        {
          "internalType": "address payable",
          "name": "",
          "type": "address"
        }
      ],
      "stateMutability": "view",
      "type": "function"
    },
    {
      "inputs": [],
      "name": "subcontractDuration",
      "outputs": [
        {
          "internalType": "uint256",
          "name": "",
          "type": "uint256"
        }
      ],
      "stateMutability": "view",
      "type": "function"
    },
    {
      "inputs": [],
      "name": "subcontractStake",
      "outputs": [
        {
          "internalType": "uint256",
          "name": "",
          "type": "uint256"
        }
      ],
      "stateMutability": "view",
      "type": "function"
    },
    {
      "inputs": [
        {
          "internalType": "uint256",
          "name": "",
          "type": "uint256"
        }
      ],
      "name": "subcontracts",
      "outputs": [
        {
          "internalType": "address payable",
          "name": "",
          "type": "address"
        }
      ],
      "stateMutability": "view",
      "type": "function"
    },
    {
      "inputs": [],
      "name": "totalSubcontracts",
      "outputs": [
        {
          "internalType": "uint256",
          "name": "",
          "type": "uint256"
        }
      ],
      "stateMutability": "view",
      "type": "function"
    },
    {
      "stateMutability": "payable",
      "type": "receive"
    },
    {
      "inputs": [
        {
          "internalType": "address",
          "name": "_oracleAddress",
          "type": "address"
        }
      ],
      "name": "setOracleAddress",
      "outputs": [],
      "stateMutability": "nonpayable",
      "type": "function"
    },
    {
      "inputs": [],
      "name": "getCurrentSubcontract",
      "outputs": [
        {
          "internalType": "address payable",
          "name": "",
          "type": "address"
        }
      ],
      "stateMutability": "nonpayable",
      "type": "function"
    },
    {
      "inputs": [],
      "name": "createNextSubContract",
      "outputs": [],
      "stateMutability": "payable",
      "type": "function"
    },
    {
      "inputs": [],
      "name": "affiliateResolve",
      "outputs": [],
      "stateMutability": "nonpayable",
      "type": "function"
    },
    {
      "inputs": [],
      "name": "sellerResolve",
      "outputs": [],
      "stateMutability": "nonpayable",
      "type": "function"
    }
  ],
  "bytecode": "0x6101a0604052600080556040516200503d3803806200503d833981810160405260e08110156200002e57600080fd5b81019080805190602001909291908051906020019092919080519060200190929190805190602001909291908051906020019092919080519060200190929190805190602001909291905050508282013414620000d7576040517f08c379a000000000000000000000000000000000000000000000000000000000815260040180806020018281038252604e81526020018062004fef604e913960600191505060405180910390fd5b600386101562000133576040517f08c379a000000000000000000000000000000000000000000000000000000000815260040180806020018281038252602581526020018062004fca6025913960400191505060405180910390fd5b3373ffffffffffffffffffffffffffffffffffffffff1660808173ffffffffffffffffffffffffffffffffffffffff1660601b815250508673ffffffffffffffffffffffffffffffffffffffff1660a08173ffffffffffffffffffffffffffffffffffffffff1660601b815250508560c08181525050600f848601870242010160e08181525050846101008181525050836101208181525050826101408181525050816101608181525050806101808181525050600183888787426000604051620001fe90620002d7565b808673ffffffffffffffffffffffffffffffffffffffff168152602001858152602001848152602001838152602001828152602001955050505050506040518091039082f090508015801562000258573d6000803e3d6000fd5b509080600181540180825580915050600190039060005260206000200160009091909190916101000a81548173ffffffffffffffffffffffffffffffffffffffff021916908373ffffffffffffffffffffffffffffffffffffffff160217905550600080815480929190600101919050555050505050505050620002e5565b6119c3806200360783390190565b60805160601c60a05160601c60c05160e05161010051610120516101405161016051610180516132696200039e600039806108b552508061042152508061044552806112385250806109e5528061150352508061057552806114e252508061066452806109c15280610a2e528061112a525080610a095280610d5b52806111be525080610469528061104c52806114c152508061048d52806105bf52806107c452806108585280610891528061108552506132696000f3fe6080604052600436106100f75760003560e01c806391a575441161008a578063c099f57511610059578063c099f575146103a8578063c4b641ab146103d3578063c6103843146103fe578063d1756e4f14610415576100fe565b806391a57544146102ac578063984d5e23146102d75780639ab053cf1461033c578063a814001f1461037d576100fe565b80637b111879116100c65780637b111879146101e85780637dc0d1d0146102135780638d870593146102545780638da5cb5b1461026b576100fe565b806306903900146101005780633dec872e1461012b57806345e05f43146101565780634c69c00f14610197576100fe565b366100fe57005b005b34801561010c57600080fd5b5061011561041f565b6040518082815260200191505060405180910390f35b34801561013757600080fd5b50610140610443565b6040518082815260200191505060405180910390f35b34801561016257600080fd5b5061016b610467565b604051808273ffffffffffffffffffffffffffffffffffffffff16815260200191505060405180910390f35b3480156101a357600080fd5b506101e6600480360360208110156101ba57600080fd5b81019080803573ffffffffffffffffffffffffffffffffffffffff16906020019092919050505061048b565b005b3480156101f457600080fd5b506101fd610573565b6040518082815260200191505060405180910390f35b34801561021f57600080fd5b50610228610597565b604051808273ffffffffffffffffffffffffffffffffffffffff16815260200191505060405180910390f35b34801561026057600080fd5b506102696105bd565b005b34801561027757600080fd5b5061028061088f565b604051808273ffffffffffffffffffffffffffffffffffffffff16815260200191505060405180910390f35b3480156102b857600080fd5b506102c16108b3565b6040518082815260200191505060405180910390f35b3480156102e357600080fd5b50610310600480360360208110156102fa57600080fd5b81019080803590602001909291905050506108d7565b604051808273ffffffffffffffffffffffffffffffffffffffff16815260200191505060405180910390f35b34801561034857600080fd5b50610351610916565b604051808273ffffffffffffffffffffffffffffffffffffffff16815260200191505060405180910390f35b34801561038957600080fd5b506103926109bf565b6040518082815260200191505060405180910390f35b3480156103b457600080fd5b506103bd6109e3565b6040518082815260200191505060405180910390f35b3480156103df57600080fd5b506103e8610a07565b6040518082815260200191505060405180910390f35b34801561040a57600080fd5b50610413610a2b565b005b61041d611083565b005b7f000000000000000000000000000000000000000000000000000000000000000081565b7f000000000000000000000000000000000000000000000000000000000000000081565b7f000000000000000000000000000000000000000000000000000000000000000081565b7f000000000000000000000000000000000000000000000000000000000000000073ffffffffffffffffffffffffffffffffffffffff163373ffffffffffffffffffffffffffffffffffffffff161461052f576040517f08c379a00000000000000000000000000000000000000000000000000000000081526004018080602001828103825260248152602001806131306024913960400191505060405180910390fd5b80600260006101000a81548173ffffffffffffffffffffffffffffffffffffffff021916908373ffffffffffffffffffffffffffffffffffffffff16021790555050565b7f000000000000000000000000000000000000000000000000000000000000000081565b600260009054906101000a900473ffffffffffffffffffffffffffffffffffffffff1681565b7f000000000000000000000000000000000000000000000000000000000000000073ffffffffffffffffffffffffffffffffffffffff163373ffffffffffffffffffffffffffffffffffffffff1614610661576040517f08c379a00000000000000000000000000000000000000000000000000000000081526004018080602001828103825260248152602001806131306024913960400191505060405180910390fd5b427f000000000000000000000000000000000000000000000000000000000000000011156106f7576040517f08c379a000000000000000000000000000000000000000000000000000000000815260040180806020018281038252601e8152602001807f4d61696e20636f6e7472616374206e6f742079657420657870697265642e000081525060200191505060405180910390fd5b60005b60005481101561085557600073ffffffffffffffffffffffffffffffffffffffff166001828154811061072957fe5b9060005260206000200160009054906101000a900473ffffffffffffffffffffffffffffffffffffffff1673ffffffffffffffffffffffffffffffffffffffff1614610848576001818154811061077c57fe5b9060005260206000200160009054906101000a900473ffffffffffffffffffffffffffffffffffffffff1673ffffffffffffffffffffffffffffffffffffffff1663ac4448297f00000000000000000000000000000000000000000000000000000000000000006040518263ffffffff1660e01b8152600401808273ffffffffffffffffffffffffffffffffffffffff168152602001915050600060405180830381600087803b15801561082f57600080fd5b505af1158015610843573d6000803e3d6000fd5b505050505b80806001019150506106fa565b507f000000000000000000000000000000000000000000000000000000000000000073ffffffffffffffffffffffffffffffffffffffff16ff5b7f000000000000000000000000000000000000000000000000000000000000000081565b7f000000000000000000000000000000000000000000000000000000000000000081565b600181815481106108e757600080fd5b906000526020600020016000915054906101000a900473ffffffffffffffffffffffffffffffffffffffff1681565b60008060008054111561096657600180600054038154811061093457fe5b9060005260206000200160009054906101000a900473ffffffffffffffffffffffffffffffffffffffff16905061096b565b600090505b7f3f7cfccdd2f37b27c4c30d394683243fc46a639bef48ffcde081541d3d13cf2e81604051808273ffffffffffffffffffffffffffffffffffffffff16815260200191505060405180910390a18091505090565b7f000000000000000000000000000000000000000000000000000000000000000081565b7f000000000000000000000000000000000000000000000000000000000000000081565b7f000000000000000000000000000000000000000000000000000000000000000081565b427f000000000000000000000000000000000000000000000000000000000000000011610ac0576040517f08c379a00000000000000000000000000000000000000000000000000000000081526004018080602001828103825260168152602001807f4d61696e20636f6e747261637420657870697265642e0000000000000000000081525060200191505060405180910390fd5b6000805b600054811015610b4b573373ffffffffffffffffffffffffffffffffffffffff1660018281548110610af257fe5b9060005260206000200160009054906101000a900473ffffffffffffffffffffffffffffffffffffffff1673ffffffffffffffffffffffffffffffffffffffff161415610b3e57600191505b8080600101915050610ac4565b5080610ba2576040517f08c379a000000000000000000000000000000000000000000000000000000000815260040180806020018281038252602881526020018061317a6028913960400191505060405180910390fd5b6000339050428173ffffffffffffffffffffffffffffffffffffffff16634665096d6040518163ffffffff1660e01b815260040160206040518083038186803b158015610bee57600080fd5b505afa158015610c02573d6000803e3d6000fd5b505050506040513d6020811015610c1857600080fd5b81019080805190602001909291905050501115610c80576040517f08c379a00000000000000000000000000000000000000000000000000000000081526004018080602001828103825260218152602001806131c56021913960400191505060405180910390fd5b428173ffffffffffffffffffffffffffffffffffffffff1663a1b938546040518163ffffffff1660e01b815260040160206040518083038186803b158015610cc757600080fd5b505afa158015610cdb573d6000803e3d6000fd5b505050506040513d6020811015610cf157600080fd5b81019080805190602001909291905050501115610d59576040517f08c379a00000000000000000000000000000000000000000000000000000000081526004018080602001828103825260238152602001806131a26023913960400191505060405180910390fd5b7f000000000000000000000000000000000000000000000000000000000000000060018273ffffffffffffffffffffffffffffffffffffffff1663672bf6056040518163ffffffff1660e01b815260040160206040518083038186803b158015610dc257600080fd5b505afa158015610dd6573d6000803e3d6000fd5b505050506040513d6020811015610dec57600080fd5b8101908080519060200190929190505050011415610e55576040517f08c379a000000000000000000000000000000000000000000000000000000000815260040180806020018281038252602581526020018061310b6025913960400191505060405180910390fd5b600073ffffffffffffffffffffffffffffffffffffffff168173ffffffffffffffffffffffffffffffffffffffff1663584215b56040518163ffffffff1660e01b815260040160206040518083038186803b158015610eb357600080fd5b505afa158015610ec7573d6000803e3d6000fd5b505050506040513d6020811015610edd57600080fd5b810190808051906020019092919050505073ffffffffffffffffffffffffffffffffffffffff1614610f77576040517f08c379a000000000000000000000000000000000000000000000000000000000815260040180806020018281038252601c8152602001807f4e65787420737562636f6e74726163742069732070726573656e742e0000000081525060200191505060405180910390fd5b60005b6000548110156110495760018181548110610f9157fe5b9060005260206000200160009054906101000a900473ffffffffffffffffffffffffffffffffffffffff1673ffffffffffffffffffffffffffffffffffffffff166356f225e8336040518263ffffffff1660e01b8152600401808273ffffffffffffffffffffffffffffffffffffffff168152602001915050600060405180830381600087803b15801561102457600080fd5b505af1158015611038573d6000803e3d6000fd5b505050508080600101915050610f7a565b507f000000000000000000000000000000000000000000000000000000000000000073ffffffffffffffffffffffffffffffffffffffff16ff5b7f000000000000000000000000000000000000000000000000000000000000000073ffffffffffffffffffffffffffffffffffffffff163373ffffffffffffffffffffffffffffffffffffffff1614611127576040517f08c379a00000000000000000000000000000000000000000000000000000000081526004018080602001828103825260248152602001806131306024913960400191505060405180910390fd5b427f0000000000000000000000000000000000000000000000000000000000000000116111bc576040517f08c379a00000000000000000000000000000000000000000000000000000000081526004018080602001828103825260168152602001807f4d61696e20636f6e747261637420657870697265642e0000000000000000000081525060200191505060405180910390fd5b7f000000000000000000000000000000000000000000000000000000000000000060005410611236576040517f08c379a00000000000000000000000000000000000000000000000000000000081526004018080602001828103825260268152602001806131546026913960400191505060405180910390fd5b7f000000000000000000000000000000000000000000000000000000000000000034146112cb576040517f08c379a00000000000000000000000000000000000000000000000000000000081526004018080602001828103825260178152602001807f496e636f7272656374207374616b6520616d6f756e742e00000000000000000081525060200191505060405180910390fd5b600060018060005403815481106112de57fe5b9060005260206000200160009054906101000a900473ffffffffffffffffffffffffffffffffffffffff169050428173ffffffffffffffffffffffffffffffffffffffff16634665096d6040518163ffffffff1660e01b815260040160206040518083038186803b15801561135257600080fd5b505afa158015611366573d6000803e3d6000fd5b505050506040513d602081101561137c57600080fd5b810190808051906020019092919050505011156113e4576040517f08c379a00000000000000000000000000000000000000000000000000000000081526004018080602001828103825260288152602001806131e66028913960400191505060405180910390fd5b428173ffffffffffffffffffffffffffffffffffffffff1663a1b938546040518163ffffffff1660e01b815260040160206040518083038186803b15801561142b57600080fd5b505afa15801561143f573d6000803e3d6000fd5b505050506040513d602081101561145557600080fd5b8101908080519060200190929190505050116114bc576040517f08c379a000000000000000000000000000000000000000000000000000000000815260040180806020018281038252602681526020018061320e6026913960400191505060405180910390fd5b6001347f00000000000000000000000000000000000000000000000000000000000000007f00000000000000000000000000000000000000000000000000000000000000007f00000000000000000000000000000000000000000000000000000000000000008573ffffffffffffffffffffffffffffffffffffffff16634665096d6040518163ffffffff1660e01b815260040160206040518083038186803b15801561156857600080fd5b505afa15801561157c573d6000803e3d6000fd5b505050506040513d602081101561159257600080fd5b81019080805190602001909291905050506000546040516115b29061173a565b808673ffffffffffffffffffffffffffffffffffffffff168152602001858152602001848152602001838152602001828152602001955050505050506040518091039082f090508015801561160b573d6000803e3d6000fd5b509080600181540180825580915050600190039060005260206000200160009091909190916101000a81548173ffffffffffffffffffffffffffffffffffffffff021916908373ffffffffffffffffffffffffffffffffffffffff1602179055508073ffffffffffffffffffffffffffffffffffffffff1663d9d4503860016000548154811061169757fe5b9060005260206000200160009054906101000a900473ffffffffffffffffffffffffffffffffffffffff166040518263ffffffff1660e01b8152600401808273ffffffffffffffffffffffffffffffffffffffff168152602001915050600060405180830381600087803b15801561170e57600080fd5b505af1158015611722573d6000803e3d6000fd5b50505050600080815480929190600101919050555050565b6119c3806117488339019056fe61014060405260008060006101000a81548173ffffffffffffffffffffffffffffffffffffffff021916908373ffffffffffffffffffffffffffffffffffffffff16021790555060008060146101000a81548160ff02191690831515021790555060008060156101000a81548160ff0219169083151502179055506040516119c33803806119c3833981810160405260a081101561009c57600080fd5b8101908080519060200190929190805190602001909291908051906020019092919080519060200190929190805190602001909291905050503373ffffffffffffffffffffffffffffffffffffffff1660808173ffffffffffffffffffffffffffffffffffffffff1660601b815250508473ffffffffffffffffffffffffffffffffffffffff1660a08173ffffffffffffffffffffffffffffffffffffffff1660601b8152505083420160c08181525050828442010160e08181525050816101208181525050806101008181525050505050505060805160601c60a05160601c60c05160e05161010051610120516117a561021e60003980610782528061151c52508061075e5280610f235250806107dd528061102e52806111cb52508061044e5280610c80528061140a528061143a52508061042a52806107015280610bdb5280610fa55280611364525080610472528061051752806107b9528061080152806108a652806109d45280610d835280611126528061146052506117a56000f3fe6080604052600436106100ec5760003560e01c806388fd65cc1161008a578063b5d73ba411610059578063b5d73ba41461035e578063c6103843146103a3578063d9d45038146103ba578063ef8e26a31461040b576100f3565b806388fd65cc146102745780638da5cb5b146102a1578063a1b93854146102e2578063ac4448291461030d576100f3565b806356f225e8116100c657806356f225e81461018c578063584215b5146101dd578063672bf6051461021e57806378e9792514610249576100f3565b80633da8bfc9146100f557806345e05f43146101205780634665096d14610161576100f3565b366100f357005b005b34801561010157600080fd5b5061010a610422565b6040518082815260200191505060405180910390f35b34801561012c57600080fd5b50610135610428565b604051808273ffffffffffffffffffffffffffffffffffffffff16815260200191505060405180910390f35b34801561016d57600080fd5b5061017661044c565b6040518082815260200191505060405180910390f35b34801561019857600080fd5b506101db600480360360208110156101af57600080fd5b81019080803573ffffffffffffffffffffffffffffffffffffffff169060200190929190505050610470565b005b3480156101e957600080fd5b506101f2610738565b604051808273ffffffffffffffffffffffffffffffffffffffff16815260200191505060405180910390f35b34801561022a57600080fd5b5061023361075c565b6040518082815260200191505060405180910390f35b34801561025557600080fd5b5061025e610780565b6040518082815260200191505060405180910390f35b34801561028057600080fd5b506102896107a4565b60405180821515815260200191505060405180910390f35b3480156102ad57600080fd5b506102b66107b7565b604051808273ffffffffffffffffffffffffffffffffffffffff16815260200191505060405180910390f35b3480156102ee57600080fd5b506102f76107db565b6040518082815260200191505060405180910390f35b34801561031957600080fd5b5061035c6004803603602081101561033057600080fd5b81019080803573ffffffffffffffffffffffffffffffffffffffff1690602001909291905050506107ff565b005b34801561036a57600080fd5b506103a16004803603604081101561038157600080fd5b8101908080359060200190929190803590602001909291905050506109d2565b005b3480156103af57600080fd5b506103b8610bd9565b005b3480156103c657600080fd5b50610409600480360360208110156103dd57600080fd5b81019080803573ffffffffffffffffffffffffffffffffffffffff169060200190929190505050611124565b005b34801561041757600080fd5b50610420611362565b005b60015481565b7f000000000000000000000000000000000000000000000000000000000000000081565b7f000000000000000000000000000000000000000000000000000000000000000081565b7f000000000000000000000000000000000000000000000000000000000000000073ffffffffffffffffffffffffffffffffffffffff163373ffffffffffffffffffffffffffffffffffffffff1614610514576040517f08c379a000000000000000000000000000000000000000000000000000000000815260040180806020018281038252602c81526020018061161e602c913960400191505060405180910390fd5b427f000000000000000000000000000000000000000000000000000000000000000073ffffffffffffffffffffffffffffffffffffffff1663a814001f6040518163ffffffff1660e01b815260040160206040518083038186803b15801561057b57600080fd5b505afa15801561058f573d6000803e3d6000fd5b505050506040513d60208110156105a557600080fd5b810190808051906020019092919050505011610629576040517f08c379a00000000000000000000000000000000000000000000000000000000081526004018080602001828103825260168152602001807f4d61696e20636f6e747261637420657870697265642e0000000000000000000081525060200191505060405180910390fd5b8073ffffffffffffffffffffffffffffffffffffffff166388fd65cc6040518163ffffffff1660e01b815260040160206040518083038186803b15801561066f57600080fd5b505afa158015610683573d6000803e3d6000fd5b505050506040513d602081101561069957600080fd5b81019080805190602001909291905050506106ff576040517f08c379a000000000000000000000000000000000000000000000000000000000815260040180806020018281038252604f8152602001806116b1604f913960600191505060405180910390fd5b7f000000000000000000000000000000000000000000000000000000000000000073ffffffffffffffffffffffffffffffffffffffff16ff5b60008054906101000a900473ffffffffffffffffffffffffffffffffffffffff1681565b7f000000000000000000000000000000000000000000000000000000000000000081565b7f000000000000000000000000000000000000000000000000000000000000000081565b600060159054906101000a900460ff1681565b7f000000000000000000000000000000000000000000000000000000000000000081565b7f000000000000000000000000000000000000000000000000000000000000000081565b7f000000000000000000000000000000000000000000000000000000000000000073ffffffffffffffffffffffffffffffffffffffff163373ffffffffffffffffffffffffffffffffffffffff16146108a3576040517f08c379a000000000000000000000000000000000000000000000000000000000815260040180806020018281038252602c81526020018061161e602c913960400191505060405180910390fd5b427f000000000000000000000000000000000000000000000000000000000000000073ffffffffffffffffffffffffffffffffffffffff1663a814001f6040518163ffffffff1660e01b815260040160206040518083038186803b15801561090a57600080fd5b505afa15801561091e573d6000803e3d6000fd5b505050506040513d602081101561093457600080fd5b810190808051906020019092919050505011156109b9576040517f08c379a000000000000000000000000000000000000000000000000000000000815260040180806020018281038252601e8152602001807f4d61696e20636f6e7472616374206e6f742079657420657870697265642e000081525060200191505060405180910390fd5b8073ffffffffffffffffffffffffffffffffffffffff16ff5b7f000000000000000000000000000000000000000000000000000000000000000073ffffffffffffffffffffffffffffffffffffffff16637dc0d1d06040518163ffffffff1660e01b815260040160206040518083038186803b158015610a3857600080fd5b505afa158015610a4c573d6000803e3d6000fd5b505050506040513d6020811015610a6257600080fd5b810190808051906020019092919050505073ffffffffffffffffffffffffffffffffffffffff163373ffffffffffffffffffffffffffffffffffffffff1614610af6576040517f08c379a000000000000000000000000000000000000000000000000000000000815260040180806020018281038252602581526020018061168c6025913960400191505060405180910390fd5b6003600082815260200190815260200160002060009054906101000a900460ff16610b6c576040517f08c379a00000000000000000000000000000000000000000000000000000000081526004018080602001828103825260278152602001806117496027913960400191505060405180910390fd5b816001819055506003600082815260200190815260200160002060006101000a81549060ff02191690557f6b69e4f2aedf7e65a79ecaf16e8869b2b99c87e341f2c51286bfd4a7fc3b99698282604051808381526020018281526020019250505060405180910390a15050565b7f000000000000000000000000000000000000000000000000000000000000000073ffffffffffffffffffffffffffffffffffffffff163373ffffffffffffffffffffffffffffffffffffffff1614610c7d576040517f08c379a00000000000000000000000000000000000000000000000000000000081526004018080602001828103825260288152602001806117006028913960400191505060405180910390fd5b427f00000000000000000000000000000000000000000000000000000000000000001115610d13576040517f08c379a000000000000000000000000000000000000000000000000000000000815260040180806020018281038252601c8152602001807f537562636f6e7472616374206e6f742079657420657870697265642e0000000081525060200191505060405180910390fd5b60001515600060149054906101000a900460ff16151514610d7f576040517f08c379a000000000000000000000000000000000000000000000000000000000815260040180806020018281038252604281526020018061164a6042913960600191505060405180910390fd5b60007f00000000000000000000000000000000000000000000000000000000000000009050428173ffffffffffffffffffffffffffffffffffffffff1663a814001f6040518163ffffffff1660e01b815260040160206040518083038186803b158015610deb57600080fd5b505afa158015610dff573d6000803e3d6000fd5b505050506040513d6020811015610e1557600080fd5b810190808051906020019092919050505011610e99576040517f08c379a00000000000000000000000000000000000000000000000000000000081526004018080602001828103825260168152602001807f4d61696e20636f6e747261637420657870697265642e0000000000000000000081525060200191505060405180910390fd5b60008173ffffffffffffffffffffffffffffffffffffffff1663c4b641ab6040518163ffffffff1660e01b815260040160206040518083038186803b158015610ee157600080fd5b505afa158015610ef5573d6000803e3d6000fd5b505050506040513d6020811015610f0b57600080fd5b810190808051906020019092919050505090508060017f0000000000000000000000000000000000000000000000000000000000000000011480610f9c5750600073ffffffffffffffffffffffffffffffffffffffff1660008054906101000a900473ffffffffffffffffffffffffffffffffffffffff1673ffffffffffffffffffffffffffffffffffffffff1614155b1561102b5760007f000000000000000000000000000000000000000000000000000000000000000073ffffffffffffffffffffffffffffffffffffffff166108fc829081150290604051600060405180830381858888f19350505050158015611009573d6000803e3d6000fd5b506001600060146101000a81548160ff02191690831515021790555050611120565b427f000000000000000000000000000000000000000000000000000000000000000011156110a4576040517f08c379a00000000000000000000000000000000000000000000000000000000081526004018080602001828103825260218152602001806117286021913960400191505060405180910390fd5b6001600060156101000a81548160ff0219169083151502179055508173ffffffffffffffffffffffffffffffffffffffff1663c61038436040518163ffffffff1660e01b8152600401600060405180830381600087803b15801561110757600080fd5b505af115801561111b573d6000803e3d6000fd5b505050505b5050565b7f000000000000000000000000000000000000000000000000000000000000000073ffffffffffffffffffffffffffffffffffffffff163373ffffffffffffffffffffffffffffffffffffffff16146111c8576040517f08c379a000000000000000000000000000000000000000000000000000000000815260040180806020018281038252602c81526020018061161e602c913960400191505060405180910390fd5b427f00000000000000000000000000000000000000000000000000000000000000001161125d576040517f08c379a000000000000000000000000000000000000000000000000000000000815260040180806020018281038252601b8152602001807f53656c6c657220677261636520706572696f64207061737365642e000000000081525060200191505060405180910390fd5b600073ffffffffffffffffffffffffffffffffffffffff1660008054906101000a900473ffffffffffffffffffffffffffffffffffffffff1673ffffffffffffffffffffffffffffffffffffffff161461131f576040517f08c379a000000000000000000000000000000000000000000000000000000000815260040180806020018281038252601d8152602001807f4e65787420737562636f6e747261637420616c7265616479207365742e00000081525060200191505060405180910390fd5b806000806101000a81548173ffffffffffffffffffffffffffffffffffffffff021916908373ffffffffffffffffffffffffffffffffffffffff16021790555050565b7f000000000000000000000000000000000000000000000000000000000000000073ffffffffffffffffffffffffffffffffffffffff163373ffffffffffffffffffffffffffffffffffffffff1614611406576040517f08c379a00000000000000000000000000000000000000000000000000000000081526004018080602001828103825260288152602001806117006028913960400191505060405180910390fd5b60007f00000000000000000000000000000000000000000000000000000000000000004210156114385742905061145c565b7f000000000000000000000000000000000000000000000000000000000000000090505b60007f000000000000000000000000000000000000000000000000000000000000000073ffffffffffffffffffffffffffffffffffffffff16637dc0d1d06040518163ffffffff1660e01b815260040160206040518083038186803b1580156114c457600080fd5b505afa1580156114d8573d6000803e3d6000fd5b505050506040513d60208110156114ee57600080fd5b810190808051906020019092919050505073ffffffffffffffffffffffffffffffffffffffff1663c9b0ee1c7f0000000000000000000000000000000000000000000000000000000000000000846040518363ffffffff1660e01b81526004018083815260200182815260200192505050602060405180830381600087803b15801561157957600080fd5b505af115801561158d573d6000803e3d6000fd5b505050506040513d60208110156115a357600080fd5b8101908080519060200190929190505050905060016003600083815260200190815260200160002060006101000a81548160ff0219169083151502179055507f3ed150819af981e387450beb90ec379b8b322150dbb299d492b108c59a623e4b816040518082815260200191505060405180910390a1505056fe4f6e6c7920746865206d61696e20636f6e74726163742063616e2063616c6c2074686973206d6574686f642e416666696c6961746520616c72656164792063616c6c6564207265736f6c7665207375636365737366756c6c79206f6e207468697320737562636f6e74726163742e4f6e6c7920746865206f7261636c652063616e2063616c6c2074686973206d6574686f642e50726f766964656420737562636f6e7472616374206164647265737320646f6573206e6f742068617665206772616365506572696f644578706972656420666c61672073657420746f20747275652e4f6e6c792074686520616666696c696174652063616e2063616c6c2074686973206d6574686f642e53656c6c657220677261636520706572696f64206e6f7420796574206f7665722e546869732072657175657374206973206e6f7420696e206d792070656e64696e67206c6973742ea26469706673582212206f196b0b20e5a4eeac03a819afc7724bb1ada2a1f4073a2bd73e356d51bd7ba864736f6c6343000704003343616e6e6f742062652063616c6c6564206279206c61737420737562636f6e74726163742e4f6e6c7920746865206f776e65722063616e2063616c6c2074686973206d6574686f642e546f74616c206e756d626572206f6620737562636f6e7472616374732065786365656465642e4f6e6c79206120737562636f6e74726163742063616e2063616c6c2074686973206d6574686f642e53656c6c657220677261636520706572696f64206e6f7420796574207061737365642e4c61737420737562636f6e7472616374206e6f742079657420657870697265642e546865206c61737420737562636f6e7472616374206973206e6f742079657420657870697265642e5468652073656c6c657220677261636520706572696f6420616c726561647920656e6465642ea2646970667358221220cb10754aa5b5a385eb609e265cb60a9b2b8f6b7f6e6f00b8efa98880a84da4b164736f6c6343000704003361014060405260008060006101000a81548173ffffffffffffffffffffffffffffffffffffffff021916908373ffffffffffffffffffffffffffffffffffffffff16021790555060008060146101000a81548160ff02191690831515021790555060008060156101000a81548160ff0219169083151502179055506040516119c33803806119c3833981810160405260a081101561009c57600080fd5b8101908080519060200190929190805190602001909291908051906020019092919080519060200190929190805190602001909291905050503373ffffffffffffffffffffffffffffffffffffffff1660808173ffffffffffffffffffffffffffffffffffffffff1660601b815250508473ffffffffffffffffffffffffffffffffffffffff1660a08173ffffffffffffffffffffffffffffffffffffffff1660601b8152505083420160c08181525050828442010160e08181525050816101208181525050806101008181525050505050505060805160601c60a05160601c60c05160e05161010051610120516117a561021e60003980610782528061151c52508061075e5280610f235250806107dd528061102e52806111cb52508061044e5280610c80528061140a528061143a52508061042a52806107015280610bdb5280610fa55280611364525080610472528061051752806107b9528061080152806108a652806109d45280610d835280611126528061146052506117a56000f3fe6080604052600436106100ec5760003560e01c806388fd65cc1161008a578063b5d73ba411610059578063b5d73ba41461035e578063c6103843146103a3578063d9d45038146103ba578063ef8e26a31461040b576100f3565b806388fd65cc146102745780638da5cb5b146102a1578063a1b93854146102e2578063ac4448291461030d576100f3565b806356f225e8116100c657806356f225e81461018c578063584215b5146101dd578063672bf6051461021e57806378e9792514610249576100f3565b80633da8bfc9146100f557806345e05f43146101205780634665096d14610161576100f3565b366100f357005b005b34801561010157600080fd5b5061010a610422565b6040518082815260200191505060405180910390f35b34801561012c57600080fd5b50610135610428565b604051808273ffffffffffffffffffffffffffffffffffffffff16815260200191505060405180910390f35b34801561016d57600080fd5b5061017661044c565b6040518082815260200191505060405180910390f35b34801561019857600080fd5b506101db600480360360208110156101af57600080fd5b81019080803573ffffffffffffffffffffffffffffffffffffffff169060200190929190505050610470565b005b3480156101e957600080fd5b506101f2610738565b604051808273ffffffffffffffffffffffffffffffffffffffff16815260200191505060405180910390f35b34801561022a57600080fd5b5061023361075c565b6040518082815260200191505060405180910390f35b34801561025557600080fd5b5061025e610780565b6040518082815260200191505060405180910390f35b34801561028057600080fd5b506102896107a4565b60405180821515815260200191505060405180910390f35b3480156102ad57600080fd5b506102b66107b7565b604051808273ffffffffffffffffffffffffffffffffffffffff16815260200191505060405180910390f35b3480156102ee57600080fd5b506102f76107db565b6040518082815260200191505060405180910390f35b34801561031957600080fd5b5061035c6004803603602081101561033057600080fd5b81019080803573ffffffffffffffffffffffffffffffffffffffff1690602001909291905050506107ff565b005b34801561036a57600080fd5b506103a16004803603604081101561038157600080fd5b8101908080359060200190929190803590602001909291905050506109d2565b005b3480156103af57600080fd5b506103b8610bd9565b005b3480156103c657600080fd5b50610409600480360360208110156103dd57600080fd5b81019080803573ffffffffffffffffffffffffffffffffffffffff169060200190929190505050611124565b005b34801561041757600080fd5b50610420611362565b005b60015481565b7f000000000000000000000000000000000000000000000000000000000000000081565b7f000000000000000000000000000000000000000000000000000000000000000081565b7f000000000000000000000000000000000000000000000000000000000000000073ffffffffffffffffffffffffffffffffffffffff163373ffffffffffffffffffffffffffffffffffffffff1614610514576040517f08c379a000000000000000000000000000000000000000000000000000000000815260040180806020018281038252602c81526020018061161e602c913960400191505060405180910390fd5b427f000000000000000000000000000000000000000000000000000000000000000073ffffffffffffffffffffffffffffffffffffffff1663a814001f6040518163ffffffff1660e01b815260040160206040518083038186803b15801561057b57600080fd5b505afa15801561058f573d6000803e3d6000fd5b505050506040513d60208110156105a557600080fd5b810190808051906020019092919050505011610629576040517f08c379a00000000000000000000000000000000000000000000000000000000081526004018080602001828103825260168152602001807f4d61696e20636f6e747261637420657870697265642e0000000000000000000081525060200191505060405180910390fd5b8073ffffffffffffffffffffffffffffffffffffffff166388fd65cc6040518163ffffffff1660e01b815260040160206040518083038186803b15801561066f57600080fd5b505afa158015610683573d6000803e3d6000fd5b505050506040513d602081101561069957600080fd5b81019080805190602001909291905050506106ff576040517f08c379a000000000000000000000000000000000000000000000000000000000815260040180806020018281038252604f8152602001806116b1604f913960600191505060405180910390fd5b7f000000000000000000000000000000000000000000000000000000000000000073ffffffffffffffffffffffffffffffffffffffff16ff5b60008054906101000a900473ffffffffffffffffffffffffffffffffffffffff1681565b7f000000000000000000000000000000000000000000000000000000000000000081565b7f000000000000000000000000000000000000000000000000000000000000000081565b600060159054906101000a900460ff1681565b7f000000000000000000000000000000000000000000000000000000000000000081565b7f000000000000000000000000000000000000000000000000000000000000000081565b7f000000000000000000000000000000000000000000000000000000000000000073ffffffffffffffffffffffffffffffffffffffff163373ffffffffffffffffffffffffffffffffffffffff16146108a3576040517f08c379a000000000000000000000000000000000000000000000000000000000815260040180806020018281038252602c81526020018061161e602c913960400191505060405180910390fd5b427f000000000000000000000000000000000000000000000000000000000000000073ffffffffffffffffffffffffffffffffffffffff1663a814001f6040518163ffffffff1660e01b815260040160206040518083038186803b15801561090a57600080fd5b505afa15801561091e573d6000803e3d6000fd5b505050506040513d602081101561093457600080fd5b810190808051906020019092919050505011156109b9576040517f08c379a000000000000000000000000000000000000000000000000000000000815260040180806020018281038252601e8152602001807f4d61696e20636f6e7472616374206e6f742079657420657870697265642e000081525060200191505060405180910390fd5b8073ffffffffffffffffffffffffffffffffffffffff16ff5b7f000000000000000000000000000000000000000000000000000000000000000073ffffffffffffffffffffffffffffffffffffffff16637dc0d1d06040518163ffffffff1660e01b815260040160206040518083038186803b158015610a3857600080fd5b505afa158015610a4c573d6000803e3d6000fd5b505050506040513d6020811015610a6257600080fd5b810190808051906020019092919050505073ffffffffffffffffffffffffffffffffffffffff163373ffffffffffffffffffffffffffffffffffffffff1614610af6576040517f08c379a000000000000000000000000000000000000000000000000000000000815260040180806020018281038252602581526020018061168c6025913960400191505060405180910390fd5b6003600082815260200190815260200160002060009054906101000a900460ff16610b6c576040517f08c379a00000000000000000000000000000000000000000000000000000000081526004018080602001828103825260278152602001806117496027913960400191505060405180910390fd5b816001819055506003600082815260200190815260200160002060006101000a81549060ff02191690557f6b69e4f2aedf7e65a79ecaf16e8869b2b99c87e341f2c51286bfd4a7fc3b99698282604051808381526020018281526020019250505060405180910390a15050565b7f000000000000000000000000000000000000000000000000000000000000000073ffffffffffffffffffffffffffffffffffffffff163373ffffffffffffffffffffffffffffffffffffffff1614610c7d576040517f08c379a00000000000000000000000000000000000000000000000000000000081526004018080602001828103825260288152602001806117006028913960400191505060405180910390fd5b427f00000000000000000000000000000000000000000000000000000000000000001115610d13576040517f08c379a000000000000000000000000000000000000000000000000000000000815260040180806020018281038252601c8152602001807f537562636f6e7472616374206e6f742079657420657870697265642e0000000081525060200191505060405180910390fd5b60001515600060149054906101000a900460ff16151514610d7f576040517f08c379a000000000000000000000000000000000000000000000000000000000815260040180806020018281038252604281526020018061164a6042913960600191505060405180910390fd5b60007f00000000000000000000000000000000000000000000000000000000000000009050428173ffffffffffffffffffffffffffffffffffffffff1663a814001f6040518163ffffffff1660e01b815260040160206040518083038186803b158015610deb57600080fd5b505afa158015610dff573d6000803e3d6000fd5b505050506040513d6020811015610e1557600080fd5b810190808051906020019092919050505011610e99576040517f08c379a00000000000000000000000000000000000000000000000000000000081526004018080602001828103825260168152602001807f4d61696e20636f6e747261637420657870697265642e0000000000000000000081525060200191505060405180910390fd5b60008173ffffffffffffffffffffffffffffffffffffffff1663c4b641ab6040518163ffffffff1660e01b815260040160206040518083038186803b158015610ee157600080fd5b505afa158015610ef5573d6000803e3d6000fd5b505050506040513d6020811015610f0b57600080fd5b810190808051906020019092919050505090508060017f0000000000000000000000000000000000000000000000000000000000000000011480610f9c5750600073ffffffffffffffffffffffffffffffffffffffff1660008054906101000a900473ffffffffffffffffffffffffffffffffffffffff1673ffffffffffffffffffffffffffffffffffffffff1614155b1561102b5760007f000000000000000000000000000000000000000000000000000000000000000073ffffffffffffffffffffffffffffffffffffffff166108fc829081150290604051600060405180830381858888f19350505050158015611009573d6000803e3d6000fd5b506001600060146101000a81548160ff02191690831515021790555050611120565b427f000000000000000000000000000000000000000000000000000000000000000011156110a4576040517f08c379a00000000000000000000000000000000000000000000000000000000081526004018080602001828103825260218152602001806117286021913960400191505060405180910390fd5b6001600060156101000a81548160ff0219169083151502179055508173ffffffffffffffffffffffffffffffffffffffff1663c61038436040518163ffffffff1660e01b8152600401600060405180830381600087803b15801561110757600080fd5b505af115801561111b573d6000803e3d6000fd5b505050505b5050565b7f000000000000000000000000000000000000000000000000000000000000000073ffffffffffffffffffffffffffffffffffffffff163373ffffffffffffffffffffffffffffffffffffffff16146111c8576040517f08c379a000000000000000000000000000000000000000000000000000000000815260040180806020018281038252602c81526020018061161e602c913960400191505060405180910390fd5b427f00000000000000000000000000000000000000000000000000000000000000001161125d576040517f08c379a000000000000000000000000000000000000000000000000000000000815260040180806020018281038252601b8152602001807f53656c6c657220677261636520706572696f64207061737365642e000000000081525060200191505060405180910390fd5b600073ffffffffffffffffffffffffffffffffffffffff1660008054906101000a900473ffffffffffffffffffffffffffffffffffffffff1673ffffffffffffffffffffffffffffffffffffffff161461131f576040517f08c379a000000000000000000000000000000000000000000000000000000000815260040180806020018281038252601d8152602001807f4e65787420737562636f6e747261637420616c7265616479207365742e00000081525060200191505060405180910390fd5b806000806101000a81548173ffffffffffffffffffffffffffffffffffffffff021916908373ffffffffffffffffffffffffffffffffffffffff16021790555050565b7f000000000000000000000000000000000000000000000000000000000000000073ffffffffffffffffffffffffffffffffffffffff163373ffffffffffffffffffffffffffffffffffffffff1614611406576040517f08c379a00000000000000000000000000000000000000000000000000000000081526004018080602001828103825260288152602001806117006028913960400191505060405180910390fd5b60007f00000000000000000000000000000000000000000000000000000000000000004210156114385742905061145c565b7f000000000000000000000000000000000000000000000000000000000000000090505b60007f000000000000000000000000000000000000000000000000000000000000000073ffffffffffffffffffffffffffffffffffffffff16637dc0d1d06040518163ffffffff1660e01b815260040160206040518083038186803b1580156114c457600080fd5b505afa1580156114d8573d6000803e3d6000fd5b505050506040513d60208110156114ee57600080fd5b810190808051906020019092919050505073ffffffffffffffffffffffffffffffffffffffff1663c9b0ee1c7f0000000000000000000000000000000000000000000000000000000000000000846040518363ffffffff1660e01b81526004018083815260200182815260200192505050602060405180830381600087803b15801561157957600080fd5b505af115801561158d573d6000803e3d6000fd5b505050506040513d60208110156115a357600080fd5b8101908080519060200190929190505050905060016003600083815260200190815260200160002060006101000a81548160ff0219169083151502179055507f3ed150819af981e387450beb90ec379b8b322150dbb299d492b108c59a623e4b816040518082815260200191505060405180910390a1505056fe4f6e6c7920746865206d61696e20636f6e74726163742063616e2063616c6c2074686973206d6574686f642e416666696c6961746520616c72656164792063616c6c6564207265736f6c7665207375636365737366756c6c79206f6e207468697320737562636f6e74726163742e4f6e6c7920746865206f7261636c652063616e2063616c6c2074686973206d6574686f642e50726f766964656420737562636f6e7472616374206164647265737320646f6573206e6f742068617665206772616365506572696f644578706972656420666c61672073657420746f20747275652e4f6e6c792074686520616666696c696174652063616e2063616c6c2074686973206d6574686f642e53656c6c657220677261636520706572696f64206e6f7420796574206f7665722e546869732072657175657374206973206e6f7420696e206d792070656e64696e67206c6973742ea26469706673582212206f196b0b20e5a4eeac03a819afc7724bb1ada2a1f4073a2bd73e356d51bd7ba864736f6c63430007040033746f74616c20737562636f6e747261637473206d757374206265206174206c656173742033616d6f756e742073656e7420746f20636f6e7374727563746f72206d75737420657175616c20696e63656e746976652066656520706c7573206f6e6520737562636f6e7472616374207374616b65",
  "immutableReferences": {
    "10": [
      {
        "length": 32,
        "start": 1165
      },
      {
        "length": 32,
        "start": 1471
      },
      {
        "length": 32,
        "start": 1988
      },
      {
        "length": 32,
        "start": 2136
      },
      {
        "length": 32,
        "start": 2193
      },
      {
        "length": 32,
        "start": 4229
      }
    ],
    "12": [
      {
        "length": 32,
        "start": 1129
      },
      {
        "length": 32,
        "start": 4172
      },
      {
        "length": 32,
        "start": 5313
      }
    ],
    "14": [
      {
        "length": 32,
        "start": 2569
      },
      {
        "length": 32,
        "start": 3419
      },
      {
        "length": 32,
        "start": 4542
      }
    ],
    "22": [
      {
        "length": 32,
        "start": 1636
      },
      {
        "length": 32,
        "start": 2497
      },
      {
        "length": 32,
        "start": 2606
      },
      {
        "length": 32,
        "start": 4394
      }
    ],
    "24": [
      {
        "length": 32,
        "start": 1397
      },
      {
        "length": 32,
        "start": 5346
      }
    ],
    "26": [
      {
        "length": 32,
        "start": 2533
      },
      {
        "length": 32,
        "start": 5379
      }
    ],
    "28": [
      {
        "length": 32,
        "start": 1093
      },
      {
        "length": 32,
        "start": 4664
      }
    ],
    "30": [
      {
        "length": 32,
        "start": 1057
      }
    ],
    "32": [
      {
        "length": 32,
        "start": 2229
      }
    ]
  },
  "source": "// SPDX-License-Identifier: UNLICENSED\npragma solidity ^0.7.4;\n\nimport * as SC from \"./AffiliateSubcontract.sol\";\n\ncontract AffiliateContract {\n  // The minimum number of subcontracts is 3.\n  uint constant MIN_TOTAL_SUBCONTRACTS = 3;\n  // The amount of time that's added on to the contract expiration time so that the affiliate has extra time to clear out all subcontracts.\n  // PLACEHOLDER - NEED TO FIX\n  uint256 constant CONTRACT_END_GRACE_PERIOD = 15;\n\n  // The business that wants to pay affiliates. Set to the address that calls the contract's constructor.\n  address payable public immutable owner;\n  // The affiliate's personal address that funds will be sent to.\n  address payable public immutable affiliate;\n\n  // The total number of subcontracts that can be created from this one.\n  uint public immutable totalSubcontracts;\n  // The number of the latest created subcontract.\n  uint internal subcontractsSoFar = 0;\n  // Array containing the subcontracts\n  // Storage array (by default)\n  address payable[] public subcontracts;\n\n  // When the main contract will expire\n  uint256 public immutable contractExpiration;\n  // The length of time each subcontract will be valid for\n  uint256 public immutable subcontractDuration;\n  // The seller's grace period for issuing a new subcontract\n  uint256 public immutable gracePeriodDuration;\n\n  // The amount that will be staked for the affiliate to earn in each subcontract.\n  uint public immutable subcontractStake;\n  // The amount of the incentive fee staked by the seller to incentivize them to hold up their end of the deal.\n  uint public immutable incentiveFee;\n  // An integer representing the percentage of sales that the affiliate will receive. \n  uint public immutable affiliatePercentage;\n\n  // The address of the oracle contract.\n  address public oracle;\n\n  // The constructor should be called with the amount of the incentive fee plus the first contract stake.\n  constructor(\n    address payable _affiliate,\n    uint _totalSubcontracts,\n    uint256 _subcontractDuration,\n    uint256 _gracePeriodDuration,\n    uint _subcontractStake,\n    uint _incentiveFee,\n    uint _affiliatePercentage\n  ) payable {\n    require(msg.value == (_incentiveFee + _subcontractStake), \"amount sent to constructor must equal incentive fee plus one subcontract stake\");\n    require(_totalSubcontracts >= MIN_TOTAL_SUBCONTRACTS, \"total subcontracts must be at least 3\");\n    owner = msg.sender;\n    affiliate = _affiliate;\n    totalSubcontracts = _totalSubcontracts;\n    // PLACEHOLDER - check this???\n    contractExpiration = block.timestamp + _totalSubcontracts*(_subcontractDuration + _gracePeriodDuration) + CONTRACT_END_GRACE_PERIOD;\n    subcontractDuration = _subcontractDuration;\n    gracePeriodDuration = _gracePeriodDuration;\n    subcontractStake = _subcontractStake;\n    incentiveFee = _incentiveFee;\n    affiliatePercentage = _affiliatePercentage;\n\n    // Creating the first subcontract.\n    // REMEMBER THAT SUBCONTRACTSSOFAR MUST HAVE 1 SUBTRACTED BEFORE USING FOR INDEXING\n    subcontracts.push(address((new SC.AffiliateSubcontract){value: _subcontractStake}(_affiliate, _subcontractDuration, _gracePeriodDuration, block.timestamp, 0)));\n    subcontractsSoFar++;\n  }\n\n  receive() external payable { }\n  fallback() external payable { }\n\n  modifier onlyOwner {\n    require(msg.sender == owner, \"Only the owner can call this method.\");\n    _;\n  }\n\n  modifier contractNotExpired {\n    require(contractExpiration > block.timestamp, \"Main contract expired.\");\n    _;\n  }\n\n  function setOracleAddress (address _oracleAddress) public onlyOwner {\n    oracle = _oracleAddress;\n  }\n\n  event GetCurrentSubcontractEvent(address payable sc);\n\n  function getCurrentSubcontract() public returns(address payable) {\n    address payable sc;\n    if (subcontractsSoFar > 0) {\n      sc = subcontracts[subcontractsSoFar - 1];\n    } else {\n      sc = address(0x0);\n    }\n    emit GetCurrentSubcontractEvent(sc);\n    return sc;\n  }\n\n  // called by the owner\n  function createNextSubContract() public payable onlyOwner contractNotExpired {\n    require(subcontractsSoFar < totalSubcontracts, \"Total number of subcontracts exceeded.\");\n    require(msg.value == subcontractStake, \"Incorrect stake amount.\");\n    \n    // Getting a reference to the previous/\"current\" subcontract\n    SC.AffiliateSubcontract lastSubcontract = SC.AffiliateSubcontract(subcontracts[subcontractsSoFar - 1]);\n    // Checking all the conditions necessary for making the next subcontract.\n    require(lastSubcontract.expiration() <= block.timestamp, \"The last subcontract is not yet expired.\");\n    require(lastSubcontract.sellerGracePeriodEnd() > block.timestamp, \"The seller grace period already ended.\");\n    // msg.value = total amount the subcontract will be populated with \n    subcontracts.push(address((new SC.AffiliateSubcontract){value: msg.value}(affiliate, subcontractDuration, gracePeriodDuration, lastSubcontract.expiration(), subcontractsSoFar)));\n    lastSubcontract.setNextSubcontract(subcontracts[subcontractsSoFar]);\n    subcontractsSoFar++;\n  }\n\n  // only called in dispute case\n  function affiliateResolve() public contractNotExpired {\n    bool calledBySubcontract = false;\n    for (uint i = 0; i < subcontractsSoFar; i++) {\n      if (subcontracts[i] == msg.sender) {\n        calledBySubcontract = true;\n      }\n    }\n    require(calledBySubcontract, \"Only a subcontract can call this method.\");\n    SC.AffiliateSubcontract lastSubcontract = SC.AffiliateSubcontract(msg.sender);\n    require(lastSubcontract.expiration() <= block.timestamp, \"Last subcontract not yet expired.\");\n    require(lastSubcontract.sellerGracePeriodEnd() <= block.timestamp, \"Seller grace period not yet passed.\");\n    require((lastSubcontract.indexNumber() + 1) != totalSubcontracts, \"Cannot be called by last subcontract.\");\n    require(lastSubcontract.nextSubcontract() == address(0x0), \"Next subcontract is present.\");\n    for (uint i = 0; i < subcontractsSoFar; i++) {\n      SC.AffiliateSubcontract(subcontracts[i]).affiliateCleanup(msg.sender);\n    }\n    selfdestruct(affiliate);\n  }\n\n  function sellerResolve() public onlyOwner {\n    require(contractExpiration <= block.timestamp, \"Main contract not yet expired.\");\n    for (uint i = 0; i < subcontractsSoFar; i++) {\n      if (subcontracts[i] != address(0x0)) {\n        SC.AffiliateSubcontract(subcontracts[i]).sellerResolve(owner);\n      }\n    }\n    selfdestruct(owner);\n  }\n}",
  "sourcePath": "/home/madsilva/dev/blockchain/blockchain-project/truffle/contracts/AffiliateContract.sol",
  "compiler": {
    "name": "solc",
    "version": "0.7.4+commit.3f05b770.Emscripten.clang"
  },
  "schemaVersion": "3.3.2",
  "updatedAt": "2020-11-25T20:33:14.680Z",
  "devdoc": {
    "kind": "dev",
    "methods": {},
    "version": 1
  },
  "userdoc": {
    "kind": "user",
    "methods": {},
    "version": 1
  }
}