{
  "contractName": "AffiliateSubcontract",
  "abi": [
    {
      "inputs": [
        {
          "internalType": "address payable",
          "name": "_affiliate",
          "type": "address"
        },
        {
          "internalType": "uint256",
          "name": "subcontractDuration",
          "type": "uint256"
        },
        {
          "internalType": "uint256",
          "name": "sellerGracePeriodDuration",
          "type": "uint256"
        },
        {
          "internalType": "uint256",
          "name": "_mainContractExpiration",
          "type": "uint256"
        },
        {
          "internalType": "uint256",
          "name": "_indexNumber",
          "type": "uint256"
        }
      ],
      "stateMutability": "payable",
      "type": "constructor"
    },
    {
      "stateMutability": "payable",
      "type": "fallback"
    },
    {
      "inputs": [],
      "name": "affiliate",
      "outputs": [
        {
          "internalType": "address payable",
          "name": "",
          "type": "address"
        }
      ],
      "stateMutability": "view",
      "type": "function"
    },
    {
      "inputs": [],
      "name": "affiliateResolved",
      "outputs": [
        {
          "internalType": "bool",
          "name": "",
          "type": "bool"
        }
      ],
      "stateMutability": "view",
      "type": "function"
    },
    {
      "inputs": [],
      "name": "expiration",
      "outputs": [
        {
          "internalType": "uint256",
          "name": "",
          "type": "uint256"
        }
      ],
      "stateMutability": "view",
      "type": "function"
    },
    {
      "inputs": [],
      "name": "gracePeriodExpired",
      "outputs": [
        {
          "internalType": "bool",
          "name": "",
          "type": "bool"
        }
      ],
      "stateMutability": "view",
      "type": "function"
    },
    {
      "inputs": [],
      "name": "indexNumber",
      "outputs": [
        {
          "internalType": "uint256",
          "name": "",
          "type": "uint256"
        }
      ],
      "stateMutability": "view",
      "type": "function"
    },
    {
      "inputs": [],
      "name": "mainContractExpiration",
      "outputs": [
        {
          "internalType": "uint256",
          "name": "",
          "type": "uint256"
        }
      ],
      "stateMutability": "view",
      "type": "function"
    },
    {
      "inputs": [],
      "name": "nextSubcontract",
      "outputs": [
        {
          "internalType": "address",
          "name": "",
          "type": "address"
        }
      ],
      "stateMutability": "view",
      "type": "function"
    },
    {
      "inputs": [],
      "name": "owner",
      "outputs": [
        {
          "internalType": "address payable",
          "name": "",
          "type": "address"
        }
      ],
      "stateMutability": "view",
      "type": "function"
    },
    {
      "inputs": [],
      "name": "sellerGracePeriodEnd",
      "outputs": [
        {
          "internalType": "uint256",
          "name": "",
          "type": "uint256"
        }
      ],
      "stateMutability": "view",
      "type": "function"
    },
    {
      "stateMutability": "payable",
      "type": "receive"
    },
    {
      "inputs": [
        {
          "internalType": "address",
          "name": "next",
          "type": "address"
        }
      ],
      "name": "setNextSubcontract",
      "outputs": [],
      "stateMutability": "nonpayable",
      "type": "function"
    },
    {
      "inputs": [],
      "name": "affiliateResolve",
      "outputs": [],
      "stateMutability": "nonpayable",
      "type": "function"
    },
    {
      "inputs": [
        {
          "internalType": "address payable",
          "name": "bs",
          "type": "address"
        }
      ],
      "name": "affiliateCleanup",
      "outputs": [],
      "stateMutability": "nonpayable",
      "type": "function"
    },
    {
      "inputs": [
        {
          "internalType": "address payable",
          "name": "seller",
          "type": "address"
        }
      ],
      "name": "sellerResolve",
      "outputs": [],
      "stateMutability": "nonpayable",
      "type": "function"
    }
  ],
  "bytecode": "0x61014060405260008060006101000a81548173ffffffffffffffffffffffffffffffffffffffff021916908373ffffffffffffffffffffffffffffffffffffffff16021790555060008060146101000a81548160ff02191690831515021790555060008060156101000a81548160ff0219169083151502179055506040516112ed3803806112ed833981810160405260a081101561009c57600080fd5b8101908080519060200190929190805190602001909291908051906020019092919080519060200190929190805190602001909291905050503373ffffffffffffffffffffffffffffffffffffffff1660808173ffffffffffffffffffffffffffffffffffffffff1660601b815250508473ffffffffffffffffffffffffffffffffffffffff1660a08173ffffffffffffffffffffffffffffffffffffffff1660601b8152505083420160c08181525050828442010160e08181525050816101008181525050806101208181525050505050505060805160601c60a05160601c60c05160e05161010051610120516110e361020a600039806106705280610b255250806104a4528061079452806109e95280610d475250806106cb5280610c305280610e105250806103db52806108e75250806103b7528061061352806108425280610ba75250806103ff52806106a752806106ef5280610a7f5280610cc35280610d6b52506110e36000f3fe6080604052600436106100c65760003560e01c806388fd65cc1161007f578063ac44482911610059578063ac444829146102be578063c61038431461030f578063d3e0fd2714610326578063d9d4503814610351576100cd565b806388fd65cc146102255780638da5cb5b14610252578063a1b9385414610293576100cd565b80630bc1abe1146100cf57806345e05f43146100fc5780634665096d1461013d57806356f225e814610168578063584215b5146101b9578063672bf605146101fa576100cd565b366100cd57005b005b3480156100db57600080fd5b506100e46103a2565b60405180821515815260200191505060405180910390f35b34801561010857600080fd5b506101116103b5565b604051808273ffffffffffffffffffffffffffffffffffffffff16815260200191505060405180910390f35b34801561014957600080fd5b506101526103d9565b6040518082815260200191505060405180910390f35b34801561017457600080fd5b506101b76004803603602081101561018b57600080fd5b81019080803573ffffffffffffffffffffffffffffffffffffffff1690602001909291905050506103fd565b005b3480156101c557600080fd5b506101ce61064a565b604051808273ffffffffffffffffffffffffffffffffffffffff16815260200191505060405180910390f35b34801561020657600080fd5b5061020f61066e565b6040518082815260200191505060405180910390f35b34801561023157600080fd5b5061023a610692565b60405180821515815260200191505060405180910390f35b34801561025e57600080fd5b506102676106a5565b604051808273ffffffffffffffffffffffffffffffffffffffff16815260200191505060405180910390f35b34801561029f57600080fd5b506102a86106c9565b6040518082815260200191505060405180910390f35b3480156102ca57600080fd5b5061030d600480360360208110156102e157600080fd5b81019080803573ffffffffffffffffffffffffffffffffffffffff1690602001909291905050506106ed565b005b34801561031b57600080fd5b50610324610840565b005b34801561033257600080fd5b5061033b610d45565b6040518082815260200191505060405180910390f35b34801561035d57600080fd5b506103a06004803603602081101561037457600080fd5b81019080803573ffffffffffffffffffffffffffffffffffffffff169060200190929190505050610d69565b005b600060149054906101000a900460ff1681565b7f000000000000000000000000000000000000000000000000000000000000000081565b7f000000000000000000000000000000000000000000000000000000000000000081565b7f000000000000000000000000000000000000000000000000000000000000000073ffffffffffffffffffffffffffffffffffffffff163373ffffffffffffffffffffffffffffffffffffffff16146104a1576040517f08c379a000000000000000000000000000000000000000000000000000000000815260040180806020018281038252602c815260200180610fa8602c913960400191505060405180910390fd5b427f000000000000000000000000000000000000000000000000000000000000000011610536576040517f08c379a00000000000000000000000000000000000000000000000000000000081526004018080602001828103825260168152602001807f4d61696e20636f6e747261637420657870697265642e0000000000000000000081525060200191505060405180910390fd5b60008190508073ffffffffffffffffffffffffffffffffffffffff166388fd65cc6040518163ffffffff1660e01b815260040160206040518083038186803b15801561058157600080fd5b505afa158015610595573d6000803e3d6000fd5b505050506040513d60208110156105ab57600080fd5b8101908080519060200190929190505050610611576040517f08c379a000000000000000000000000000000000000000000000000000000000815260040180806020018281038252604f815260200180611016604f913960600191505060405180910390fd5b7f000000000000000000000000000000000000000000000000000000000000000073ffffffffffffffffffffffffffffffffffffffff16ff5b60008054906101000a900473ffffffffffffffffffffffffffffffffffffffff1681565b7f000000000000000000000000000000000000000000000000000000000000000081565b600060159054906101000a900460ff1681565b7f000000000000000000000000000000000000000000000000000000000000000081565b7f000000000000000000000000000000000000000000000000000000000000000081565b7f000000000000000000000000000000000000000000000000000000000000000073ffffffffffffffffffffffffffffffffffffffff163373ffffffffffffffffffffffffffffffffffffffff1614610791576040517f08c379a000000000000000000000000000000000000000000000000000000000815260040180806020018281038252602c815260200180610fa8602c913960400191505060405180910390fd5b427f00000000000000000000000000000000000000000000000000000000000000001115610827576040517f08c379a000000000000000000000000000000000000000000000000000000000815260040180806020018281038252601e8152602001807f4d61696e20636f6e7472616374206e6f742079657420657870697265642e000081525060200191505060405180910390fd5b8073ffffffffffffffffffffffffffffffffffffffff16ff5b7f000000000000000000000000000000000000000000000000000000000000000073ffffffffffffffffffffffffffffffffffffffff163373ffffffffffffffffffffffffffffffffffffffff16146108e4576040517f08c379a00000000000000000000000000000000000000000000000000000000081526004018080602001828103825260288152602001806110656028913960400191505060405180910390fd5b427f0000000000000000000000000000000000000000000000000000000000000000111561097a576040517f08c379a000000000000000000000000000000000000000000000000000000000815260040180806020018281038252601c8152602001807f537562636f6e7472616374206e6f742079657420657870697265642e0000000081525060200191505060405180910390fd5b60001515600060149054906101000a900460ff161515146109e6576040517f08c379a0000000000000000000000000000000000000000000000000000000008152600401808060200182810382526042815260200180610fd46042913960600191505060405180910390fd5b427f000000000000000000000000000000000000000000000000000000000000000011610a7b576040517f08c379a00000000000000000000000000000000000000000000000000000000081526004018080602001828103825260168152602001807f4d61696e20636f6e747261637420657870697265642e0000000000000000000081525060200191505060405180910390fd5b60007f000000000000000000000000000000000000000000000000000000000000000073ffffffffffffffffffffffffffffffffffffffff1663c4b641ab6040518163ffffffff1660e01b815260040160206040518083038186803b158015610ae357600080fd5b505afa158015610af7573d6000803e3d6000fd5b505050506040513d6020811015610b0d57600080fd5b810190808051906020019092919050505090508060017f0000000000000000000000000000000000000000000000000000000000000000011480610b9e5750600073ffffffffffffffffffffffffffffffffffffffff1660008054906101000a900473ffffffffffffffffffffffffffffffffffffffff1673ffffffffffffffffffffffffffffffffffffffff1614155b15610c2d5760007f000000000000000000000000000000000000000000000000000000000000000073ffffffffffffffffffffffffffffffffffffffff166108fc829081150290604051600060405180830381858888f19350505050158015610c0b573d6000803e3d6000fd5b506001600060146101000a81548160ff02191690831515021790555050610d42565b427f00000000000000000000000000000000000000000000000000000000000000001115610ca6576040517f08c379a000000000000000000000000000000000000000000000000000000000815260040180806020018281038252602181526020018061108d6021913960400191505060405180910390fd5b6001600060156101000a81548160ff0219169083151502179055507f000000000000000000000000000000000000000000000000000000000000000073ffffffffffffffffffffffffffffffffffffffff1663c61038436040518163ffffffff1660e01b8152600401600060405180830381600087803b158015610d2957600080fd5b505af1158015610d3d573d6000803e3d6000fd5b505050505b50565b7f000000000000000000000000000000000000000000000000000000000000000081565b7f000000000000000000000000000000000000000000000000000000000000000073ffffffffffffffffffffffffffffffffffffffff163373ffffffffffffffffffffffffffffffffffffffff1614610e0d576040517f08c379a000000000000000000000000000000000000000000000000000000000815260040180806020018281038252602c815260200180610fa8602c913960400191505060405180910390fd5b427f000000000000000000000000000000000000000000000000000000000000000011610ea2576040517f08c379a000000000000000000000000000000000000000000000000000000000815260040180806020018281038252601b8152602001807f53656c6c657220677261636520706572696f64207061737365642e000000000081525060200191505060405180910390fd5b600073ffffffffffffffffffffffffffffffffffffffff1660008054906101000a900473ffffffffffffffffffffffffffffffffffffffff1673ffffffffffffffffffffffffffffffffffffffff1614610f64576040517f08c379a000000000000000000000000000000000000000000000000000000000815260040180806020018281038252601d8152602001807f4e65787420737562636f6e747261637420616c7265616479207365742e00000081525060200191505060405180910390fd5b806000806101000a81548173ffffffffffffffffffffffffffffffffffffffff021916908373ffffffffffffffffffffffffffffffffffffffff1602179055505056fe4f6e6c7920746865206d61696e20636f6e74726163742063616e2063616c6c2074686973206d6574686f642e416666696c6961746520616c72656164792063616c6c6564207265736f6c7665207375636365737366756c6c79206f6e207468697320737562636f6e74726163742e50726f766964656420737562636f6e7472616374206164647265737320646f6573206e6f742068617665206772616365506572696f644578706972656420666c61672073657420746f20747275652e4f6e6c792074686520616666696c696174652063616e2063616c6c2074686973206d6574686f642e53656c6c657220677261636520706572696f64206e6f7420796574206f7665722ea2646970667358221220dbe923b085e7a4fdb4d0becda0d1739fd932c2a1da278ea6ada538c1f948317f64736f6c63430007040033",
  "immutableReferences": {
    "759": [
      {
        "length": 32,
        "start": 1023
      },
      {
        "length": 32,
        "start": 1703
      },
      {
        "length": 32,
        "start": 1775
      },
      {
        "length": 32,
        "start": 2687
      },
      {
        "length": 32,
        "start": 3267
      },
      {
        "length": 32,
        "start": 3435
      }
    ],
    "761": [
      {
        "length": 32,
        "start": 951
      },
      {
        "length": 32,
        "start": 1555
      },
      {
        "length": 32,
        "start": 2114
      },
      {
        "length": 32,
        "start": 2983
      }
    ],
    "763": [
      {
        "length": 32,
        "start": 987
      },
      {
        "length": 32,
        "start": 2279
      }
    ],
    "765": [
      {
        "length": 32,
        "start": 1739
      },
      {
        "length": 32,
        "start": 3120
      },
      {
        "length": 32,
        "start": 3600
      }
    ],
    "767": [
      {
        "length": 32,
        "start": 1188
      },
      {
        "length": 32,
        "start": 1940
      },
      {
        "length": 32,
        "start": 2537
      },
      {
        "length": 32,
        "start": 3399
      }
    ],
    "769": [
      {
        "length": 32,
        "start": 1648
      },
      {
        "length": 32,
        "start": 2853
      }
    ]
  },
  "source": "// SPDX-License-Identifier: UNLICENSED\npragma solidity ^0.7.4;\n\nimport \"./affiliate_contract.sol\";\n\ncontract AffiliateSubcontract {\n  // The main affiliate contract that created this contract, which in turn is owned by the business owner.\n  address payable public immutable owner;\n  // The affiliate's personal address.\n  address payable public immutable affiliate;\n\n  // The time this contract expires.\n  uint256 public immutable expiration;\n  // The time the seller's grace period ends. \n  uint256 public immutable sellerGracePeriodEnd;\n  // The time the main contract expires.\n  uint public immutable mainContractExpiration;\n\n  // What index this subcontract has in the array in the main contract.\n  uint public immutable indexNumber;\n  // The address of the next subcontract when it gets created.\n  // CHECK SECURITY FOR THIS\n  address public nextSubcontract = address(0x0);\n\n  // Flag for if the affiliate has called resolve or not. \n  bool public affiliateResolved = false;\n  // Flag for if the seller allowed the grace period to expire on this subcontract.\n  // NEED TO CHECK SECURITY FOR THIS!!\n  bool public gracePeriodExpired = false;\n\n  receive() external payable { }\n  fallback() external payable { }\n\n  constructor(\n    address payable _affiliate,\n    uint256 subcontractDuration,\n    uint256 sellerGracePeriodDuration,\n    uint256 _mainContractExpiration,\n    uint _indexNumber\n  ) payable {\n    owner = msg.sender;\n    affiliate = _affiliate;\n    expiration = block.timestamp + subcontractDuration;\n    sellerGracePeriodEnd = block.timestamp + subcontractDuration + sellerGracePeriodDuration;\n    mainContractExpiration = _mainContractExpiration;\n    indexNumber = _indexNumber;\n  }\n\n  modifier onlyMainContract {\n    require(msg.sender == owner, \"Only the main contract can call this method.\");\n    _;\n  }\n\n  modifier onlyAffiliate {\n    require(msg.sender == affiliate, \"Only the affiliate can call this method.\");\n    _;\n  }\n\n  function setNextSubcontract(address next) public onlyMainContract {\n    require(sellerGracePeriodEnd > block.timestamp, \"Seller grace period passed.\");\n    require(nextSubcontract == address(0x0), \"Next subcontract already set.\");\n    nextSubcontract = next;\n  }\n\n  function affiliateResolve() public onlyAffiliate {\n    require(expiration <= block.timestamp, \"Subcontract not yet expired.\");\n    require(affiliateResolved == false, \"Affiliate already called resolve successfully on this subcontract.\");\n    require(mainContractExpiration > block.timestamp, \"Main contract expired.\");\n    uint totalSubcontracts = AffiliateContract(owner).totalSubcontracts();\n    // If this is the final subcontract or if the seller has already made the next subcontract, we can cash out now.\n    if ((indexNumber + 1) == totalSubcontracts || nextSubcontract != address(0x0)) {\n      // PLACEHOLDER\n      uint amount = 0;\n      affiliate.transfer(amount);\n      affiliateResolved = true;\n    } else {\n      // Else case - either the grace period isn't over and we're still waiting on the seller, or the seller has allowed it to pass without making the next subcontract.\n      require(sellerGracePeriodEnd <= block.timestamp, \"Seller grace period not yet over.\");\n      gracePeriodExpired = true;\n      AffiliateContract(owner).affiliateResolve();\n    }\n  }\n\n  // This method is used for cleaning up the other subcontracts when one goes \"bad\" ie when the seller doesn't\n  // make a new subcontract within the grace period. \n  function affiliateCleanup(address payable bs) public onlyMainContract {\n    require(mainContractExpiration > block.timestamp, \"Main contract expired.\");\n    AffiliateSubcontract badSubcontract = AffiliateSubcontract(bs);\n    require(badSubcontract.gracePeriodExpired(), \"Provided subcontract address does not have gracePeriodExpired flag set to true.\");\n    selfdestruct(affiliate);\n  }\n\n  function sellerResolve(address payable seller) public onlyMainContract {\n    require(mainContractExpiration <= block.timestamp, \"Main contract not yet expired.\");\n    selfdestruct(seller);\n  }\n}",
  "sourcePath": "/home/madsilva/dev/blockchain/blockchain-project/truffle/contracts/affiliate_subcontract.sol",
  "compiler": {
    "name": "solc",
    "version": "0.7.4+commit.3f05b770.Emscripten.clang"
  },
  "schemaVersion": "3.3.2",
  "updatedAt": "2020-11-23T22:58:25.403Z",
  "devdoc": {
    "kind": "dev",
    "methods": {},
    "version": 1
  },
  "userdoc": {
    "kind": "user",
    "methods": {},
    "version": 1
  }
}