{
  "contractName": "AffiliateSubcontract",
  "abi": [
    {
      "inputs": [
        {
          "internalType": "address payable",
          "name": "_affiliate",
          "type": "address"
        },
        {
          "internalType": "uint256",
          "name": "subcontractDuration",
          "type": "uint256"
        },
        {
          "internalType": "uint256",
          "name": "sellerGracePeriodDuration",
          "type": "uint256"
        },
        {
          "internalType": "uint256",
          "name": "_startTime",
          "type": "uint256"
        },
        {
          "internalType": "uint256",
          "name": "_indexNumber",
          "type": "uint256"
        }
      ],
      "stateMutability": "payable",
      "type": "constructor"
    },
    {
      "anonymous": false,
      "inputs": [
        {
          "indexed": false,
          "internalType": "uint256",
          "name": "currentTotal",
          "type": "uint256"
        },
        {
          "indexed": false,
          "internalType": "uint256",
          "name": "id",
          "type": "uint256"
        }
      ],
      "name": "CurrentTotalUpdatedEvent",
      "type": "event"
    },
    {
      "anonymous": false,
      "inputs": [
        {
          "indexed": false,
          "internalType": "uint256",
          "name": "id",
          "type": "uint256"
        }
      ],
      "name": "ReceivedNewRequestIdEvent",
      "type": "event"
    },
    {
      "stateMutability": "payable",
      "type": "fallback"
    },
    {
      "inputs": [],
      "name": "affiliate",
      "outputs": [
        {
          "internalType": "address payable",
          "name": "",
          "type": "address"
        }
      ],
      "stateMutability": "view",
      "type": "function"
    },
    {
      "inputs": [],
      "name": "currentTotal",
      "outputs": [
        {
          "internalType": "uint256",
          "name": "",
          "type": "uint256"
        }
      ],
      "stateMutability": "view",
      "type": "function"
    },
    {
      "inputs": [],
      "name": "expiration",
      "outputs": [
        {
          "internalType": "uint256",
          "name": "",
          "type": "uint256"
        }
      ],
      "stateMutability": "view",
      "type": "function"
    },
    {
      "inputs": [],
      "name": "gracePeriodExpired",
      "outputs": [
        {
          "internalType": "bool",
          "name": "",
          "type": "bool"
        }
      ],
      "stateMutability": "view",
      "type": "function"
    },
    {
      "inputs": [],
      "name": "indexNumber",
      "outputs": [
        {
          "internalType": "uint256",
          "name": "",
          "type": "uint256"
        }
      ],
      "stateMutability": "view",
      "type": "function"
    },
    {
      "inputs": [],
      "name": "nextSubcontract",
      "outputs": [
        {
          "internalType": "address",
          "name": "",
          "type": "address"
        }
      ],
      "stateMutability": "view",
      "type": "function"
    },
    {
      "inputs": [],
      "name": "owner",
      "outputs": [
        {
          "internalType": "address payable",
          "name": "",
          "type": "address"
        }
      ],
      "stateMutability": "view",
      "type": "function"
    },
    {
      "inputs": [],
      "name": "sellerGracePeriodEnd",
      "outputs": [
        {
          "internalType": "uint256",
          "name": "",
          "type": "uint256"
        }
      ],
      "stateMutability": "view",
      "type": "function"
    },
    {
      "inputs": [],
      "name": "startTime",
      "outputs": [
        {
          "internalType": "uint256",
          "name": "",
          "type": "uint256"
        }
      ],
      "stateMutability": "view",
      "type": "function"
    },
    {
      "stateMutability": "payable",
      "type": "receive"
    },
    {
      "inputs": [
        {
          "internalType": "address",
          "name": "next",
          "type": "address"
        }
      ],
      "name": "setNextSubcontract",
      "outputs": [],
      "stateMutability": "nonpayable",
      "type": "function"
    },
    {
      "inputs": [],
      "name": "updateCurrentTotal",
      "outputs": [],
      "stateMutability": "nonpayable",
      "type": "function"
    },
    {
      "inputs": [
        {
          "internalType": "uint256",
          "name": "_currentTotal",
          "type": "uint256"
        },
        {
          "internalType": "uint256",
          "name": "_id",
          "type": "uint256"
        }
      ],
      "name": "callback",
      "outputs": [],
      "stateMutability": "nonpayable",
      "type": "function"
    },
    {
      "inputs": [],
      "name": "affiliateResolve",
      "outputs": [],
      "stateMutability": "nonpayable",
      "type": "function"
    },
    {
      "inputs": [
        {
          "internalType": "address payable",
          "name": "seller",
          "type": "address"
        }
      ],
      "name": "sellerResolve",
      "outputs": [],
      "stateMutability": "nonpayable",
      "type": "function"
    },
    {
      "inputs": [
        {
          "internalType": "address payable",
          "name": "bs",
          "type": "address"
        }
      ],
      "name": "affiliateCleanup",
      "outputs": [],
      "stateMutability": "nonpayable",
      "type": "function"
    }
  ],
  "bytecode": "0x61014060405260008060006101000a81548173ffffffffffffffffffffffffffffffffffffffff021916908373ffffffffffffffffffffffffffffffffffffffff16021790555060008060146101000a81548160ff02191690831515021790555060008060156101000a81548160ff021916908315150217905550604051611b43380380611b43833981810160405260a081101561009c57600080fd5b8101908080519060200190929190805190602001909291908051906020019092919080519060200190929190805190602001909291905050503373ffffffffffffffffffffffffffffffffffffffff1660808173ffffffffffffffffffffffffffffffffffffffff1660601b815250508473ffffffffffffffffffffffffffffffffffffffff1660a08173ffffffffffffffffffffffffffffffffffffffff1660601b8152505083420160c08181525050828442010160e08181525050816101208181525050806101008181525050505050505060805160601c60a05160601c60c05160e051610100516101205161191b61022860003980610782528061162b52508061075e5280610fa55250806107dd52806110b0528061124d52508061044e5280610c875280610d8852806114f8528061152852508061042a52806107015280610be2528061102752806113e6528061160a525080610472528061051752806107b9528061080152806108a652806109d45280610e0552806111a8528061154e525061191b6000f3fe6080604052600436106100ec5760003560e01c806388fd65cc1161008a578063b5d73ba411610059578063b5d73ba41461035e578063c6103843146103a3578063d9d45038146103ba578063ef8e26a31461040b576100f3565b806388fd65cc146102745780638da5cb5b146102a1578063a1b93854146102e2578063ac4448291461030d576100f3565b806356f225e8116100c657806356f225e81461018c578063584215b5146101dd578063672bf6051461021e57806378e9792514610249576100f3565b80633da8bfc9146100f557806345e05f43146101205780634665096d14610161576100f3565b366100f357005b005b34801561010157600080fd5b5061010a610422565b6040518082815260200191505060405180910390f35b34801561012c57600080fd5b50610135610428565b604051808273ffffffffffffffffffffffffffffffffffffffff16815260200191505060405180910390f35b34801561016d57600080fd5b5061017661044c565b6040518082815260200191505060405180910390f35b34801561019857600080fd5b506101db600480360360208110156101af57600080fd5b81019080803573ffffffffffffffffffffffffffffffffffffffff169060200190929190505050610470565b005b3480156101e957600080fd5b506101f2610738565b604051808273ffffffffffffffffffffffffffffffffffffffff16815260200191505060405180910390f35b34801561022a57600080fd5b5061023361075c565b6040518082815260200191505060405180910390f35b34801561025557600080fd5b5061025e610780565b6040518082815260200191505060405180910390f35b34801561028057600080fd5b506102896107a4565b60405180821515815260200191505060405180910390f35b3480156102ad57600080fd5b506102b66107b7565b604051808273ffffffffffffffffffffffffffffffffffffffff16815260200191505060405180910390f35b3480156102ee57600080fd5b506102f76107db565b6040518082815260200191505060405180910390f35b34801561031957600080fd5b5061035c6004803603602081101561033057600080fd5b81019080803573ffffffffffffffffffffffffffffffffffffffff1690602001909291905050506107ff565b005b34801561036a57600080fd5b506103a16004803603604081101561038157600080fd5b8101908080359060200190929190803590602001909291905050506109d2565b005b3480156103af57600080fd5b506103b8610be0565b005b3480156103c657600080fd5b50610409600480360360208110156103dd57600080fd5b81019080803573ffffffffffffffffffffffffffffffffffffffff1690602001909291905050506111a6565b005b34801561041757600080fd5b506104206113e4565b005b60015481565b7f000000000000000000000000000000000000000000000000000000000000000081565b7f000000000000000000000000000000000000000000000000000000000000000081565b7f000000000000000000000000000000000000000000000000000000000000000073ffffffffffffffffffffffffffffffffffffffff163373ffffffffffffffffffffffffffffffffffffffff1614610514576040517f08c379a000000000000000000000000000000000000000000000000000000000815260040180806020018281038252602c81526020018061174a602c913960400191505060405180910390fd5b427f000000000000000000000000000000000000000000000000000000000000000073ffffffffffffffffffffffffffffffffffffffff1663a814001f6040518163ffffffff1660e01b815260040160206040518083038186803b15801561057b57600080fd5b505afa15801561058f573d6000803e3d6000fd5b505050506040513d60208110156105a557600080fd5b810190808051906020019092919050505011610629576040517f08c379a00000000000000000000000000000000000000000000000000000000081526004018080602001828103825260168152602001807f4d61696e20636f6e747261637420657870697265642e0000000000000000000081525060200191505060405180910390fd5b8073ffffffffffffffffffffffffffffffffffffffff166388fd65cc6040518163ffffffff1660e01b815260040160206040518083038186803b15801561066f57600080fd5b505afa158015610683573d6000803e3d6000fd5b505050506040513d602081101561069957600080fd5b81019080805190602001909291905050506106ff576040517f08c379a000000000000000000000000000000000000000000000000000000000815260040180806020018281038252604f8152602001806117dd604f913960600191505060405180910390fd5b7f000000000000000000000000000000000000000000000000000000000000000073ffffffffffffffffffffffffffffffffffffffff16ff5b60008054906101000a900473ffffffffffffffffffffffffffffffffffffffff1681565b7f000000000000000000000000000000000000000000000000000000000000000081565b7f000000000000000000000000000000000000000000000000000000000000000081565b600060159054906101000a900460ff1681565b7f000000000000000000000000000000000000000000000000000000000000000081565b7f000000000000000000000000000000000000000000000000000000000000000081565b7f000000000000000000000000000000000000000000000000000000000000000073ffffffffffffffffffffffffffffffffffffffff163373ffffffffffffffffffffffffffffffffffffffff16146108a3576040517f08c379a000000000000000000000000000000000000000000000000000000000815260040180806020018281038252602c81526020018061174a602c913960400191505060405180910390fd5b427f000000000000000000000000000000000000000000000000000000000000000073ffffffffffffffffffffffffffffffffffffffff1663a814001f6040518163ffffffff1660e01b815260040160206040518083038186803b15801561090a57600080fd5b505afa15801561091e573d6000803e3d6000fd5b505050506040513d602081101561093457600080fd5b810190808051906020019092919050505011156109b9576040517f08c379a000000000000000000000000000000000000000000000000000000000815260040180806020018281038252601e8152602001807f4d61696e20636f6e7472616374206e6f742079657420657870697265642e000081525060200191505060405180910390fd5b8073ffffffffffffffffffffffffffffffffffffffff16ff5b7f000000000000000000000000000000000000000000000000000000000000000073ffffffffffffffffffffffffffffffffffffffff16637dc0d1d06040518163ffffffff1660e01b815260040160206040518083038186803b158015610a3857600080fd5b505afa158015610a4c573d6000803e3d6000fd5b505050506040513d6020811015610a6257600080fd5b810190808051906020019092919050505073ffffffffffffffffffffffffffffffffffffffff163373ffffffffffffffffffffffffffffffffffffffff1614610af6576040517f08c379a00000000000000000000000000000000000000000000000000000000081526004018080602001828103825260258152602001806117b86025913960400191505060405180910390fd5b6003600082815260200190815260200160002060009054906101000a900460ff16610b6c576040517f08c379a00000000000000000000000000000000000000000000000000000000081526004018080602001828103825260278152602001806118bf6027913960400191505060405180910390fd5b81600181905550426002819055506003600082815260200190815260200160002060006101000a81549060ff02191690557fbb982b83e84d8c224d47d0ffbe2ed070a3574bc4babb08180953e2d34b6789a98282604051808381526020018281526020019250505060405180910390a15050565b7f000000000000000000000000000000000000000000000000000000000000000073ffffffffffffffffffffffffffffffffffffffff163373ffffffffffffffffffffffffffffffffffffffff1614610c84576040517f08c379a000000000000000000000000000000000000000000000000000000000815260040180806020018281038252602881526020018061182c6028913960400191505060405180910390fd5b427f00000000000000000000000000000000000000000000000000000000000000001115610d1a576040517f08c379a000000000000000000000000000000000000000000000000000000000815260040180806020018281038252601c8152602001807f537562636f6e7472616374206e6f742079657420657870697265642e0000000081525060200191505060405180910390fd5b60001515600060149054906101000a900460ff16151514610d86576040517f08c379a00000000000000000000000000000000000000000000000000000000081526004018080602001828103825260428152602001806117766042913960600191505060405180910390fd5b7f00000000000000000000000000000000000000000000000000000000000000006002541015610e01576040517f08c379a000000000000000000000000000000000000000000000000000000000815260040180806020018281038252604a815260200180611875604a913960600191505060405180910390fd5b60007f00000000000000000000000000000000000000000000000000000000000000009050428173ffffffffffffffffffffffffffffffffffffffff1663a814001f6040518163ffffffff1660e01b815260040160206040518083038186803b158015610e6d57600080fd5b505afa158015610e81573d6000803e3d6000fd5b505050506040513d6020811015610e9757600080fd5b810190808051906020019092919050505011610f1b576040517f08c379a00000000000000000000000000000000000000000000000000000000081526004018080602001828103825260168152602001807f4d61696e20636f6e747261637420657870697265642e0000000000000000000081525060200191505060405180910390fd5b60008173ffffffffffffffffffffffffffffffffffffffff1663c4b641ab6040518163ffffffff1660e01b815260040160206040518083038186803b158015610f6357600080fd5b505afa158015610f77573d6000803e3d6000fd5b505050506040513d6020811015610f8d57600080fd5b810190808051906020019092919050505090508060017f000000000000000000000000000000000000000000000000000000000000000001148061101e5750600073ffffffffffffffffffffffffffffffffffffffff1660008054906101000a900473ffffffffffffffffffffffffffffffffffffffff1673ffffffffffffffffffffffffffffffffffffffff1614155b156110ad5760007f000000000000000000000000000000000000000000000000000000000000000073ffffffffffffffffffffffffffffffffffffffff166108fc829081150290604051600060405180830381858888f1935050505015801561108b573d6000803e3d6000fd5b506001600060146101000a81548160ff021916908315150217905550506111a2565b427f00000000000000000000000000000000000000000000000000000000000000001115611126576040517f08c379a00000000000000000000000000000000000000000000000000000000081526004018080602001828103825260218152602001806118546021913960400191505060405180910390fd5b6001600060156101000a81548160ff0219169083151502179055508173ffffffffffffffffffffffffffffffffffffffff1663c61038436040518163ffffffff1660e01b8152600401600060405180830381600087803b15801561118957600080fd5b505af115801561119d573d6000803e3d6000fd5b505050505b5050565b7f000000000000000000000000000000000000000000000000000000000000000073ffffffffffffffffffffffffffffffffffffffff163373ffffffffffffffffffffffffffffffffffffffff161461124a576040517f08c379a000000000000000000000000000000000000000000000000000000000815260040180806020018281038252602c81526020018061174a602c913960400191505060405180910390fd5b427f0000000000000000000000000000000000000000000000000000000000000000116112df576040517f08c379a000000000000000000000000000000000000000000000000000000000815260040180806020018281038252601b8152602001807f53656c6c657220677261636520706572696f64207061737365642e000000000081525060200191505060405180910390fd5b600073ffffffffffffffffffffffffffffffffffffffff1660008054906101000a900473ffffffffffffffffffffffffffffffffffffffff1673ffffffffffffffffffffffffffffffffffffffff16146113a1576040517f08c379a000000000000000000000000000000000000000000000000000000000815260040180806020018281038252601d8152602001807f4e65787420737562636f6e747261637420616c7265616479207365742e00000081525060200191505060405180910390fd5b806000806101000a81548173ffffffffffffffffffffffffffffffffffffffff021916908373ffffffffffffffffffffffffffffffffffffffff16021790555050565b7f000000000000000000000000000000000000000000000000000000000000000073ffffffffffffffffffffffffffffffffffffffff163373ffffffffffffffffffffffffffffffffffffffff1614611488576040517f08c379a000000000000000000000000000000000000000000000000000000000815260040180806020018281038252602881526020018061182c6028913960400191505060405180910390fd5b60001515600060149054906101000a900460ff161515146114f4576040517f08c379a00000000000000000000000000000000000000000000000000000000081526004018080602001828103825260428152602001806117766042913960600191505060405180910390fd5b60007f00000000000000000000000000000000000000000000000000000000000000004210156115265742905061154a565b7f000000000000000000000000000000000000000000000000000000000000000090505b60007f000000000000000000000000000000000000000000000000000000000000000073ffffffffffffffffffffffffffffffffffffffff16637dc0d1d06040518163ffffffff1660e01b815260040160206040518083038186803b1580156115b257600080fd5b505afa1580156115c6573d6000803e3d6000fd5b505050506040513d60208110156115dc57600080fd5b810190808051906020019092919050505073ffffffffffffffffffffffffffffffffffffffff16636cd18ce77f00000000000000000000000000000000000000000000000000000000000000007f0000000000000000000000000000000000000000000000000000000000000000856040518463ffffffff1660e01b8152600401808473ffffffffffffffffffffffffffffffffffffffff1681526020018381526020018281526020019350505050602060405180830381600087803b1580156116a557600080fd5b505af11580156116b9573d6000803e3d6000fd5b505050506040513d60208110156116cf57600080fd5b8101908080519060200190929190505050905060016003600083815260200190815260200160002060006101000a81548160ff0219169083151502179055507f3ed150819af981e387450beb90ec379b8b322150dbb299d492b108c59a623e4b816040518082815260200191505060405180910390a1505056fe4f6e6c7920746865206d61696e20636f6e74726163742063616e2063616c6c2074686973206d6574686f642e416666696c6961746520616c72656164792063616c6c6564207265736f6c7665207375636365737366756c6c79206f6e207468697320737562636f6e74726163742e4f6e6c7920746865206f7261636c652063616e2063616c6c2074686973206d6574686f642e50726f766964656420737562636f6e7472616374206164647265737320646f6573206e6f742068617665206772616365506572696f644578706972656420666c61672073657420746f20747275652e4f6e6c792074686520616666696c696174652063616e2063616c6c2074686973206d6574686f642e53656c6c657220677261636520706572696f64206e6f7420796574206f7665722e43757272656e7420746f74616c206973206e6f7420757020746f20646174652c20616666696c69617465206d7573742063616c6c2075706461746543757272656e74546f74616c28292e546869732072657175657374206973206e6f7420696e206d792070656e64696e67206c6973742ea26469706673582212209c489cf343ef4ed0ab7e54771a7cbed87b76f41cf2e82eea23cfd9d3e1e8bf4e64736f6c63430007040033",
  "immutableReferences": {
    "630": [
      {
        "length": 32,
        "start": 1138
      },
      {
        "length": 32,
        "start": 1303
      },
      {
        "length": 32,
        "start": 1977
      },
      {
        "length": 32,
        "start": 2049
      },
      {
        "length": 32,
        "start": 2214
      },
      {
        "length": 32,
        "start": 2516
      },
      {
        "length": 32,
        "start": 3589
      },
      {
        "length": 32,
        "start": 4520
      },
      {
        "length": 32,
        "start": 5454
      }
    ],
    "632": [
      {
        "length": 32,
        "start": 1066
      },
      {
        "length": 32,
        "start": 1793
      },
      {
        "length": 32,
        "start": 3042
      },
      {
        "length": 32,
        "start": 4135
      },
      {
        "length": 32,
        "start": 5094
      },
      {
        "length": 32,
        "start": 5642
      }
    ],
    "634": [
      {
        "length": 32,
        "start": 1102
      },
      {
        "length": 32,
        "start": 3207
      },
      {
        "length": 32,
        "start": 3464
      },
      {
        "length": 32,
        "start": 5368
      },
      {
        "length": 32,
        "start": 5416
      }
    ],
    "636": [
      {
        "length": 32,
        "start": 2013
      },
      {
        "length": 32,
        "start": 4272
      },
      {
        "length": 32,
        "start": 4685
      }
    ],
    "638": [
      {
        "length": 32,
        "start": 1886
      },
      {
        "length": 32,
        "start": 4005
      }
    ],
    "656": [
      {
        "length": 32,
        "start": 1922
      },
      {
        "length": 32,
        "start": 5675
      }
    ]
  },
  "source": "// SPDX-License-Identifier: UNLICENSED\npragma solidity ^0.7.4;\n\nimport \"./AffiliateContract.sol\";\nimport \"./AffiliateOracle.sol\";\n\ncontract AffiliateSubcontract {\n  // The main AffiliateContract that created this contract, which in turn is owned by the business owner.\n  address payable public immutable owner;\n  // The affiliate's personal address.\n  address payable public immutable affiliate;\n\n  // The time this contract expires.\n  uint256 public immutable expiration;\n  // The time the seller's grace period ends. \n  uint256 public immutable sellerGracePeriodEnd;\n\n  // What index this subcontract has in the array in the main contract.\n  uint public immutable indexNumber;\n  // The address of the next subcontract when it gets created.\n  address public nextSubcontract = address(0x0);\n\n  // Flag that is true when the affiliate has successfully called the resolve method and cashed out.\n  bool private affiliateResolved = false;\n  // Flag that is true if the seller allowed the grace period to expire on this subcontract.\n  bool public gracePeriodExpired = false;\n\n  // The most recent value for the total sales for this affiliate for the time this subcontract covers.\n  uint256 public currentTotal;\n  // The timestamp when currentTotal was last updated.\n  uint256 private totalLastUpdated;\n  // The timestamp where this subcontract starts counting sales (i.e., where the last subcontract left off).\n  uint256 public immutable startTime;\n\n  // Used to keep track of async requests to get information from the oracle.\n  mapping(uint256 => bool) myRequests;\n\n  event ReceivedNewRequestIdEvent(uint256 id);\n  event CurrentTotalUpdatedEvent(uint256 currentTotal, uint256 id);\n\n  receive() external payable { }\n  fallback() external payable { }\n\n  constructor(\n    address payable _affiliate,\n    uint256 subcontractDuration,\n    uint256 sellerGracePeriodDuration,\n    uint256 _startTime,\n    uint _indexNumber\n  ) payable {\n    owner = msg.sender;\n    affiliate = _affiliate;\n    expiration = block.timestamp + subcontractDuration;\n    sellerGracePeriodEnd = block.timestamp + subcontractDuration + sellerGracePeriodDuration;\n    startTime = _startTime;\n    indexNumber = _indexNumber;\n  }\n\n  modifier onlyMainContract {\n    require(msg.sender == owner, \"Only the main contract can call this method.\");\n    _;\n  }\n\n  modifier onlyAffiliate {\n    require(msg.sender == affiliate, \"Only the affiliate can call this method.\");\n    _;\n  }\n\n  function setNextSubcontract(address next) public onlyMainContract {\n    require(sellerGracePeriodEnd > block.timestamp, \"Seller grace period passed.\");\n    require(nextSubcontract == address(0x0), \"Next subcontract already set.\");\n    nextSubcontract = next;\n  }\n\n  function updateCurrentTotal() public onlyAffiliate {\n    require(affiliateResolved == false, \"Affiliate already called resolve successfully on this subcontract.\");\n    uint256 endTime;\n    if (block.timestamp < expiration) {\n      endTime = block.timestamp;\n    } else {\n      endTime = expiration;\n    }\n    uint256 id = AffiliateOracle(AffiliateContract(owner).oracle()).getAffiliateTotal(affiliate, startTime, endTime);\n    myRequests[id] = true;\n    emit ReceivedNewRequestIdEvent(id);\n  }\n\n  function callback(uint256 _currentTotal, uint256 _id) public {\n    require(msg.sender == AffiliateContract(owner).oracle(), \"Only the oracle can call this method.\");\n    require(myRequests[_id], \"This request is not in my pending list.\");\n    currentTotal = _currentTotal;\n    totalLastUpdated = block.timestamp;\n    delete myRequests[_id];\n    emit CurrentTotalUpdatedEvent(_currentTotal, _id);\n  }\n\n  function affiliateResolve() public onlyAffiliate {\n    require(expiration <= block.timestamp, \"Subcontract not yet expired.\");\n    require(affiliateResolved == false, \"Affiliate already called resolve successfully on this subcontract.\");\n    require(totalLastUpdated >= expiration, \"Current total is not up to date, affiliate must call updateCurrentTotal().\");\n    AffiliateContract mainContract = AffiliateContract(owner);\n    require(mainContract.contractExpiration() > block.timestamp, \"Main contract expired.\");\n    uint totalSubcontracts = mainContract.totalSubcontracts();\n    // If this is the final subcontract or if the seller has already made the next subcontract, we can cash out now.\n    if ((indexNumber + 1) == totalSubcontracts || nextSubcontract != address(0x0)) {\n      // PLACEHOLDER\n      uint amount = 0;\n      affiliate.transfer(amount);\n      affiliateResolved = true;\n    } else {\n      // Else case - either the grace period isn't over and we're still waiting on the seller, or the seller has allowed it to pass without making the next subcontract.\n      require(sellerGracePeriodEnd <= block.timestamp, \"Seller grace period not yet over.\");\n      gracePeriodExpired = true;\n      mainContract.affiliateResolve();\n    }\n  }\n\n  function sellerResolve(address payable seller) public onlyMainContract {\n    require(AffiliateContract(owner).contractExpiration() <= block.timestamp, \"Main contract not yet expired.\");\n    selfdestruct(seller);\n  }\n\n  // This method is used for cleaning up the other subcontracts when one goes \"bad\" ie when the seller doesn't\n  // make a new subcontract within the grace period. \n  function affiliateCleanup(address payable bs) public onlyMainContract {\n    require(AffiliateContract(owner).contractExpiration() > block.timestamp, \"Main contract expired.\");\n    require(AffiliateSubcontract(bs).gracePeriodExpired(), \"Provided subcontract address does not have gracePeriodExpired flag set to true.\");\n    selfdestruct(affiliate);\n  }\n}",
  "sourcePath": "/home/madsilva/dev/blockchain/blockchain-project/truffle/contracts/AffiliateSubcontract.sol",
  "compiler": {
    "name": "solc",
    "version": "0.7.4+commit.3f05b770.Emscripten.clang"
  },
  "schemaVersion": "3.3.2",
  "updatedAt": "2020-11-25T22:02:51.931Z",
  "devdoc": {
    "kind": "dev",
    "methods": {},
    "version": 1
  },
  "userdoc": {
    "kind": "user",
    "methods": {},
    "version": 1
  }
}