{
  "contractName": "CallerContract",
  "abi": [
    {
      "inputs": [],
      "stateMutability": "nonpayable",
      "type": "constructor"
    },
    {
      "anonymous": false,
      "inputs": [
        {
          "indexed": false,
          "internalType": "uint256",
          "name": "ethPrice",
          "type": "uint256"
        },
        {
          "indexed": false,
          "internalType": "uint256",
          "name": "id",
          "type": "uint256"
        }
      ],
      "name": "PriceUpdatedEvent",
      "type": "event"
    },
    {
      "anonymous": false,
      "inputs": [
        {
          "indexed": false,
          "internalType": "uint256",
          "name": "id",
          "type": "uint256"
        }
      ],
      "name": "ReceivedNewRequestIdEvent",
      "type": "event"
    },
    {
      "anonymous": false,
      "inputs": [
        {
          "indexed": false,
          "internalType": "address",
          "name": "oracleAddress",
          "type": "address"
        }
      ],
      "name": "newOracleAddressEvent",
      "type": "event"
    },
    {
      "inputs": [],
      "name": "owner",
      "outputs": [
        {
          "internalType": "address",
          "name": "",
          "type": "address"
        }
      ],
      "stateMutability": "view",
      "type": "function"
    },
    {
      "inputs": [
        {
          "internalType": "address",
          "name": "_oracleInstanceAddress",
          "type": "address"
        }
      ],
      "name": "setOracleInstanceAddress",
      "outputs": [],
      "stateMutability": "nonpayable",
      "type": "function"
    },
    {
      "inputs": [],
      "name": "updateEthPrice",
      "outputs": [],
      "stateMutability": "nonpayable",
      "type": "function"
    },
    {
      "inputs": [
        {
          "internalType": "uint256",
          "name": "_ethPrice",
          "type": "uint256"
        },
        {
          "internalType": "uint256",
          "name": "_id",
          "type": "uint256"
        }
      ],
      "name": "callback",
      "outputs": [],
      "stateMutability": "nonpayable",
      "type": "function"
    }
  ],
  "bytecode": "0x608060405234801561001057600080fd5b50336000806101000a81548173ffffffffffffffffffffffffffffffffffffffff021916908373ffffffffffffffffffffffffffffffffffffffff16021790555061062f806100606000396000f3fe608060405234801561001057600080fd5b506004361061004c5760003560e01c806323c7e4a2146100515780638da5cb5b1461005b578063b5d73ba41461008f578063e9e17a9e146100c7575b600080fd5b61005961010b565b005b61006361021a565b604051808273ffffffffffffffffffffffffffffffffffffffff16815260200191505060405180910390f35b6100c5600480360360408110156100a557600080fd5b81019080803590602001909291908035906020019092919050505061023e565b005b610109600480360360208110156100dd57600080fd5b81019080803573ffffffffffffffffffffffffffffffffffffffff1690602001909291905050506103c7565b005b6000600260009054906101000a900473ffffffffffffffffffffffffffffffffffffffff1673ffffffffffffffffffffffffffffffffffffffff166330c0b9ec6040518163ffffffff1660e01b8152600401602060405180830381600087803b15801561017757600080fd5b505af115801561018b573d6000803e3d6000fd5b505050506040513d60208110156101a157600080fd5b8101908080519060200190929190505050905060016004600083815260200190815260200160002060006101000a81548160ff0219169083151502179055507f3ed150819af981e387450beb90ec379b8b322150dbb299d492b108c59a623e4b816040518082815260200191505060405180910390a150565b60008054906101000a900473ffffffffffffffffffffffffffffffffffffffff1681565b600360009054906101000a900473ffffffffffffffffffffffffffffffffffffffff1673ffffffffffffffffffffffffffffffffffffffff163373ffffffffffffffffffffffffffffffffffffffff16146102e4576040517f08c379a000000000000000000000000000000000000000000000000000000000815260040180806020018281038252602d8152602001806105a6602d913960400191505060405180910390fd5b6004600082815260200190815260200160002060009054906101000a900460ff1661035a576040517f08c379a00000000000000000000000000000000000000000000000000000000081526004018080602001828103825260278152602001806105d36027913960400191505060405180910390fd5b816001819055506004600082815260200190815260200160002060006101000a81549060ff02191690557f6b69e4f2aedf7e65a79ecaf16e8869b2b99c87e341f2c51286bfd4a7fc3b99698282604051808381526020018281526020019250505060405180910390a15050565b60008054906101000a900473ffffffffffffffffffffffffffffffffffffffff1673ffffffffffffffffffffffffffffffffffffffff163373ffffffffffffffffffffffffffffffffffffffff161461046b576040517f08c379a00000000000000000000000000000000000000000000000000000000081526004018080602001828103825260248152602001806105826024913960400191505060405180910390fd5b80600360006101000a81548173ffffffffffffffffffffffffffffffffffffffff021916908373ffffffffffffffffffffffffffffffffffffffff160217905550600360009054906101000a900473ffffffffffffffffffffffffffffffffffffffff16600260006101000a81548173ffffffffffffffffffffffffffffffffffffffff021916908373ffffffffffffffffffffffffffffffffffffffff1602179055507f441e3b056b114797955165bd03bb8393fc1658a713f09225de4745a8d068bf7d600360009054906101000a900473ffffffffffffffffffffffffffffffffffffffff16604051808273ffffffffffffffffffffffffffffffffffffffff16815260200191505060405180910390a15056fe4f6e6c7920746865206f776e65722063616e2063616c6c2074686973206d6574686f642e596f7520617265206e6f7420617574686f72697a656420746f2063616c6c20746869732066756e6374696f6e2e546869732072657175657374206973206e6f7420696e206d792070656e64696e67206c6973742ea264697066735822122054105962591f89830b557d2d9f3e23d1d77f540a36c021a6783b40dfd7a5e68564736f6c63430007040033",
  "immutableReferences": {},
  "source": "// SPDX-License-Identifier: UNLICENSED\npragma solidity ^0.7.4;\n\nimport \"./EthPriceOracle.sol\";\n\ncontract CallerContract {\n  address public owner;\n  uint256 private ethPrice; \n  EthPriceOracle private oracleInstance;\n  address private oracleAddress;\n  mapping(uint256=>bool) myRequests;\n  event newOracleAddressEvent(address oracleAddress);\n  event ReceivedNewRequestIdEvent(uint256 id);\n  event PriceUpdatedEvent(uint256 ethPrice, uint256 id);\n  \n  constructor() {\n    owner = msg.sender;\n  }\n\n  function setOracleInstanceAddress (address _oracleInstanceAddress) public {\n    require(msg.sender == owner, \"Only the owner can call this method.\");\n    oracleAddress = _oracleInstanceAddress;\n    oracleInstance = EthPriceOracle(oracleAddress);\n    emit newOracleAddressEvent(oracleAddress);\n  }\n\n  function updateEthPrice() public {\n    uint256 id = oracleInstance.getLatestEthPrice();\n    myRequests[id] = true;\n    emit ReceivedNewRequestIdEvent(id);\n  }\n\n  function callback(uint256 _ethPrice, uint256 _id) public onlyOracle {\n    require(myRequests[_id], \"This request is not in my pending list.\");\n    ethPrice = _ethPrice;\n    delete myRequests[_id];\n    emit PriceUpdatedEvent(_ethPrice, _id);\n  }\n\n  modifier onlyOracle() {\n    require(msg.sender == oracleAddress, \"You are not authorized to call this function.\");\n    _;\n  }\n}\n",
  "sourcePath": "/home/madsilva/dev/blockchain/blockchain-project/truffle/contracts/CallerContract.sol",
  "compiler": {
    "name": "solc",
    "version": "0.7.4+commit.3f05b770.Emscripten.clang"
  },
  "schemaVersion": "3.3.2",
  "updatedAt": "2020-11-23T22:58:25.384Z",
  "devdoc": {
    "kind": "dev",
    "methods": {},
    "version": 1
  },
  "userdoc": {
    "kind": "user",
    "methods": {},
    "version": 1
  }
}